:020000040000FA
:06000000020BF6020245AE
:03002B000209D3F4
:0300330002072F92
:030043000208A10F
:0300530002017A2D
:03006B0002070980
:100083000201D9010020FD0002000042100000001F
:1000930000000000000000A21000002A1000000071
:1000A300000000000000000000000000000000004D
:1000B300000000000006FFFF060008B5180000005E
:1000C3000160EA00005357353A2048656C702020E0
:1000D30020202020200098149E140000A414AA14A9
:1000E300000000000000000000000020202020206D
:1000F300202020202020202020202001080401008F
:10010300010002B28202B6820101010400F5180067
:100113000000E8030000FFFFC119E80300006400CA
:100123006400B801A0BB0D00A0BB0D0002020008D3
:1001330000000502070401051E02051E020A0A014A
:1001430002080803B80B02803E0102FEFFE8030A1F
:10015300050001621A010A1401E00101050301010E
:10016300FF0F10FEFFC72A0000000039290000001E
:1001730000FF000000FF00C0E074F11204D4A2AF3E
:10018300E433F509D2AF85A708AFA1EF5508FE7494
:10019300105E6006120DC075A1EF74085E60081250
:1001A3000DC675A1F78024EFA2E092F0E508A2E066
:1001B30082F05017906198E0F8900583E0C398A20D
:1001C300D265D0335002E8F075A1FEE509A2E092B2
:1001D300AF7F02020533C0E074F21204D4A2AFE48D
:1001E30033FED2AF9061A4E0F8759B00E5915854BB
:1001F3000860087591F7120E0E8023E5915854108C
:1002030060087591EF120E148014E591A2E092F04C
:10021300E8A2E082F05007E0C2E0F0120F5E9061C6
:10022300A3E0F8E5E9585404600E120F3475E9FBB6
:10023300906193E0A2E640F2EEA2E092AF7F01026A
:100243000533C0E074F21204D4A2AFE433FED2AF9C
:100253009061A5E0F8E5BF585404600675BFFB1232
:100263000F7680D4C3E498F8E499F91202A88026A3
:10027300C3E49AFAE49BFBE920E7E91202A8E498B5
:10028300F8E499F922C3E498F8E499F91202A8E48E
:1002930098F8E499F9C3E49AFAE49BFB22EB20E78C
:1002A300CFE920E7E0B90010BB0008E88AF084F842
:1002B300AAF022E4FBC8FA22EB70227B10C833C8F1
:1002C300C933C9335007C39AC3DBF280069A50017E
:1002D3002ADBEAC833F4C8C933F4C9FA2275F00833
:1002E300E4C833C8C933C933C99AC99B5004C92A5E
:1002F300C93BD5F0ECFBC833F4C8E4C9FA220808BB
:1003030008EAC0E0EBC0E086F0E7A4FA180986F03B
:10031300E7A42AFA180986F0E7A42AFA180986F04E
:10032300E7A42AFA1986F0E7A4FBE5F02AFA1908EC
:1003330086F0E7A42BFBE5F03AFA190886F0E7A468
:100343002BFBE5F03AFA18180986F0E7A4C5F02B61
:10035300FBE43AFA1908E7C5F0C6A426F6E5F03B34
:10036300FBE43AFA1886F0E7A4F6E5F00826F6E48B
:100373003B08F6E43A08F6D0E0FBD0E0FA2208089E
:1003830008E630E711120AF7120399080808C64471
:1003930080C618181822181818E9799EC608CAC604
:1003A30008CBC608CCC6C370207996CACBCC7019CB
:1003B300798ECBCC70137986CC700EF9802ACA3330
:1003C300CACB33CBCC33CC331930E7F2CCCBCA33E3
:1003D30050147004EA30E00DE4CA3ACACB3BCBCCEC
:1003E3003CCC500209C3E913C6CC182313C6CB185F
:1003F300C6CA18C6F922E4CFC0E0E4CEC0E0E4CD1B
:10040300C0E0E4CCC0E075F020E626F608E633F65B
:1004130008E633F608E633F6181818EC33FCED3328
:10042300FDEE33FEEF33FFC3EC9709ED9709EE972B
:1004330009EF97191919400FFFEC97FC09ED97FD88
:1004430009EE97FE191906D5F0BFECF709EDF70988
:10045300EEF709EFF7191919D0E0FCD0E0FDD0E071
:10046300FED0E0FF222518C582C0E0E51934FFC5A0
:1004730083C0E0E518C3958224F810AF088583197B
:100483008582188008858319858218D2AFCEF0A3A0
:10049300E520F0A37808E608F0A3DEFAEFF0A3E581
:1004A3008124FAF8E608F0A3E608F0A3E608F0A32F
:1004B3000808E608F0A3E608F0A315811581D0E04B
:1004C300FED0E0F8158115811581E8C0E0EEC0E0AB
:1004D30022C0D02518C582C0E0E51934FFC583C00A
:1004E300E0E518C3958224F310AF0885831985824C
:1004F300188008858319858218D2AFC8F0A3E9F064
:10050300A3EAF0A3EBF0A37908E709F0A3D8FAEC88
:10051300F0A3EDF0A3EEF0A3EFF0A3D0E0F0A3D0AF
:10052300E0F0A3D0E0F0A3E520F0A3E5F0F0A322F0
:10053300851983851882E0C0E0A3E0F9A3E0FAA35C
:10054300E0FBA37808E0F608A3DFFAE0FCA3E0FDF4
:10055300A3E0FEA3E0FFA3E0C0E0A3E0C0E0A3E0CC
:10056300F5D0A3E0F520A3E0A3F5F010AF08858351
:10057300198582188008858319858218D2AFD082A5
:10058300D083D0E0F8D0E032120CA6B90003020504
:10059300CAE4900301788D791A8002F0A3D8FCD9BC
:1005A300FA7A8D7B1C90008678F579018015E493A7
:1005B300A3AD82AE838A828B83F0A3AA82AB838DA1
:1005C300828E83D8E9D9E77582967583C87405123C
:1005D300096475823A758327740012096475F010F3
:1005E3008E1A8F1B85821F85831E8518828519832A
:1005F300E0CEA3E0CF851F82851E83EBC9EAC8ED59
:10060300CBECCAC3E833C8E933C9EA33CAEB33CB0B
:10061300C3EA9EF51DEB9FF51CB35004AB1CAA1D4A
:10062300EC33CCED33CDD5F0DAAE1AAF1B22D08349
:10063300D082ECC0E0EDC0E0E493A3FCE493A3FD1F
:10064300ED4C600D12074DEC24FFFCED34FFFD80F3
:10065300EFE493A3FCE493A3FDED4C600D12084C6F
:10066300EC24FFFCED34FFFD80EFD0E0FDD0E0FC97
:10067300E493A3C0E0E493C0E022D083D082E9C036
:10068300E0E493A3C386F0C5F095F0F908E493A3DF
:1006930086F0C5F095F0700BE493A3C3994005E988
:1006A300048002A3E475F002A42582F582E5F03507
:1006B30083F583D0E0F9E493A3C0E0E493C0E022A0
:1006C300851983851882E0A3FEE0A3F5207808E06E
:1006D300A3F608DFFAE0A3FFE0A3C0E0E0A3C0E0D5
:1006E300E0A3C0E0E0A3C0E0E0A3C0E010AF088552
:1006F30082188583198008858218858319D2AFD023
:1007030083D08202096AC0E074F21204D4A2AFE477
:1007130033FED2AFE589A2E1500312267475890036
:10072300C2C5EEA2E092AF7F01020533C0E074F2CE
:100733001204D4A2AFE433FED2AFE58BA2E05003A0
:10074300122674758B00C2E880D8C0E0C3E4939688
:10075300087401939618400FE493667008087401B7
:1007630093661870007019A3A3C3E49396087401E9
:10077300939618A3A3400DD0E0D0E0D0E002066D1D
:10078300A3A3A3A3A3A3D0E022D083D082C5F0E484
:1007930093A3C5F0C395F0F5F0E493A3C395F0409C
:1007A30005E5F0048001E475F002A42582F582E5F5
:1007B300F03583F583E493A3C0E0E493C0E02274AF
:1007C30004800474028000CCC0E0EDC0E0E518C3EF
:1007D3009CCCAD1950011D10AF068C188D198006E5
:1007E3008C188D19D2AF1208E6D0E0FDD0E0FC22C0
:1007F30074028000CCC0E0EDC0E0E518C39CCCAD32
:100803001950011D10AF068C188D1980068C188D98
:1008130019D2AF1208C4D0E0FDD0E0FC22120C06BE
:100823006025120C156020120CC47003020CBB0867
:100833000808E76670101819E766700A1819E76662
:1008430070041819E76622F422C0E0C0F088F0E4CF
:10085300936670080874019366187000A8F0A3A348
:10086300700BD0F0D0E0D0E0D0E002066DA3A3D0AF
:10087300F0D0E022D083D082CCC0E0E493A3600622
:100883001209261470FAE493A36006120A50147036
:10089300FAD0E0FCE493A3C0E0E493C0E022C0E01C
:1008A30074F21204D4A2AFE433FED2AFC2C0E5D1D6
:1008B300A2E45003120D30EEA2E092AF7F010205D5
:1008C30033CAC0E0E493A3C582CCC582C583CDC53A
:1008D30083F0A3C582CCC582C583CDC583DAE5D0B9
:1008E300E0CA22CAC0E0E0A3C582CCC582C583CDDD
:1008F300C583F0A3C582CCC582C583CDC583DAE6A3
:10090300D0E0CA227009080808226016181818C611
:10091300C333C608C633C608C633C608C633C6D5EE
:10092300E0EA22C0E0E493A3D39C5010E493A3C372
:100933009C400AD0E0D0E0D0E0020894A3A3A3D067
:10094300E022C008C3E096F50808A3E09642080831
:10095300A3E096420808A3E09645087001D3D008A7
:1009630022C09FF59FE473D09F22D083D082C09F83
:10097300E493C0E0740193C0E0740293F59F227482
:1009830004800A74038006740280027401C0E0F4D8
:10099300041209B8D0E0120C512200C0D02518105F
:1009A300AF08F518500C05198008F5185002051901
:1009B300D2AFD0D0222518F58210AF08F518400C1D
:1009C30015198008F51840021519D2AF851983222D
:1009D300C0E0C0D0E8C0E0A8A8D2AFC2C7E8A2E791
:1009E30092AFD0E0F8D0D0D0E032BB0102E722C012
:1009F30082C08389828A83BB0003E08002E493D0B0
:100A030083D082226016080808C6C313C618C6130B
:100A1300C618C613C618C613C6D5E0EA222518F8A9
:100A2300E43519F9222518FAE43519FB222518FCB7
:100A3300E43519FD22C3E0C696F608A3E0C696F690
:100A430008A3E0C696F608A3E0C696F622C0E0E443
:100A530093A36C7009D0E0D0E0D0E0020894A3A384
:100A6300D0E022251810AF08F518400C151980089E
:100A7300F51840021519D2AF22C3E09608A3E096F9
:100A830008A3E09608A3E096A2D265D03322E066DD
:100A9300701008A3E066700A08A3E066700408A358
:100AA300E06622E76670100809E766700A0809E73E
:100AB3006670040809E76622C3E096F008A3E0968F
:100AC300F008A3E096F008A3E096F022C3E493961F
:100AD30008740193960874029396087403939622FC
:100AE300C3E697F60809E697F60809E697F60809B4
:100AF300E697F622181818E4C396F608E496F60863
:100B0300E496F608E496F622E026F008A3E036F031
:100B130008A3E036F008A3E036F022E657F608090A
:100B2300E657F60809E657F60809E657F622E056AF
:100B3300F608A3E056F608A3E056F608A3E056F637
:100B430022E056F008A3E056F008A3E056F008A30D
:100B5300E056F022E647F60809E647F60809E647B5
:100B6300F60809E647F622E627F60809E637F60807
:100B730009E637F60809E637F622700422600D18F5
:100B8300C6C333C608C633C6D5E0F41822E493F6C9
:100B930008740193F608740293F608740393F6221B
:100BA300E026F608A3E036F608A3E036F608A3E04D
:100BB30036F622600D08C6A2E713C618C613C6D5BB
:100BC300E0F322C6F4C608C6F4C608C6F4C608C6CF
:100BD300F4C622C3E7960809E7960809E7960809C9
:100BE300E79622C3E09608A3E09608A3E09608A33D
:100BF300E0962275D00075813F75180175190300C1
:100C030002058BE6084608C3134608336002E63341
:100C1300F422E7094709C3134709336002E733F4B2
:100C230022600C08C6C313C618C613C6D5E0F42247
:100C3300E6F008A3E6F008A3E6F008A3E6F022E056
:100C4300F608A3E0F608A3E0F608A3E0F622CAC07C
:100C5300E0E6F0A308DAFAD0E0FA22E0FCA3E0FD34
:100C6300A3E0FEA3E0FF22EAF0A3EBF0A3ECF0A3E2
:100C7300EDF022E0FAA3E0FBA3E0FCA3E0FD22E811
:100C8300F0A3E9F0A3EAF0A3EBF022ECF0A3EDF07C
:100C9300A3EEF0A3EFF022E0F8A3E0F9A3E0FAA3B8
:100CA300E0FB22E5C754F84401F5C7790122251872
:100CB300F582E43519F58322E727194719471947C0
:100CC30022E62618461846184622C2AF75D69F025A
:100CD30000002212096D5BB20512096D7CB2051288
:100CE300096DCDB20512096DCFBE0512096DDDBECA
:100CF3000512096D56BF0512096D2BC00512096D4A
:100D0300FDC10512096DC9E60512096DE1900512D1
:100D1300096D4E910512096D06920512096D7C92BB
:100D23000512096D96930512096D26950512096D35
:100D33008F950512096DDE950512096DE79505126C
:100D4300096DF6950512096D0C960512096D1F962E
:100D53000512096D28960512096D3B960512096D5A
:100D630067960512096DFE980512096D3E990512E5
:100D7300096D7A990512096D8E990512096DA79966
:100D83000512096D989A0512096D4A9B0512096DA2
:100D93005E9B0512096DFCDA0512096D20DB051255
:100DA300096D39DB0512096D77DB0512096DA7DBC8
:100DB3000512096DD4DB0512096D3ADC0512096DC4
:100DC3003DDC0512096D47DC0512096D54DC051283
:100DD300096DFEC50512096D1EC60512096D5DC6B6
:100DE3000512096D7BC60512096D96C60512096DBC
:100DF300FCC60512096D08C70512096D65C7051202
:100E0300096D89C70512096D4AC80512096D57C8CE
:100E13000512096D68C80512096D76FF0412096D84
:100E23008EFF0412096DBAFF0412096DD1A50512D4
:100E3300096D2BA70512096D39A70512096D4CA77A
:100E43000512096D61A70512096D76A70512096DD3
:100E530089A70512096D05A80512096D6AA805126F
:100E6300096D00A90512096DD9A90512096DE9A932
:100E73000512096DF8A90512096D1CE50512096D26
:100E830040E50512096D68E50512096D90E5051247
:100E9300096D45D20512096D6CD20512096D8AD20E
:100EA3000512096DF9D20512096DE87C0012096D6E
:100EB300017D0012096D0D7D0012096D217D001267
:100EC300096D3F7D0012096D497D0012096D537D47
:100ED3000012096D667D0012096DEC7D0012096D2B
:100EE300617E0012096D907E0012096DDE7E001294
:100EF300096D2D7F0012096D487F0012096D527F25
:100F03000012096D637F0012096DA67F0012096D3F
:100F13007EE60512096D00800512096D2C8005120D
:100F2300096D49800512096D5C800512096D778092
:100F33000512096DD1800512096DFF800512096D37
:100F43000F850512096D6D860512096D9F860512C1
:100F5300096D02870512096D78880512096DA0884D
:100F63000512096DB5880512096DC5880512096D4D
:100F730005890512096D47890512096D57890512FF
:100F8300096D2CE00512096D46E00512096D6EE04E
:100F93000512096D87E00512096DABE00512096DB5
:100FA300C9E00512096DE0E00512096D0EE10512B5
:100FB300096D29E10512096DB17F0012096D62C245
:100FC3000512096D72C20512096D79C30512096D07
:100FD300ADC30512096DCFC30512096DF2C3051226
:100FE300096D10C40512096D4AC40512096DAFC419
:100FF3000512096DF1C40512096D38C50512096D95
:1010030065C50512096D9CC50512096DA9DD05129B
:10101300096DC4DD0512096D26DE0512096DC0DEFA
:101023000512096D61E30512096DD5FE0112096D03
:101033001DFF0112096DDED70512096D1ED90512B8
:10104300096D85E00412096D71E40412096D66E609
:101053000412096D98E70412096D71E80412096D11
:1010630008EA0412096DD4EA0412096D28EB04128C
:10107300096D6AD40512096D8BD40512096DBED5AD
:101083000512096DE8D50512096D2BCB0512096D03
:10109300A0CB0512096DABCB0512096DCCCB0512A4
:1010A300096DCFF10312096D62F60312096DC4F7DE
:1010B3000312096D9BF90312096D24FA0312096DDA
:1010C300BBFA0312096D7AFB0312096D6EFC03125E
:1010D300096D86FD0312096DB5FE0312096DBDCDC1
:1010E3000512096DDDCD0512096DF0CE0512096DEE
:1010F300D9CF0512096D5EDC0512096D94DC05126A
:10110300096DB0DC0512096DF2DC0512096D02DD13
:101113000512096D9CDD0512096DA6DD0512096D29
:10112300C6F50412096DD0F50412096D0AF604120E
:10113300096D73F60412096D92F60412096DABF68C
:101143000412096D4DF70412096DD5F90412096DE6
:10115300DEF90412096D2FFA0412096D58FA04120C
:10116300096D65FA0412096DD6FA0412096D64FB60
:101173000412096DB2FB0412096DE8FB0412096D38
:1011830049FC0412096D72FC0412096DE9FC041296
:10119300096D45FD0412096D82FD0412096DB9FD47
:1011A3000412096DCBFD0412096DDDFD0412096DF6
:1011B300FCFD0412096D05FE0412096DC0FE041244
:1011C300096D0CFF0412096D4AFF0412096D9AA000
:1011D3000512096DDAA10512096DFDA10512096D4C
:1011E3000EA20512096D2DA40512096D4DA4051259
:1011F300096D07D00512096D3DD00512096D85D023
:101203000512096DDED10512096D6EAE0412096D6A
:101213009FAF0412096DDBAF0412096D95B104127F
:10122300096DBFB10412096D38B40412096D78B4A5
:101233000412096D0CB60412096DABB60412096DE4
:1012430003B70412096D96B70412096DD0B70412DF
:10125300096D12B80412096D85B90412096D05BB35
:101263000412096D42BD0412096D70BD0412096DAB
:101273009CBD0412096DA5BD0412096DFBBD0412CA
:10128300096D8BBE0412096DC9C10412096D4BC2ED
:101293000412096D8DE70512096DA3E70512096DA7
:1012A30021E60512096D02B30512096D18B3051283
:1012B300096DBCB30512096DFBB30512096D18B4B2
:1012C3000512096D49B40512096D96B40512096D2D
:1012D300CAB40512096D05B50512096DFAB60512F2
:1012E300096D61E20512096DC0E20512096DFEE2A6
:1012F3000512096D3FE30512096D00800412096DA3
:101303000C800412096D6E800412096D788004123A
:10131300096D05810412096D41810412096DFD8176
:101323000412096D0A820412096D6E820412096D9A
:10133300B7820412096D88830412096D03840412B1
:10134300096DC2850412096DF5870412096D5B8965
:101353000412096DBC8A0412096D488B0412096DCD
:10136300948C0412096D978D0412096DF18E041289
:10137300096DBB930412096DB2940412096D36957D
:101383000412096D5B950412096D80950412096DB1
:1013930019960412096D37960412096D9D9604126D
:1013A300096DB9960412096DE9960412096DFB974C
:1013B3000412096DCE980412096D4B9A0412096D3B
:1013C3006C9A0412096DEF9A0412096D959B04122D
:1013D300096DDC9B0412096D549C0412096DB19CC8
:1013E3000412096D3C9D0412096D949E0412096D4B
:1013F30004A00412096D96A00412096DFCA0041246
:10140300096D0DA30412096DB2A40412096DC7A4DA
:101413000412096DFFA40412096D6CA50412096D71
:10142300B0A50412096D21A60412096DC7A6041202
:10143300096DB4A80412096D83A90412096D95AA54
:101443000412096D43AC0412096D36D60512096DF9
:10145300D2D60512096DF3D60512096DEBDE05121E
:10146300096D2FDF0512096D7ADF0512096DCBF0C7
:101473000112096D5BF10112096DD7F20112096DB9
:1014830061F30112096D82F40112096D95F50112E0
:10149300096DF9F50112096D36F60112096D76F63B
:1014A3000112096D8EF60112096D91F60112096D93
:1014B300D3F60112096D0CF90112096D31F901120C
:1014C300096DE5F90112096DFCFC0112096D97D74D
:1014D3000212096DEFD70212096D7FD80212096D4E
:1014E300F8D90212096DD8DA0212096DC6DB0212AD
:1014F300096DDDDB0212096D2FDC0212096DA3DC1D
:101503000212096DEFDC0212096D02DD0212096D90
:101513005BDD0212096D73DD0212096D36E0021202
:10152300096DCCE00212096D03E10212096D4CE171
:101533000212096D4EE30212096D9EE30212096D58
:1015430078E40212096DB1E40212096DD0E40212CB
:10155300096D1BE50212096D3BE50212096DF2E507
:101563000212096DEDE60212096D48E70212096DD8
:1015730088E70212096D71E80212096DE9EA0212A5
:10158300096D1CEB0212096DBEEB0212096DE3EB50
:101593000212096D67EC0212096D46ED0212096D24
:1015A30084ED0212096DE8ED0212096DA6EE021236
:1015B300096DA9EE0212096DB3EE0212096DBDEEBB
:1015C3000212096DD9EE0212096D55EF0212096D6F
:1015D3008EEF0212096DAAEF0212096DD6EF021205
:1015E300096DFDEF0212096D21F00212096D5CF025
:1015F3000212096DCFF00212096D03F10212096D97
:1016030044F10212096D79F10212096D99F1021286
:10161300096DD6F10212096D0DF20212096D10F374
:101623000212096D48F40212096D67F40212096D82
:10163300A5FF0312096DBDFF0312096D729B05120D
:10164300096DB09B0512096D499C0512096D549DE6
:101653000512096D9C9F0512096D19A00512096DEC
:1016630087890512096DD6890512096D948B0512B8
:10167300096D4E8D0512096D8C8D0512096DB98E9C
:101683000512096DC48F0512096DE68F0512096DE8
:1016930030900512096DB1900512096DCA670012E9
:1016A300096DED670012096DFB680012096D44694D
:1016B3000012096DA4690012096D006A0012096D18
:1016C300516A0012096DC76A0012096D4C6B001252
:1016D300096DC46B0012096D076C0012096D30703F
:1016E3000012096D81720012096D1C730012096DDD
:1016F30080730012096DA5730012096D62750012E3
:10170300096D89770012096D68780012096DEC780C
:101713000012096D187A0012096D477B0012096DDA
:10172300867B0012096D3A7C0012096DA8C204126F
:10173300096D48C30412096DB4C30412096D69C469
:101743000412096DC8C40412096D76C50412096D2B
:1017530031C80412096D53C90412096DDCC904129E
:10176300096DBFCB0412096D63CC0412096DD2CC91
:101773000412096D4ACE0412096DB3CF0412096D28
:10178300C2D00412096D4FD10412096D66D204123E
:10179300096D70D60312096DDBD60312096D23D7C9
:1017A3000312096D67D70312096DC2D70312096DBE
:1017B3001FD80312096D5AD80312096DDED803121C
:1017C300096D38D90312096DA7DA0312096D1FDBFE
:1017D3000312096D37DC0312096D5FDC0312096D17
:1017E3006BDD0312096D7CDD0312096D94DD0312B9
:1017F300096DBDDE0312096DE0DE0312096DB9DF69
:101803000312096DDDDF0312096DF4DF0312096DA5
:1018130018E00312096D3AE00312096D14E1031293
:10182300096D6EE10312096DE8E20312096D44E3E9
:101833000312096D5BE30312096D89E30312096D5A
:10184300DBE40312096D5AE50312096D91E50312F6
:10185300096DCBE50312096D37E60312096DF6E650
:101863000312096DD4E80312096DD4E90312096D5B
:10187300DFEA0312096DF1EB0312096D19ED03128F
:10188300096D27ED0312096D2CEE0312096DCEEEDF
:101893000312096D14EF0312096D29EF0312096D89
:1018A30031F00312096DD2F00312096D2EF1031208
:1018B300096DF5BA0512096DB0BC0512096D6FBD4E
:1018C3000512096DC4BD0512096D4ABE0512096DE5
:1018D30007B70512096D25B70512096D69B705121A
:1018E300096D8FB70512096DB6B70512096DCEB72D
:1018F3000512096DE6B70512096DFEB70512096DEC
:10190300A0B80512096DE2B80512096DF7B8051202
:10191300096D19BA0512096D22BA0512096D2BBAA0
:101923000512096D34BA0512096D75D90512096DD1
:1019330029AA0512096D1DAE0512096D2BAE0512FC
:10194300096D30AE0512096DB8C90512096D38E786
:101953000512096D01E70512096D64E70512096DAA
:10196300ADE70512096D00800212096D578002125E
:10197300096DC3800212096D4F810212096D058240
:101983000212096D4D820212096D66820212096DFF
:1019930089820212096DAB820212096D46B20512E9
:1019A300096D38830212096D63830212096DC183C5
:1019B3000212096D68840212096D10850212096D05
:1019C3008C850212096D59860212096DA0860212D6
:1019D300096DEC860212096D74870212096DAD87D9
:1019E3000212096D03880212096D1F880212096D24
:1019F3004E880212096D5A8A0212096D888B0212EF
:101A0300096DB48B0212096DE88B0212096D098C02
:101A13000212096D188C0212096D238C0212096DD2
:101A2300D28C0212096D428D0212096DCD8D021204
:101A3300096DD58D0212096D428E0212096D7E8EDB
:101A43000212096D448F0212096D17900212096D7B
:101A53006C900212096D0B910212096D65910212CD
:101A6300096DAA910212096D43940212096D8695BC
:101A73000212096D70980212096D54990212096DD0
:101A8300389A0212096D499A0212096DBB9A021221
:101A9300096D529B0212096DB79B0212096DA79C37
:101AA3000212096DCC9C0212096DEA9C0212096DA7
:101AB300069D0212096D799D0212096D769E02122E
:101AC300096D839E0212096D8C9E0212096D6EA030
:101AD3000212096D90A10212096DA0A10212096DF3
:101AE300CEA20212096D4DA30212096D68A402125F
:101AF300096DA4A40212096D7EA60212096D3BAA08
:101B03000212096D4FAA0212096D59AA0212096D38
:101B130063AA0212096D6DAA0212096D86AA021246
:101B2300096D90AA0212096DFDAA0212096D08AB94
:101B33000212096D30AB0212096D3BAB0212096D43
:101B4300A0AB0212096DABAB0212096DCFAB02124F
:101B5300096DF3AB0212096D65AC0212096DAEACEF
:101B63000212096DCAAC0212096D3BAD0212096D76
:101B730087AD0212096DD0AD0212096D0EAE0212CD
:101B8300096D8FAE0212096D36AF0212096D05B1F0
:101B93000212096D6AB10212096D98B20212096D3F
:101BA300BEB20212096D06B40212096D40B70212E9
:101BB300096D3EB90212096D09BB0212096DA2BB80
:101BC3000212096DA3BD0212096D58BE0212096DFE
:101BD30091BE0212096DF7BE0212096D01BF021216
:101BE300096D2AC10212096D69C20212096DC0C2D0
:101BF3000212096D6BC30212096D1BC50212096D36
:101C030068C60212096D88C60212096DDDC602128A
:101C1300096DDEC70212096D06C80212096D65C897
:101C23000212096D5DC90212096DD4C90212096D50
:101C3300E7CA0212096D55CB0212096D54CC021288
:101C4300096DAECE0212096DD7CE0212096D3DD0D9
:101C53000212096DBFD10212096D16D20212096D6B
:101C6300C4D20212096D69D30212096DC2D30212E2
:101C7300096D80D40212096D12D50212096D71D556
:101C83000212096DB3D50212096DE4D50212096D72
:101C93003BD70212096D00800312096D32800312D3
:101CA300096D6B800312096D29820312096DFF828E
:101CB3000312096D5E830312096D74840312096DA7
:101CC300C0840312096D4E870312096D288A03121B
:101CD300096D6F8B0312096D078C0312096D138C49
:101CE3000312096D5C8C0312096D9E8D0312096D3D
:101CF300948E0312096DBE8E0312096D148F0312A5
:101D0300096D6D8F0312096DE08F0312096D169231
:101D13000312096D98930312096D83940312096DDD
:101D2300CD950312096D05980312096D029B0312E9
:101D3300096D119B0312096DA59B0312096D509C3C
:101D43000312096D939C0312096DFB9C0312096D29
:101D5300179D0312096D469D0312096D859D03129C
:101D6300096D809E0312096D2F9F0312096DACA1AB
:101D73000312096DDEA20312096DB6A30312096DE6
:101D830038A40312096D6DA80312096D9CA80312F0
:101D9300096DF7A80312096D2AA90312096DA2A9F7
:101DA3000312096DD5A90312096D36AA0312096D31
:101DB30086AA0312096D53AB0312096D0CAC03120F
:101DC300096DD0AC0312096D4AAF0312096DACB0B3
:101DD3000312096DFDB10312096D21B30312096DDD
:101DE30024B30312096D53B30312096D4BB50312E8
:101DF300096D0AB60312096D39B60312096D57B797
:101E03000312096D1FB80312096DDDB90312096DC1
:101E13000FBA0312096D51BA0312096D50BB0312B5
:101E2300096DC3BB0312096DECBD0312096D4BBEF3
:101E33000312096D9FBE0312096DCEC00312096D13
:101E4300B1C10312096D39C20312096D27C303120D
:101E5300096D3BC30312096D4FC30312096D7CC3A4
:101E63000312096DACC30312096D67C50312096D33
:101E730079C60312096DCEC60312096D17C7031283
:101E8300096D3EC70312096D06C80312096DACC87C
:101E93000312096D32CA0312096D79CA0312096D5F
:101EA300EBCA0312096D40CC0312096DE9CC03128E
:101EB300096D1DCD0312096D35CD0312096DD8CD02
:101EC3000312096D54D00312096DFCD10312096D7D
:101ED3001AD20312096D38D20312096D04D3031207
:101EE300096D52D60312096D11830112096D4983DD
:101EF3000112096D3D880112096D89880112096D6E
:101F0300CF880112096D058A0112096D6A8A0112CF
:101F1300096DDF8B0112096DE98E0112096D1290B3
:101F23000112096D259A0112096DB59A0112096D05
:101F33009F9D0112096DAC9E0112096D0F9F011245
:101F4300096D57A00112096DC5A20112096D57A4AD
:101F53000112096DE4A40112096D03A60112096DB2
:101F630090A60112096D9AA60112096DC2A601126B
:101F7300096D62A70112096D4DA80112096D1AA915
:101F83000112096D37A90112096D60A90112096DCA
:101F93008DA90112096DD4AB0112096DA3AC011215
:101FA300096DE2AC0112096D64AD0112096D05AE54
:101FB3000112096D37AE0112096D7EAE0112096D72
:101FC300B1AE0112096DF5AE0112096D44AF0112F4
:101FD300096D49AF0112096DA5AF0112096DE9AF92
:101FE3000112096DC3B00112096D28B10112096D07
:101FF3008EB10112096D09B20112096D71B5011299
:10200300096D74B60112096DF2B70112096D08BBAF
:102013000112096DAABB0112096DF3BD0112096D0D
:10202300AEBE0112096DEDBE0112096DC5C00112EC
:10203300096DE2C00112096DEBC00112096DF4C014
:102043000112096DFFC00112096D1EC10112096D54
:10205300C2C20112096D1FC30112096D29C3011206
:10206300096D33C30112096D92C30112096DDCC3FB
:102073000112096DDDC40112096D34C50112096D28
:1020830045C60112096D8EC60112096D48C70112BA
:10209300096D5FC80112096D34C90112096D7BCA4C
:1020A3000112096D7FCB0112096D78CC0112096D04
:1020B30090CC0112096DC7CC0112096DD1CC01126C
:1020C300096DDCCC0112096DFACC0112096D42CD08
:1020D3000112096DA0CD0112096DC7CD0112096D61
:1020E300D9CD0112096D8ECE0112096DC7CE011231
:1020F300096DE9CF0112096D3CD00112096D22D19E
:102103000112096D49D10112096DB9D10112096D8D
:1021130035D20112096D91D30112096DB8D40112A0
:10212300096D7AD50112096D48D60112096D06D7DA
:102133000112096DEED70112096D98D80112096DCC
:1021430000D90112096DB5D90112096D11DA011215
:10215300096D69DA0112096D2FDB0112096D52DB7A
:102163000112096D0DDC0112096D2FDC0112096DDD
:1021730090DC0112096DC0DE0112096DB9DF011295
:10218300096D65E00112096D86E20112096DCFE266
:102193000112096D1AE30112096D76E30112096D4B
:1021A300D4E30112096DF8E30112096D1CE4011275
:1021B300096D51E40112096D79E40112096DBEE460
:1021C3000112096D12E50112096D6BE50112096D2A
:1021D30065E60112096D03E80112096D48E8011271
:1021E300096D71E80112096DFAE80112096D6DE9D3
:1021F3000112096D7BE90112096D9FE90112096D55
:10220300F5E90112096D10EA0112096DCBEA011219
:10221300096DF7EA0112096D3AEB0112096D9DEBA5
:102223000112096DABED0112096DD7ED0112096DB4
:1022330092EE0112096D76EF0112096D0AF0011297
:10224300096D46EB0412096D7EEB0412096D9FEBD9
:102253000412096DE1EB0412096D45EC0412096DDA
:102263004FEC0412096D5FEC0412096D96EC041235
:10227300096D3FF00412096D07F20412096DEBF3C7
:102283000412096D8DF40412096D17F50412096D1A
:10229300082E0012096DB12E0012096D902F001245
:1022A300096D9C300012096DBC300012096DDE31DE
:1022B3000012096D8E330012096DFB330012096D94
:1022C300CC340012096DD2350012096D4A36001262
:1022D300096D85360012096DDE360012096D193756
:1022E3000012096D62370012096DF6370012096D8D
:1022F3008C380012096D61390012096D343A0012ED
:10230300096DC23A0012096DE83A0012096D153BD6
:102313000012096D463B0012096D133C0012096D52
:10232300233C0012096D763C0012096D833C0012B8
:10233300096D903C0012096D993C0012096DFD3C3A
:102343000012096D5B3D0012096DA63D0012096D77
:10235300C13D0012096DE83D0012096D053E0012F2
:10236300096D113E0012096DA23F0012096DBB3FBA
:102373000012096D37400012096D4A400012096DC1
:102383005A400012096DFE400012096D6A420012A4
:10239300096D7D430012096D1D440012096D274428
:1023A3000012096DA6440012096DB7440012096DAD
:1023B300F6440012096D24450012096DF14500121F
:1023C300096D48460012096D81460012096DD74612
:1023D3000012096DF5460012096D43470012096D9D
:1023E3000E480012096D5C480012096DA9480012DD
:1023F300096D2C490012096D56490012096D8C496B
:102403000012096D9B490012096DFA490012096D0A
:10241300724A0012096DB34A0012096D034B001290
:10242300096D2E4B0012096D484B0012096D624B6A
:102433000012096D374C0012096D414C0012096DF1
:102443007C4C0012096D8C4C0012096D954C0012E6
:10245300096DE64C0012096DFA4C0012096D1C4E11
:102463000012096D314E0012096DC44E0012096D40
:10247300384F0012096DDD4F0012096DE84F00124D
:10248300096D4B510012096D67510012096DB3516B
:102493000012096D21520012096D53520012096D89
:1024A3006D520012096DCD520012096D6C5300126A
:1024B300096DB7530012096D0A560012096DA25631
:1024C3000012096D19570012096D76590012096D32
:1024D3008E590012096D91590012096D9D59001210
:1024E300096DB1590012096DB9590012096DF059FE
:1024F3000012096DE45A0012096D6E5B0012096D3A
:10250300F05B0012096D705C0012096D475D0012EB
:10251300096D695D0012096D025E0012096D5F5E4F
:102523000012096D625E0012096DD15E0012096D21
:102533001D600012096D30610012096DBB6100124C
:10254300096DCE620012096D95630012096DC663B1
:102553000012096DEC630012096DF5630012096D39
:1025630024640012096DD4640012096D846500129D
:10257300096DF7650012096D9A660012096D0D6702
:102583000012096D4C670012096D95670012096D01
:1025930048E20512096DE0E10512096D5CE10512DF
:1025A300096DF5FF0212096D8DFF0212096D72FFAD
:1025B3000212096D62FF0212096DCBE70512096D64
:1025C300F57F0012096D2EB20512096D1BB20512BB
:1025D300096D04B20512096DEAB10512096DFBE438
:1025E3000512096D5DE40512096D4CE40512096DD0
:1025F300B5E50512096DABDF0412096DCFDE0412D8
:10260300096DEDDD0412096D4CDC0412096D0BDC60
:102613000412096DE2DB0412096D96DB0412096DE5
:1026230005DB0412096D75DA0412096D53DA04121D
:10263300096DFBD90412096DB7D90412096D44D988
:102643000412096D76B10512096DDFD80412096D04
:102653008AB00512096D15B00512096DFBAF05129D
:10266300096DC3AF0512096DACAE0512096D97AEC6
:102673000512096DBDDA0512096D64DA0512096DDB
:102683008ED80412096DB5D70412096D25D704122B
:10269300096DD9D60412096D1CDA0512096D54D6D9
:1026A3000412096D0FD60412096DF3D50412096DD6
:1026B30092D40412096DFDD90512096D64D4041274
:1026C300096DE9820212096D31D40412096DB5D383
:1026D3000412096D17FF0212096DB5FE0212096D8E
:1026E30080FE0212096D4DFE0212096D25FE0212D3
:1026F300096DBBFD0212096D9DFD0212096D6EFD90
:102703000212096D35FA0212096D22F80212096DDF
:1027130025F60212096DA5F50212096D53F5021291
:10272300096D97D90512096D07F50212096D9AF41F
:102733000212096D3EBA0500000080FBE4738700B6
:1027430001005F1D35000400241D25000200281D23
:10275300260002002A1D270002002C1D280001006C
:10276300361D29000100371D84000400381D860032
:1027730001003C1D2A0001003D1D2B0001003E1DF0
:102783002C000100421D2D000800431A2E000100F9
:10279300431D2F000100441D30000100451D310081
:1027A3000100461D320001004B1A330001004C1A90
:1027B30034000100471D360001004D1A38000100A6
:1027C300481D39000100411D830002005D1D6300A7
:1027D3000100591A640001003F1D65000100401DFE
:1027E3006D0001005A1A710008003B1A66000100CF
:1027F3005C1D430001004D1D440002004E1D4500B9
:102803000100501D46000200511D47000800511AE7
:1028130048000100531D4B000100541D040001003A
:10282300601DA1000100631D37000100621D8800C7
:102833000100611D3C0001004E1A3D000100491DCD
:1028430049000200551D670001005B1A4D0002009C
:10285300571D4E000100591D4F0002005A1D3E0036
:102863000100501A510001004A1D520001004B1D86
:10287300530001004C1D540001004F1A00000000DA
:1028830000000001363601010001020100010301CD
:1028930000010401060605020000070100340801D7
:1028A300000F090401010D0100FF0E0800001702CB
:1028B3000000190100FF1A0100011B0100FE1C01A9
:1028C30000081D0200001F01000120010001210278
:1028D30000002301000F240200002601000127014C
:1028E3000008280200FF2A0100072B0102402C01E7
:1028F30000002D0100012E0100012F0100FF300116
:102903000B1D310800003A0100083B01000F3C0198
:1029130000013D0100FF3E040000420400004604A4
:1029230000004A0400004E04000052040000560454
:1029330000005A04000001037103010301030103B2
:102943000103010322030203010310030003000335
:1029530000030003000300030003420300032403F6
:1029630006030003000304031203250323032503C3
:1029730023030403040300030003000344030003CD
:1029830000032303000365032100350381030003D0
:1029930005030003000300030003250323030302CD
:1029A300710230016002110270020102020202028E
:1029B3008002100261023A00410063027302720254
:1029C3006202430200021302380000020002040202
:1029D3001202000200020002000204020402370095
:1029E30037003C0244020002390000020002650283
:1029F3000002350281020002050282028302000204
:102A03000101710101010101110101013101010103
:102A130001018001100161013B0014006301730196
:102A23007201620143010001130106013D013500FA
:102A3300040112010001000100010001040104016D
:102A4300330133013C01440132013600000100012E
:102A53006501000135008101000105018201830147
:102A630000010304710402046004110470040204ED
:102A73000204010402041004610400041404630446
:102A83007304720462044304000413040604000480
:102A930000040404120400040004000400045104AC
:102AA300640000040004000444040004000400045F
:102AB3000004650400043504810464000504000473
:102AC30083040004030071003001600011007000F2
:102AD3003102200350048000100061000000140044
:102AE30063007300720062004300000013000600DD
:102AF30000000000040012000000000000000000BD
:102B030004000400370037003C02440000000000CA
:102B13000000000065000000350081000000050092
:102B230000008300000036000100060000000F00D3
:102B330000000000000000000000000003FFFF0091
:102B4300000403FFFF0000FFFF0FF4010005C404AE
:102B53000320000100000B00000000000000000340
:102B6300010F000000000000000000000000000052
:102B73000000000000000000000000000000000052
:102B830000000000DE132C14E413181300000000EF
:102B9300000000000000000000000000EA1318130A
:102BA300F0131813F6131813FC1318130214181345
:102BB300081418130E143214141418130000000010
:102BC30000000000000000001A144414201418131D
:102BD3001A144414201418130E1432142614181340
:102BE3000000030020010E830000000020010F837A
:102BF3000000040042017E80000005004201A08025
:102C03000000060042014B800000070020011083F2
:102C1300000010004203F41C000011002003C71839
:102C2300000012001003051D060000001001CA1861
:102C33000A00000002000000040000000800000079
:102C43001000000020000000400000008000000091
:102C53000001000000020000000400000008000062
:102C630000100000002000000040000000004A1790
:102C73001300F6161F00FC161F80021701004A17E7
:102C83000200BA160300C0160400C6160500CC16CF
:102C93000600D8163600EA16FFFF0000012A1F06B9
:102CA300541F084E1F0B6C1F10481C02301F054297
:102CB3001F07361F0C121F0D1E1F64501AFF000042
:102CC30007ECFDFDFDECDCDCCCBCACAC9C9C8C7C53
:102CD3007C6C6C5C5C5C4C4C3C3C2C2C1C1C03EAFC
:102CE300F5E5D5D5C5B5A595958585757565655501
:102CF3005545453535252515150500160F00000BDF
:102D0300150B020002220F3300000E010305070911
:102D13000B0D0F00020406080A0C0D000000040648
:102D230000000406000104060002045A69674265B4
:102D330065416C6C69616E6365303900393D3F37BD
:102D43003C3C362C442D00034A49434E181A2505B2
:102D530002303017181921301B1D1F3000011916BE
:102D630018161618230300303016181920231A1CBE
:102D73001E300C0E020B040B0A0708000F0204029C
:102D8300010101010902E803000000BE040A00007A
:102D93007F000E00E8030000090504040010080387
:102DA300030A1E0C0A10080C281EFF000903010C5D
:102DB3000508150404E004123638A2E792AF22E4B2
:102DC300F0A3F0A3F022A3122DC2A3F0227F0C02E2
:102DD30006C3E0F508E4F509F50AF50B227401F0E2
:102DE30090059BE0640F22740912099D7F0402067B
:102DF300C3A3A3E024F5C39413229005BB12593156
:102E03007A147B0022C082C083901B7574F0F0A3F8
:102E13007422F0A37402F0A37423F0901B7974D886
:102E2300F0A37422F0A374D2F0A37422F0A3740E5F
:102E3300F0A37423F0A37414F0A37423F0A3740811
:102E4300F0A37423F0A374C0F0A37422F0901B8545
:102E530074E4F0A37422F0A374EAF0A37422F0A341
:102E630074DEF0A37422F0A3741AF0A37423F09019
:102E73001B96124EBE6006125128121204901B9329
:102E83001245E17408F0A3E4F0A3F0901C36F0902F
:102E93001B98F07C0BFDF97A997B1B1211327C0B8A
:102EA3007D0079007AA47B1B1211320245EA74F784
:102EB30012046874F7120A66EAFEEBFF1244087400
:102EC30005122F7E7403F0EE2402FAE43F122F580A
:102ED300242DFCE43FFD8C828D83123096122F67E4
:102EE30060081237E074FFF0A3F0EE242BE43F1CDC
:102EF3001CFD8C828D83A3E0C0E08A828B83124405
:102F030019D0E0122F6788828983124C112403128F
:102F130056FB1212F47408120CB17403F09005B04E
:102F23001207C67402120A307903EEFAEFFB122479
:102F3300B2740212099DE9F5087007EEFAEFFB126D
:102F43002392A90874090237F0F582E43FF583124E
:102F53006366124C06FB8A828B83122F76E8F0A3FA
:102F6300E9F0EE2212594F122F76E8F0A3E9125E30
:102F7300CBE0221230618A828B8322F0A3E4F01229
:102F83002F8622EE240DF582E43FF5832274F1129D
:102F93000468EAFEEBFF8C088D09890A12306B8AFC
:102FA300828B83123061740F120CB1123084E824C7
:102FB300FF18E934FFF988828983E50A1230769095
:102FC30005B51230739005B41230737411120CB13D
:102FD300123084EE2404FCE43FFD880B8A828B8349
:102FE300E0F50C8C828D83E0250CC3950B12594BB5
:102FF300E8F0A3E9124375A3A3A3A3A3A3A3A3E0A8
:10300300640370081246D1F0A3E4800312337712ED
:103013002F817409F0750C99750D1B750E00780CD2
:1030230012098612336B121126740312099D750C53
:10303300FF750DFF780C12098AAC08AD097903EE10
:10304300FAEFFB1224B2740212099DE9F508700726
:10305300EEFAEFFB122392A9087F070206C3E024CE
:10306300FFF8A3E034FFF922EE2402FAE43FFB2247
:1030730012309612307A22F0E824FF18E934FFF96F
:1030830022E0F50CA312309612307A88828983E508
:103093000CF022E08882898322C082C083901BB512
:1030A300E0C39408400474078001E08A828B83F0B4
:1030B30033333354F8F90245EA74F0120468EAFE34
:1030C300EBFF890C8C0E8D0F750A00A2AFE433F56C
:1030D3000BC2AF901BAF803F1231A450371231B5F2
:1030E30064037030EE24F9FEEF34FFFF8508828518
:1030F3000983A3A3E02405FCA3E03400FDEEFAEF6B
:10310300FB1212F4EE24FF1EEF34FFFF7410250AA6
:10311300F50A150C124342126362E50C6006E508DA
:10312300450970B4E50BA2E092AFA2AFE433F50B0F
:10313300C2AF901BAF802C2402FAE43509FB8A82CC
:103143008B8312593A2406F582E438F5831231C28F
:103153008A828B831231AAA3A31231C2050A150CEA
:1031630012434212435760221231B5640270F112C6
:1031730031A4E50840C11234A5A2E550E3850E82CF
:10318300850F837401F0E50C70D6E50BA2E092AFD6
:103193008E828F83E50AF0EE24FFFAEF34FFFB8083
:1031A300351234B0A2E6221231AE22125D2FA3A350
:1031B300A322850882850983125D2912536322E0C5
:1031C3008E828F83F0EE24FF1EEF34FFFF22122541
:1031D3007E740412099D7F080206C374EC1204680E
:1031E30074F5120A6689138A128B0F851882851962
:1031F30083E4F004120A281222A2E9F890059AE067
:10320300292434F508FA7B001211508A0A8B0BAE7D
:103213000AAF0BEE4F700302335FEE2402F50AE4AC
:103223003FF50BA808EE28F8E43FF9850A82850BE1
:1032330083122F602404F510E43FF511851082F505
:1032430083E4F090059AE0FCF8C3E498F895E0F97C
:10325300850A82850B83E028F508A3E039F50990F8
:1032630005981255F3750E00780C1209867D00AA95
:1032730008AB09121126740312099DAC18AD197419
:1032830001120CB1E0F9E50824FFFAE50934FFFB6C
:103293001222A88A828B83E4F0EA24FFF508EB3438
:1032A300FFF509E50FC454F0F9901C37E0C433333C
:1032B30054C0F8900594E0A2E0E433131348494462
:1032C3000F12337FE512C454F04513850882850934
:1032D30083F0A808850A82850B83E0FA851082852E
:1032E3001183E02AC398F0850A82850B83E8F0A353
:1032F300E509F0123377122F81E4F0740A120CB14E
:10330300E4F07508A475091BF50A780812098612FA
:10331300336B121126740312099D85188285198354
:10332300E06009EE240E12449E4408F012249AE948
:10333300F9E4F508F509780812098A7404120A30C9
:10334300EEFAEFFB1224B2740212099DE97006EE45
:10335300FAEFFB800BEEFAEFFB1211567A007B00BB
:10336300740B12099D022DD07C0B7D00EE2418FAFC
:10337300E43FFB2212440CE4F0A322E0850882859B
:10338300098312338922F01255C72274F312046899
:103393008A0A8B0BA2AFE433F50CC2AF7508007534
:1033A3000900901BAF802C1235CC5024850A8285EE
:1033B3000B83A3A312678F8E828F83A3A312512B38
:1033C3001224A0E9600A1233F2C2E6F08E088F09D4
:1033D3001235C112387A70CFE508450960061234F8
:1033E300ACD2E6F0E50CA2E092AF7F050206C31271
:1033F30033F6221255E0E02274F0120468EAFEEB81
:10340300FF8C0C8D0D750E00A2AFE433F50FC2AF28
:10341300750800750900901BAF8020850A08850B8D
:10342300091234ACD2E4F0E5081234A5D2E7F0E592
:103433000A24FBF582E50B34FFF583E0F50AA3E0EC
:10344300F50BE50A450B6043E50A12422D350BF5F2
:1034530083E0A2E750D9850A82850B83A3A31207D1
:10346300C6AC0CAD0DEEFAEFFB1224A674021209E2
:103473009DE960BBE508450960A1E508240D123408
:10348300B8640170061234C1D2E4F0E50FA2E092F1
:10349300AFE5084509600612238C750E01A90E02DB
:1034A30031D91242571234BB221234B022E5082418
:1034B300111234B822F582E43509F583E022850838
:1034C30082850983125D29E02274F212046874FE76
:1034D300120A66750C00750D00851882851983E440
:1034E300F0A3F0A2AF33F50AC2AF901BAFE0FEA387
:1034F300E0FF8035EE24FBF582EF34FF1263607842
:103503000C12098AEEFCEFFD7AAF7B1B1211867455
:103513000212099DEEFCEFFDAA18AB19121174AE4D
:1035230008AF09901BB5E014F0EE4F60271235CCBD
:10353300501DEE240BF8E43FF988828983E024FFD1
:10354300F0A3E034FFF088828983124EBE60A51297
:1035530035BD8099E50AA2E092AF901BB5E06031DA
:1035630090059BE0640F6006901C36E070237A8D13
:103573007B1B12258A9083021207C27A8D7B1B1252
:10358300257E740412099D800874F01248081223E2
:1035930080AA18AB1912117A8A0A8B0BAE0AAF0BE9
:1035A300EE4F60131222B41233F2A2E28E828F83A3
:1035B300A350D674E980D40238828E0C8F0DEE248A
:1035C300FBF582EF34FFF583221233F6A2E7227470
:1035D300F7120468EAFEEBFF1222B4124416122714
:1035E3003FE964019005B7700AE02401F8A3E034D1
:1035F300008004E0F8A3E0F9124A64124E16901B0F
:10360300B5E0702190059BE0640F70197A8D7B1BE8
:1036130012258A9083021207C27A8D7B1B12257EA4
:10362300740412099DA9A8C2AF901BB5E004123619
:1036330038A2E7800DF0E9A2E7E433F8E922E508D0
:10364300A2E092AF0248A474F7120468EAFEEBFF0B
:1036530012367FF01222B4EEFCEFFD7AAF7B1B1221
:103663001180A9A8C2AF901BB5122DB890059BE09D
:10367300640F700579081224520248A41233F6C26B
:10368300E42274F712046874EA120A66EAFEEBFF96
:10369300900594E060408518828519837401F012C7
:1036A3000CB1E4123757120CB1AA82AB831212F495
:1036B3008E828F831234C7C0E0740A120CB1D0E03B
:1036C300125960740B120CB1AA82AB831224CAAADA
:1036D30018AB1912193074160237F074F712046814
:1036E300EAFEEBFF122296E9F974DC69601E74DDD1
:1036F30069601974E469601474F369600F74DE69B6
:10370300600A74DF69600574DB697007EEFAEFFB2A
:103713001224580248A474F712046874EB120A6660
:10372300EAFEEBFF85188285198374061237571258
:103733000CB1AA82AB831212F4125965740A120CEB
:10374300B1AA82AB831224CAAA18AB191219307416
:10375300150237F0F0EE2413FCE43FFD74022274EB
:10376300F712046874F7120A66EAFEEBFFEE242DE3
:1037730012449E606512402FAA18AB191212F474FA
:1037830008120CB17403F09005B01207C61237E0AB
:103793001207C69005C3E0F97404120A30EEFAEF7B
:1037A300FB12229C740412099DE9F974DC696023FD
:1037B30074DD69601E74E469601974F369601474DC
:1037C300DE69600F74DF69600A74E869600574DBA1
:1037D300697007EEFAEFFB122458022F47EE1237F7
:1037E300E522242BF582E43FF58322740312099D1D
:1037F3000248A474F21204688A088B09750C0075D8
:103803000D00750AE7A2AFE433F50BC2AF901BAF0F
:1038130080031235BD12387A60351235CC50F3125D
:10382300449B640170ECEE242FF582E43F123A29A5
:10383300E06870DE780C12098AEEFCEFFD7AAF7B4C
:103843001B121186740212099D901BB5E014F0E55A
:103853000BA2E092AFEE4F6013EEFAEFFB1222B42D
:1038630079F0EEFAEFFB122458750A00A90AAA08A8
:10387300AB09122458800DE0FEA3E0FFEE4F227443
:103883000212099D7F060206C374F412046874F7DA
:10389300120A66EAFEEBFF8E828F83A3E064F37065
:1038A300030239368E828F83A3E064DF700302390B
:1038B300368E828F83A3E064E860788E828F83A341
:1038C300E064DB606E1222F6E9F508705EEE240E0A
:1038D30012449E605612394012233EEA4B604C74E8
:1038E30008120CB112394A1207C67508FF7509FF91
:1038F300780812098A8E828F83A3A3A3A3A3A3A309
:10390300A3E0F97404120A3012229C740412099D74
:10391300E9F50874F36508601274DF6508600C74D8
:10392300E86508600674DB6508700F8E828F83A3D9
:10393300E508F0EEFAEFFB122302022DEAEE240F64
:10394300FAE43FFB790922740212612874FFF0A3A1
:103953001239572212395B22124C1AA3A32274F58F
:103963001204688A088B097E008A828B83A3A3A32F
:10397300A3A3A3122DF440027EE88A828B83A3A320
:10398300A3A3A3A3A3A3A3A3E0C3941040047EE82B
:1039930080138A828B83A3A3A3A3A3A3A3A3A3A319
:1039A300E0640F600A901C13E0540870027EE8EA9A
:1039B300240BF582E43509123A29A3A3A3A3A3A3F5
:1039C300A3A3E0C398500CEA240B1234B8640F602D
:1039D300027EE89005B4E0F47003A3E0F470027E85
:1039E300EC7A237B001211FE901B9612513B901B25
:1039F30096124EBE6029850882850983A3A3A982F6
:103A0300AA8389088A09750A0078081209867C2323
:103A13007D00125128121126740312099D80027E23
:103A23001AEEF90262C9F583E0F88A828B83A3A3B5
:103A33002274F5120468EAFEEBFF8E828F83A3A340
:103A4300A3A3A3A3A3A3E090059B12600B9005B6C9
:103A5300125FF1900596126010901C37F0F9120E68
:103A6300BC901C37E06018EE2404FAE43FFB795065
:103A7300120EA4EE2406FAE43FFB79E1120EA490A1
:103A83001C36122DE06004740180027400901B98B0
:103A9300125FF71209867C0B7D007A997B1B12114A
:103AA30026740312099DEE2418F508E43FF50978FE
:103AB300081209867C0B7D007AA47B1B0262C17409
:103AC300F7120468EAFEEBFF8E828F83A3E0700691
:103AD3001251281222FC8E828F83742C12480812F2
:103AE30024640248A474F7120468EAFEEBFF901BF7
:103AF30096124EBE600D125128901B96E4F0A3F06F
:103B03001212048E828F837408124808121930022D
:103B130048A474F6120468901C36E06013901B9856
:103B2300E0700D123B361222AEEA4B600312239271
:103B3300025C6B900596E0FB9005B6E0FA90059B5E
:103B4300E0F92274F412046874E7120A66EAFEEBE1
:103B5300FF750B018E828F83A3A3A3A3A3A3A3E06B
:103B6300A2E25068EE242BF582E43F12678D123CEB
:103B7300041222BAE97055908237E064017005752A
:103B83000B008048123C0C1209867C0B7D007411DB
:103B9300120A28121126740312099D12249AE9FAB3
:103BA300740E120A2088088909780812098A750890
:103BB30030750900780812098A1237E01207C61215
:103BC300590179011224B8740612099D851882855A
:103BD30019837410123757120CB1AA82AB831212D5
:103BE300E81237E012592D740B120CB1124E1674F1
:103BF3000D120CB1E50B12467B1219307419022D0C
:103C0300ECEE2413FAE43FFB22EE2408125FFF22BA
:103C1300C082C083901C37E0600312250C0245EA82
:103C2300C082C083901C2E7475F0A3741BF0A37420
:103C330079F0A3741BF0A37485F0A3741BF0901D9B
:103C4300777465F0A3742AF0901C187490F0A37431
:103C530022F0901BBA74C6F0A37422F0901BBC74BC
:103C6300CCF0A37422F0901C13E044028001E4F032
:103C73000245EAC082C083EAFCEBFD7903024C866D
:103C8300C082C083EAFCEBFD7905024C86C082C08A
:103C9300837908025DFCC082C08374FE120A6690B9
:103CA3001BC2747AF0A37423F0901BC47474F0A342
:103CB3007423F0800D7AAF7B1B12117A12467112B6
:103CC3002488901BAF124EBE70EB901BB1124EBEF8
:103CD300600F7AB17B1B12117A124671122488800D
:103CE300E9901BAFE4F0A3F0901BB5122DC374024F
:103CF3008002741112099D0245EA74F6120468E900
:103D0300FF743E29F582E4342DF583E493FEFA7BB8
:103D130000121150EA4B6011EA2E124E0C8A828B6C
:103D230083A3A3A3A3E4F0802C7A027B0012115097
:103D3300EA4B601D74542FF582E4342DF583E4932C
:103D43008A828B83F0A3741AF0901C0EE0F912118F
:103D53005C7A007B00025C6BE9FC740629F8EAA23A
:103D6300E0501EE875F00A84E5F0F96014740A283F
:103D7300C399F8E9C394054004740A28F8740B281E
:103D8300F8ECC3941340047A1480027A06EA287983
:103D9300002409F85001097A0A7B001202A0E8F90D
:103DA30002096AC082C083901C13E05402600A12A5
:103DB3001936E960047901800279000245EAC0827C
:103DC300C083901C13E054026016901BB5E0700C86
:103DD300124EBB600BE0C812434F500479018002BE
:103DE30079000245EAC082C083908234E0F8901BD8
:103DF300B7E0C398500512115080047A007B00028B
:103E030045EAC082C08312248879000245EA74F728
:103E130012046874FE120A66851882851983EAF013
:103E2300A3EB123F80A3A3A3A3A3E0600A146060E3
:103E330024FE6069023F0190059BE0640F60181245
:103E4300245EE9701285188285198312512B901B09
:103E5300BE12441912273F9005C3E0C0E0851882C3
:103E6300851983124BE4D0E0123F8074141261244D
:103E730012678F7AB17B1B121174A8A8C2AF901B73
:103E8300B7E004125141792012245274020237F030
:103E9300851882851983125D31741580D085188247
:103EA300851983123F63A3A3E060538518828519A4
:103EB30083E02402F8A3E03400F988828983126541
:103EC30062E0C0E0851882851983E0FCA3E0CC247E
:103ED30006F582E43CF583D0E012596D888289832C
:103EE30012513B85188285198312424B85188285AE
:103EF30019836013123F686005123F704043AA188C
:103F0300AB191224888084123F6860F2123F70500C
:103F13001C12435FFA851882851983123F6AF8746D
:103F23007F124E07342DF583E4936A60148518825B
:103F3300851983123F68640870C412435F64087074
:103F4300BD12435F14123F88240AC0E0851882859E
:103F53001983124419D0E0123F8804023E70E0F83E
:103F6300A3124C3122E0F8A3E0123F8F228518827E
:103F730085198312593E123F90C3940A22123F9A25
:103F8300F583888222123F9A123F8F22C82406F5B6
:103F930082E438F583E022126128E0F8A3E022C02E
:103FA30082C083901BC6124EBE6008125D32122778
:103FB3003F800279000245EA74F7120468EAFEEBD7
:103FC300FF122F867401F0EE2430F582E43FF5836F
:103FD30012569B122F60243212449EC0E0EE24132B
:103FE300F582E43FF583D0E0F0EE243312449EC023
:103FF300E0EE2414F582E43FF583D0E0F0EE242CC8
:10400300F582E43FF5831207C612402FEE242E12E9
:10401300449EF91224B2740212099DE9F50870074F
:10402300EEFAEFFB122392A9080248A4EE2423FC24
:10403300E43FFD22C082C08312245EE9600479203C
:10404300800279010245EAC082C083EA12422D123E
:1040530040EED2E0023C72C082C0831240E86401A9
:1040630070111240F3400C8A828B83A3E0F912246F
:1040730058806FEA24101240EBA2E650128A828B1A
:1040830083A3E0F9901BC012441912273F805312F7
:1040930040E86401700D1240F350088A828B8374E8
:1040A3003080368A828B83A3E0641B8A828B837081
:1040B3000474228024A3E0700D1240E8F8746A129D
:1040C3004E07342D800B1240E8F87454124E073417
:1040D3002DF583E4938A828B83F0901C0EE0F91212
:1040E300115C0245EAEA240DF582E43BF583E02204
:1040F300EA1242573BF583E0A2E32274F712046805
:10410300E9FE124EBB7003024224EE6011741B6E73
:104113007013E0C8124227640570030241EF125D79
:1041230021E40241F374E96E7062124243700B1290
:10413300193CE9600512425D606279EE120E269029
:104143001BB8124240901BB8603B124260901BB8F0
:10415300700B12424014F0120FDC02422412424B45
:10416300C2E712436B1242276403700C12593712D1
:10417300422D123F95D2E2F079ED120E2612423310
:1041830012273F8075125D2474E9806474E16E70B8
:104193003E12193CE9605512425D70509005BDE036
:1041A300C0E01259372412F582E438F583D0E0F0E9
:1041B3009005ACE0C0E0901BB8123F61123F61D0A4
:1041C300E0F09005ACE004F07901120FC480527462
:1041D3001C6E7018901BB812512B901BC8124419F7
:1041E30012273F901BB8E4F0A3F08035125D21EE57
:1041F300F0901BB812512B12238012593712590910
:10420300E0548060109005C3E0F9120EE09005C2FF
:10421300E0F9120ED4901BB8E4F0A3F07910122445
:10422300520248A4240D123F92222411F582E42263
:10423300901BB812512F901BBC125D2B22E0F8A3E8
:10424300E0C82412123F9222E0F8A3E0C8124257BA
:10425300123F95222410F582E422901BB812593E96
:1042630012590DE054042274F4120468750A00759F
:104273000B00A2AFE433FFC2AF124EBB6003024395
:104283002712441612273FE94410F8901BAF800908
:1042930085080A85090B12434212435770030243F0
:1042A300271234AC586870E8780A12098AAC08AD52
:1042B300097AAF7B1B121186740212099D901BB8F9
:1042C300E508F0A3E50912436B12434F405D901BD1
:1042D300B6E014F0EFA2E092AF901BB8E0240EF822
:1042E300A3E03400F9880889098882F58312512BE9
:1042F300901BB8124365F9122344E9901BB3F012E3
:104303004373E05480901BB8602612593A24131269
:104313003F92F9120EE01259372414123F92F91208
:104323000ED48018EFA2E092AF8011901BB580A14C
:1043330012424BA2E1B3E433F9120FC4022DEFE5AD
:104343000824FBF582E50934FFF583222411123F8B
:1043530092A2E722126366E5084509228518828541
:1043630019831231AEA3E022F0901BB812593E22FA
:10437300A3E4F08508828509832274F7120468EAAE
:10438300FEEBFF122482EE241012449EA2E3400CA3
:1043930012449B640170059082328003908233E063
:1043A300F9EEFCEFFD7AAF7B1B12118CE96046EE50
:1043B300FAEFFB901BC212441912273FEE240E1290
:1043C300449E54047020A8A8C2AF901BB6E0041208
:1043D3005121FAE8A2E792AF124408A3E054017016
:1043E3002112238C801CEEFAEFFB901BBA124419A6
:1043F30012273F800D8E828F83A374F11248081217
:1044030023800248A412440C22EE240EF582E43FDA
:10441300F58322901BC4125D2B22C082C08312231A
:104423008C0245EA74F7120468EAFEEBFF79009008
:104433001C13E05402700CEE243012449E540460AA
:104443000279E8901C13E05460700CEE243012449F
:104453009E5402600279E88E828F83A3A3A3A3E014
:10446300F8908238E0C398500279E8EE242E124483
:104473009E700CEE242B12449E700479F5800BE998
:10448300700512236EE9F9E96007EEFAEFFB1224D7
:10449300580248A434FFF509EE240DF582E43FF5F4
:1044A30083E022C082C0838A828B83740DF0121949
:1044B300300245EAC082C0838A828B83E4F0A3F092
:1044C300EA24301240EB54049082327012E0F890E8
:1044D3001BB6E0C398401279F11224580245EAE072
:1044E300F8901BB5E0C39850EE901C0EE0F9121142
:1044F3005C80E974F6120468E9FE244CFAE43400A3
:10450300FB121150EA4B6012EE8A828B83A3A3A3A2
:10451300A3F0EA244C124E0C80047A007B00025C68
:104523006BC082C083901BCA74DAF0A37423F0A318
:10453300740AF0A37424F0A374E0F0A37423F0A32B
:1045430074E6F0A37423F0A37404F0A37424F0A31B
:1045530074F8F0A37423F0A374F2F0A37423F0A30C
:104563007410F0A37424F0A37416F0A37424F0A3BE
:10457300741CF0A37424F0A37428F0A37424F0A390
:1045830074ECF0A37423F0A374D4F0A37423F0A306
:1045930074CEF0A37423F0901BE674FEF0A374238F
:1045A300F0A37422F0A37424F0A37442F0A374253F
:1045B300F0A3742EF0A37424F0A37434F0A3742432
:1045C300F0901C0AE4F0901C0DF0901BF61245E1EC
:1045D3007402F0901BFF1245E17401023C727452A5
:1045E300F0A37424F0A322D083D08202096A74F565
:1045F30012046874F1120A6685188285198374029D
:10460300F07401120CB1E9F060047AFF7BFF7402CD
:10461300120CB112513B75080275091C750A00781A
:10462300081209867C0B7D007407120CB1AA82ABB9
:1046330083121126740312099DAA18AB191219309B
:10464300740F0262C674F712046874FD120A668559
:104653001882851983740AF07401120CB1E9F0749D
:1046630002120CB1EA12467B1219300237EE85189A
:1046730082851983EAF0A3EBF0AA18AB192274F62A
:1046830012046874F7120A66EAFEEBFF1246D112AF
:104693002F7E74021247F9AA18AB191212E8EE24FE
:1046A3002E122F4C243012570812098A7402120A50
:1046B3003079831A1AEFFB1224B2740212099DE9AE
:1046C300F5087007EEFAEFFB122392025C641244C2
:1046D3000C74012274F01204681261AF120C427858
:1046E30008790C12030178081209827AF97B1B02FC
:1046F30031D174F412046874C6120A6690059BE003
:10470300640F6010851882851983742E12467B12FC
:10471300246480277AF07B1B12258A122DFD120256
:10472300A888088909E4F50AF50B78081209827A42
:10473300F07B1B12257E740412099D743A022DEC42
:1047430074F5120468EAFEEBFF8E828F83A3E0F810
:1047530060030247E2EE242D12449E64026007E0E8
:104763006403600278E8EE2423F582E43FF58312C4
:104773002DF6400478E8806AE87064EE2423FAE4B6
:104783003FFB79E1120EA4EE242EFAE43FFB7950AD
:10479300120EA4EE242D12449E6402700E1258F7DA
:1047A30012592D9005AA124E1680129005AA74FE76
:1047B300F0A3041247F97AA17B051212F4EE241830
:1047C300123C0F1209867C0B7D007A027B1C1211AE
:1047D30026740312099DEEFAEFFB1223C8E9F8E8E9
:1047E3006011E88E828F83A3125B597417124808F5
:1047F3001224640262C9F0EE2425FCE43FFD228EFC
:10480300828F837429F0EEFAEFFB2274F6120468A8
:1048130074F7120A66901C0DE0703B7401F0F912F4
:104823000F8EAA18AB1912249475080275091C7807
:104833000812098A750801750900780812098A9017
:1048430005B01207C67406120A307A0379051224DA
:10485300B8740612099D025C6674F7120468EAFED6
:10486300EBFF7901120F948E828F83E06420700432
:10487300A374EBF0901C0DE0A2E25003C2E2F0E05F
:10488300A2E15008124AA61223C2800C8E828F83A3
:10489300742A1248081224648007EEFAEFFB1225EB
:1048A300007F010206C374F412046874FE120A66E0
:1048B300EAFEEBFF7901120F947AF07B1B12258A33
:1048C3007AF97B1B12258A124BF08518828519838E
:1048D300124C24E0F50B700FAA18AB197953120E82
:1048E300A4126356120EA4123C0C1209867C0B7D93
:1048F300007A027B1C121126740312099D8518820B
:1049030085198312512BA90B1223BC901C0DE0A215
:10491300E1500C7A008E828F83A3E0F91223C290B8
:104923001C0DE4F07402022DEC74F7120468EAFE25
:10493300EBFF8E828F83A374EBF0901C0DE0A2E15A
:1049430050077A0079EB1223C2EEFAEFFB1223F839
:104953000248A474F7120468EAFEEBFF7901120F10
:10496300947AF07B1B12258A7AF97B1B12258A9095
:104973001C0AE4F0901C0DF07AFF7BFF8E828F837C
:10498300A3E0F91223BC0248A474F7120468EAFEF8
:10499300EBFF1223F202489D74F7120468EAFEEB60
:1049A300FF7901120F948E828F83A3A3A3A3E060E8
:1049B300047400800274EB1249ED5003C2E2F0E08C
:1049C300A2E15008124AEF1223C28014A2E0501051
:1049D3008E828F83742AF0A374EB12480812246426
:1049E300EEFAEFFB1223A40248A48E828F83A3F076
:1049F300901C0DE0A2E22274F6120468EAFEEBFFBB
:104A0300901C0DE0D2E1F07901120F8E8E828F831C
:104A1300A3E0703C12249AE9FAEE240DF508E43F72
:104A2300F509780812098A750801750900780812D2
:104A3300098A124A641207C6EE2402FCE43FFD7998
:104A4300051224B8740612099DE98E828F83A3F0A0
:104A53008E828F83A3E060067A00F91223C2025C80
:104A63006B124A6822EE240BF582E43FF58322742D
:104A7300F7120468EAFEEBFF7901120F948E828F1E
:104A830083E064207004A374EBF0901C0DE0A2E2B9
:104A93005003C2E2F0E0A2E15006124AA61223C27A
:104AA3000248A4C2E1F07A008E828F83A3E0F92248
:104AB30074F7120468EAFEEBFF7901120F947AF09F
:104AC3007B1B12258A8E828F83A3A3A3A3E060049A
:104AD3007400800274EB1249ED5003C2E2F0E0A2CD
:104AE300E15006124AEF1223C20249E3C2E112392E
:104AF30057A3E0A2E4E433FA8E828F83A3E0F92282
:104B030074F7120468EAFEEBFF7901120F948E82A8
:104B13008F83A374EB1249F25003C2E2F0E0A2E1E7
:104B23005006124AA61223C20248A474F71204685C
:104B3300EAFEEBFF7AF07B1B12258AEEFAEFFB12FB
:104B4300241C02489D74F7120468EAFEEBFF7AF016
:104B53007B1B12258AEEFAEFFB12241C0248A47475
:104B6300F712046874EF120A66EAFEEBFF125901AA
:104B73007AA17B051212E2E96062851882851983A6
:104B83007409F07401120CB174EFF0124BF0F87465
:104B930002120CB1E8124C24A3A3E0C0E074041287
:104BA3000CB1D0E0124C11640870158E828F83A370
:104BB300A3124BE4E0C0E07405120CB1D0E0800610
:104BC3007405120CB1E41259607406120CB1AA8276
:104BD300AB831224CAAA18AB191219307411023705
:104BE300F012593E2407F582E438F58322124C066D
:104BF300FB8A828B8312593188828983E0FCA3E08C
:104C0300F9EC22EE2402F8E43FF9E8FAE922124C27
:104C13001522124C1AE022F08E828F83A3A3A3A342
:104C230022F0A3E912594F124C2E22E0F8A3125D91
:104C330032A3A322C082C08312250C0245EAC0829C
:104C4300C083901C2A74CAF0A3741BF0A374E6F00B
:104C5300A3741BF0901D717403F0A3742AF0A37462
:104C6300A1F0A37429F0901C1674B6F0A37423F07A
:104C7300901C13E04401023C72C082C083EAFCEB47
:104C8300FD79021224700245EAC082C083790602CC
:104C93005DFC74F612046874FE120A66901C0F120F
:104CA3004EBE60077A0F7B1C122488901C15E4F01B
:104CB30090189B124EBE60268007AA18AB191224C7
:104CC30088901C0EE0F91211688A088B09A808A9BC
:104CD30009851882851983124E16E84970DC74021F
:104CE300025C6874F7120468E9FA7B00901C0EE01A
:104CF300F91211920248A474F712046874F0120AAC
:104D030066EAFCEBFDE9FE8C828D83E0F874751294
:104D13004E07342DF583E493C0E07401120CB1D037
:104D2300E0F0640B700DEE8C828D83A3F01224EE01
:104D3300024DFAE07003024DFA640C6003024DEB7E
:104D4300741A6E700B7404120CB1E4F0A3024DEAF2
:104D53007404120CB1ECF0A3EDF0EC242F124DFF10
:104D6300C0E07403120CB1D0E0125EC2120C9A744C
:104D730006120CB1120C828C828D83125924740A90
:104D8300120CB1124E16EC240E124DFF5410600992
:104D9300851882851983E48013EC2412124DFFF8E1
:104DA3009005BDE0C398851882851983F0E0C0E0C3
:104DB300740C120CB1D0E0F0EC2415124DFFC0E0DE
:104DC300740D120CB1D0E0F0EC2416124DFFC0E0CC
:104DD300740E120CB1D0E0F0EC2417124DFFC0E0BA
:104DE300740F120CB1D0E0F07402120CB1EEF07437
:104DF30001120A2812193074100237F0F582E43DCB
:104E0300F583E02228F582E422F8E43BF98A828BD9
:104E130083A3A3E8F0A3E9F022C082C083901C150A
:104E2300E0640370047901800279000245EA74F7B3
:104E3300120468901C15E0124EA812678D8A828BAB
:104E430083E0C2E7F025E0F8EC124E073DF583A3BB
:104E5300E493FE124EA8F583124EBE6005EE901C3D
:104E630015F08A828B83E0124EB4EC28F582ED397B
:104E7300F583E493FCC4540F25E0F87424124E0721
:104E8300341CF583124EBE70051224DC8014EC54DE
:104E93000F25E0FCE82CF582E439F583124419125E
:104EA300273F0248A4124EB4746F28F582741D394B
:104EB3002225E0F8E433F922901BB8125931E8496E
:104EC3002274F112046874FE120A66890AEAFEEB80
:104ED300FF124FC0FA7B001211508A088B09EA4572
:104EE3000960388A828B83E50AF0A3E4F08E0C8F85
:104EF3000DF50E780C120986A80A124FCDEA24028A
:104F0300FAE43509FB121126740312099DAA08ABB2
:104F130009901C0EE0F912115C8012851882851924
:104F230083E50AF0791AAA18AB19122458740212ED
:104F3300099D02305C74F212046874FE120A6689D9
:104F43000B8A088B09124FC0F50AFA7B0012115025
:104F53008A0C8B0DAE0CAF0DEE4F604A8E828F83A1
:104F6300E50BF0A3E4F0A80AEE28F8E43FF98E82FB
:104F73008F83124E148E828F83A3A3A3A3E4F0F531
:104F83000A7808120986A80B124FCD12336F12113B
:104F930026740312099DEEFAEFFB901C0EE0F91242
:104FA300115C79008014851882851983E50BF079EB
:104FB3001AAA18AB19122458791A0238827449298B
:104FC300F582E4342DF583E49322745F28F582E4BB
:104FD300342DF583E493FC7D0022C082C083E990E5
:104FE3001C0E023C7274F612046874FE120A66EA1E
:104FF300FEEBFFEE542070378040A8A8C2AF901B91
:10500300B7E014125121F508E8A2E792AF8A828B28
:1050130083125118901C1112513B1224648518827B
:10502300851983E0641560077A117B1C1224887A42
:10503300B17B1B12117AEA4B70C0EF54807012805F
:105043001C901C1112513B1224647A117B1C1224F4
:1050530088901C0EE0F9121168EA4B70E4EE5410CC
:10506300600E851882851983742D12467B12246481
:10507300EEA2E0500E851882851983742412467BB4
:10508300122464EE5402600E8518828519837425F8
:1050930012467B122464EE5404600E85188285192F
:1050A30083742612467B122464EE5408600E85181E
:1050B30082851983742812467B122464EE5440605F
:1050C300107401120CB1126123742C12467B12244A
:1050D30064EE548060107401120CB1126123742FBA
:1050E30012467B122464901C0F124EBE6020A8A8A7
:1050F300C2AF901C0F12512B901C0FE4F0A312515E
:105103004112513A1224647A117B1C1224887A00CA
:105113007B00024CE1E0851882851983F022F0E8D8
:10512300A2E7E43322901B9612512F22E0FAA3E068
:10513300FB22A3A3A3A3A3A3EAF0A3EBF0221251A0
:1051430021FEE8A2E792AF22C082C083901C111215
:10515300592DEA687002EB697007901C11E4F0A303
:10516300F00245EA74F7120468EAFEEBFFEE4F70B3
:10517300031225C0A2AFE433F508C2AF8E828F833A
:10518300124EBE6028E824FBFAE934FFFB901C11A1
:1051930012678FE86C7002E96D7007901C11E4F0E0
:1051A300A3F08E828F83E4F0A3F01212040236413F
:1051B300C082C083901C3874D0F0A37424F0A3740D
:1051C300E2F0A37424F0A374E8F0A37424F0A374AE
:1051D3009EF0A37423F0A374EEF0A37424F0A374DD
:1051E30098F0A37423F0A374A4F0A37423F0901C89
:1051F30046741EF0A37425F0A374F4F0A37424F092
:10520300A374FAF0A37424F0A37406F0A37425F036
:10521300A37400F0A37425F0901C37023C71C08284
:10522300C0839005AAE064FE7003A3E0F470097CD8
:10523300A17D051212E880158A828B83A3A3A3A301
:10524300A3A3A3A37402F01253A3124E160245EABA
:10525300C082C0839005B4C3E094FEA3E094FF40F2
:10526300047903800279020245EAC082C0831253A3
:10527300AE8C828D83125363687039740268701C1C
:105283008A828B831252BCE06870298A828B83A343
:105293001252BCA3E068701C7901801A7403687011
:1052A30013EC2405FC50010DEA2405FA50010B12FE
:1052B30012EE800279000245EAA3A3A3A3A3E0F8B8
:1052C3008C828D83A3A3A3A3A32274F61204687E06
:1052D30000740A120CB1E0125357FF8A828B83A326
:1052E300A3A3A3A3A3A3A3E06F706474026F704E80
:1052F3008A828B83C082C08388828983A3A3A3A36A
:10530300A3E0F50888828983A3A3A3A3A3A3E0FB57
:10531300AA08D083D082E06A7003A3E06B70308860
:10532300828983A3A3A3E0FA88828983A3A3A3A387
:10533300E0F9EA6C7002E96D70157E018011740367
:105343006F700CE82405FCE439FD1212EEE9FEEE61
:10535300F9025C6BF8A3E0F9888289831253632214
:10536300A3E01313543F540322C082C0838A828B69
:1053730083A3A3A3A3A3A3A3A3E064027014125360
:10538300A3E0687003A3E06970047901800F7900DA
:10539300800BEAFCEBFD7AA17B051212E20245EADF
:1053A3009005AA1259318A828B83228A828B8312B7
:1053B3005363F82274EC120468EAFEEBFF8C128D3F
:1053C30013750A008C828D83A3A3A3A3A3A3A3A312
:1053D300E0F510E9A2E75008750CFF750DFF800694
:1053E3009005B01255F3E9C2E7F511EE240E12440D
:1053F3009E542060071255D4740880041255D4E4D7
:105403001255FB540460071255DC74808005125555
:10541300DC74101255FB541060061255ACE4800B7B
:105423009005BDE0C0E01255ACD0E01255FBA2E000
:105433005003750A20540860067410450AF50A8E55
:10544300828F83A3A3E024FFF508A3E0124497C34C
:105453009402E0400B640B6005E01412337F740385
:10546300450AF50A750B009005D0E0640170118EB2
:10547300828F83A3A3A3A3E0C394674003750B1098
:1054830085110E750F00740E780E120B7DE50F4516
:105493000BF50B7414120CB1E0F50EA3E0F50F74C9
:1054A300026511700E9005B512337E9005B4125546
:1054B300EA80137403651170121255B67CC47D051E
:1054C300AA08FB1212F41255C38004E5116028E503
:1054D300106014E50E650C7004E50F650D7008741B
:1054E30040450AF50A8010850882850983E50D1277
:1054F3005601E50C12338585100C750D00740A787E
:105503000C120B7DE50D450BF50B74026510701540
:10551300851282851383A312337E851282851383BA
:105523001255EA80137403651070121255B6AC124B
:10553300AD13AA08FB1212F41255C38004E51060E0
:1055430010850882850983E50F125601E50E123393
:1055530085A808A909E824FFF508E912449770050E
:105563009005A080039005ACE0FA04F0EA888289F4
:1055730083124375E50B125601E50AF0EE2404F895
:10558300E43FF912306BAC088A828B83E0F50A881A
:10559300828983E0250AC39C12594BECF0A3E509E9
:1055A300125AC7E4F0F9022DD0EE2412F582E43F3B
:1055B300F58322E50824F9F508E50934FFF5092206
:1055C3001255C722E50824FFF508E50934FFF5095C
:1055D30022EE1242573FF583221255E022EE2411A8
:1055E300F582E43FF58322E0850882850983F02272
:1055F300E0F50CA3E0F50D22F012440CE022123387
:1056030089850882F5832274EE120468890A8A0B5D
:105613008C108D11750C1A7416120CB1126362AAD8
:1056230008FB12233E8A0E8B0FAE0EAF0FEE4F60B8
:10563300607414120CB112569BE8F0A3E9122F8187
:10564300E50AF085080C85090D750E00780C120922
:105653008612336B121126740312099D7412120CF5
:10566300B11207C6AC10AD11A90BEEFAEFFB122471
:10567300B2740212099DE9F50C7016E50A24F9606B
:10568300031470061233F2D2E5F0EEFAEFFB1223A5
:1056930092A90C7F0A0206C3125D4012440D2274C4
:1056A300F612046874F7120A66EAFEEBFF7801EE5D
:1056B300242F12449E60027805124408E8122F7EBC
:1056C30074041256FB1212E8EE242C122F4C242ED3
:1056D30012570812098A7402120A3079031A1AEF50
:1056E300FB1224B2740212099DE9F5087007EEFA61
:1056F300EFFB122392025C64F0EE2423FCE43FFDF3
:10570300AA18AB1922F582E43FF583123096124CA6
:105713001504F078082274F21204688A088B09ECE5
:10572300FEEDFF8A828B837405F0EE243212449ED1
:105733008A828B83A3A3F0EA2403F50AE43509F5EF
:105743000B850A82F5831255F31258F7120C9AE56A
:105753000C12422D350DF583120C82125901AA0C3D
:10576300AB0D1212E8850A82850B83125D38FAA30A
:10577300E0FB88828983A3A3A3125135EE242F1261
:10578300449EC0E0125916D0E01259552415F582F3
:10579300E438F583E4125955125909E41259608526
:1057A3000A82850B83E02416FAA3E03400FB12245B
:1057B300CA8E828F83A3A3A3A3A3A3A3E0C0E08580
:1057C3000A82850B8312593A240DF582E438F58356
:1057D300D0E0125944FAA3E0FB850A82850B8312B9
:1057E300592DE8240BFCE439FD8A828B83E08C82FB
:1057F3008D83F0A3E412596DE0F50B8C828D83A3A6
:10580300E0450B12594BA3E0FCA30A0AAB83A2E7C2
:10581300E433C0E0E8240FF582E439F583D0E0F007
:1058230074075C600478018002780075F0037407E4
:105833005CA428F8EA28FAE43BFBE5082405F8E42D
:105843003509F98A828B8312309612596D85088245
:1058530085098312513588828983E0F50A54072527
:10586300E0FCE50AC4540F5407F50A750B007403F2
:10587300780A120B7DEC250AF8EA28F8E43BF9854F
:105883000882850983A3A3A3A3A3A3A3A3A3E8F0E7
:10589300A3E9124C11FA8E828F83A3A3E02AFAA301
:1058A300E03400FBC3EA98EB9940308E828F83A3E8
:1058B300A3E0F8850882850983A3A3A3A3A3A3A3D5
:1058C300A3A3E0FA8E828F83A3A3A3A3E0C39A28A2
:1058D300850882850983A3A3A3801085088285098F
:1058E30083A3A3A3A3A3A3A3124373A3A3A3A3A3C6
:1058F300F0023887EE2425F582E43FF58322EE2477
:1059030013FCE43FFD2212590D22240EF582E438E4
:10591300F5832212591A22E82410F582E439F5831B
:1059230022A3A3A3A3A3A3A3A3A312593122E0F801
:10593300A3E0F922901BB812593E22E0F8A3E0C875
:1059430022125B59A3A3E02212594F22F08A828BC1
:105953008322F0850A82850B8312593E22F0125965
:105963006522EE2408FCE43FFD2212594FA3AA82CC
:10597300AB832274F51204688C088D09750A0078CC
:10598300081209867C0B7D000262C102096AC0828B
:10599300C08379181224580245EAC082C0838A82E0
:1059A3008B83E0C3940B50031224D60245EAC082D2
:1059B300C083791980DE74F7120468EAFEEBFF9066
:1059C3001C0F124EBE6010901C0F12512B1224E2BA
:1059D3007A0F7B1C122488EEFAEFFB122482901CB0
:1059E3000FEEF0A3EF8002F0A3F00248A474F712C5
:1059F300046874DE120A66EAFEEBFF8E828F83E090
:105A030024FD601124FE601524ED600924FA600D65
:105A130014600A803D7416120CB1E48007741612E8
:105A23000CB17401F012402F740B120CB1AA82ABAB
:105A3300831212F47413120CB1125ACC120CB11259
:105A43004E16740A120CB1125AD8120CB1124E1619
:105A530080427416120CB17402F0125901740B12C5
:105A63000CB1AA82AB831212F47413120CB1125A42
:105A7300CC120CB1124E16740A120CB1125AD8126F
:105A83000CB1122F601259667417120CB1AA82ABB3
:105A9300831224CA851882851983740B125AC7E0AE
:105AA300C0E07401120CB1D0E01259607417120CEB
:105AB300B1AA82AB831224CAAA18AB191219307483
:105AC300220237F0125B59A3227403F09005B4123B
:105AD30059317402227402F09005B01259317414D2
:105AE3002274F7120468EAFEEBFF8E828F83A3E031
:105AF300F5087036EE242C125B5F7003A3E0696037
:105B0300037508E8EE2423FAE43FFB1224ACE960B2
:105B130032EE242FF582E43FF583E4F0E508700AC2
:105B2300EEFAEFFB1224BEE9F508E50860128E8257
