:020000040000FA
:06000000020B4F02024555
:03002B0002092F98
:030033000206B70B
:030043000207FDB4
:0300530002017A2D
:03006B00020691F9
:100083000201D9010020FD000200008F0F000000D3
:1000930000000000000000EF0F0000770F000000D9
:1000A300000000000000000000000000000000004D
:1000B300000000000006FFFF060008B5180000005E
:1000C3000160EA00005357353A2048656C702020E0
:1000D300202020202000E513EB130000F113F71379
:1000E300000000000000000000000020202020206D
:1000F300202020202020202020202001080401008F
:100103000100025E820262820101010400F518000F
:100113000000E8030000FFFFC119E80300006400CA
:100123006400B801A0BB0D00A0BB0D0002020008D3
:1001330000000502070401051E02051E020A0A014A
:1001430002080803B80B02803E0102FEFFE8030A1F
:10015300050001621A010A1401E00101050301010E
:10016300FF0F10FEFFDE29000000005028000000F2
:1001730000FF000000FF00C0E074F112045CA2AFB6
:10018300E433F509D2AF85A708AFA1EF5508FE7494
:10019300105E6006120D0D75A1EF74085E60081203
:1001A3000D1375A1F78024EFA2E092F0E508A2E019
:1001B30082F05017906198E0F8900583E0C398A20D
:1001C300D265D0335002E8F075A1FEE509A2E092B2
:1001D300AF7F020204BBC0E074F212045CA2AFE47E
:1001E30033FED2AF9061A4E0F8759B00E5915854BB
:1001F3000860087591F7120D5B8023E59158541040
:1002030060087591EF120D618014E591A2E092F000
:10021300E8A2E082F05007E0C2E0F0120EAB90617A
:10022300A3E0F8E5E9585404600E120E8175E9FB6A
:10023300906193E0A2E640F2EEA2E092AF7F01026A
:1002430004BBC0E074F212045CA2AFE433FED2AF8D
:100253009061A5E0F8E5BF585404600675BFFB1232
:100263000EC380D4C3E498F8E499F91202A8802657
:10027300C3E49AFAE49BFBE920E7E91202A8E498B5
:10028300F8E499F922C3E498F8E499F91202A8E48E
:1002930098F8E499F9C3E49AFAE49BFB22EB20E78C
:1002A300CFE920E7E0B90010BB0008E88AF084F842
:1002B300AAF022E4FBC8FA22EB70227B10C833C8F1
:1002C300C933C9335007C39AC3DBF280069A50017E
:1002D3002ADBEAC833F4C8C933F4C9FA2275F00833
:1002E300E4C833C8C933C933C99AC99B5004C92A5E
:1002F300C93BD5F0ECFBC833F4C8E4C9FA220808BB
:1003030008EAC0E0EBC0E086F0E7A4FA180986F03B
:10031300E7A42AFA180986F0E7A42AFA180986F04E
:10032300E7A42AFA1986F0E7A4FBE5F02AFA1908EC
:1003330086F0E7A42BFBE5F03AFA190886F0E7A468
:100343002BFBE5F03AFA18180986F0E7A4C5F02B61
:10035300FBE43AFA1908E7C5F0C6A426F6E5F03B34
:10036300FBE43AFA1886F0E7A4F6E5F00826F6E48B
:100373003B08F6E43A08F6D0E0FBD0E0FA22E4CFFB
:10038300C0E0E4CEC0E0E4CDC0E0E4CCC0E075F072
:1003930020E626F608E633F608E633F608E633F6F3
:1003A300181818EC33FCED33FDEE33FEEF33FFC3C7
:1003B300EC9709ED9709EE9709EF97191919400F73
:1003C300FFEC97FC09ED97FD09EE97FE191906D589
:1003D300F0BFECF709EDF709EEF709EFF719191973
:1003E300D0E0FCD0E0FDD0E0FED0E0FF222518C530
:1003F30082C0E0E51934FFC583C0E0E518C39582E8
:1004030024F810AF0885831985821880088583191D
:10041300858218D2AFCEF0A3E520F0A37808E608D2
:10042300F0A3DEFAEFF0A3E58124FAF8E608F0A3DF
:10043300E608F0A3E608F0A30808E608F0A3E60838
:10044300F0A315811581D0E0FED0E0F81581158168
:100453001581E8C0E0EEC0E022C0D02518C582C0F7
:10046300E0E51934FFC583C0E0E518C3958224F3A2
:1004730010AF0885831985821880088583198582C2
:1004830018D2AFC8F0A3E9F0A3EAF0A3EBF0A37985
:1004930008E709F0A3D8FAECF0A3EDF0A3EEF0A37C
:1004A300EFF0A3D0E0F0A3D0E0F0A3D0E0F0A3E519
:1004B30020F0A3E5F0F0A322851983851882E0C01C
:1004C300E0A3E0F9A3E0FAA3E0FBA37808E0F608D1
:1004D300A3DFFAE0FCA3E0FDA3E0FEA3E0FFA3E0BB
:1004E300C0E0A3E0C0E0A3E0F5D0A3E0F520A3E0E3
:1004F300A3F5F010AF0885831985821880088583DA
:1005030019858218D2AFD082D083D0E0F8D0E03200
:10051300120BE1B90003020552E4900301788D79CF
:100523001A8002F0A3D8FCD9FA7A8D7B1C9000863E
:1005330078F579018015E493A3AD82AE838A828B2B
:1005430083F0A3AA82AB838D828E83D8E9D9E77522
:1005530082967583C374051208C07582517583260C
:1005630074001208C075F0108E1A8F1B85821F85C8
:10057300831E851882851983E0CEA3E0CF851F8271
:10058300851E83EBC9EAC8EDCBECCAC3E833C8E9DF
:1005930033C9EA33CAEB33CBC3EA9EF51DEB9FF5B0
:1005A3001CB35004AB1CAA1DEC33CCED33CDD5F0FA
:1005B300DAAE1AAF1B22D083D082ECC0E0EDC0E0EC
:1005C300E493A3FCE493A3FDED4C600D1206D5EC7C
:1005D30024FFFCED34FFFD80EFE493A3FCE493A33D
:1005E300FDED4C600D1207A8EC24FFFCED34FFFD7C
:1005F30080EFD0E0FDD0E0FCE493A3C0E0E493C03F
:10060300E022D083D082E9C0E0E493A3C386F0C59F
:10061300F095F0F908E493A386F0C5F095F0700B1C
:10062300E493A3C3994005E9048002A3E475F002AF
:10063300A42582F582E5F03583F583D0E0F9E493D0
:10064300A3C0E0E493C0E022851983851882E0A368
:10065300FEE0A3F5207808E0A3F608DFFAE0A3FFA5
:10066300E0A3C0E0E0A3C0E0E0A3C0E0E0A3C0E0FB
:10067300E0A3C0E010AF0885821885831980088540
:100683008218858319D2AFD083D0820208C6C0E016
:1006930074F212045CA2AFE433FED2AFE589A2E1A7
:1006A300500312257F758900C2C5EEA2E092AF7F89
:1006B300010204BBC0E074F212045CA2AFE433FE97
:1006C300D2AFE58BA2E0500312257F758B00C2E801
:1006D30080D8C0E0C3E49396087401939618400F42
:1006E300E49366700808740193661870007019A388
:1006F300A3C3E49396087401939618A3A3400DD063
:10070300E0D0E0D0E00205F5A3A3A3A3A3A3D0E028
:1007130022D083D082C5F0E493A3C5F0C395F0F54E
:10072300F0E493A3C395F04005E5F0048001E4757C
:10073300F002A42582F582E5F03583F583E493A3E3
:10074300C0E0E493C0E0227404800474028000CC0F
:10075300C0E0EDC0E0E518C39CCCAD1950011D10FD
:10076300AF068C188D1980068C188D19D2AF12081C
:1007730042D0E0FDD0E0FC2274028000CCC0E0ED6A
:10078300C0E0E518C39CCCAD1950011D10AF068C19
:10079300188D1980068C188D19D2AF120820D0E05D
:1007A300FDD0E0FC22C0E0C0F088F0E4936670085E
:1007B3000874019366187000A8F0A3A3700BD0F01F
:1007C300D0E0D0E0D0E00205F5A3A3D0F0D0E02242
:1007D300D083D082CCC0E0E493A3600612088214D5
:1007E30070FAE493A360061209C21470FAD0E0FC15
:1007F300E493A3C0E0E493C0E022C0E074F21204E7
:100803005CA2AFE433FED2AFC2C0E5D1A2E4500391
:10081300120C7DEEA2E092AF7F010204BBCAC0E0DE
:10082300E493A3C582CCC582C583CDC583F0A3C59C
:1008330082CCC582C583CDC583DAE5D0E0CA22CA9E
:10084300C0E0E0A3C582CCC582C583CDC583F0A338
:10085300C582CCC582C583CDC583DAE6D0E0CA2282
:10086300C008C3E096F50808A3E096420808A3E091
:1008730096420808A3E09645087001D3D00822C029
:10088300E0E493A3D39C5010E493A3C39C400AD009
:10089300E0D0E0D0E00207F0A3A3A3D0E0227009E8
:1008A300080808226016181818C6C333C608C633CA
:1008B300C608C633C608C633C6D5E0EA22C09FF5CC
:1008C3009FE473D09F22D083D082C09FE493C0E083
:1008D300740193C0E0740293F59F227404800A7438
:1008E300038006740280027401C0E0F4041208F964
:1008F300D0E0120B8C222518F58210AF08F51840B2
:100903000C15198008F51840021519D2AF85198303
:100913002200C0D0251810AF08F518500C05198017
:1009230008F51850020519D2AFD0D022C0E0C0D0CC
:10093300E8C0E0A8A8D2AFC2C7E8A2E792AFD0E070
:10094300F8D0D0D0E032BB0102E722C082C0838955
:10095300828A83BB0003E08002E493D083D08222A7
:100963006016080808C6C313C618C613C618C613EC
:10097300C618C613C6D5E0EA22C3E0C696F608A396
:10098300E0C696F608A3E0C696F608A3E0C696F678
:10099300222518F8E43519F9222518FAE43519FB4C
:1009A300222518FCE43519FD22251810AF08F51887
:1009B300400C15198008F51840021519D2AF22C052
:1009C300E0E493A36C7009D0E0D0E0D0E00207F03C
:1009D300A3A3D0E022E066701008A3E066700A08C3
:1009E300A3E066700408A3E06622E76670100809B6
:1009F300E766700A0809E76670040809E76622C318
:100A0300E09608A3E09608A3E09608A3E096A2D296
:100A130065D03322C3E096F008A3E096F008A3E084
:100A230096F008A3E096F022C3E697F60809E69746
:100A3300F60809E697F60809E697F622C3E49396C3
:100A4300087401939608740293960874039396228C
:100A5300E627F60809E637F60809E637F60809E651
:100A630037F622E026F608A3E036F608A3E036F6CA
:100A730008A3E036F622700422600D18C6C333C6FD
:100A830008C633C6D5E0F41822E493F6087401933C
:100A9300F608740293F608740393F622E657F608F1
:100AA30009E657F60809E657F60809E657F622E07D
:100AB30056F608A3E056F608A3E056F608A3E05658
:100AC300F622E056F008A3E056F008A3E056F0083B
:100AD300A3E056F022E026F008A3E036F008A3E0F6
:100AE30036F008A3E036F022E647F60809E647F6B3
:100AF3000809E647F60809E647F622E4C396F6082E
:100B0300E496F608E496F608E496F622600D08C625
:100B1300A2E713C618C613C6D5E0F322C6F4C60867
:100B2300C6F4C608C6F4C608C6F4C622C3E79608C8
:100B330009E7960809E7960809E79622C3E09608AD
:100B4300A3E09608A3E09608A3E0962275D000756B
:100B5300813F75180175190300020513E6F008A318
:100B6300E6F008A3E6F008A3E6F022600C08C6C38B
:100B730013C618C613C6D5E0F422E0F608A3E0F6C0
:100B830008A3E0F608A3E0F622CAC0E0E6F0A30853
:100B9300DAFAD0E0FA22E8F0A3E9F0A3EAF0A3EB53
:100BA300F022E0F8A3E0F9A3E0FAA3E0FB22ECF0E3
:100BB300A3EDF0A3EEF0A3EFF022E0FCA3E0FDA38E
:100BC300E0FEA3E0FF22EAF0A3EBF0A3ECF0A3ED39
:100BD300F022E0FAA3E0FBA3E0FCA3E0FD22E5C7DB
:100BE30054F84401F5C77901222518F582E4351933
:100BF300F58322C2AF75D69F020000221208C92EC8
:100C0300B1051208C9A2B1051208C9BCB105120881
:100C1300C9D3B1051208C9E6B1051208C9FEB10569
:100C23001208C913B2051208C934B2051208C985DE
:100C3300B2051208C92DFC041208C93BFC041208B2
:100C4300C9B4FC041208C989FD041208C95BFF0476
:100C53001208C9C0FF041208C99990051208C906F1
:100C630091051208C9BE91051208C93492051208EC
:100C7300C94E93051208C9DE94051208C9479505A4
:100C83001208C99695051208C99F95051208C9AEA1
:100C930095051208C9C495051208C9D79505120808
:100CA300C9E095051208C9F395051208C91F9605F1
:100CB3001208C9B698051208C9F698051208C93270
:100CC30099051208C94699051208C95F99051208C2
:100CD300C9509A051208C9029B051208C9169B053B
:100CE3001208C9BDD2051208C9E1D2051208C9FA12
:100CF300D2051208C938D3051208C968D3051208EA
:100D0300C995D3051208C9FBD3051208C9FED3053B
:100D13001208C908D4051208C915D4051208C9FE5A
:100D2300C0051208C91EC1051208C95DC105120814
:100D3300C97BC1051208C996C1051208C9FCC105C2
:100D43001208C908C2051208C965C2051208C98973
:100D5300C2051208C94AC3051208C957C3051208B8
:100D6300C968C3051208C9E1DD051208C9F9DD0523
:100D73001208C925DE051208C989A5051208C9E3A9
:100D8300A6051208C9F1A6051208C904A705120889
:100D9300C919A7051208C92EA7051208C941A70535
:100DA3001208C9BDA7051208C922A8051208C9B8A7
:100DB300A8051208C991A9051208C9A1A905120815
:100DC300C9B0A9051208C9ABDC051208C9CFDC05F7
:100DD3001208C9F7DC051208C91FDD051208C94549
:100DE300CD051208C96CCD051208C98ACD051208B4
:100DF300C9F9CD051208C92BBE051208C944BE05A1
:100E03001208C950BE051208C964BE051208C9827A
:100E1300BE051208C98CBE051208C996BE05120884
:100E2300C9A9BE051208C92FBF051208C9A4BF0569
:100E33001208C9D3BF051208C921C0051208C97019
:100E4300C0051208C98BC0051208C995C005120850
:100E5300C9A6C0051208C9E9C0051208C987DF057C
:100E63001208C9A6F2041208C9D2F2041208C9EF83
:100E7300F2041208C902F3041208C91DF30412088C
:100E8300C977F3041208C9A5F3041208C9B5F70416
:100E93001208C913F9041208C945F9041208C9A8AC
:100EA300F9041208C91EFB041208C946FB04120800
:100EB300C95BFB041208C96BFB041208C9ABFB0432
:100EC3001208C9EDFB041208C9FDFB041208C9A2EC
:100ED300D6051208C9BCD6051208C9E4D6051208FE
:100EE300C9FDD6051208C921D7051208C93FD70580
:100EF3001208C956D7051208C984D7051208C99F15
:100F0300D7051208C9D2DF051208C999BA05120814
:100F1300C9A9BA051208C9B0BB051208C9E4BB05C3
:100F23001208C906BC051208C929BC051208C9471D
:100F3300BC051208C981BC051208C9E6BC05120824
:100F4300C928BD051208C96FBD051208C99CBD0596
:100F53001208C9D3BD051208C91FD4051208C93A1E
:100F6300D4051208C99CD4051208C936D505120840
:100F7300C9F0DA051208C9D2D7051208C91AD8056B
:100F83001208C94CFE021208C98CFF021208C9B527
:100F9300D3041208C9A1D7041208C996D9041208A8
:100FA300C9C8DA041208C9A1DB041208C938DD0470
:100FB3001208C904DE041208C958DE041208C96AFB
:100FC300CF051208C98BCF051208C9BED005120878
:100FD300C9E8D0051208C92BC6051208C9A0C60561
:100FE3001208C9ABC6051208C9CCC6051208C977D1
:100FF300F0011208C90AF5011208C96CF6011208BA
:10100300C943F8011208C9CCF8011208C963F901F0
:101013001208C922FA011208C916FB011208C92EC7
:10102300FC011208C95DFD011208C9BDC8051208FB
:10103300C9DDC8051208C9F0C9051208C9D9CA050E
:101043001208C99FFE031208C9D5FE031208C9F18D
:10105300FE031208C933FF031208C943FF03120832
:10106300C9DDFF031208C9E7FF031208C9F6E80444
:101073001208C900E9041208C93AE9041208C9A30D
:10108300E9041208C9C2E9041208C9DBE904120819
:10109300C97DEA041208C905ED041208C90EED045E
:1010A3001208C95FED041208C988ED041208C99536
:1010B300ED041208C906EE041208C994EE041208DE
:1010C300C9E2EE041208C918EF041208C979EF0443
:1010D3001208C9A2EF041208C919F0041208C9754D
:1010E300F0041208C9B2F0041208C9E9F0041208A6
:1010F300C9FBF0041208C90DF1041208C92CF1044C
:101103001208C935F1041208C9F0F1041208C93CE8
:10111300F2041208C97AF2041208C952A00512088F
:10112300C992A1051208C9B5A1051208C9C6A1052E
:101133001208C9E5A3051208C905A4051208C907C1
:10114300CB051208C93DCB051208C985CB0512088A
:10115300C9DECC051208C96EAE041208C99FAF04DC
:101163001208C9DBAF041208C995B1041208C9BF3C
:10117300B1041208C938B4041208C978B4041208B7
:10118300C90CB6041208C9ABB6041208C903B704E4
:101193001208C996B7041208C9D0B7041208C912B5
:1011A300B8041208C985B9041208C905BB0412089A
:1011B300C942BD041208C970BD041208C99CBD040C
:1011C3001208C9A5BD041208C9FBBD041208C98BC6
:1011D300BE041208C9C9C1041208C94BC2041208CB
:1011E300C9A2E0051208C9B8E0051208C92ADF053B
:1011F3001208C9BAB2051208C9D0B2051208C974D7
:10120300B3051208C9B3B3051208C9D0B305120850
:10121300C901B4051208C94EB4051208C982B40540
:101223001208C9BDB4051208C9B2B6051208C9F03F
:10123300D9051208C94FDA051208C98DDA05120853
:10124300C9CEDA051208C90080041208C90C80044B
:101253001208C96E80041208C97880041208C905EF
:1012630081041208C94181041208C9FD81041208CE
:10127300C90A82041208C96E82041208C9B782041B
:101283001208C98883041208C90384041208C9C256
:1012930085041208C9F587041208C95B890412087A
:1012A300C9BC8A041208C9488B041208C9948C0467
:1012B3001208C9978D041208C9F18E041208C9BB1C
:1012C30093041208C9B294041208C936950412088B
:1012D300C95B95041208C98095041208C9199604BC
:1012E3001208C93796041208C99D96041208C9B991
:1012F30096041208C9E996041208C9FB9704120858
:10130300C9CE98041208C94B9A041208C96C9A04EE
:101313001208C9EF9A041208C9959B041208C9DC84
:101323009B041208C9549C041208C9B19C041208F6
:10133300C93C9D041208C9949E041208C904A00460
:101343001208C996A0041208C9FCA0041208C90D0A
:10135300A3041208C9B2A4041208C9C7A40412083A
:10136300C9FFA4041208C96CA5041208C9B0A504D6
:101373001208C921A6041208C9C7A6041208C9B4D1
:10138300A8041208C983A9041208C995AA0412085B
:10139300C943AC041208C94DFE011208C9E9FE0194
:1013A3001208C90AFF011208C961D5051208C9A5A7
:1013B300D5051208C9F0D5051208C9008005120821
:1013C300C99080051208C90C82051208C9968205C6
:1013D3001208C9B483051208C9D184051208C93596
:1013E30085051208C97285051208C9B28505120858
:1013F300C9D285051208C9D585051208C9178605FE
:101403001208C95488051208C97988051208C981C8
:10141300D6021208C9D9D6021208C969D70212081E
:10142300C9E2D8021208C9C2D9021208C9B0DA0245
:101433001208C9C7DA021208C919DB021208C98DDA
:10144300DB021208C9D9DB021208C9ECDB0212085D
:10145300C945DC021208C95DDC021208C920DF029B
:101463001208C9B6DF021208C9EDDF021208C93635
:10147300E0021208C938E2021208C988E20212081F
:10148300C962E3021208C99BE3021208C9BAE30264
:101493001208C905E4021208C925E4021208C9DCCE
:1014A300E4021208C9D7E5021208C932E60212089B
:1014B300C972E6021208C95BE7021208C9D3E9023E
:1014C3001208C906EA021208C9A8EA021208C9CD1D
:1014D300EA021208C951EB021208C930EC021208E1
:1014E300C96EEC021208C9D2EC021208C990ED02CF
:1014F3001208C993ED021208C99DED021208C9A78B
:10150300ED021208C9C3ED021208C93FEE02120828
:10151300C978EE021208C994EE021208C9C0EE029D
:101523001208C9E7EE021208C90BEF021208C946F6
:10153300EF021208C9B9EF021208C9EDEF0212084F
:10154300C92EF0021208C963F0021208C983F0021F
:101553001208C9C0F0021208C9F7F0021208C9FA4A
:10156300F1021208C932F3021208C951F302120838
:10157300C9D2DE051208C9EADE051208C92A9B058D
:101583001208C9689B051208C9019C051208C90CF9
:101593009D051208C9549F051208C9D19F05120859
:1015A300C93F89051208C98E89051208C94C8B05E4
:1015B3001208C9068D051208C9448D051208C971A0
:1015C3008E051208C97C8F051208C99E8F05120863
:1015D300C9E88F051208C96990051208C9E16600B8
:1015E3001208C90467001208C91268001208C95B0F
:1015F30068001208C9BB68001208C91769001208FD
:10160300C96869001208C9DE69001208C9636A0063
:101613001208C9DB6A001208C91E6B001208C94709
:101623006F001208C99871001208C93372001208BA
:10163300C99772001208C9BC72001208C9797400F4
:101643001208C9A076001208C97F77001208C903DF
:1016530078001208C92F79001208C95E7A001208AF
:10166300C99D7A001208C9517B001208C9A8C20497
:101673001208C948C3041208C9B4C3041208C969CB
:10168300C4041208C9C8C4041208C976C5041208E0
:10169300C931C8041208C953C9041208C9DCC904F2
:1016A3001208C9BFCB041208C963CC041208C9D2FB
:1016B300CC041208C94ACE041208C9B3CF041208D5
:1016C300C9C2D0041208C94FD1041208C966D20492
:1016D3001208C970D6031208C9DBD6031208C9233E
:1016E300D7031208C967D7031208C9C2D703120860
:1016F300C91FD8031208C95AD8031208C9DED80370
:101703001208C938D9031208C9A7DA031208C91F76
:10171300DB031208C937DC031208C95FDC031208B4
:10172300C96BDD031208C97CDD031208C994DD030C
:101733001208C9BDDE031208C9E0DE031208C9B9E5
:10174300DF031208C9DDDF031208C9F4DF0312083F
:10175300C918E0031208C93AE0031208C914E103E7
:101763001208C96EE1031208C9E8E2031208C9446A
:10177300E3031208C95BE3031208C989E3031208F0
:10178300C9DBE4031208C95AE5031208C991E5034A
:101793001208C9CBE5031208C937E6031208C9F6D4
:1017A300E6031208C9D4E8031208C9D4E9031208EE
:1017B300C9DFEA031208C9F1EB031208C919ED03E3
:1017C3001208C927ED031208C92CEE031208C9CE6B
:1017D300EE031208C914EF031208C929EF03120814
:1017E300C931F0031208C9D2F0031208C92EF1035C
:1017F3001208C9BFB6051208C97AB8051208C93953
:10180300B9051208C98EB9051208C914BA05120818
:10181300C9FF7B001208C91D7C001208C9617C0046
:101823001208C9877C001208C9AE7C001208C9C619
:101833007C001208C9DE7C001208C9F67C0012087D
:10184300C9987D001208C9DA7D001208C9EF7D002E
:101853001208C9117F001208C91A7F001208C96F44
:10186300D9051208C92C7F001208C9367F00120857
:10187300C9E1A9051208C9D5AD051208C9E3AD052B
:101883001208C9E8AD051208C9B8C4051208C94D44
:10189300E0051208C916E0051208C979E005120827
:1018A300C9C2E0051208C90080021208C9578002A4
:1018B3001208C9C380021208C94F81021208C90560
:1018C30082021208C942B0051208C96682021208D0
:1018D300C98982021208C9AB82021208C9E98202CD
:1018E3001208C93883021208C96383021208C9C1E6
:1018F30083021208C96884021208C91085021208FB
:10190300C98C85021208C95986021208C9A0860229
:101913001208C9EC86021208C97487021208C9ADFD
:1019230087021208C90388021208C91F8802120815
:10193300C94E88021208C95A8A021208C9888B0242
:101943001208C9B48B021208C9E88B021208C9092C
:101953008C021208C9188C021208C9238C021208BF
:10196300C9D28C021208C9428D021208C9CD8D0258
:101973001208C9D58D021208C9428E021208C97E07
:101983008E021208C9448F021208C9179002120866
:10199300C96C90021208C90B91021208C965910221
:1019A3001208C9AA91021208C94394021208C986EF
:1019B30095021208C97098021208C95499021208B4
:1019C300C9389A021208C9499A021208C9BB9A0275
:1019D3001208C9529B021208C9B79B021208C9A771
:1019E3009C021208C9CC9C021208C9EA9C02120884
:1019F300C9069D021208C9799D021208C9769E0282
:101A03001208C9839E021208C98C9E021208C96E6D
:101A1300A0021208C990A1021208C9A0A1021208CB
:101A2300C9CEA2021208C952A3021208C98EA30288
:101A33001208C968A5021208C925A9021208C939E2
:101A4300A9021208C943A9021208C94DA902120822
:101A5300C957A9021208C970A9021208C97AA902B2
:101A63001208C9E7A9021208C9F2A9021208C91A81
:101A7300AA021208C925AA021208C98AAA021208D0
:101A8300C995AA021208C9B9AA021208C9DDAA0295
:101A93001208C94FAB021208C998AB021208C9B4A5
:101AA300AB021208C925AC021208C971AC021208B4
:101AB300C9BAAC021208C9F8AC021208C979AD025E
:101AC3001208C920AE021208C9EFAF021208C954A6
:101AD300B0021208C982B1021208C9A8B1021208E1
:101AE300C9F0B2021208C92AB6021208C928B802FC
:101AF3001208C9F3B9021208C98CBA021208C98DB7
:101B0300BC021208C942BD021208C97BBD021208F9
:101B1300C9E1BD021208C9EBBD021208C914C00213
:101B23001208C953C1021208C9AAC1021208C95531
:101B3300C2021208C905C4021208C952C50212081A
:101B4300C972C5021208C9C7C5021208C9C8C602AC
:101B53001208C9F0C6021208C94FC7021208C947C2
:101B6300C8021208C9BEC8021208C9D1C9021208A4
:101B7300C93FCA021208C93ECB021208C998CD0256
:101B83001208C9C1CD021208C927CF021208C9A978
:101B9300D0021208C900D1021208C9AED10212083C
:101BA300C953D2021208C9ACD2021208C96AD302BD
:101BB3001208C9FCD3021208C95BD4021208C99DDA
:101BC300D4021208C9CED4021208C925D6021208BB
:101BD300C90080031208C93280031208C96B80034D
:101BE3001208C92982031208C9FF82031208C95EB9
:101BF30083031208C97484031208C9C0840312083A
:101C0300C94E87031208C9288A031208C96F8B03B8
:101C13001208C9078C031208C9138C031208C95C84
:101C23008C031208C99E8D031208C9948E031208EF
:101C3300C9BE8E031208C9148F031208C96D8F031E
:101C43001208C9E08F031208C91692031208C99833
:101C530093031208C98394031208C9CD950312088C
:101C6300C90598031208C9029B031208C9119B03F3
:101C73001208C9A59B031208C9509C031208C993F3
:101C83009C031208C9FB9C031208C9179D03120881
:101C9300C9469D031208C9859D031208C9809E0386
:101CA3001208C92F9F031208C9ACA1031208C9DE89
:101CB300A2031208C9B6A3031208C938A403120861
:101CC300C96DA8031208C99CA8031208C9F7A80381
:101CD3001208C92AA9031208C9A2A9031208C9D55F
:101CE300A9031208C936AA031208C986AA0312084F
:101CF300C953AB031208C90CAC031208C9D0AC0317
:101D03001208C94AAF031208C9ACB0031208C9FDCF
:101D1300B1031208C921B3031208C924B30312087B
:101D2300C953B3031208C94BB5031208C90AB60352
:101D33001208C939B6031208C957B7031208C91FD5
:101D4300B8031208C9DDB9031208C90FBA03120890
:101D5300C951BA031208C950BB031208C9C3BB0354
:101D63001208C9ECBD031208C94BBE031208C99F70
:101D7300BE031208C9CEC0031208C9B1C1031208B9
:101D8300C939C2031208C927C3031208C93BC303D5
:101D93001208C94FC3031208C97CC3031208C9AC94
:101DA300C3031208C967C5031208C979C603120819
:101DB300C9CEC6031208C917C7031208C93EC70311
:101DC3001208C906C8031208C9ACC8031208C932ED
:101DD300CA031208C979CA031208C9EBCA03120855
:101DE300C940CC031208C9E9CC031208C91DCD03AD
:101DF3001208C935CD031208C9D8CD031208C95436
:101E0300D0031208C9FCD1031208C91AD20312085D
:101E1300C938D2031208C904D3031208C952D6031E
:101E23001208C9BD82011208C9F582011208C9E965
:101E330087011208C93588011208C97B8801120875
:101E4300C9B189011208C9168A011208C98B8B010D
:101E53001208C9958E011208C9BE8F011208C9D193
:101E630099011208C9619A011208C94B9D01120810
:101E7300C9589E011208C9BB9E011208C903A001DB
:101E83001208C971A2011208C903A4011208C9905A
:101E9300A4011208C9AFA5011208C93CA601120882
:101EA300C946A6011208C96EA6011208C90EA701E8
:101EB3001208C9F9A7011208C9C6A8011208C9E383
:101EC300A8011208C90CA9011208C939A9011208ED
:101ED300C980AB011208C94FAC011208C98EAC010D
:101EE3001208C910AD011208C9B1AD011208C9E346
:101EF300AD011208C92AAE011208C95DAE0112086C
:101F0300C9A1AE011208C9F0AE011208C9F5AE01AC
:101F13001208C951AF011208C995AF011208C96F60
:101F2300B0011208C9D4B0011208C93AB1011208AC
:101F3300C9B5B1011208C91DB5011208C920B601FE
:101F43001208C99EB7011208C9B4BA011208C956CA
:101F5300BB011208C99FBD011208C95ABE0112086C
:101F6300C999BE011208C971C0011208C98EC00106
:101F73001208C997C0011208C9A0C0011208C9AB51
:101F8300C0011208C9CAC0011208C96EC2011208F1
:101F9300C9CBC2011208C9D5C2011208C9DFC201E7
:101FA3001208C93EC3011208C988C3011208C989AE
:101FB300C4011208C9E0C4011208C9F1C50112081D
:101FC300C93AC6011208C9F4C6011208C90BC801EF
:101FD3001208C9E0C8011208C927CA011208C92B8F
:101FE300CB011208C924CC011208C93CCC01120848
:101FF300C973CC011208C97DCC011208C988CC0170
:102003001208C9A6CC011208C9EECC011208C94CAA
:10201300CD011208C973CD011208C985CD0112087B
:10202300C93ACE011208C973CE011208C995CF016E
:102033001208C9E8CF011208C9CED0011208C9F5A8
:10204300D0011208C965D1011208C9E1D1011208F2
:10205300C93DD3011208C964D4011208C926D501A8
:102063001208C9F4D5011208C9B2D6011208C99AD7
:10207300D7011208C944D8011208C9ACD801120803
:10208300C961D9011208C9BDD9011208C915DA01FC
:102093001208C9DBDA011208C9FEDA011208C9B94C
:1020A300DB011208C9DBDB011208C93CDC011208A1
:1020B300C96CDE011208C965DF011208C911E0010C
:1020C3001208C932E2011208C97BE2011208C9C62B
:1020D300E2011208C922E3011208C980E3011208D0
:1020E300C9A4E3011208C9C8E3011208C9FDE30149
:1020F3001208C925E4011208C96AE4011208C9BE1D
:10210300E4011208C917E5011208C911E601120812
:10211300C9AFE7011208C9F4E7011208C91DE801B4
:102123001208C9A6E8011208C919E9011208C9274A
:10213300E9011208C94BE9011208C9A1E901120812
:10214300C9BCE9011208C977EA011208C9A3EA0167
:102153001208C9E6EA011208C949EB011208C95776
:10216300ED011208C983ED011208C93EEE01120800
:10217300C922EF011208C9B6EF011208C976DE04BD
:102183001208C9AEDE041208C9CFDE041208C91151
:10219300DF041208C975DF041208C97FDF041208BF
:1021A300C98FDF041208C9C6DF041208C96FE3042C
:1021B3001208C937E5041208C91BE7041208C9BD90
:1021C300E7041208C947E8041208C91F2D001208C2
:1021D300C9C82D001208C9A72E001208C9B32F00C1
:1021E3001208C9D32F001208C9F530001208C9A577
:1021F30032001208C91233001208C9E3330012086F
:10220300C9E934001208C96135001208C99C3500B8
:102213001208C9F535001208C93036001208C97909
:1022230036001208C90D37001208C9A33700120877
:10223300C97838001208C94B39001208C9D93900C6
:102243001208C9FF39001208C92C3A001208C95DE7
:102253003A001208C92A3B001208C93A3B00120887
:10226300C98D3B001208C99A3B001208C9A73B005D
:102273001208C9B03B001208C9143C001208C97205
:102283003C001208C9BD3C001208C9D83C00120822
:10229300C9FF3C001208C91C3D001208C9283D00B3
:1022A3001208C9B93E001208C9D23E001208C94E2D
:1022B3003F001208C9613F001208C9713F001208AC
:1022C300C91540001208C98141001208C99442008F
:1022D3001208C93443001208C93E43001208C9BD9D
:1022E30043001208C9CE43001208C90D4400120866
:1022F300C93B44001208C90845001208C95F4500DC
:102303001208C99845001208C9EE45001208C90C05
:1023130046001208C95A46001208C9254700120888
:10232300C97347001208C9C047001208C9434800CF
:102333001208C96D48001208C9A348001208C9B29F
:1023430048001208C91149001208C9894900120836
:10235300C9CA49001208C91A4A001208C9454A00E5
:102363001208C95F4A001208C9794A001208C94E07
:102373004B001208C9584B001208C9934B001208AE
:10238300C9A34B001208C9AC4B001208C9FD4B008E
:102393001208C9114C001208C9334D001208C9486C
:1023A3004D001208C9DB4D001208C94F4E00120838
:1023B300C9F44E001208C9FF4E001208C96250004A
:1023C3001208C97E50001208C9CA50001208C93841
:1023D30051001208C96A51001208C9845100120839
:1023E300C9E451001208C98352001208C9CE520031
:1023F3001208C92155001208C9B955001208C9307D
:1024030056001208C98D58001208C9A558001208B1
:10241300C9A858001208C9B458001208C9C85800FE
:102423001208C9D058001208C90759001208C9FB7D
:1024330059001208C9855A001208C9075B0012081F
:10244300C9875B001208C95E5C001208C9805C0082
:102453001208C9195D001208C9765D001208C9790E
:102463005D001208C9E85D001208C9345F00120854
:10247300C94760001208C9D260001208C9E56100AB
:102483001208C9AC62001208C9DD62001208C90350
:1024930063001208C90C63001208C93B63001208E9
:1024A300C9EB63001208C99B64001208C90E6500DA
:1024B3001208C9B165001208C92466001208C9636D
:1024C30066001208C9AC66001208C9EBD8051208E9
:1024D300C9D7DD051208C96FDD051208C954DD052A
:1024E3001208C944DD051208C9E3FF021208C9ED49
:1024F3007F001208C98ADC051208C9ECDB05120843
:10250300C9DBDB051208C966DE051208C9C5FD0370
:102513001208C9E9FC031208C907FC031208C966BB
:10252300FA031208C925FA031208C9FCF9031208B1
:10253300C9B0F9031208C91FF9031208C98FF803B8
:102543001208C96DF8031208C915F8031208C9D196
:10255300F7031208C95EF7031208C9CDAF051208C5
:10256300C9F9F6031208C9B3AF051208C97BAF0551
:102573001208C964AE051208C94FAE051208C97E18
:10258300D2051208C925D2051208C9DDD1051208E2
:10259300C9BED1051208C9A8F6031208C9CFF503AD
:1025A3001208C93FF5031208C9F3F4031208C95806
:1025B300D1051208C96EF4031208C929F4031208DD
:1025C300C90DF4031208C9ACF2031208C936D105C8
:1025D3001208C97EF2031208C94D82021208C94BC0
:1025E300F2031208C9CFF1031208C901FE0212084F
:1025F300C99FFD021208C96AFD021208C937FD020C
:102603001208C90FFD021208C9A5FC021208C987E6
:10261300FC021208C958FC021208C91FF902120869
:10262300C90CF7021208C90FF5021208C98FF40288
:102633001208C93DF4021208C9D7D9051208C9F115
:10264300F3021208C984F3021208C9237F000000B1
:102653000080FBE473870001005F1D350004002444
:102663001D25000200281D260002002A1D27000246
:10267300002C1D28000100361D29000100371D8490
:10268300000400381D860001003C1D2A0001003DA6
:102693001D2B0001003E1D2C000100421D2D0008D2
:1026A30000431A2E000100431D2F000100441D307A
:1026B300000100451D31000100461D320001004BA1
:1026C3001A330001004C1A34000100471D36000183
:1026D300004D1A38000100481D39000100411D83D7
:1026E3000002005D1D63000100591A640001003FF0
:1026F3001D65000100401D6D0001005A1A7100089C
:10270300003B1A660001005C1D430001004D1D449F
:102713000002004E1D45000100501D4600020051FD
:102723001D47000800511A48000100531D4B0001CA
:1027330000541D04000100601DA1000100631D374A
:10274300000100621D88000100611D3C0001004E74
:102753001A3D000100491D49000200551D67000193
:10276300005B1A4D000200571D4E000100591D4F1A
:102773000002005A1D3E000100501A510001004A98
:102783001D520001004B1D530001004C1D5400015C
:10279300004F1A000000000000000136360101005E
:1027A3000102010001030100010401060605020004
:1027B30000070100340801000F090401010D0100A5
:1027C300FF0E08000017020000190100FF1A0100A4
:1027D300011B0100FE1C0100081D0200001F010077
:1027E3000120010001210200002301000F24020047
:1027F300002601000127010008280200FF2A01002A
:10280300072B0102402C0100002D0100012E0100C5
:10281300012F0100FF30010B1D310800003A0100B8
:10282300083B01000F3C0100013D0100FF3E040095
:102833000042040000460400004A0400004E040065
:102843000052040000560400005A04000001037102
:102853000301030103010301030103220302030133
:10286300031003000300030003000300030003003D
:1028730003420300032403060300030003040312BB
:102883000325032303250323030403040300030095
:102893000300034403000300032303000365032130
:1028A3000035038103000305030003000300030055
:1028B3000325032303030271023001600211027036
:1028C300020102020202028002100261023A004186
:1028D30000630273027202620243020002130238AF
:1028E30000000200020402120200020002000200C1
:1028F3000204020402370037003C0244020002399A
:102903000000020002650200023502810200020596
:10291300028202830200020101710101010101111E
:102923000101013101010101018001100161013B3C
:10293300001400630173017201620143010001137A
:102943000106013D013500040112010001000100EF
:1029530001000104010401330133013C014401324C
:10296300013600000100016501000135008101000D
:102973000105018201830100010304710402046063
:10298300041104700402040204010402041004612B
:102993000400041404630473047204620443040013
:1029A30004130406040004000404041204000400D5
:1029B30004000400045104640000040004000444FF
:1029C30004000400040004000465040004350481C9
:1029D3000464000504000483040004030071003050
:1029E30001600011007000310220035004800010C8
:1029F3000061000000140063007300720062004372
:102A03000000001300060000000000040012000094
:102A13000000000000000004000400370037003C01
:102A230002440000000000000000006500000035C3
:102A33000081000000050000008300000036000153
:102A430000060000000F000000000000000000006E
:102A530000000003FFFF00000403FFFF0000FFFF6F
:102A63000FF4010005C4040320000100000B000063
:102A730000000000000003010F0000000000000040
:102A83000000000000000000000000000000000043
:102A930000000000000000000000002B1379133138
:102AA3001365120000000000000000000000000099
:102AB300000000371365123D136512431365124975
:102AC3001365124F136512551365125B137F136160
:102AD3001365120000000000000000000000006702
:102AE3001391136D136512671391136D1365125BC5
:102AF300137F1373136512000003002001BA8200D1
:102B03000000002001BB820000040042016D800030
:102B130000050042015C800000060042014B80007A
:102B23000007002001BC82000010004203F41C00D7
:102B33000011002003C718000012001003051D0632
:102B43000000001001CA180A00000002000000047F
:102B530000000008000000100000002000000040FA
:102B630000000080000000000100000002000000DF
:102B73000400000008000000100000002000000016
:102B830040000000008B16130037161F003D161F70
:102B930080431601008B160200FB15030001160487
:102BA30000071605000D160600191636002B16FF32
:102BB300FF000001651E068F1E08891E0BA71E104D
:102BC300831B026B1E057D1E07711E0C4D1E0D59C6
:102BD3001E649119FF000007ECFDFDFDECDCDCCC6D
:102BE300BCACAC9C9C8C7C7C6C6C5C5C5C4C4C3C52
:102BF3003C2C2C1C1C03EAF5E5D5D5C5B5A595954C
:102C030085857575656555554545353525251515F1
:102C13000500160F00000B150B020002220F3300F4
:102C2300000E01030507090B0D0F00020406080A35
:102C33000C0D000000040600000406000104060059
:102C430002045A6967426565416C6C69616E63652C
:102C5300303900393D3F373C3C362C442D00034A84
:102C630049434E181A250502303017181921301B15
:102C73001D1F3000011916181616182303003030D3
:102C830016181920231A1C1E300C0E020B040B0AF3
:102C93000708000F020402010101010902E8030011
:102CA3000000BE040A00007F000E00E803000009D4
:102CB30005040400100803030A1E0C0A10080C285C
:102CC3001EFF000903010C0508150404E004123576
:102CD3004FA2E792AF22E4F0A3F0A3F022A3122CB9
:102CE300D9A3F0227F0C02064BE0F508E4F509F5C1
:102CF3000AF50B227401F090059BE0640F2274091E
:102D03001209147F0402064BA3A3E024F5C3941312
:102D1300229005BB1258487A147B0022C082C083DC
:102D2300901B75742BF0A37422F0A3743DF0A3746D
:102D330022F0901B797413F0A37422F0A3740DF0A6
:102D4300A37422F0A37449F0A37422F0A3744FF088
:102D5300A37422F0A37443F0A37422F0A374FBF0D2
:102D6300A37421F0901B85741FF0A37422F0A37445
:102D730025F0A37422F0A37419F0A37422F0A374B2
:102D830055F0A37422F0901B96124DD56006125095
:102D93003F121151901B931244F87408F0A3E4F00E
:102DA300A3F0901C36F0901B98F07C0BFDF97A99F8
:102DB3007B1B12107F7C0B7D0079007AA47B1B1296
:102DC300107F02450174F71203F074F71209ACEA9D
:102DD300FEEBFF12431F7405122E957403F0EE24CD
:102DE30002FAE43F122E6F242DFCE43FFD8C828D0A
:102DF30083122FAD122E7E60081236F774FFF0A3F4
:102E0300F0EE242BE43F1C1CFD8C828D83A3E0C0D9
:102E1300E08A828B83124330D0E0122E7E8882892F
:102E230083124B2824031256121212417408120BF8
:102E3300EC7403F09005B012074E74021209A479E2
:102E430003EEFAEFFB1223ED7402120914E9F508FD
:102E53007007EEFAEFFB1222CDA9087409023707B7
:102E6300F582E43FF58312627D124B1DFB8A828B50
:102E730083122E8DE8F0A3E9F0EE22125866122E8B
:102E83008DE8F0A3E9125DE2E022122F788A828BAB
:102E93008322F0A3E4F0122E9D22EE240DF582E4AA
:102EA3003FF5832274F11203F0EAFEEBFF8C088DE9
:102EB30009890A122F828A828B83122F78740F1248
:102EC3000BEC122F9BE824FF18E934FFF988828961
:102ED30083E50A122F8D9005B5122F8A9005B4123F
:102EE3002F8A7411120BEC122F9BEE2404FCE43F87
:102EF300FD880B8A828B83E0F50C8C828D83E02521
:102F03000CC3950B125862E8F0A3E912428CA3A3F9
:102F1300A3A3A3A3A3A3E0640370081245E8F0A34B
:102F2300E4800312328E122E987409F0750C997591
:102F33000D1B750E00780C1208E212328212107308
:102F43007403120914750CFF750DFF780C1208E653
:102F5300AC08AD097903EEFAEFFB1223ED7402120C
:102F63000914E9F5087007EEFAEFFB1222CDA90860
:102F73007F0702064BE024FFF8A3E034FFF922EEBB
:102F83002402FAE43FFB22122FAD122F9122F0E824
:102F930024FF18E934FFF922E0F50CA3122FAD1238
:102FA3002F9188828983E50CF022E088828983222D
:102FB300C082C083901BB5E0C394084004740780AB
:102FC30001E08A828B83F033333354F8F9024501ED
:102FD30074F01203F0EAFEEBFF890C8C0E8D0F7573
:102FE3000A00A2AFE433F50BC2AF901BAF803F12D0
:102FF30030BB50371230CC64037030EE24F9FEEF4F
:1030030034FFFF850882850983A3A3E02405FCA37D
:10301300E03400FDEEFAEFFB121241EE24FF1EEF47
:1030230034FFFF7410250AF50A150C124259126277
:1030330079E50C6006E508450970B4E50BA2E0925A
:10304300AFA2AFE433F50BC2AF901BAF802C2402C9
:10305300FAE43509FB8A828B831258512406F582E0
:10306300E438F5831230D98A828B831230C1A3A34B
:103073001230D9050A150C12425912426E602212FF
:1030830030CC640270F11230BBE50840C11233BC8E
:10309300A2E550E3850E82850F837401F0E50C7081
:1030A300D6E50BA2E092AF8E828F83E50AF0EE2481
:1030B300FFFAEF34FFFB80351233C7A2E62212304A
:1030C300C522125C46A3A3A3228508828509831225
:1030D3005C4012527A22E08E828F83F0EE24FF1E30
:1030E300EF34FFFF221224B974041209147F08027B
:1030F300064B74EC1203F074F51209AC89138A12AF
:103103008B0F851882851983E4F00412099C122120
:10311300DDE9F890059AE0292434F508FA7B0012DA
:10312300109D8A0A8B0BAE0AAF0BEE4F700302326F
:1031330076EE2402F50AE43FF50BA808EE28F8E43E
:103143003FF9850A82850B83122E772404F510E458
:103153003FF511851082F583E4F090059AE0FCF8C1
:10316300C3E498F895E0F9850A82850B83E028F596
:1031730008A3E039F50990059812550A750E0078F1
:103183000C1208E27D00AA08AB0912107374031233
:103193000914AC18AD197401120BECE0F9E508241D
:1031A300FFFAE50934FFFB1221E38A828B83E4F003
:1031B300EA24FFF508EB34FFF509E50FC454F0F9F1
:1031C300901C37E0C4333354C0F8900594E0A2E078
:1031D300E43313134849440F123296E512C454F0F2
:1031E3004513850882850983F0A808850A82850B23
:1031F30083E0FA851082851183E02AC398F0850A5B
:1032030082850B83E8F0A3E509F012328E122E9823
:10321300E4F0740A120BECE4F07508A475091BF5CD
:103223000A78081208E21232821210737403120928
:1032330014851882851983E06009EE240E1243B5C4
:103243004408F01223D5E9F9E4F508F509780812E2
:1032530008E674041209A4EEFAEFFB1223ED7402DC
:10326300120914E97006EEFAEFFB800BEEFAEFFB9E
:103273001210A37A007B00740B120914022CE77C52
:103283000B7D00EE2418FAE43FFB22124323E4F003
:10329300A322E08508828509831232A022F012540A
:1032A300DE2274F31203F08A0A8B0BA2AFE433F528
:1032B3000CC2AF750800750900901BAF802C123447
:1032C300E35024850A82850B83A3A31266A68E820C
:1032D3008F83A3A31250421223DBE9600A1233093E
:1032E300C2E6F08E088F091234D812379170CFE5F9
:1032F30008450960061233C3D2E6F0E50CA2E0925A
:10330300AF7F0502064B12330D221254F7E02274ED
:10331300F01203F0EAFEEBFF8C0C8D0D750E00A28C
:10332300AFE433F50FC2AF750800750900901BAF0A
:103333008020850A08850B091233C3D2E4F0E5081F
:103343001233BCD2E7F0E50A24FBF582E50B34FF28
:10335300F583E0F50AA3E0F50BE50A450B6043E5C9
:103363000A124144350BF583E0A2E750D9850A825E
:10337300850B83A3A312074EAC0CAD0DEEFAEFFB46
:103383001223E17402120914E960BBE508450960E0
:10339300A1E508240D1233CF640170061233D8D28D
:1033A300E4F0E50FA2E092AFE508450960061222BA
:1033B300C7750E01A90E0230F012416E1233D222EC
:1033C3001233C722E50824111233CF22F582E435E4
:1033D30009F583E022850882850983125C40E02297
:1033E30074F21203F074FE1209AC750C00750D0033
:1033F300851882851983E4F0A3F0A2AF33F50AC2DE
:10340300AF901BAFE0FEA3E0FF8035EE24FBF58217
:10341300EF34FF126277780C1208E6EEFCEFFD7AC8
:10342300AF7B1B1210D37402120914EEFCEFFDAA3A
:1034330018AB191210C1AE08AF09901BB5E014F018
:10344300EE4F60271234E3501DEE240BF8E43FF9EE
:1034530088828983E024FFF0A3E034FFF088828927
:1034630083124DD560A51234D48099E50AA2E09267
:10347300AF901BB5E0603190059BE0640F60069050
:103483001C36E070237A8D7B1B1224C59082AE120A
:10349300074A7A8D7B1B1224B9740412091480081D
:1034A30074F012471F1222BBAA18AB191210C78A55
:1034B3000A8B0BAE0AAF0BEE4F60131221EF1233E0
:1034C30009A2E28E828F83A350D674E980D4023797
:1034D300998E0C8F0DEE24FBF582EF34FFF58322DA
:1034E30012330DA2E72274F71203F0EAFEEBFF1288
:1034F30021EF12432D122656E964019005B7700A95
:10350300E02401F8A3E034008004E0F8A3E0F9121A
:10351300497B124D2D901BB5E0702190059BE06413
:103523000F70197A8D7B1B1224C59082AE12074A45
:103533007A8D7B1B1224B97404120914A9A8C2AF93
:10354300901BB5E00412354FA2E7800DF0E9A2E726
:10355300E433F8E922E508A2E092AF0247BB74F72F
:103563001203F0EAFEEBFF123596F01221EFEEFCA8
:10357300EFFD7AAF7B1B1210CDA9A8C2AF901BB58C
:10358300122CCF90059BE0640F7005790812238DF0
:103593000247BB12330DC2E42274F71203F074EA3C
:1035A3001209ACEAFEEBFF900594E06040851882B7
:1035B3008519837401F0120BECE412366E120BECD6
:1035C300AA82AB831212418E828F831233DEC0E054
:1035D300740A120BECD0E0125877740B120BECAA9E
:1035E30082AB83122405AA18AB1912187174160240
:1035F300370774F71203F0EAFEEBFF1221D1E9F962
:1036030074DC69601E74DD69601974E469601474A4
:10361300F369600F74DE69600A74DF69600574DB47
:10362300697007EEFAEFFB1223930247BB74F7129C
:1036330003F074EB1209ACEAFEEBFF8518828519DF
:1036430083740612366E120BECAA82AB83121241FC
:1036530012587C740A120BECAA82AB83122405AABB
:1036630018AB191218717415023707F0EE2413FC06
:10367300E43FFD74022274F71203F074F71209ACED
:10368300EAFEEBFFEE242D1243B56065123F46AA16
:1036930018AB191212417408120BEC7403F0900565
:1036A300B012074E1236F712074E9005C3E0F974B5
:1036B300041209A4EEFAEFFB1221D77404120914C1
:1036C300E9F974DC69602374DD69601E74E4696080
:1036D3001974F369601474DE69600F74DF69600A3A
:1036E30074E869600574DB697007EEFAEFFB122377
:1036F30093022E5EEE1236FC22242BF582E43FF574
:10370300832274031209140247BB74F21203F08A72
:10371300088B09750C00750D00750AE7A2AFE43339
:10372300F50BC2AF901BAF80031234D412379160F4
:10373300351234E350F31243B2640170ECEE242FDC
:10374300F582E43F123940E06870DE780C1208E637
:10375300EEFCEFFD7AAF7B1B1210D3740212091437
:10376300901BB5E014F0E50BA2E092AFEE4F6013AF
:10377300EEFAEFFB1221EF79F0EEFAEFFB1223934F
:10378300750A00A90AAA08AB09122393800DE0FE6B
:10379300A3E0FFEE4F2274021209147F0602064BC8
:1037A30074F41203F074F71209ACEAFEEBFF8E8295
:1037B3008F83A3E064F3700302384D8E828F83A35B
:1037C300E064DF700302384D8E828F83A3E064E8E8
:1037D30060788E828F83A3E064DB606E122231E90E
:1037E300F508705EEE240E1243B560561238571278
:1037F3002279EA4B604C7408120BEC123861120701
:103803004E7508FF7509FF78081208E68E828F83CC
:10381300A3A3A3A3A3A3A3A3E0F974041209A4126B
:1038230021D77404120914E9F50874F365086012CA
:1038330074DF6508600C74E86508600674DB65086E
:10384300700F8E828F83A3E508F0EEFAEFFB12224E
:103853003D022D01EE240FFAE43FFB7909227402A5
:1038630012603F74FFF0A312386E221238722212D4
:103873004B31A3A32274F51203F08A088B097E004F
:103883008A828B83A3A3A3A3A3A3122D0B40027E3F
:10389300E88A828B83A3A3A3A3A3A3A3A3A3A3E0E5
:1038A300C3941040047EE880138A828B83A3A3A36E
:1038B300A3A3A3A3A3A3A3E0640F600A901C13E034
:1038C300540870027EE8EA240BF582E435091239C4
:1038D30040A3A3A3A3A3A3A3A3E0C398500CEA24E8
:1038E3000B1233CF640F60027EE89005B4E0F470EE
:1038F30003A3E0F470027EEC7A237B0012114B9059
:103903001B96125052901B96124DD5602985088242
:10391300850983A3A3A982AA8389088A09750A0052
:1039230078081208E27C237D0012503F1210737452
:103933000312091480027E1AEEF90261E0F583E0B6
:10394300F88A828B83A3A32274F51203F0EAFEEBB9
:10395300FF8E828F83A3A3A3A3A3A3A3A3E09005B6
:103963009B125F229005B6125F08900596125F279F
:10397300901C37F0F9120E09901C37E06018EE2402
:1039830004FAE43FFB7950120DF1EE2406FAE43F0A
:10399300FB79E1120DF1901C36122CF760047401CF
:1039A30080027400901B98125F0E1208E27C0B7D5C
:1039B300007A997B1B1210737403120914EE2418F6
:1039C300F508E43FF50978081208E27C0B7D007ADC
:1039D300A47B1B0261D874F71203F0EAFEEBFF8E9F
:1039E300828F83A3E0700612503F1222378E828F9C
:1039F30083742C12471F12239F0247BB74F71203D1
:103A0300F0EAFEEBFF901B96124DD5600D12503F6E
:103A1300901B96E4F0A3F01211518E828F837408E9
:103A230012471F1218710247BB74F61203F0901C61
:103A330036E06013901B98E0700D123A4D1221E9A5
:103A4300EA4B60031222CD025B82900596E0FB9065
:103A530005B6E0FA90059BE0F92274F41203F074C2
:103A6300E71209ACEAFEEBFF750B018E828F83A38D
:103A7300A3A3A3A3A3A3E0A2E25068EE242BF582A1
:103A8300E43F1266A4123B1B1221F5E970559082A4
:103A930005E064017005750B008048123B23120892
:103AA300E27C0B7D00741112099C121073740312D3
:103AB30009141223D5E9FA740E12099488088909A6
:103AC30078081208E675083075090078081208E6C8
:103AD3001236F712074E12581879011223F374069F
:103AE300120914851882851983741012366E120B0D
:103AF300ECAA82AB831212351236F7125844740BB8
:103B0300120BEC124D2D740D120BECE50B124592BA
:103B13001218717419022D03EE2413FAE43FFB22E9
:103B2300EE2408125F1622C082C083901C37E06027
:103B330003122447024501C082C083901C2E747572
:103B4300F0A3741BF0A37479F0A3741BF0A3748522
:103B5300F0A3741BF0901D77747CF0A37429F0908C
:103B63001C1874CBF0A37421F0901BBA7401F0A35A
:103B73007422F0901BBC7407F0A37422F0901C1302
:103B8300E044028001E4F0024501C082C083EAFC04
:103B9300EBFD7903024B9DC082C083EAFCEBFD7908
:103BA30005024B9DC082C0837908025D13C082C0A9
:103BB3008374FE1209AC901BC274B5F0A37422F097
:103BC300901BC474AFF0A37422F0800D7AAF7B1BFB
:103BD3001210C71245881223C3901BAF124DD57024
:103BE300EB901BB1124DD5600F7AB17B1B1210C73E
:103BF3001245881223C380E9901BAFE4F0A3F09031
:103C03001BB5122CDA7402800274111209140245D6
:103C13000174F61203F0E9FF745529F582E4342C9C
:103C2300F583E493FEFA7B0012109DEA4B6011EAE0
:103C33002E124D238A828B83A3A3A3A3E4F0802CAB
:103C43007A027B0012109DEA4B601D746B2FF58284
:103C5300E4342CF583E4938A828B83F0A3741AF003
:103C6300901C0EE0F91210A97A007B00025B82E936
:103C7300FC740629F8EAA2E0501EE875F00A84E510
:103C8300F0F96014740A28C399F8E9C39405400451
:103C9300740A28F8740B28F8ECC3941340047A14BC
:103CA30080027A06EA2879002409F85001097A0A81
:103CB3007B001202A0E8F90208C6C082C083901CF0
:103CC30013E05402600A121877E960047901800254
:103CD3007900024501C082C083901C13E054026046
:103CE30016901BB5E0700C124DD2600BE0C8124267
:103CF300665004790180027900024501C082C083C5
:103D0300908202E0F8901BB7E0C398500512109D13
:103D130080047A007B00024501C082C0831223C362
:103D2300790002450174F71203F074FE1209AC85A1
:103D33001882851983EAF0A3EB123E97A3A3A3A3EA
:103D4300A3E0600A14606024FE6069023E189005D7
:103D53009BE0640F6018122399E97012851882851D
:103D63001983125042901BBE1243301226569005FF
:103D7300C3E0C0E0851882851983124AFBD0E012A4
:103D83003E97741412603B1266A67AB17B1B121025
:103D9300C1A8A8C2AF901BB7E004125058792012F3
:103DA300238D7402023707851882851983125C48B4
:103DB300741580D0851882851983123E7AA3A3E0F7
:103DC3006053851882851983E02402F8A3E0340048
:103DD300F988828983126479E0C0E08518828519A5
:103DE30083E0FCA3E0CC2406F582E43CF583D0E039
:103DF30012588488828983125052851882851983C8
:103E03001241628518828519836013123E7F600513
:103E1300123E874043AA18AB191223C38084123E73
:103E23007F60F2123E87501C124276FA8518828513
:103E33001983123E81F87496124D1E342CF583E4D7
:103E4300936A6014851882851983123E7F64087013
:103E5300C4124276640870BD12427614123E9F2447
:103E63000AC0E0851882851983124330D0E0123EE0
:103E73009F04023D87E0F8A3124B4822E0F8A3E039
:103E8300123EA622851882851983125855123EA721
:103E9300C3940A22123EB1F583888222123EB112E4
:103EA3003EA622C82406F582E438F583E022126098
:103EB3003FE0F8A3E022C082C083901BC6124DD519
:103EC3006008125C4912265680027900024501748B
:103ED300F71203F0EAFEEBFF122E9D7401F0EE24BD
:103EE30030F582E43FF5831255B2122E7724321255
:103EF30043B5C0E0EE2413F582E43FF583D0E0F050
:103F0300EE24331243B5C0E0EE2414F582E43FF50A
:103F130083D0E0F0EE242CF582E43FF58312074EC4
:103F2300123F46EE242E1243B5F91223ED7402120A
:103F33000914E9F5087007EEFAEFFB1222CDA90880
:103F43000247BBEE2423FCE43FFD22C082C0831260
:103F53002399E96004792080027901024501C08236
:103F6300C083EA124144124005D2E0023B89C08279
:103F7300C083123FFF6401701112400A400C8A8211
:103F83008B83A3E0F9122393806FEA24101240027B
:103F9300A2E650128A828B83A3E0F9901BC01243DE
:103FA300301226568053123FFF6401700D12400AEF
:103FB30050088A828B83743080368A828B83A3E095
:103FC300641B8A828B83700474228024A3E0700DA7
:103FD300123FFFF87481124D1E342C800B123FFFE9
:103FE300F8746B124D1E342CF583E4938A828B8311
:103FF300F0901C0EE0F91210A9024501EA240DF518
:1040030082E43BF583E022EA12416E3BF583E0A2B2
:10401300E32274F71203F0E9FE124DD2700302415A
:104023003BEE6011741B6E7013E0C812413E6405D1
:104033007003024106125C38E402410A74E96E70AF
:104043006212415A700B12187DE9600512417460C7
:104053006279EE120D73901BB8124157901BB86032
:104063003B124177901BB8700B12415714F0120F9B
:104073002902413B124162C2E712428212413E646D
:1040830003700C12584E124144123EACD2E2F07946
:10409300ED120D7312414A1226568075125C3B7461
:1040A300E9806474E16E703E12187DE96055124137
:1040B3007470509005BDE0C0E012584E2412F58292
:1040C300E438F583D0E0F09005ACE0C0E0901BB895
:1040D300123E78123E78D0E0F09005ACE004F0791F
:1040E30001120F118052741C6E7018901BB812507D
:1040F30042901BC8124330122656901BB8E4F0A31B
:10410300F08035125C38EEF0901BB8125042122248
:10411300BB12584E125820E0548060109005C3E043
:10412300F9120E2D9005C2E0F9120E21901BB8E48E
:10413300F0A3F0791012238D0247BB240D123EA980
:10414300222411F582E422901BB8125046901BBC26
:10415300125C4222E0F8A3E0C82412123EA922E036
:10416300F8A3E0C812416E123EAC222410F582E49B
:1041730022901BB8125855125824E054042274F4A8
:104183001203F0750A00750B00A2AFE433FFC2AF50
:10419300124DD2600302423E12432D122656E944C9
:1041A30010F8901BAF800985080A85090B12425944
:1041B30012426E700302423E1233C3586870E878AD
:1041C3000A1208E6AC08AD097AAF7B1B1210D37450
:1041D30002120914901BB8E508F0A3E50912428204
:1041E300124266405D901BB6E014F0EFA2E092AF7E
:1041F300901BB8E0240EF8A3E03400F9880889097D
:104203008882F583125042901BB812427CF9122225
:104213007FE9901BB3F012428AE05480901BB86090
:10422300261258512413123EA9F9120E2D12584E7C
:104233002414123EA9F9120E218018EFA2E092AFC6
:104243008011901BB580A1124162A2E1B3E433F95E
:10425300120F11022D06E50824FBF582E50934FF50
:10426300F583222411123EA9A2E72212627DE508FA
:104273004509228518828519831230C5A3E022F0EF
:10428300901BB812585522A3E4F085088285098350
:104293002274F71203F0EAFEEBFF1223BDEE2410A3
:1042A3001243B5A2E3400C1243B26401700590823D
:1042B300008003908201E0F9EEFCEFFD7AAF7B1BF7
:1042C3001210D9E96046EEFAEFFB901BC21243309D
:1042D300122656EE240E1243B554047020A8A8C229
:1042E300AF901BB6E004125038FAE8A2E792AF127F
:1042F300431FA3E0540170211222C7801CEEFAEF82
:10430300FB901BBA124330122656800D8E828F8388
:10431300A374F112471F1222BB0247BB124323228D
:10432300EE240EF582E43FF58322901BC4125C4217
:1043330022C082C0831222C702450174F71203F020
:10434300EAFEEBFF7900901C13E05402700CEE249C
:10435300301243B55404600279E8901C13E05460B2
:10436300700CEE24301243B55402600279E88E8259
:104373008F83A3A3A3A3E0F8908206E0C39850021F
:1043830079E8EE242E1243B5700CEE242B1243B5BC
:10439300700479F5800BE970051222A9E9F9E96047
:1043A30007EEFAEFFB1223930247BB34FFF509EE46
:1043B300240DF582E43FF583E022C082C0838A8224
:1043C3008B83740DF0121871024501C082C0838A79
:1043D300828B83E4F0A3F0EA243012400254049069
:1043E30082007012E0F8901BB6E0C398401279F196
:1043F300122393024501E0F8901BB5E0C39850EEF9
:10440300901C0EE0F91210A980E974F61203F0E98A
:10441300FE244CFAE43400FB12109DEA4B6012EECA
:104423008A828B83A3A3A3A3F0EA244C124D238097
:10443300047A007B00025B82C082C083901BCA7433
:1044430015F0A37423F0A37445F0A37423F0A374AD
:104453001BF0A37423F0A37421F0A37423F0A374BB
:104463003FF0A37423F0A37433F0A37423F0A37475
:104473002DF0A37423F0A3744BF0A37423F0A3745F
:1044830051F0A37423F0A37457F0A37423F0A3741F
:1044930063F0A37423F0A37427F0A37423F0A3742D
:1044A3000FF0A37423F0A37409F0A37423F0901BFB
:1044B300E67439F0A37423F0A3745DF0A37423F0BE
:1044C300A3747DF0A37424F0A37469F0A37423F0A0
:1044D300A3746FF0A37423F0901C0AE4F0901C0DF6
:1044E300F0901BF61244F87402F0901BFF1244F88C
:1044F3007401023B89748DF0A37423F0A322D0834B
:10450300D0820208C674F51203F074F11209AC8567
:1045130018828519837402F07401120BECE9F060C0
:10452300047AFF7BFF7402120BEC125052750802DF
:1045330075091C750A0078081208E27C0B7D00746B
:1045430007120BECAA82AB831210737403120914C3
:10455300AA18AB19121871740F0261DD74F71203F4
:10456300F074FD1209AC851882851983740AF074FE
:1045730001120BECE9F07402120BECEA12459212F1
:104583001871023705851882851983EAF0A3EBF0C9
:10459300AA18AB192274F61203F074F71209ACEAE5
:1045A300FEEBFF1245E8122E957402124710AA186B
:1045B300AB19121235EE242E122E63243012561F1D
:1045C3001208E674021209A479831A1AEFFB122364
:1045D300ED7402120914E9F5087007EEFAEFFB1205
:1045E30022CD025B7B12432374012274F01203F089
:1045F3001260C6120B7D7808790C12030178081239
:1046030008DE7AF97B1B0230E874F41203F074C6F7
:104613001209AC90059BE0640F6010851882851920
:1046230083742E12459212239F80277AF07B1B12EC
:1046330024C5122D141202A888088909E4F50AF585
:104643000B78081208DE7AF07B1B1224B97404126B
:104653000914743A022D0374F51203F0EAFEEBFF1A
:104663008E828F83A3E0F860030246F9EE242D12B5
:1046730043B564026007E06403600278E8EE242334
:10468300F582E43FF583122D0D400478E8806AE853
:104693007064EE2423FAE43FFB79E1120DF1EE247A
:1046A3002EFAE43FFB7950120DF1EE242D1243B59F
:1046B3006402700E12580E1258449005AA124D2D22
:1046C30080129005AA74FEF0A3041247107AA17B0E
:1046D30005121241EE2418123B261208E27C0B7DD0
:1046E300007A027B1C1210737403120914EEFAEFA2
:1046F300FB122303E9F8E86011E88E828F83A3128B
:104703005A70741712471F12239F0261E0F0EE24C0
:1047130025FCE43FFD228E828F837429F0EEFAEFAD
:10472300FB2274F61203F074F71209AC901C0DE02F
:10473300703B7401F0F9120EDBAA18AB191223CFE8
:1047430075080275091C78081208E67508017509D1
:104753000078081208E69005B012074E7406120995
:10476300A47A0379051223F37406120914025B7DFC
:1047730074F71203F0EAFEEBFF7901120EE18E8269
:104783008F83E064207004A374EBF0901C0DE0A20F
:10479300E25003C2E2F0E0A2E150081249BD122246
:1047A300FD800C8E828F83742A12471F12239F80F1
:1047B30007EEFAEFFB12243B7F0102064B74F4125F
:1047C30003F074FE1209ACEAFEEBFF7901120EE16D
:1047D3007AF07B1B1224C57AF97B1B1224C5124B7A
:1047E30007851882851983124B3BE0F50B700FAADE
:1047F30018AB197953120DF112626D120DF1123BC0
:10480300231208E27C0B7D007A027B1C1210737466
:1048130003120914851882851983125042A90B12B9
:1048230022F7901C0DE0A2E1500C7A008E828F8358
:10483300A3E0F91222FD901C0DE4F07402022D0393
:1048430074F71203F0EAFEEBFF8E828F83A374EBFF
:10485300F0901C0DE0A2E150077A0079EB1222FDE3
:10486300EEFAEFFB1223330247BB74F71203F0EAAD
:10487300FEEBFF7901120EE17AF07B1B1224C57A5D
:10488300F97B1B1224C5901C0AE4F0901C0DF07AEE
:10489300FF7BFF8E828F83A3E0F91222F70247BBCF
:1048A30074F71203F0EAFEEBFF12232D0247B474F0
:1048B300F71203F0EAFEEBFF7901120EE18E828F0D
:1048C30083A3A3A3A3E060047400800274EB1249E2
:1048D300045003C2E2F0E0A2E15008124A06122299
:1048E300FD8014A2E050108E828F83742AF0A3748B
:1048F300EB12471F12239FEEFAEFFB1222DF024750
:10490300BB8E828F83A3F0901C0DE0A2E22274F68B
:104913001203F0EAFEEBFF901C0DE0D2E1F0790107
:10492300120EDB8E828F83A3E0703C1223D5E9FA4B
:10493300EE240DF508E43FF50978081208E675083A
:104943000175090078081208E612497B12074EEE3A
:104953002402FCE43FFD79051223F37406120914C3
:10496300E98E828F83A3F08E828F83A3E060067A21
:1049730000F91222FD025B8212497F22EE240BF51D
:1049830082E43FF5832274F71203F0EAFEEBFF792A
:1049930001120EE18E828F83E064207004A374EB16
:1049A300F0901C0DE0A2E25003C2E2F0E0A2E1505D
:1049B300061249BD1222FD0247BBC2E1F07A008E06
:1049C300828F83A3E0F92274F71203F0EAFEEBFF70
:1049D3007901120EE17AF07B1B1224C58E828F833C
:1049E300A3A3A3A3E060047400800274EB12490440
:1049F3005003C2E2F0E0A2E15006124A061222FD81
:104A03000248FAC2E112386EA3E0A2E4E433FA8E5C
:104A1300828F83A3E0F92274F71203F0EAFEEBFF1F
:104A23007901120EE18E828F83A374EB1249095030
:104A330003C2E2F0E0A2E150061249BD1222FD02D8
:104A430047BB74F71203F0EAFEEBFF7AF07B1B120D
:104A530024C5EEFAEFFB1223570247B474F712038F
:104A6300F0EAFEEBFF7AF07B1B1224C5EEFAEFFBB4
:104A73001223570247BB74F71203F074EF1209AC09
:104A8300EAFEEBFF1258187AA17B0512122FE96098
:104A9300628518828519837409F07401120BEC7412
:104AA300EFF0124B07F87402120BECE8124B3BA326
:104AB300A3E0C0E07404120BECD0E0124B286408AE
:104AC30070158E828F83A3A3124AFBE0C0E07405A6
:104AD300120BECD0E080067405120BECE41258774D
:104AE3007406120BECAA82AB83122405AA18AB1925
:104AF30012187174110237071258552407F582E40E
:104B030038F58322124B1DFB8A828B831258488807
:104B1300828983E0FCA3E0F9EC22EE2402F8E43F6F
:104B2300F9E8FAE922124B2C22124B31E022F08EE3
:104B3300828F83A3A3A3A322F0A3E9125866124B87
:104B43004522E0F8A3125C49A3A322C082C08312CA
:104B53002447024501C082C083901C2A74CAF0A373
:104B6300741BF0A374E6F0A3741BF0901D71741A08
:104B7300F0A37429F0A374B8F0A37428F0901C1662
:104B830074F1F0A37422F0901C13E04401023B89FA
:104B9300C082C083EAFCEBFD79021223AB0245011C
:104BA300C082C0837906025D1374F61203F074FEAB
:104BB3001209AC901C0F124DD560077A0F7B1C12A3
:104BC30023C3901C15E4F090189B124DD5602680EA
:104BD30007AA18AB191223C3901C0EE0F91210B5E3
:104BE3008A088B09A808A909851882851983124D9B
:104BF3002DE84970DC7402025B7F74F71203F0E95D
:104C0300FA7B00901C0EE0F91210DF0247BB74F729
:104C13001203F074F01209ACEAFCEBFDE9FE8C829E
:104C23008D83E0F8748C124D1E342CF583E493C00D
:104C3300E07401120BECD0E0F0640B700DEE8C828B
:104C43008D83A3F0122429024D11E07003024D114C
:104C5300640C6003024D02741A6E700B7404120B21
:104C6300ECE4F0A3024D017404120BECECF0A3EDA1
:104C7300F0EC242F124D16C0E07403120BECD0E0BD
:104C8300125DD9120BA57406120BEC120B998C82D0
:104C93008D8312583B740A120BEC124D2DEC240E2B
:104CA300124D1654106009851882851983E4801308
:104CB300EC2412124D16F89005BDE0C398851882B6
:104CC300851983F0E0C0E0740C120BECD0E0F0EC3B
:104CD3002415124D16C0E0740D120BECD0E0F0EC6D
:104CE3002416124D16C0E0740E120BECD0E0F0EC5B
:104CF3002417124D16C0E0740F120BECD0E0F074C1
:104D030002120BECEEF0740112099C12187174106C
:104D1300023707F582E43DF583E02228F582E42299
:104D2300F8E43BF98A828B83A3A3E8F0A3E9F0229A
:104D3300C082C083901C15E0640370047901800273
:104D4300790002450174F71203F0901C15E0124D2F
:104D5300BF1266A48A828B83E0C2E7F025E0F8ECF9
:104D6300124D1E3DF583A3E493FE124DBFF583124E
:104D73004DD56005EE901C15F08A828B83E0124DB1
:104D8300CBEC28F582ED39F583E493FCC4540F256D
:104D9300E0F87424124D1E341CF583124DD57005B2
:104DA3001224178014EC540F25E0FCE82CF582E460
:104DB30039F5831243301226560247BB124DCB748A
:104DC3006F28F582741D392225E0F8E433F9229027
:104DD3001BB8125848E8492274F11203F074FE120A
:104DE30009AC890AEAFEEBFF124ED7FA7B001210D8
:104DF3009D8A088B09EA450960388A828B83E50A14
:104E0300F0A3E4F08E0C8F0DF50E780C1208E2A8D7
:104E13000A124EE4EA2402FAE43509FB1210737411
:104E230003120914AA08AB09901C0EE0F91210A989
:104E33008012851882851983E50AF0791AAA18ABBE
:104E4300191223937402120914022F7374F21203BA
:104E5300F074FE1209AC890B8A088B09124ED7F540
:104E63000AFA7B0012109D8A0C8B0DAE0CAF0DEE6F
:104E73004F604A8E828F83E50BF0A3E4F0A80AEE1D
:104E830028F8E43FF98E828F83124D2B8E828F8315
:104E9300A3A3A3A3E4F0F50A78081208E2A80B126F
:104EA3004EE41232861210737403120914EEFAEFF1
:104EB300FB901C0EE0F91210A9790080148518826A
:104EC300851983E50BF0791AAA18AB191223937984
:104ED3001A023799746029F582E4342CF583E4933C
:104EE30022747628F582E4342CF583E493FC7D0068
:104EF30022C082C083E9901C0E023B8974F6120320
:104F0300F074FE1209ACEAFEEBFFEE54207037801A
:104F130040A8A8C2AF901BB7E014125038F508E8B8
:104F2300A2E792AF8A828B8312502F901C111250EA
:104F33005212239F851882851983E0641560077ACE
:104F4300117B1C1223C37AB17B1B1210C7EA4B706F
:104F5300C0EF54807012801C901C11125052122307
:104F63009F7A117B1C1223C3901C0EE0F91210B51B
:104F7300EA4B70E4EE5410600E8518828519837431
:104F83002D12459212239FEEA2E0500E85188285C2
:104F93001983742412459212239FEE5402600E85E6
:104FA3001882851983742512459212239FEE5404A7
:104FB300600E851882851983742612459212239FE9
:104FC300EE5408600E851882851983742812459261
:104FD30012239FEE544060107401120BEC12603ADE
:104FE300742C12459212239FEE54806010740112A8
:104FF3000BEC12603A742F12459212239F901C0FF0
:10500300124DD56020A8A8C2AF901C0F1250429039
:105013001C0FE4F0A312505812505112239F7A111F
:105023007B1C1223C37A007B00024BF8E0851882B5
:10503300851983F022F0E8A2E7E43322901B96124D
:10504300504622E0FAA3E0FB22A3A3A3A3A3A3EA6F
:10505300F0A3EBF022125038FEE8A2E792AF22C091
:1050630082C083901C11125844EA687002EB697085
:1050730007901C11E4F0A3F002450174F71203F04A
:10508300EAFEEBFFEE4F70031224EFA2AFE433F519
:1050930008C2AF8E828F83124DD56028E824FBFAB5
:1050A300E934FFFB901C111266A6E86C7002E96DEF
:1050B3007007901C11E4F0A3F08E828F83E4F0A3B9
:1050C300F0121151023558C082C083901C38740B02
:1050D300F0A37424F0A3741DF0A37424F0A3742329
:1050E300F0A37424F0A374D9F0A37422F0A3742959
:1050F300F0A37424F0A374D3F0A37422F0A374DF99
:10510300F0A37422F0901C467459F0A37424F0A306
:10511300742FF0A37424F0A37435F0A37424F0A3C4
:105123007441F0A37424F0A3743BF0A37424F090AF
:105133001C37023B88C082C0839005AAE064FE70DE
:1051430003A3E0F470097CA17D0512123580158A52
:10515300828B83A3A3A3A3A3A3A3A37402F01252DA
:10516300BA124D2D024501C082C0839005B4C3E03D
:1051730094FEA3E094FF4004790380027902024580
:1051830001C082C0831252C58C828D8312527A6809
:105193007039740268701C8A828B831251D3E06861
:1051A30070298A828B83A31251D3A3E068701C7980
:1051B30001801A7403687013EC2405FC50010DEA96
:1051C3002405FA50010B12123B80027900024501BB
:1051D300A3A3A3A3A3E0F88C828D83A3A3A3A3A378
:1051E3002274F61203F07E00740A120BECE01252E2
:1051F3006EFF8A828B83A3A3A3A3A3A3A3A3E06FBE
:10520300706474026F704E8A828B83C082C08388FD
:10521300828983A3A3A3A3A3E0F50888828983A338
:10522300A3A3A3A3A3E0FBAA08D083D082E06A7060
:1052330003A3E06B703088828983A3A3A3E0FA8879
:10524300828983A3A3A3A3E0F9EA6C7002E96D70DA
:10525300157E01801174036F700CE82405FCE4399A
:10526300FD12123BE9FEEEF9025B82F8A3E0F98836
:1052730082898312527A22A3E01313543F540322E8
:10528300C082C0838A828B83A3A3A3A3A3A3A3A364
:10529300E0640270141252BAE0687003A3E069700C
:1052A300047901800F7900800BEAFCEBFD7AA17B86
:1052B3000512122F0245019005AA1258488A828BC3
:1052C30083228A828B8312527AF82274EC1203F0BF
:1052D300EAFEEBFF8C128D13750A008C828D83A37B
:1052E300A3A3A3A3A3A3A3E0F510E9A2E750087522
:1052F3000CFF750DFF80069005B012550AE9C2E751
:10530300F511EE240E1243B5542060071254EB74CA
:105313000880041254EBE41255125404600712542B
:10532300F3748080051254F37410125512541060F4
:10533300061254C3E4800B9005BDE0C0E01254C3D1
:10534300D0E0125512A2E05003750A2054086006FB
:105353007410450AF50A8E828F83A3A3E024FFF518
:1053630008A3E01243AEC39402E0400B640B600554
:10537300E0141232967403450AF50A750B00900582
:10538300D0E0640170118E828F83A3A3A3A3E0C333
:1053930094674003750B1085110E750F00740E781A
:1053A3000E120A79E50F450BF50B7414120BECE0A2
:1053B300F50EA3E0F50F74026511700E9005B5129A
:1053C30032959005B4125501801374036511701260
:1053D3001254CD7CC47D05AA08FB1212411254DA83
:1053E3008004E5116028E5106014E50E650C700477
:1053F300E50F650D70087440450AF50A80108508AD
:1054030082850983E50D125518E50C12329C85102F
:105413000C750D00740A780C120A79E50D450BF52D
:105423000B740265107015851282851383A31232E3
:1054330095851282851383125501801374036510B9
:1054430070121254CDAC12AD13AA08FB1212411202
:1054530054DA8004E5106010850882850983E50F1E
:10546300125518E50E12329CA808A909E824FFF585
:1054730008E91243AE70059005A080039005ACE0E7
:10548300FA04F0EA8882898312428CE50B125518DC
:10549300E50AF0EE2404F8E43FF9122F82AC088AFF
:1054A300828B83E0F50A88828983E0250AC39C12F4
:1054B3005862ECF0A3E5091259DEE4F0F9022CE797
:1054C300EE2412F582E43FF58322E50824F9F5087A
:1054D300E50934FFF509221254DE22E50824FFF51D
:1054E30008E50934FFF50922EE12416E3FF58322E8
:1054F3001254F722EE2411F582E43FF58322E0856E
:105503000882850983F022E0F50CA3E0F50D22F073
:10551300124323E0221232A0850882F5832274EE1F
:105523001203F0890A8A0B8C108D11750C1A7416EC
:10553300120BEC126279AA08FB1222798A0E8B0FE6
:10554300AE0EAF0FEE4F60607414120BEC1255B237
:10555300E8F0A3E9122E98E50AF085080C85090DF9
:10556300750E00780C1208E2123282121073740363
:105573001209147412120BEC12074EAC10AD11A9E0
:105583000BEEFAEFFB1223ED7402120914E9F50C8A
:105593007016E50A24F96003147006123309D2E584
:1055A300F0EEFAEFFB1222CDA90C7F0A02064B1292
:1055B3005C571243242274F61203F074F71209ACF9
:1055C300EAFEEBFF7801EE242F1243B56002780563
:1055D30012431FE8122E957404125612121235EE5E
:1055E300242C122E63242E12561F1208E674021264
:1055F30009A479031A1AEFFB1223ED74021209149A
:10560300E9F5087007EEFAEFFB1222CD025B7BF09F
:10561300EE2423FCE43FFDAA18AB1922F582E43FF4
:10562300F583122FAD124B2C04F078082274F2127A
:1056330003F08A088B09ECFEEDFF8A828B837405E5
:10564300F0EE24321243B58A828B83A3A3F0EA24BB
:1056530003F50AE43509F50B850A82F58312550A29
:1056630012580E120BA5E50C124144350DF58312A9
:105673000B99125818AA0CAB0D121235850A8285A4
:105683000B83125C4FFAA3E0FB88828983A3A3A355
:1056930012504CEE242F1243B5C0E012582DD0E027
:1056A30012586C2415F582E438F583E412586C1211
:1056B3005820E4125877850A82850B83E02416FA72
:1056C300A3E03400FB1224058E828F83A3A3A3A33C
:1056D300A3A3A3E0C0E0850A82850B83125851245B
:1056E3000DF582E438F583D0E012585BFAA3E0FBB2
:1056F300850A82850B83125844E8240BFCE439FDA8
:105703008A828B83E08C828D83F0A3E4125884E039
:10571300F50B8C828D83A3E0450B125862A3E0FC4A
:10572300A30A0AAB83A2E7E433C0E0E8240FF582BF
:10573300E439F583D0E0F074075C600478018002FB
:10574300780075F00374075CA428F8EA28FAE43BB0
:10575300FBE5082405F8E43509F98A828B83122FC7
:10576300AD12588485088285098312504C8882893A
:1057730083E0F50A540725E0FCE50AC4540F5407F7
:10578300F50A750B007403780A120A79EC250AF8F6
:10579300EA28F8E43BF9850882850983A3A3A3A338
:1057A300A3A3A3A3A3E8F0A3E9124B28FA8E828F45
:1057B30083A3A3E02AFAA3E03400FBC3EA98EB999E
:1057C30040308E828F83A3A3E0F885088285098306
:1057D300A3A3A3A3A3A3A3A3A3E0FA8E828F83A36C
:1057E300A3A3A3E0C39A28850882850983A3A3A35F
:1057F3008010850882850983A3A3A3A3A3A3A3126F
:10580300428AA3A3A3A3A3F002379EEE2425F58225
:10581300E43FF58322EE2413FCE43FFD22125824D7
:1058230022240EF582E438F5832212583122E8242B
:1058330010F582E439F58322A3A3A3A3A3A3A3A30F
:10584300A312584822E0F8A3E0F922901BB812589B
:105853005522E0F8A3E0C822125A70A3A3E0221253
:10586300586622F08A828B8322F0850A82850B8315
:1058730012585522F012587C22EE2408FCE43FFD16
:1058830022125866A3AA82AB832274F51203F08C0A
:10589300088D09750A0078081208E27C0B7D000266
:1058A30061D80208C6C082C08379181223930245C7
:1058B30001C082C0838A828B83E0C3940B5003129E
:1058C3002411024501C082C083791980DE74F71266
:1058D30003F0EAFEEBFF901C0F124DD56010901CF5
:1058E3000F12504212241D7A0F7B1C1223C3EEFAAF
:1058F300EFFB1223BD901C0FEEF0A3EF8002F0A389
:10590300F00247BB74F71203F074DE1209ACEAFE2F
:10591300EBFF8E828F83E024FD601124FE6015244B
:10592300ED600924FA600D14600A803D7416120BB1
:10593300ECE480077416120BEC7401F0123F46740A
:105943000B120BECAA82AB831212417413120BECF1
:105953001259E3120BEC124D2D740A120BEC12596F
:10596300EF120BEC124D2D80427416120BEC7402E5
:10597300F0125818740B120BECAA82AB831212416B
:105983007413120BEC1259E3120BEC124D2D740A23
:10599300120BEC1259EF120BEC122E7712587D7486
:1059A30017120BECAA82AB83122405851882851982
:1059B30083740B1259DEE0C0E07401120BECD0E0EB
:1059C3001258777417120BECAA82AB83122405AA20
:1059D30018AB191218717422023707125A70A322D6
:1059E3007403F09005B41258487402227402F090C4
:1059F30005B012584874142274F71203F0EAFEEB50
:105A0300FF8E828F83A3E0F5087036EE242C125AA2
:105A1300767003A3E06960037508E8EE2423FAE4D3
:105A23003FFB1223E7E96032EE242FF582E43FF5D2
:105A330083E4F0E508700AEEFAEFFB1223F9E9F5C7
:105A430008E50860128E828F83A3E508125A7074EA
:105A53001912471F12239F0247BBEE242F1243B58F
:105A630060D1901C36E070CB7508E880D8F08E8248
:105A73008F8322F582E43FF5831258489005B0E006
:105A83006822C082C08374F11209AC7402120BEC59
:105A93007404125862A3E0C0E07403120BECD0E06C
:105AA300F0EA242CF582E43BF583125844740D127A
:105AB3000BEC124D2DEA2423FCE43BFD7404120B82
:105AC300ECAA82AB831212357404120BECAA82ABDC
:105AD300831223E7E9600E125AF5120DF19005AA1D
:105AE30074FFF0A3F0740212099C121871740F0270
:105AF3003C0E85188285198374FFF0A3F0AA18ABB6
:105B03001979532274F61203F074E81209AC8A0867
:105B13008B097402120BEC7403F0EA2413FEE435D0
:105B230009FFEEFCEFFD7404120BECAA82AB8312A7
