:020000040000FA
:06000000020D6A02023845
:03002B00020B477E
:0300330002025A6C
:0300530002016D3A
:03007B000208A1D7
:100083000201CC010020FD00020000F0100000007E
:10009300000000000000004A110000D8100000001A
:1000A300000000000000000000000000000000004D
:1000B300000000000006FFFF060008BF1700000055
:1000C3000160EA00002E15341500003A15401500B2
:1000D30000000000000000000001000000002020DC
:1000E3002020202020202020202020202020010844
:1000F30004010001000274810278810101010400FE
:100103000018000000E8030000FFFFCC18E803001C
:100113000064006400B801A0BB0D00A0BB0D000289
:1001230002000800000502070401051E02051E0265
:100133000A0A0102080803B80B02803E0102FEFF0F
:10014300E8030A050001621A010A1401E00101052E
:10015300030101FF0F10FEFF672B00000000D929E8
:1001630000000000FF000000FF00C0E074F1120671
:1001730062A2AFE433F509D2AF85A708AFA1EF556B
:1001830008FE74105E6006120E6E75A1EF74085EB1
:100193006008120E7475A1F78024EFA2E092F0E5D7
:1001A30008A2E082F05017906198E0F8900493E081
:1001B300C398A2D265D0335002E8F075A1FEE509D9
:1001C300A2E092AF7F0202071EC0E074F212066241
:1001D300A2AFE433FED2AF9061A4E0F8759B00E5D3
:1001E3009158540860087591F7120EBC8023E5916D
:1001F30058541060087591EF120EC28014E591A255
:10020300E092F0E8A2E082F05007E0C2E0F01210C2
:100213000C9061A3E0F8E5E9585404600E120FE274
:1002230075E9FB906193E0A2E640F2EEA2E092AFA3
:100233007F0102071EC0E074F2120662A2AFE4332C
:10024300FED2AF9061A5E0F8E5BF5854046006758F
:10025300BFFB12102480D4C0E074F1120662E59D46
:10026300A2E650FA906206E0F9A2E25034AA2AEA22
:1002730090620BF0F508852B0974047808120D9829
:10028300E508906207F08A08852B0974097808123B
:100293000D98E508543E906209F0906201E0D2E0C7
:1002A300F0E9782746F6906202E0F50875090074D4
:1002B300047808120D047827E50846F608E5094690
:1002C300F6906204E0F50875090074097808120DC8
:1002D300047828E50946F6E9A2E05003752901747C
:1002E30006596003752900E58BA2E55006758BDF7F
:1002F300752900121396758B00C2E87F0202071E50
:10030300C3E498F8E499F91203448026C3E49AFA03
:10031300E49BFBE920E7E9120344E498F8E499F944
:1003230022C3E498F8E499F9120344E498F8E499B1
:10033300F9C3E49AFAE49BFB22EB20E7CFE920E739
:10034300E0B90010BB0008E88AF084F8AAF022E4C0
:10035300FBC8FA22EB70227B10C833C8C933C933F8
:100363005007C39AC3DBF280069A50012ADBEAC81E
:1003730033F4C8C933F4C9FA2275F008E4C833C8A2
:10038300C933C933C99AC99B5004C92AC93BD5F09B
:10039300ECFBC833F4C8E4C9FA221203DD20F014DD
:1003A30030E72B74FFFCFBFA747F8022E4FCFBFA3A
:1003B3007480801AB48008BC00F2BB00EF800F5039
:1003C300EBF9E4C39AFAE49BFBE49CFCE499C6CC06
:1003D30018C6CB18C6CA18C6F922E4C9C608CAC6C5
:1003E30008CBC6D3330308CCC63392F0C3947F4003
:1003F3002E94184019C9B90704CACBCC225025C37F
:1004030009CA33CACB33CBCC33CC33D9F422F4600F
:100413000DC9CCC313CB13CBCA13CAD9F6CC22E470
:10042300FCFBFA2214FCFBFA22080808EAC0E0EB02
:10043300C0E086F0E7A4FA180986F0E7A42AFA18C0
:100443000986F0E7A42AFA180986F0E7A42AFA191C
:1004530086F0E7A4FBE5F02AFA190886F0E7A42B57
:10046300FBE5F03AFA190886F0E7A42BFBE5F03A2E
:10047300FA18180986F0E7A4C5F02BFBE43AFA1939
:1004830008E7C5F0C6A426F6E5F03BFBE43AFA1804
:1004930086F0E7A4F6E5F00826F6E43B08F6E43A2E
:1004A30008F6D0E0FBD0E0FA22080808E630E711AE
:1004B300120C571204C4080808C64480C61818183A
:1004C30022181818E9799EC608CAC608CBC608CCF4
:1004D300C6C370207996CACBCC7019798ECBCC70F9
:1004E300137986CC700EF9802ACA33CACB33CBCCAE
:1004F30033CC331930E7F2CCCBCA3350147004EA4F
:1005030030E00DE4CA3ACACB3BCBCC3CCC50020919
:10051300C3E913C6CC182313C6CB18C6CA18C6F929
:1005230022E4CFC0E0E4CEC0E0E4CDC0E0E4CCC040
:10053300E075F020E626F608E633F608E633F6081B
:10054300E633F6181818EC33FCED33FDEE33FEEF0B
:1005530033FFC3EC9709ED9709EE9709EF97191944
:1005630019400FFFEC97FC09ED97FD09EE97FE1973
:100573001906D5F0BFECF709EDF709EEF709EFF728
:10058300191919D0E0FCD0E0FDD0E0FED0E0FF2245
:100593002518C582C0E0E51934FFC583C0E0E5181E
:1005A300C3958224F810AF088583198582188008C3
:1005B300858319858218D2AFCEF0A3E520F0A37806
:1005C30008E608F0A3DEFAEFF0A3E58124FAF8E6E3
:1005D30008F0A3E608F0A3E608F0A30808E608F08D
:1005E300A3E608F0A315811581D0E0FED0E0F8154D
:1005F3008115811581E8C0E0EEC0E022120E1AB920
:10060300000302064CE47921780BB800028004F75A
:1006130009D8FCE4900421787879188002F0A3D8F3
:10062300FCD9FA7A987B1B90008678E879018015CB
:10063300E493A3AD82AE838A828B83F0A3AA82ABB9
:10064300838D828E83D8E9D9E77582C67583C0749A
:1006530005120AD87582DC7583277400120AD8C084
:10066300D02518C582C0E0E51934FFC583C0E0E595
:1006730018C3958224F310AF0885831985821880E7
:1006830008858319858218D2AFC8F0A3E9F0A3EADD
:10069300F0A3EBF0A37908E709F0A3D8FAECF0A3F1
:1006A300EDF0A3EEF0A3EFF0A3D0E0F0A3D0E0F0E1
:1006B300A3D0E0F0A3E520F0A3E5F0F0A32212011C
:1006C3000002020000205104A816090001020301E0
:1006D300090243000201008019090400000102021B
:1006E3000100052400100104240202052406000170
:1006F30005240100010705820340004009040100AD
:10070300020A0000000705840240000007050402F6
:10071300400000DC060000FF0600008519838518F1
:1007230082E0C0E0A3E0F9A3E0FAA3E0FBA378082A
:10073300E0F608A3DFFAE0FCA3E0FDA3E0FEA3E0FC
:10074300FFA3E0C0E0A3E0C0E0A3E0F5D0A3E0F5A1
:1007530020A3E0A3F5F010AF0885831985821880E4
:1007630008858319858218D2AFD082D083D0E0F870
:10077300D0E032E47375F0108E218F2285822685B6
:100783008325851882851983E0CEA3E0CF85268251
:10079300852583EBC9EAC8EDCBECCAC3E833C8E9C6
:1007A30033C9EA33CAEB33CBC3EA9EF524EB9FF597
:1007B30023B35004AB23AA24EC33CCED33CDD5F0D3
:1007C300DAAE21AF2222D083D082ECC0E0EDC0E0CC
:1007D300E493A3FCE493A3FDED4C600D1208E4EC59
:1007E30024FFFCED34FFFD80EFE493A3FCE493A32B
:1007F300FDED4C600D1209E3EC24FFFCED34FFFD2D
:1008030080EFD0E0FDD0E0FCE493A3C0E0E493C02C
:10081300E022D083D082E9C0E0E493A3C386F0C58D
:10082300F095F0F908E493A386F0C5F095F0700B0A
:10083300E493A3C3994005E9048002A3E475F0029D
:10084300A42582F582E5F03583F583D0E0F9E493BE
:10085300A3C0E0E493C0E022851983851882E0A356
:10086300FEE0A3F5207808E0A3F608DFFAE0A3FF93
:10087300E0A3C0E0E0A3C0E0E0A3C0E0E0A3C0E0E9
:10088300E0A3C0E010AF088582188583198008852E
:100893008218858319D2AFD083D082020ADEC0E0EA
:1008A30074F2120662A2AFE433FED2AFE58AA2E28B
:1008B300500790045FE0D2E0F0E58AA2E35007908E
:1008C300045FE0D2E1F0758A00C2EB7A107B0090FE
:1008D300045BE0F912122EEEA2E092AF7F01020751
:1008E3001EC0E0C3E49396087401939618400FE486
:1008F3009366700808740193661870007019A3A3B7
:10090300C3E49396087401939618A3A3400DD0E013
:10091300D0E0D0E0020805A3A3A3A3A3A3D0E022C1
:10092300D083D082C5F0E493A3C5F0C395F0F5F06E
:10093300E493A3C395F04005E5F0048001E475F06A
:1009430002A42582F582E5F03583F583E493A3C001
:10095300E0E493C0E0227404800474028000CCC0FD
:10096300E0EDC0E0E518C39CCCAD1950011D10AFFC
:10097300068C188D1980068C188D19D2AF120A5A5D
:10098300D0E0FDD0E0FC2274028000CCC0E0EDC0DA
:10099300E0E518C39CCCAD1950011D10AF068C18AF
:1009A3008D1980068C188D19D2AF120A38D0E0FD4C
:1009B300D0E0FC22120D7A6025120D896020120E00
:1009C300387003020E2F080808E76670101819E73D
:1009D30066700A1819E76670041819E76622F4228C
:1009E300C0E0C0F088F0E493667008087401936671
:1009F300187000A8F0A3A3700BD0F0D0E0D0E0D023
:100A0300E0020805A3A3D0F0D0E022D083D082CCAB
:100A1300C0E0E493A36006120AB91470FAE493A346
:100A23006006120BDA1470FAD0E0FCE493A3C0E082
:100A3300E493C0E022CAC0E0E493A3C582CCC5829C
:100A4300C583CDC583F0A3C582CCC582C583CDC57F
:100A530083DAE5D0E0CA22CAC0E0E0A3C582CCC5F0
:100A630082C583CDC583F0A3C582CCC582C583CDA2
:100A7300C583DAE6D0E0CA227009080808226016A6
:100A8300181818C6C333C608C633C608C633C60803
:100A9300C633C6D5E0EA22C008C3E096F50808A32A
:100AA300E096420808A3E096420808A3E0964508AA
:100AB3007001D3D00822C0E0E493A3D39C5010E488
:100AC30093A3C39C400AD0E0D0E0D0E0020A2BA35A
:100AD300A3A3D0E022C09FF59FE473D09F22D083CD
:100AE300D082C09FE493C0E0740193C0E07402938A
:100AF300F59F227404800A740380067402800274D2
:100B030001C0E0F404120B11D0E0120DC522251828
:100B1300F58210AF08F518400C15198008F5184038
:100B2300021519D2AF8519832200C0D0251810AF42
:100B330008F518500C05198008F51850020519D24C
:100B4300AFD0D022C0E0C0D0E8C0E0A8A8D2AFC2E6
:100B5300C7E8A2E792AFD0E0F8D0D0D0E032BB0133
:100B630002E722C082C08389828A83BB0003E080BC
:100B730002E493D083D082226016080808C6C31308
:100B8300C618C613C618C613C618C613C6D5E0EAD8
:100B930022C3E0C696F608A3E0C696F608A3E0C60D
:100BA30096F608A3E0C696F6222518F8E43519F957
:100BB300222518FAE43519FB222518FCE43519FD22
:100BC30022251810AF08F518400C15198008F518E0
:100BD30040021519D2AF22C0E0E493A36C7009D090
:100BE300E0D0E0D0E0020A2BA3A3D0E022E06670BD
:100BF3001008A3E066700A08A3E066700408A3E087
:100C03006622E76670100809E766700A0809E76656
:100C130070040809E76622C3E09608A3E09608A3D8
:100C2300E09608A3E096A2D265D03322C3E096F003
:100C330008A3E096F008A3E096F008A3E096F0225C
:100C4300C3E697F60809E697F60809E697F6080952
:100C5300E697F622181818E4C396F608E496F60801
:100C6300E496F608E496F622C3E493960874019397
:100C7300960874029396087403939622E026F60866
:100C8300A3E036F608A3E036F608A3E036F622E042
:100C930056F608A3E056F608A3E056F608A3E05676
:100CA300F622E056F008A3E056F008A3E056F00859
:100CB300A3E056F022E647F60809E647F60809E6F8
:100CC30047F60809E647F622E657F60809E657F617
:100CD3000809E657F60809E657F622E026F008A3C6
:100CE300E036F008A3E036F008A3E036F022E49300
:100CF300F608740193F608740293F608740393F6E6
:100D030022700422600D18C6C333C608C633C6D585
:100D1300E0F41822E627F60809E637F60809E6376D
:100D2300F60809E637F622C3E09608A3E09608A37F
:100D3300E09608A3E09622C6F4C608C6F4C608C621
:100D4300F4C608C6F4C622C3E7960809E79608095D
:100D5300E7960809E79622600D08C6A2E713C618AE
:100D6300C613C6D5E0F32275D00075813F751821EF
:100D7300751904000205FFE6084608C31346083345
:100D83006002E633F422E7094709C31347093360D6
:100D930002E733F422600C08C6C313C618C613C691
:100DA300D5E0F422E6F008A3E6F008A3E6F008A3F2
:100DB300E6F022E0F608A3E0F608A3E0F608A3E0D5
:100DC300F622CAC0E0E6F0A308DAFAD0E0FA22E09D
:100DD300FCA3E0FDA3E0FEA3E0FF22EAF0A3EBF017
:100DE300A3ECF0A3EDF022E0FAA3E0FBA3E0FCA365
:100DF300E0FD22E8F0A3E9F0A3EAF0A3EBF022EC94
:100E0300F0A3EDF0A3EEF0A3EFF022E0F8A3E0F9F6
:100E1300A3E0FAA3E0FB22E5C754F84401F5C77940
:100E230001222518F582E43519F58322E7271947AE
:100E33001947194722E62618461846184622C2AF14
:100E430075D69F02000022120AE1A3C705120AE128
:100E5300BCC705120AE1FAC705120AE12AC805123E
:100E63000AE157C805120AE1BDC805120AE1C0C864
:100E730005120AE1CAC805120AE1D7C805120AE138
:100E8300477D00120AE1677D00120AE1A67D001288
:100E93000AE1C47D00120AE1DF7D00120AE1457E0A
:100EA30000120AE1517E00120AE1AE7E00120AE14D
:100EB300D27E00120AE1937F00120AE1A07F0012A2
:100EC3000AE1B17F00120AE1B2D205120AE1CAD2E5
:100ED30005120AE1F6D205120AE1E09D05120AE1C4
:100EE3003C9F05120AE14A9F05120AE15D9F051224
:100EF3000AE1729F05120AE1879F05120AE19A9F90
:100F030005120AE116A005120AE17BA005120AE107
:100F130011A105120AE1EAA105120AE1FAA10512DB
:100F23000AE109A205120AE147FF01120AE16BFF78
:100F330001120AE193FF01120AE1BBFF01120AE168
:100F4300A1BE05120AE1C8BE05120AE1E6BE0512FA
:100F53000AE155BF05120AE19AB905120AE1B3B9CC
:100F630005120AE1BFB905120AE1D3B905120AE174
:100F7300F1B905120AE1FBB905120AE105BA051236
:100F83000AE118BA05120AE19EBA05120AE113BB77
:100F930005120AE142BB05120AE190BB05120AE100
:100FA300DFBB05120AE1FABB05120AE104BC051214
:100FB3000AE115BC05120AE158BC05120AE194D3F3
:100FC30005120AE1C6F504120AE1F2F504120AE178
:100FD3000FF604120AE122F604120AE13DF60412A6
:100FE3000AE197F604120AE1C5F604120AE1D5FAFA
:100FF30004120AE133FC04120AE165FC04120AE15B
:10100300C8FC04120AE13EFE04120AE166FE041261
:101013000AE17BFE04120AE18BFE04120AE1CBFE15
:1010230004120AE10DFF04120AE11DFF04120AE192
:10103300B0CC05120AE1CACC05120AE1F2CC0512C2
:101043000AE10BCD05120AE12FCD05120AE14DCDC0
:1010530005120AE164CD05120AE192CD05120AE1F7
:10106300ADCD05120AE1DFD305120AE108B6051278
:101073000AE118B605120AE11FB705120AE153B7D0
:1010830005120AE175B705120AE198B705120AE1DC
:10109300B6B705120AE1F0B705120AE155B8051211
:1010A3000AE197B805120AE1DEB805120AE10BB9A5
:1010B30005120AE142B905120AE16ECB05120AE1F3
:1010C30089CB05120AE1EBCB05120AE185CC0512A7
:1010D3000AE1FED005120AE1E0CD05120AE128CEAD
:1010E30005120AE129CA05120AE14ECB05120AE1EB
:1010F30085E004120AE171E404120AE166E60412CF
:101103000AE198E704120AE171E804120AE108EA25
:1011130004120AE1D4EA04120AE128EB04120AE1F8
:10112300B2C205120AE1D3C205120AE10DC40512C7
:101133000AE137C405120AE169D405120AE179D438
:1011430005120AE183D405120AE1CFF103120AE181
:1011530062F603120AE1C4F703120AE19BF90312D0
:101163000AE124FA03120AE1BBFA03120AE17AFB49
:1011730003120AE16EFC03120AE186FD03120AE17F
:10118300B5FE03120AE11CC605120AE13CC60512AC
:101193000AE14FC705120AE152C705120AE1E1C885
:1011A30005120AE117C905120AE133C905120AE15A
:1011B30075C905120AE185C905120AE11FCA05129C
:1011C3000AE1008005120AE10A8005120AE144805F
:1011D30005120AE1AD8005120AE1CC8005120AE18D
:1011E300E58005120AE1878105120AE19081051263
:1011F3000AE1E18105120AE10A8205120AE1178276
:1012030005120AE1888205120AE1168305120AE132
:10121300648305120AE19A8305120AE1FB8305122E
:101223000AE1248405120AE19B8405120AE1F7848A
:1012330005120AE1348505120AE16B8505120AE1FC
:101243007D8505120AE18F8505120AE1AE85051237
:101253000AE1B78505120AE1728605120AE1BE8624
:1012630005120AE1FC8605120AE1A99805120AE1B2
:10127300E99905120AE10C9A05120AE11D9A051271
:101283000AE13C9C05120AE15C9C05120AE163BC7D
:1012930005120AE199BC05120AE1E1BC05120AE153
:1012A3003ABE05120AE16EAE04120AE19FAF0412C0
:1012B3000AE1DBAF04120AE195B104120AE1BFB1FE
:1012C30004120AE138B404120AE178B404120AE100
:1012D3000CB604120AE1ABB604120AE103B7041216
:1012E3000AE196B704120AE1D0B704120AE112B870
:1012F30004120AE185B904120AE105BB04120AE1EA
:1013030042BD04120AE170BD04120AE19CBD04123D
:101313000AE1A5BD04120AE1FBBD04120AE18BBE7A
:1013230004120AE1C9C104120AE14BC204120AE120
:10133300DF7F00120AE1F57F00120AE137D30512BD
:101343000AE1A8A605120AE1BEA605120AE162A7F0
:1013530005120AE1A1A705120AE1BEA705120AE1D7
:10136300EFA705120AE13CA805120AE170A80512CD
:101373000AE1ABA805120AE1A0AA05120AE1FECF11
:1013830005120AE15DD005120AE19BD005120AE1BC
:10139300DCD005120AE1F2FF02120AE10080041216
:1013A3000AE10C8004120AE16E8004120AE17880DB
:1013B30004120AE1058104120AE1418104120AE1DF
:1013C300FD8104120AE10A8204120AE16E82041208
:1013D3000AE1B78204120AE1888304120AE1038452
:1013E30004120AE1C28504120AE1F58704120AE134
:1013F3005B8904120AE1BC8A04120AE1488B0412D5
:101403000AE1948C04120AE1978D04120AE1F18E29
:1014130004120AE1BB9304120AE1B29404120AE132
:10142300369504120AE15B9504120AE180950412D1
:101433000AE1199604120AE1379604120AE19D960D
:1014430004120AE1B99604120AE1E99604120AE1C8
:10145300FB9704120AE1CE9804120AE14B9A041294
:101463000AE16C9A04120AE1EF9A04120AE1959BCD
:1014730004120AE1DC9B04120AE1549C04120AE1FF
:10148300B19C04120AE13C9D04120AE1949E0412E9
:101493000AE104A004120AE196A004120AE1FCA0E6
:1014A30004120AE10DA304120AE1B2A404120AE130
:1014B300C7A404120AE1FFA404120AE16CA50412F2
:1014C3000AE1B0A504120AE121A604120AE1C7A6A3
:1014D30004120AE1B4A804120AE183A904120AE17E
:1014E30095AA04120AE143AC04120AE174C405127A
:1014F3000AE110C505120AE131C505120AE125D436
:1015030005120AE165EF01120AE1F3EF01120AE1A4
:101513006FF101120AE1F0F101120AE15DF3011228
:101523000AE1AFF401120AE1C9F401120AE106F576
:1015330001120AE141F501120AE15EF501120AE125
:1015430061F501120AE1A3F501120AE1DCF70112C8
:101553000AE101F801120AE1B5F801120AE12DF9D5
:1015630001120AE142F901120AE172FD01120AE1D4
:1015730097D702120AE1EFD702120AE17FD80212CB
:101583000AE1F8D902120AE1D8DA02120AE1C6DB4B
:1015930002120AE1DDDB02120AE12FDC02120AE188
:1015A300A3DC02120AE1EFDC02120AE102DD0212FD
:1015B3000AE15BDD02120AE173DD02120AE136E0A1
:1015C30002120AE1CCE002120AE103E102120AE18B
:1015D3004CE102120AE14EE302120AE19EE3021217
:1015E3000AE178E402120AE1B1E402120AE1D0E46A
:1015F30002120AE11BE502120AE13BE502120AE1CB
:10160300F2E502120AE1EDE602120AE148E70212EC
:101613000AE188E702120AE171E802120AE1E9EA43
:1016230002120AE11CEB02120AE1BEEB02120AE10A
:10163300E3EB02120AE167EC02120AE146ED021241
:101643000AE184ED02120AE1E8ED02120AE1A6EED4
:1016530002120AE1A9EE02120AE1B3EE02120AE152
:10166300BDEE02120AE1D9EE02120AE155EF0212AF
:101673000AE18EEF02120AE1AAEF02120AE1D6EFA3
:1016830002120AE1FDEF02120AE121F002120AE15D
:101693005CF002120AE1CFF002120AE103F1021236
:1016A3000AE144F102120AE179F102120AE199F125
:1016B30002120AE1D6F102120AE10DF202120AE164
:1016C30010F302120AE148F402120AE167F402126B
:1016D3000AE1A5FF03120AE1BDFF03120AE18193A8
:1016E30005120AE1BF9305120AE1589405120AE1B3
:1016F300639505120AE1AB9705120AE128980512D2
:101703000AE1288705120AE1778705120AE135897C
:1017130005120AE1EF8A05120AE12D8B05120AE18F
:10172300228C05120AE12D8D05120AE14F8D051257
:101733000AE1998D05120AE11A8E05120AE16A6817
:1017430000120AE18D6800120AE18E6900120AE1B3
:10175300D76900120AE1376A00120AE1936A00129C
:101763000AE1E46A00120AE15A6B00120AE1DF6B34
:1017730000120AE1576C00120AE19A6C00120AE1A6
:101783008C7000120AE1DD7200120AE17F7300120D
:101793000AE1E37300120AE1087400120AE1C57555
:1017A30000120AE1EE7700120AE1C77800120AE19B
:1017B3004B7900120AE1797A00120AE19C7B00124C
:1017C3000AE1DB7B00120AE18F7C00120AE1A8C266
:1017D30004120AE148C304120AE1B4C304120AE181
:1017E30069C404120AE1C8C404120AE176C50412EA
:1017F3000AE131C804120AE153C904120AE1DCC93F
:1018030004120AE1BFCB04120AE163CC04120AE119
:10181300D2CC04120AE14ACE04120AE1B3CF041275
:101823000AE1C2D004120AE14FD104120AE166D2DE
:1018330004120AE170D603120AE1DBD603120AE1AD
:1018430023D703120AE167D703120AE1C2D70312AF
:101853000AE11FD803120AE15AD803120AE1DED8BB
:1018630003120AE138D903120AE1A7DA03120AE1E3
:101873001FDB03120AE137DC03120AE15FDC031208
:101883000AE16BDD03120AE17CDD03120AE194DD58
:1018930003120AE1BDDE03120AE1E0DE03120AE1EC
:1018A300B9DF03120AE1DDDF03120AE1F4DF0312F9
:1018B3000AE118E003120AE13AE003120AE114E133
:1018C30003120AE16EE103120AE1E8E203120AE1FC
:1018D30044E303120AE15BE303120AE189E303121F
:1018E3000AE1DBE403120AE15AE503120AE191E596
:1018F30003120AE1CBE503120AE137E603120AE118
:10190300F6E603120AE1D4E803120AE1D4E903126A
:101913000AE1DFEA03120AE1F1EB03120AE119ED2E
:1019230003120AE127ED03120AE12CEE03120AE186
:10193300CEEE03120AE114EF03120AE129EF0312B8
:101943000AE131F003120AE1D2F003120AE12EF1A7
:1019530003120AE19BAE05120AE156B005120AE131
:1019630015B105120AE16AB105120AE1F0B10512D7
:101973000AE1ADAA05120AE1CBAA05120AE10FABEF
:1019830005120AE135AB05120AE15CAB05120AE167
:1019930074AB05120AE18CAB05120AE1A4AB051284
:1019A3000AE146AC05120AE188AC05120AE19DACD6
:1019B30005120AE1BFAD05120AE1C8AD05120AE13D
:1019C300D1AD05120AE1DAAD05120AE1E4AD051263
:1019D3000AE13AA205120AE12EA605120AE13CA683
:1019E30005120AE141A605120AE13FC105120AE107
:1019F300DCD405120AE1E0FF01120AE100800212C1
:101A03000AE1578002120AE1C38002120AE14F8100
:101A130002120AE1058202120AE14D8202120AE170
:101A2300668202120AE1898202120AE1AB82021281
:101A33000AE1D9FF04120AE1388302120AE163833F
:101A430002120AE1C18302120AE1688402120AE166
:101A5300108502120AE18C8502120AE159860212EC
:101A63000AE1A08602120AE1EC8602120AE17487F7
:101A730002120AE1AD8702120AE1038802120AE1A7
:101A83001F8802120AE14E8802120AE15A8A0212E0
:101A93000AE1888B02120AE1B48B02120AE1E88B95
:101AA30002120AE17FC705120AE1188C02120AE149
:101AB300238C02120AE1D28C02120AE1428D021235
:101AC3000AE1CD8D02120AE1D58D02120AE1428E9E
:101AD30002120AE17E8E02120AE1448F02120AE127
:101AE300179002120AE16C9002120AE10B910212A2
:101AF3000AE1659102120AE1AA9102120AE14394F2
:101B030002120AE1869502120AE1709802120AE1B2
:101B1300549902120AE1389A02120AE1499A02120E
:101B23000AE1BB9A02120AE1529B02120AE1B79B35
:101B330002120AE1A79C02120AE1CC9C02120AE1FA
:101B4300EA9C02120AE1069D02120AE1799D021241
:101B53000AE1769E02120AE1839E02120AE18C9E3A
:101B630002120AE16EA002120AE190A102120AE136
:101B7300A0A102120AE1CEA202120AE14DA30212AF
:101B83000AE168A402120AE1A4A402120AE17EA6F1
:101B930002120AE13BAA02120AE14FAA02120AE167
:101BA30059AA02120AE163AA02120AE16DAA0212F9
:101BB3000AE186AA02120AE190AA02120AE1FDAA28
:101BC30002120AE108AB02120AE130AB02120AE187
:101BD3003BAB02120AE1A0AB02120AE1ABAB021269
:101BE3000AE1CFAB02120AE1F3AB02120AE165ACE0
:101BF30002120AE1AEAC02120AE1CAAC02120AE115
:101C03003BAD02120AE187AD02120AE1D0AD021226
:101C13000AE10EAE02120AE18FAE02120AE136AFFA
:101C230002120AE105B102120AE16AB102120AE1E3
:101C330098B202120AE1BEB202120AE106B402121B
:101C43000AE140B702120AE13EB902120AE109BBF6
:101C530002120AE1A2BB02120AE1A3BD02120AE1C7
:101C630058BE02120AE191BE02120AE1F7BE021245
:101C73000AE101BF02120AE12AC102120AE169C2A2
:101C830002120AE1C0C202120AE16BC302120AE1A4
:101C93001BC502120AE168C602120AE188C60212D3
:101CA3000AE1DDC602120AE1DEC702120AE106C832
:101CB30002120AE165C802120AE15DC902120AE1D1
:101CC300D4C902120AE1E7CA02120AE155CB021291
:101CD3000AE154CC02120AE1AECE02120AE1D7CED7
:101CE30002120AE13DD002120AE1BFD102120AE157
:101CF30016D202120AE1C4D202120AE169D3021215
:101D03000AE1C2D302120AE180D402120AE112D517
:101D130002120AE171D502120AE1B3D502120AE1F5
:101D2300E4D502120AE13BD702120AE10080031252
:101D33000AE1328003120AE16B8003120AE129826D
:101D430003120AE1FF8203120AE15E8303120AE12E
:101D5300748403120AE1C08403120AE14E8703125A
:101D63000AE1288A03120AE16F8B03120AE1078C46
:101D730003120AE1138C03120AE15C8C03120AE1D9
:101D83009E8D03120AE1948E03120AE1BE8E0312A2
:101D93000AE1148F03120AE16D8F03120AE1E08F47
:101DA30003120AE1169203120AE1989303120AE15D
:101DB300839403120AE1CD9503120AE105980312F5
:101DC3000AE1029B03120AE1119B03120AE1A59B9C
:101DD30003120AE1509C03120AE1939C03120AE1E5
:101DE300FB9C03120AE1179D03120AE1469D0312AD
:101DF3000AE1859D03120AE1809E03120AE12F9FE7
:101E030003120AE1ACA103120AE1DEA203120AE102
:101E1300B6A303120AE138A403120AE16DA8031260
:101E23000AE19CA803120AE1F7A803120AE12AA90E
:101E330003120AE1A2A903120AE1D5A903120AE1D6
:101E430036AA03120AE186AA03120AE153AB03126C
:101E53000AE10CAC03120AE1D0AC03120AE14AAF67
:101E630003120AE1ACB003120AE1FDB103120AE165
:101E730021B303120AE124B303120AE153B3031299
:101E83000AE14BB503120AE10AB603120AE139B6B5
:101E930003120AE157B703120AE11FB803120AE15A
:101EA300DDB903120AE10FBA03120AE151BA0312B0
:101EB3000AE150BB03120AE1C3BB03120AE1ECBD02
:101EC30003120AE14BBE03120AE19FBE03120AE1A9
:101ED300CEC003120AE1B1C103120AE139C20312EF
:101EE3000AE127C303120AE13BC303120AE14FC30A
:101EF30003120AE17CC303120AE1ACC303120AE131
:101F030067C503120AE179C603120AE1CEC60312BA
:101F13000AE117C703120AE13EC703120AE106C822
:101F230003120AE1ACC803120AE132CA03120AE13E
:101F330079CA03120AE1EBCA03120AE140CC031285
:101F43000AE1E9CC03120AE11DCD03120AE135CD02
:101F530003120AE1D8CD03120AE154D003120AE1B5
:101F6300FCD103120AE11AD203120AE138D2031296
:101F73000AE104D303120AE152D603120AE1AB8148
:101F830001120AE1E38101120AE1D78601120AE193
:101F9300238701120AE1698701120AE19F8801126E
:101FA3000AE1048901120AE1798A01120AE1838DA7
:101FB30001120AE1AC8E01120AE1BF9801120AE193
:101FC3004F9901120AE1399C01120AE1469D01125F
:101FD3000AE1A99D01120AE1F19E01120AE15FA142
:101FE30001120AE1F1A201120AE17EA301120AE140
:101FF3009DA401120AE12AA501120AE134A50112E6
:102003000AE15CA501120AE1FCA501120AE1E7A6B7
:1020130001120AE1B4A701120AE1D1A701120AE1F0
:10202300FAA701120AE127A801120AE16EAA011216
:102033000AE13DAB01120AE17CAB01120AE1FEABFE
:1020430001120AE19FAC01120AE1D1AC01120AE1CB
:1020530018AD01120AE14BAD01120AE18FAD011275
:102063000AE1DEAD01120AE1E3AD01120AE13FAE7E
:1020730001120AE183AE01120AE15DAF01120AE126
:10208300C2AF01120AE128B001120AE1A3B00112A2
:102093000AE10BB401120AE10EB501120AE18CB692
:1020A30001120AE1A2B901120AE144BA01120AE1DA
:1020B3008DBC01120AE148BD01120AE187BD01127C
:1020C3000AE15FBF01120AE17CBF01120AE185BF89
:1020D30001120AE18EBF01120AE199BF01120AE15E
:1020E300B8BF01120AE15CC101120AE1B9C10112D0
:1020F3000AE1C3C101120AE1CDC101120AE12CC2F6
:1021030001120AE176C201120AE177C301120AE160
:10211300CEC301120AE1DFC401120AE128C501128C
:102123000AE1E2C501120AE1F9C601120AE1CEC7CA
:1021330001120AE115C901120AE119CA01120AE1E1
:1021430012CB01120AE12ACB01120AE161CB01127F
:102153000AE16BCB01120AE176CB01120AE194CBBF
:1021630001120AE1DCCB01120AE13ACC01120AE1C5
:1021730061CC01120AE173CC01120AE128CD0112EC
:102183000AE161CD01120AE183CE01120AE1D6CE42
:1021930001120AE1BCCF01120AE1E3CF01120AE105
:1021A30053D001120AE1CFD001120AE12BD201125E
:1021B3000AE152D301120AE114D401120AE1E2D472
:1021C30001120AE1A0D501120AE188D601120AE13F
:1021D30032D701120AE19AD701120AE14FD801124C
:1021E3000AE1ABD801120AE103D901120AE1C9D904
:1021F30001120AE1ECD901120AE1A7DA01120AE19C
:10220300C9DA01120AE12ADB01120AE15ADD0112DD
:102213000AE153DE01120AE1FFDE01120AE120E1C5
:1022230001120AE169E101120AE1B4E101120AE1D2
:1022330010E201120AE16EE201120AE192E20112D6
:102243000AE1B6E201120AE1EBE201120AE113E349
:1022530001120AE158E301120AE1ACE301120AE1B7
:1022630005E401120AE1FFE401120AE19DE601120D
:102273000AE1E2E601120AE10BE701120AE194E73F
:1022830001120AE107E801120AE115E801120AE165
:1022930039E801120AE18FE801120AE1AAE8011202
:1022A3000AE165E901120AE191E901120AE1D4E9BF
:1022B30001120AE137EA01120AE145EC01120AE1CF
:1022C30071EC01120AE12CED01120AE110EE011288
:1022D3000AE1A4EE01120AE146EB04120AE17EEBE5
:1022E30004120AE19FEB04120AE1E1EB04120AE192
:1022F30045EC04120AE14FEC04120AE15FEC04120C
:102303000AE196EC04120AE13FF004120AE107F233
:1023130004120AE1EBF304120AE18DF404120AE158
:1023230017F504120AE1A82E00120AE1512F001238
:102333000AE1303000120AE13C3100120AE15C315B
:1023430000120AE17E3200120AE12E3400120AE181
:102353009B3400120AE16C3500120AE17236001256
:102363000AE1EA3600120AE1253700120AE17E3754
:1023730000120AE1B93700120AE1023800120AE139
:10238300963800120AE12C3900120AE1013A0012D0
:102393000AE1D43A00120AE1623B00120AE1883BE7
:1023A30000120AE1B53B00120AE1E63B00120AE122
:1023B300B33C00120AE1C33C00120AE1163D0012CD
:1023C3000AE1233D00120AE1303D00120AE1393DE2
:1023D30000120AE19D3D00120AE1FB3D00120AE1F1
:1023E300463E00120AE1613E00120AE1883E0012F5
:1023F3000AE1A53E00120AE1B13E00120AE14240A1
:1024030000120AE15B4000120AE1D74000120AE120
:10241300EA4000120AE1FA4000120AE19E4100126A
:102423000AE10A4300120AE11D4400120AE1BD4415
:1024330000120AE1C74400120AE1464500120AE10C
:10244300574500120AE1964500120AE1C4450012FD
:102453000AE1914600120AE1E84600120AE1214727
:1024630000120AE1774700120AE1954700120AE1D8
:10247300E34700120AE1AE4800120AE1FC480012E9
:102483000AE1494900120AE1CC4900120AE1F6497E
:1024930000120AE12C4A00120AE13B4A00120AE147
:1024A3009A4A00120AE1124B00120AE1534B00123E
:1024B3000AE1A34B00120AE1CE4B00120AE1E84BFA
:1024C30000120AE1024C00120AE1D74C00120AE1A1
:1024D300E14C00120AE11C4D00120AE12C4D0012DE
:1024E3000AE1354D00120AE1864D00120AE19A4DC8
:1024F30000120AE1BC4E00120AE1D14E00120AE1B9
:10250300644F00120AE1D84F00120AE17D50001215
:102513000AE1885000120AE1EB5100120AE1075266
:1025230000120AE1535200120AE1C15200120AE1F9
:10253300F35200120AE10D5300120AE16D53001227
:102543000AE10C5400120AE1575400120AE1AA5698
:1025530000120AE1425700120AE1B95700120AE1D8
:10256300165A00120AE12E5A00120AE1315A0012D9
:102573000AE13D5A00120AE1515A00120AE1595A7E
:1025830000120AE1905A00120AE1845B00120AE188
:102593000E5C00120AE1905C00120AE1105D001269
:1025A3000AE1E75D00120AE1095E00120AE1A25E98
:1025B30000120AE1FF5E00120AE1025F00120AE163
:1025C300715F00120AE1BD6000120AE1D0610012DE
:1025D3000AE15B6200120AE16E6300120AE13564EC
:1025E30000120AE1666400120AE18C6400120AE137
:1025F300956400120AE1C46400120AE174650012D2
:102603000AE1246600120AE1976600120AE13A67BA
:1026130000120AE1AD6700120AE1EC6700120AE159
:10262300356800120AE189FF04120AE150FF04121F
:102633000AE14DFF04120AE1E5CF05120AE17DCF5D
:1026430005120AE1F9CE05120AE1EFFF02120AE1CF
:1026530087FF02120AE172FF02120AE162FF02120D
:102663000AE1ECFF04120AE16D9305120AE15993A2
:1026730005120AE1A79205120AE1B69105120AE1D1
:10268300F5FF02120AE198D205120AE1FAD1051206
:102693000AE1E9D105120AE1ABDF04120AE1CFDE58
:1026A30004120AE1EDDD04120AE14CDC04120AE132
:1026B3000BDC04120AE1E2DB04120AE196DB0412EA
:1026C3000AE105DB04120AE175DA04120AE153DABE
:1026D30004120AE1FBD904120AE1B7D904120AE190
:1026E30044D904120AE19D9105120AE1DFD80412CC
:1026F3000AE1899105120AE14D9105120AE10D9152
:1027030005120AE1768E05120AE14A8E05120AE1E4
:10271300A4D405120AE1A3B505120AE1D1B3051247
:102723000AE18ED804120AE1B5D704120AE125D7CB
:1027330004120AE1D9D604120AE1FCB205120AE135
:1027430054D604120AE10FD604120AE1F3D5041297
:102753000AE192D404120AE183B205120AE164D4B5
:1027630004120AE1098C02120AE131D404120AE1CB
:10277300B5D304120AE117FF02120AE1B5FE0212F1
:102783000AE180FE02120AE14DFE02120AE125FE71
:1027930002120AE1BBFD02120AE19DFD02120AE1E7
:1027A3006EFD02120AE135FA02120AE122F8021260
:1027B3000AE125F602120AE1A5F502120AE153F530
:1027C30002120AE175B205120AE107F502120AE1E3
:1027D3009AF402120AE1E9820200000080FB8700FA
:1027E30001005D1C35000400221C25000200261C8C
:1027F30026000200281C270002002A1C28000100D2
:10280300341C29000100351C84000400361C86009A
:1028130001003A1C2A0001003B1C2B0001003C1C58
:102823002C000100401C2D0008004E192E00010051
:10283300411C2F000100421C30000100431C3100E9
:102843000100441C320001005619330001005719DE
:1028530034000100451C36000100581938000100FE
:10286300461C390001003F1C830002005B1C63000F
:1028730001006419640001003D1C650001003E1C59
:102883006D0001006519710008004619660001001A
:102893005A1C430001004B1C440002004C1C450021
:1028A30001004E1C460002004F1C470008005C1943
:1028B30048000100511C4B000100521C04000100A0
:1028C3005E1CA1000100611C37000100601C880030
:1028D30001005F1C3C00010059193D000100471C29
:1028E30049000200531C6700010066194D000200F5
:1028F300551C4E000100571C4F000200581C3E009F
:1029030001005B1951000100481C52000100491CE1
:10291300530001004A1C540001005A190000000032
:10292300000000013636010100010201000103012C
:102933000001040106060502000007010034080136
:10294300000F090401010D0100FF0E08000017022A
:102953000000190100FF1A0100011B0100FE1C0108
:1029630000081D0200001F010001200100012102D7
:1029730000002301000F24020000260100012701AB
:102983000008280200FF2A0100072B0102402C0146
:1029930000002D0100012E0100012F0100FF300175
:1029A3000B1D310800003A0100083B01000F3C01F8
:1029B30000013D0100FF3E04000042040000460404
:1029C30000004A0400004E040000520400005604B4
:1029D30000005A0400000103710301030103010312
:1029E3000103010322030203010310030003000395
:1029F3000003000300030003000342030003240356
:102A03000603000300030403120325032303250322
:102A1300230304030403000300030003440300032C
:102A2300000323030003650321003503810300032F
:102A3300050300030003000300032503230303022C
:102A430071023001600211027002010202020202ED
:102A53008002100261023A004100630273027202B3
:102A63006202430200021302380000020002040261
:102A730012020002000200020002040204023700F4
:102A830037003C02440200023900000200026502E2
:102A93000002350281020002050282028302000263
:102AA3000101710101010101110101013101010163
:102AB30001018001100161013B00140063017301F6
:102AC3007201620143010001130106013D0135005A
:102AD30004011201000100010001000104010401CD
:102AE300330133013C01440132013600000100018E
:102AF30065010001350081010001050182018301A7
:102B0300000103047104020460041104700402044C
:102B130002040104020410046104000414046304A5
:102B230073047204620443040004130406040004DF
:102B3300000404041204000400040004000451040B
:102B430064000004000400044404000400040004BE
:102B530000046504000435048104640005040004D2
:102B63008304000403007100300160001100700051
:102B730031022003500480001000610000001400A3
:102B8300630073007200620043000000130006003C
:102B9300000000000400120000000000000000001C
:102BA30004000400370037003C024400000000002A
:102BB30000000000650000003500810000000500F2
:102BC30000008300000036000100060000000F0033
:102BD30000000000000000000000000003FFFF00F1
:102BE300000403FFFF0000FFFF0FF4010005C4040E
:102BF3000320000100000B000000000000000003A0
:102C0300010F0000000000000000000000000000B1
:102C130000000000000000000000000000000000B1
:102C2300000000008014CE148614BA1300000000C4
:102C33000000000000000000000000008C14BA1324
:102C43009214BA139814BA139E14BA13A414BA1391
:102C5300AA14BA13B014D414B614BA1300000000A3
:102C63000000000000000000BC14E614C214BA13F4
:102C7300BC14E614C214BA13B014D414C814BA138F
:102C8300000003002001A881000000002001A981A9
:102C93000000040042013A800000050042014B801D
:102CA3000000060042015C80000007002001AA81A9
:102CB300000010004203F21B000011002003D21792
:102CC300000012001003031C060000001001D517BA
:102CD3000A000000020000000400000008000000D9
:102CE30010000000200000004000000080000000F1
:102CF30000010000000200000004000000080000C2
:102D03000010000000200000004000000000EC174D
:102D1300130098171F009E171F80A4170100EC17BC
:102D230002005C17030062170400681705006E17A2
:102D330006007A1736008C17FFFF000001C01F063C
:102D4300EA1F08E41F0B022010DE1C02C61F05D871
:102D53001F07CC1F0CA81F0DB41F64E61AFF000049
:102D630007ECFDFDFDECDCDCCCBCACAC9C9C8C7CB2
:102D73007C6C6C5C5C5C4C4C3C3C2C2C1C1C03EA5B
:102D8300F5E5D5D5C5B5A595958585757565655560
:102D93005545453535252515150500160F00000B3E
:102DA300150B020002220F3300000E010305070971
:102DB3000B0D0F00020406080A0C0D0000000406A8
:102DC30000000406000104060002045A6967426514
:102DD30065416C6C69616E6365303900393D3F371D
:102DE3003C3C362C442D00034A49434E181A250512
:102DF30002303017181921301B1D1F30000119161E
:102E030018161618230300303016181920231A1C1D
:102E13001E300C0E020B040B0A0708000F020402FB
:102E2300010101010902E803000000BE040A0000D9
:102E33007F000E00E80300000905040400100803E6
:102E4300030A1E0C0A10080C281EFF000903010CBC
:102E53000508150404E0041236D8A2E792AF22E471
:102E6300F0A3F0A3F022A3122E62A3F0227F0C02A0
:102E7300085BE0F508E4F509F50AF50B227401F0A7
:102E83009004ABE0640F227409120B2C7F04020838
:102E93005BA3A3E024F5C39413229004CB1259D16E
:102EA3007A147B0022C082C083901A807486F0A3B8
:102EB3007423F0A37498F0A37423F0901A84746EAF
:102EC300F0A37423F0A37468F0A37423F0A374A491
:102ED300F0A37423F0A374AAF0A37423F0A3749E45
:102EE300F0A37423F0A37456F0A37423F0901A9004
:102EF300747AF0A37423F0A37480F0A37423F0A373
:102F03007474F0A37423F0A374B0F0A37423F0904B
:102F13001AA1124F5E60061251C81212A0901A9E97
:102F23001246817408F0A3E4F0A3F0901B41F090E3
:102F33001AA3F07C0BFDF97AA47B1A1211D47C0B33
:102F43007D0079007AAF7B1A1211D402468A74F796
:102F530012059374F7120BC4EAFEEBFF1244A87434
:102F63000512301E7403F0EE2402FAE43F122FF828
:102F7300242DFCE43FFD8C828D8312313612300701
:102F8300600812388074FFF0A3F0EE242BE43F1C9A
:102F93001CFD8C828D83A3E0C0E08A828B83124464
:102FA300B9D0E012300788828983124CB12403120E
:102FB300579B1213907408120E257403F09004C0EB
:102FC30012095D7402120BBC7903EEFAEFFB1225B2
:102FD300487402120B2CE9F5087007EEFAEFFB12A6
:102FE3002428A9087409023890F582E43FF5831276
:102FF3006406124CA6FB8A828B83123016E8F0A378
:10300300E9F0EE221259EF123016E8F0A3E9125F4D
:103013006BE0221231018A828B8322F0A3E4F01247
:10302300302622EE240DF582E43FF5832274F1125B
:103033000593EAFEEBFF8C088D09890A12310B8A8E
:10304300828B83123101740F120E25123124E8246E
:10305300FF18E934FFF988828983E50A1231169053
:1030630004C51231139004C41231137411120E25C6
:10307300123124EE2404FCE43FFD880B8A828B8307
:10308300E0F50C8C828D83E0250CC3950B1259EB74
:10309300E8F0A3E9124415A3A3A3A3A3A3A3A3E066
:1030A30064037008124771F0A3E48003123417120B
:1030B30030217409F0750CA4750D1A750E00780C87
:1030C300120AFA12340B1211C87403120B2C750C6A
:1030D300FF750DFF780C120AFEAC08AD097903EEFB
:1030E300FAEFFB1225487402120B2CE9F50870075E
:1030F300EEFAEFFB122428A9087F0702085BE024FD
:10310300FFF8A3E034FFF922EE2402FAE43FFB22A6
:1031130012313612311A22F0E824FF18E934FFF98C
:1031230022E0F50CA312313612311A88828983E525
:103133000CF022E08882898322C082C083901AC067
:10314300E0C39408400474078001E08A828B83F013
:1031530033333354F8F902468A74F0120593EAFEC6
:10316300EBFF890C8C0E8D0F750A00A2AFE433F5CB
:103173000BC2AF901ABA803F123244503712325505
:1031830064037030EE24F9FEEF34FFFF8508828577
:103193000983A3A3E02405FCA3E03400FDEEFAEFCA
:1031A300FB121390EE24FF1EEF34FFFF7410250A69
:1031B300F50A150C1243E2126402E50C6006E508F9
:1031C300450970B4E50BA2E092AFA2AFE433F50B6F
:1031D300C2AF901ABA802C2402FAE43509FB8A8222
:1031E3008B831259DA2406F582E438F583123262AE
:1031F3008A828B8312324AA3A3123262050A150C08
:103203001243E21243F76022123255640270F11244
:103213003244E50840C1123545A2E550E3850E82EC
:10322300850F837401F0E50C70D6E50BA2E092AF35
:103233008E828F83E50AF0EE24FFFAEF34FFFB80E2
:1032430035123550A2E62212324E22125DCFA3A3CD
:10325300A322850882850983125DC912540322E0E3
:103263008E828F83F0EE24FF1EEF34FFFF2212269F
:10327300147404120B2C7F0802085B74EC12059380
:1032830074F5120BC489138A128B0F851882851962
:1032930083E4F004120BB4122338E9F89004AAE093
:1032A300292434F508FA7B001211EC8A0A8B0BAE41
:1032B3000AAF0BEE4F70030233FFEE2402F50AE46C
:1032C3003FF50BA808EE28F8E43FF9850A82850B41
:1032D300831230002404F510E43FF511851082F5C4
:1032E30083E4F09004AAE0FCF8C3E498F895E0F9CD
:1032F300850A82850B83E028F508A3E039F5099058
:1033030004A8125693750E00780C120AFA7D00AACF
:1033130008AB091211C87403120B2CAC18AD197445
:1033230001120E25E0F9E50824FFFAE50934FFFB55
:1033330012233E8A828B83E4F0EA24FFF508EB3400
:10334300FFF509E50FC454F0F9901B42E0C4333391
:1033530054C0F89004A4E0A2E0E4331313484944B2
:103363000F12341FE512C454F045138508828509F2
:1033730083F0A808850A82850B83E0FA851082858D
:103383001183E02AC398F0850A82850B83E8F0A3B2
:10339300E509F0123417123021E4F0740A120E25F5
:1033A300E4F07508AF75091AF50A7808120AFA12DB
:1033B300340B1211C87403120B2C851882851983E0
:1033C300E06009EE240E12453E4408F0122530E970
:1033D300F9E4F508F5097808120AFE7404120BBC27
:1033E300EEFAEFFB1225487402120B2CE97006EE7D
:1033F300FAEFFB800BEEFAEFFB1211F27A007B007F
:10340300740B120B2C022E707C0B7D00EE2418FA29
:10341300E43FFB221244ACE4F0A322E0850882855A
:10342300098312342922F01256672274F31205938A
:103433008A0A8B0BA2AFE433F50CC2AF7508007593
:103443000900901ABA802C12366C5024850A8285A2
:103453000B83A3A312682F8E828F83A3A31251CB56
:10346300122536E9600A123492C2E6F08E088F09FB
:1034730012366112391A70CFE50845096006123514
:103483004CD2E6F0E50CA2E092AF7F0502085B1296
:10349300349622125680E02274F0120593EAFEEB72
:1034A300FF8C0C8D0D750E00A2AFE433F50FC2AF88
:1034B300750800750900901ABA8020850A08850BE3
:1034C3000912354CD2E4F0E508123545D2E7F0E5B0
:1034D3000A24FBF582E50B34FFF583E0F50AA3E04C
:1034E300F50BE50A450B6043E50A1242CD350BF5B2
:1034F30083E0A2E750D9850A82850B83A3A312092F
:103503005DAC0CAD0DEEFAEFFB12253C7402120B11
:103513002CE960BBE508450960A1E508240D1235D7
:103523005864017006123561D2E4F0E50FA2E0920F
:10353300AFE50845096006122422750E01A90E02A3
:1035430032791242F712355B2212355022E50824F4
:103553001112355822F582E43509F583E0228508F6
:1035630082850983125DC9E02274F212059374FE09
:10357300120BC4750C00750D00851882851983E440
:10358300F0A3F0A2AF33F50AC2AF901ABAE0FEA3DC
:10359300E0FF8035EE24FBF582EF34FF1264007800
:1035A3000C120AFEEEFCEFFD7ABA7B1A1212227499
:1035B30002120B2CEEFCEFFDAA18AB19121210AE7F
:1035C30008AF09901AC0E014F0EE4F602712366C72
:1035D300501DEE240BF8E43FF988828983E024FF31
:1035E300F0A3E034FFF088828983124F5E60A51256
:1035F300365D8099E50AA2E092AF901AC0E060318F
:103603009004ABE0640F6006901B41E070237A984E
:103613007B1A12262090819C1209597A987B1A12E0
:1036230026147404120B2C800874F01248A8122478
:1036330016AA18AB191212168A0A8B0BAE0AAF0B15
:10364300EE4F601312234A123492A2E28E828F83CA
:10365300A350D674E980D40239228E0C8F0DEE2448
:10366300FBF582EF34FFF58322123496A2E722742E
:10367300F7120593EAFEEBFF12234A1244B6120730
:1036830076E964019004C7700AE02401F8A3E034EA
:10369300008004E0F8A3E0F9124B04124EB6901A2E
:1036A300C0E070219004ABE0640F70197A987B1A24
:1036B30012262090819C1209597A987B1A1226149B
:1036C3007404120B2CA9A8C2AF901AC0E0041236DE
:1036D300D8A2E7800DF0E9A2E7E433F8E922E50890
:1036E300A2E092AF02494474F7120593EAFEEBFF9E
:1036F30012371FF012234AEEFCEFFD7ABA7B1A123F
:10370300121CA9A8C2AF901AC0122E589004ABE0A5
:10371300640F700579081224E8024944123496C2F2
:10372300E42274F712059374EA120BC4EAFEEBFF6A
:103733009004A4E060408518828519837401F01217
:103743000E25E41237F7120E25AA82AB83121390CB
:103753008E828F83123567C0E0740A120E25D0E083
:10376300125A00740B120E25AA82AB83122560AA8B
:1037730018AB191219D2741602389074F712059304
:10378300EAFEEBFF12232CE9F974DC69601E74DD99
:1037930069601974E469601474F369600F74DE6915
:1037A300600A74DF69600574DB697007EEFAEFFB8A
:1037B3001224EE02494474F712059374EB120BC4FE
:1037C300EAFEEBFF85188285198374061237F71218
:1037D3000E25AA82AB83121390125A05740A120E95
:1037E30025AA82AB83122560AA18AB191219D274C9
:1037F30015023890F0EE2413FCE43FFD74022274AA
:10380300F712059374F7120BC4EAFEEBFFEE242DB7
:1038130012453E60651240CFAA18AB19121390747B
:1038230008120E257403F09004C012095D1238804B
:1038330012095D9004D3E0F97404120BBCEEFAEFA5
:10384300FB1223327404120B2CE9F974DC69602334
:1038530074DD69601E74E469601974F3696014743B
:10386300DE69600F74DF69600A74E869600574DB00
:10387300697007EEFAEFFB1224EE022FE7EE12381F
:103883008522242BF582E43FF583227403120B2C4B
:1038930002494474F21205938A088B09750C00756A
:1038A3000D00750AE7A2AFE433F50BC2AF901ABA65
:1038B300800312365D12391A603512366C50F312DA
:1038C300453B640170ECEE242FF582E43F123AC9C4
:1038D300E06870DE780C120AFEEEFCEFFD7ABA7B2C
:1038E3001A1212227402120B2C901AC0E014F0E583
:1038F3000BA2E092AFEE4F6013EEFAEFFB12234AF6
:1039030079F0EEFAEFFB1224EE750A00A90AAA0871
:10391300AB091224EE800DE0FEA3E0FFEE4F22740C
:1039230002120B2C7F0602085B74F412059374F7E2
:10393300120BC4EAFEEBFF8E828F83A3E064F37065
:10394300030239D68E828F83A3E064DF70030239CA
:10395300D68E828F83A3E064E860788E828F83A300
:10396300E064DB606E12238CE9F508705EEE240ED2
:1039730012453E60561239E01223D4EA4B604C7470
:1039830008120E251239EA12095D7508FF7509FF41
:103993007808120AFE8E828F83A3A3A3A3A3A3A3F3
:1039A300A3E0F97404120BBC1223327404120B2C1F
:1039B300E9F50874F36508601274DF6508600C7438
:1039C300E86508600674DB6508700F8E828F83A339
:1039D300E508F0EEFAEFFB122398022E8AEE240F8D
:1039E300FAE43FFB79092274021261C874FFF0A361
:1039F3001239F7221239FB22124CBAA3A32274F50F
:103A03001205938A088B097E008A828B83A3A3A362
:103A1300A3A3A3122E9440027EE88A828B83A3A3DE
:103A2300A3A3A3A3A3A3A3A3E0C3941040047EE88A
:103A330080138A828B83A3A3A3A3A3A3A3A3A3A378
:103A4300E0640F600A901B1EE0540870027EE8EAEF
:103A5300240BF582E43509123AC9A3A3A3A3A3A3B4
:103A6300A3A3E0C398500CEA240B123558640F60EB
:103A7300027EE89004C4E0F47003A3E0F470027ED5
:103A8300EC7A237B0012129A901AA11251DB901A3E
:103A9300A1124F5E6029850882850983A3A3A982A9
:103AA300AA8389088A09750A007808120AFA7C230E
:103AB3007D001251C81211C87403120B2C80027EB0
:103AC3001AEEF9026369F583E0F88A828B83A3A374
:103AD3002274F5120593EAFEEBFF8E828F83A3A374
:103AE300A3A3A3A3A3A3E09004AB1260AB9004C66B
:103AF3001260919004A61260B0901B42F0F9120F6D
:103B03006A901B42E06018EE2404FAE43FFB79500C
:103B1300120F52EE2406FAE43FFB79E1120F5290A2
:103B23001B41122E806004740180027400901AA35A
:103B3300126097120AFA7C0B7D007AA47B1A121189
:103B4300C87403120B2CEE2418F508E43FF509782A
:103B530008120AFA7C0B7D007AAF7B1A0263617448
:103B6300F7120593EAFEEBFF8E828F83A3E07006C4
:103B73001251C81223928E828F83742C1248A8127A
:103B830024FA02494474F7120593EAFEEBFF901AF4
:103B9300A1124F5E600D1251C8901AA1E4F0A3F078
:103BA3001212A08E828F8374081248A81219D202AF
:103BB300494474F6120593901B41E06013901AA3D5
:103BC300E0700D123BD6122344EA4B600312242803
:103BD300025D0B9004A6E0FB9004C6E0FA9004ABF0
:103BE300E0F92274F412059374E7120BC4EAFEEBB6
:103BF300FF750B018E828F83A3A3A3A3A3A3A3E0CB
:103C0300A2E25068EE242BF582E43F12682D123CA9
:103C1300A4122350E970559080FAE0640170057591
:103C23000B008048123CAC120AFA7C0B7D00741125
:103C3300120BB41211C87403120B2C122530E9FABB
:103C4300740E120BAC880889097808120AFE7508ED
:103C5300307509007808120AFE12388012095D12C5
:103C630059A1790112254E7406120B2C85188285F1
:103C7300198374101237F7120E25AA82AB8312131D
:103C8300841238801259CD740B120E25124EB6745D
:103C93000D120E25E50B12471B1219D27419022EB1
:103CA3008CEE2413FAE43FFB22EE240812609F22D9
:103CB300C082C083901B42E060031225A202468AA1
:103CC300C082C083901B397480F0A3741AF0A3746C
:103CD30084F0A3741AF0A37490F0A3741AF0901CE8
:103CE300757405F0A3742BF0901B237426F0A37452
:103CF30023F0901AC5745CF0A37423F0901AC77470
:103D030062F0A37423F0901B1EE044028001E4F0F0
:103D130002468AC082C083EAFCEBFD7903024D268A
:103D2300C082C083EAFCEBFD7905024D26C082C048
:103D3300837908025E9CC082C08374FE120BC49018
:103D43001ACD7410F0A37424F0901ACF740AF0A360
:103D53007424F0800D7ABA7B1A12121612471112CC
:103D6300251E901ABA124F5E70EB901ABC124F5E6A
:103D7300600F7ABC7B1A12121612471112251E808D
:103D8300E9901ABAE4F0A3F0901AC0122E637402F9
:103D930080027411120B2C02468A74F6120593E901
:103DA300FF74DE29F582E4342DF583E493FEFA7B78
:103DB300001211ECEA4B6011EA2E124EAC8A828B90
:103DC30083A3A3A3A3E4F0802C7A027B001211EC5B
:103DD300EA4B601D74F42FF582E4342DF583E493EC
:103DE3008A828B83F0A3741AF0901B19E0F91211E5
:103DF300F87A007B00025D0BE9FC740629F8EAA25D
:103E0300E0501EE875F00A84E5F0F96014740A289E
:103E1300C399F8E9C394054004740A28F8740B287D
:103E2300F8ECC3941340047A1480027A06EA2879E2
:103E3300002409F85001097A0A7B0012033CE8F9CF
:103E4300020ADEC082C083901B1EE05402600A1285
:103E530019D8E9600479018002790002468AC08298
:103E6300C083901B1EE054026016901AC0E0700CD1
:103E7300124F5B600BE0C81243EF500479018002DC
:103E8300790002468AC082C0839080F7E0F8901AD6
:103E9300C2E0C39850051211EC80047A007B000243
:103EA300468AC082C08312251E790002468A74F7AF
:103EB30012059374FE120BC4851882851983EAF0E8
:103EC300A3EB124020A3A3A3A3A3E0600A146060A2
:103ED30024FE6069023FA19004ABE0640F601812F6
:103EE30024F4E970128518828519831251CB901A34
:103EF300C91244B91207769004D3E0C0E085188252
:103F0300851983124C84D0E012402074141261C4CA
:103F130012682F7ABC7B1A121210A8A8C2AF901A8B
:103F2300C2E0041251E179201224E87402023890AD
:103F3300851882851983125DD1741580D085188206
:103F4300851983124003A3A3E06053851882851962
:103F530083E02402F8A3E03400F98882898312669F
:103F630002E0C0E0851882851983E0FCA3E0CC243D
:103F730006F582E43CF583D0E0125A0D88828983EA
:103F83001251DB8518828519831242EB85188285CD
:103F93001983601312400860051240104043AA18A9
:103FA300AB1912251E808412400860F21240105093
:103FB3001C1243FFFA85188285198312400AF8748C
:103FC3001F124EA7342EF583E4936A60148518827A
:103FD300851983124008640870C41243FF64087093
:103FE300BD1243FF14124028240AC0E085188285BD
:103FF30019831244B9D0E012402804023F10E0F8BC
:10400300A3124CD122E0F8A3E012402F228518829C
:104013008519831259DE124030C3940A2212403AA2
:10402300F58388822212403A12402F22C82406F5D3
:1040330082E438F583E0221261C8E0F8A3E022C0ED
:1040430082C083901AD1124F5E6008125DD21207AC
:10405300768002790002468A74F7120593EAFEEB32
:10406300FF1230267401F0EE2430F582E43FF5832D
:1040730012573B123000243212453EC0E0EE2413A7
:10408300F582E43FF583D0E0F0EE243312453EC0E1
:10409300E0EE2414F582E43FF583D0E0F0EE242C27
:1040A300F582E43FF58312095D1240CFEE242E1210
:1040B300453EF91225487402120B2CE9F5087007E6
:1040C300EEFAEFFB122428A908024944EE2423FC4C
:1040D300E43FFD22C082C0831224F4E96004792006
:1040E3008002790102468AC082C083EA1242CD125D
:1040F300418ED2E0023D12C082C083124188640126
:104103007011124193400C8A828B83A3E0F912242D
:10411300EE806FEA241012418BA2E650128A828B42
:1041230083A3E0F9901ACB1244B912077680531295
:1041330041886401700D12419350088A828B837405
:104143003080368A828B83A3E0641B8A828B8370E0
:104153000474228024A3E0700D124188F8740A12BB
:104163004EA7342E800B124188F874F4124EA734F4
:104173002DF583E4938A828B83F0901B19E0F91267
:1041830011F802468AEA240DF582E43BF583E02226
:10419300EA1242F73BF583E0A2E32274F712059398
:1041A300E9FE124F5B70030242C4EE6011741B6E92
:1041B3007013E0C81242C76405700302428F125D98
:1041C300C1E402429374E96E70621242E3700B120F
:1041D30019DEE960051242FD606279EE120ED49099
:1041E3001AC31242E0901AC3603B124300901AC3F1
:1041F300700B1242E014F012108A0242C41242EB16
:10420300C2E712440B1242C76403700C1259D7124F
:1042130042CD124035D2E2F079ED120ED41242D3E0
:104223001207768075125DC474E9806474E16E7060
:104233003E1219DEE960551242FD70509004CDE044
:10424300C0E01259D72412F582E438F583D0E0F0A8
:104253009004BCE0C0E0901AC3124001124001D0A8
:10426300E0F09004BCE004F0790112107280527403
:104273001C6E7018901AC31251CB901AD31244B902
:10428300120776901AC3E4F0A3F08035125DC1EEF5
:10429300F0901AC31251CB1224161259D71259A9EE
:1042A300E0548060109004D3E0F9120F8E9004D292
:1042B300E0F9120F82901AC3E4F0A3F079101224EC
:1042C300E8024944240D124032222411F582E422EB
:1042D300901AC31251CF901AC7125DCB22E0F8A3F4
:1042E300E0C8241212403222E0F8A3E0C81242F7D9
:1042F300124035222410F582E422901AC31259DEAB
:104303001259ADE054042274F4120593750A007532
:104313000B00A2AFE433FFC2AF124F5B6003024353
:10432300C71244B6120776E94410F8901ABA800906
:1043330085080A85090B1243E21243F7700302430F
:10434300C712354C586870E8780A120AFEAC08ADFB
:10435300097ABA7B1A1212227402120B2C901AC316
:10436300E508F0A3E50912440B1243EF405D901AF0
:10437300C1E014F0EFA2E092AF901AC3E0240EF86C
:10438300A3E03400F9880889098882F5831251CBA8
:10439300901AC3124405F91223DAE9901ABEF012F7
:1043A3004413E05480901AC360261259DA2413127E
:1043B3004032F9120F8E1259D72414124032F912D7
:1043C3000F828018EFA2E092AF8011901AC080A1F3
:1043D3001242EBA2E1B3E433F9121072022E8FE51D
:1043E3000824FBF582E50934FFF5832224111240EA
:1043F30032A2E722126406E5084509228518828560
:10440300198312324EA3E022F0901AC31259DE220E
:10441300A3E4F08508828509832274F7120593EAE1
:10442300FEEBFF122518EE241012453EA2E3400CCA
:1044330012453B640170059080F580039080F6E09F
:10444300F9EEFCEFFD7ABA7B1A121228E96046EE08
:10445300FAEFFB901ACD1244B9120776EE240E122E
:10446300453E54047020A8A8C2AF901AC1E00412BC
:1044730051C1FAE8A2E792AF1244A8A3E054017035
:1044830021122422801CEEFAEFFB901AC51244B9C4
:10449300120776800D8E828F83A374F11248A812BF
:1044A30024160249441244AC22EE240EF582E43F62
:1044B300F58322901ACF125DCB22C082C0831224CF
:1044C3002202468A74F7120593EAFEEBFF79009005
:1044D3001B1EE05402700CEE243012453E5404605F
:1044E3000279E8901B1EE05460700CEE24301245F4
:1044F3003E5402600279E88E828F83A3A3A3A3E0D4
:10450300F89080FBE0C398500279E8EE242E124520
:104513003E700CEE242B12453E700479F5800BE9B6
:104523007005122404E9F9E96007EEFAEFFB12249F
:10453300EE02494434FFF509EE240DF582E43FF51C
:1045430083E022C082C0838A828B83740DF01219A8
:10455300D202468AC082C0838A828B83E4F0A3F0AE
:10456300EA243012418B54049080F57012E0F890E5
:104573001AC1E0C398401279F11224EE02468AE090
:10458300F8901AC0E0C39850EE901B19E0F912118D
:10459300F880E974F6120593E9FE244CFAE434003A
:1045A300FB1211ECEA4B6012EE8A828B83A3A3A366
:1045B300A3F0EA244C124EAC80047A007B00025D27
:1045C3000BC082C083901AD57470F0A37424F0A337
:1045D30074A0F0A37424F0A37476F0A37424F0A35E
:1045E300747CF0A37424F0A3749AF0A37424F0A34E
:1045F300748EF0A37424F0A37488F0A37424F0A33E
:1046030074A6F0A37424F0A374ACF0A37424F0A3F1
:1046130074B2F0A37424F0A374BEF0A37424F0A3C3
:104623007482F0A37424F0A3746AF0A37424F0A337
:104633007464F0A37424F0901AF17494F0A37424B6
:10464300F0A374B8F0A37424F0A374D8F0A3742572
:10465300F0A374C4F0A37424F0A374CAF0A3742465
:10466300F0901B15E4F0901B18F0901B011246818B
:104673007402F0901B0A1246817401023D1274E821
:10468300F0A37424F0A322D083D082020ADE74F54F
:1046930012059374F1120BC4851882851983740271
:1046A300F07401120E25E9F060047AFF7BFF7402B7
:1046B300120E251251DB75080D75091B750A00785A
:1046C30008120AFA7C0B7D007407120E25AA82AB2E
:1046D300831211C87403120B2CAA18AB191219D226
:1046E300740F02636674F712059374FD120BC4858D
:1046F3001882851983740AF07401120E25E9F07487
:1047030002120E25EA12471B1219D202388E85189F
:1047130082851983EAF0A3EBF0AA18AB192274F689
:1047230012059374F7120BC4EAFEEBFF12477112E2
:10473300301E7402124899AA18AB19121384EE247E
:104743002E122FEC24301257A8120AFE7402120BF9
:10475300BC79831A1AEFFB1225487402120B2CE959
:10476300F5087007EEFAEFFB122428025D041244E9
:10477300AC74012274F012059312624F120DB678D5
:1047830008790C12042C7808120AF67A047B1B02AF
:10479300327174F412059374C6120BC49004ABE027
:1047A300640F6010851882851983742E12471B12BB
:1047B30024FA80277AFB7B1A122620122E9D1203DD
:1047C3004488088909E4F50AF50B7808120AF67A91
:1047D300FB7B1A1226147404120B2C743A022E8CCF
:1047E30074F5120593EAFEEBFF8E828F83A3E0F844
:1047F3006003024882EE242D12453E64026007E006
:104803006403600278E8EE2423F582E43FF5831223
:104813002E96400478E8806AE87064EE2423FAE474
:104823003FFB79E1120F52EE242EFAE43FFB79505D
:10483300120F52EE242D12453E6402700E12599748
:104843001259CD9004BA124EB680129004BA74FE77
:10485300F0A3041248997AB17B04121390EE241842
:10486300123CAF120AFA7C0B7D007A0D7B1B1211EE
:10487300C87403120B2CEEFAEFFB12245EE9F8E87E
:104883006011E88E828F83A3125BF974171248A814
:104893001224FA026369F0EE2425FCE43FFD228E24
:1048A300828F837429F0EEFAEFFB2274F6120593DC
:1048B30074F7120BC4901B18E0703B7401F0F912EB
:1048C300103CAA18AB1912252A75080D75091B7817
:1048D30008120AFE7508017509007808120AFE908D
:1048E30004C012095D7406120BBC7A037905122504
:1048F3004E7406120B2C025D0674F7120593EAFE42
:10490300EBFF79011210428E828F83E064207004E2
:10491300A374EBF0901B18E0A2E25003C2E2F0E0B4
:10492300A2E15008124B46122458800C8E828F83CA
:10493300742A1248A81224FA8007EEFAEFFB122514
:10494300967F0102085B74F412059374FE120BC484
:10495300EAFEEBFF79011210427AFB7B1A12262042
:104963007A047B1B122620124C90851882851983AA
:10497300124CC4E0F50B700FAA18AB197953120F40
:10498300521263F6120F52123CAC120AFA7C0B7DE0
:10499300007A0D7B1B1211C87403120B2C8518822D
:1049A3008519831251CBA90B122452901B18E0A234
:1049B300E1500C7A008E828F83A3E0F91224589081
:1049C3001B18E4F07402022E8C74F7120593EAFEAE
:1049D300EBFF8E828F83A374EBF0901B18E0A2E1B0
:1049E30050077A0079EB122458EEFAEFFB12248E6B
:1049F30002494474F7120593EAFEEBFF79011210A2
:104A0300427AFB7B1A1226207A047B1B1226209003
:104A13001B15E4F0901B18F07AFF7BFF8E828F83C7
:104A2300A3E0F912245202494474F7120593EAFEF3
:104A3300EBFF12248802493D74F7120593EAFEEB5B
:104A4300FF79011210428E828F83A3A3A3A3E06098
:104A5300047400800274EB124A8D5003C2E2F0E04A
:104A6300A2E15008124B8F1224588014A2E0501078
:104A73008E828F83742AF0A374EB1248A81224FA4F
:104A8300EEFAEFFB12243A0249448E828F83A3F09D
:104A9300901B18E0A2E22274F6120593EAFEEBFFE4
:104AA300901B18E0D2E1F0790112103C8E828F83C3
:104AB300A3E0703C122530E9FAEE240DF508E43F3B
:104AC300F5097808120AFE750801750900780812BD
:104AD3000AFE124B0412095DEE2402FCE43FFD7949
:104AE3000512254E7406120B2CE98E828F83A3F0D8
:104AF3008E828F83A3E060067A00F9122458025D48
:104B03000B124B0822EE240BF582E43FF58322744B
:104B1300F7120593EAFEEBFF79011210428E828FA2
:104B230083E064207004A374EBF0901B18E0A2E20E
:104B33005003C2E2F0E0A2E15006124B46122458A1
:104B4300024944C2E1F07A008E828F83A3E0F92206
:104B530074F7120593EAFEEBFF79011210427AFB18
:104B63007B1A1226208E828F83A3A3A3A3E0600463
:104B73007400800274EB124A8D5003C2E2F0E0A28B
:104B8300E15006124B8F122458024A83C2E11239B4
:104B9300F7A3E0A2E4E433FA8E828F83A3E0F92241
:104BA30074F7120593EAFEEBFF79011210428E822D
:104BB3008F83A374EB124A925003C2E2F0E0A2E1A6
:104BC3005006124B4612245802494474F7120593B7
:104BD300EAFEEBFF7AFB7B1A122620EEFAEFFB12BA
:104BE30024B202493D74F7120593EAFEEBFF7AFB08
:104BF3007B1A122620EEFAEFFB1224B20249447408
:104C0300F712059374EF120BC4EAFEEBFF1259A1DE
:104C13007AB17B0412137EE9606285188285198359
:104C23007409F07401120E2574EFF0124C90F874AD
:104C330002120E25E8124CC4A3A3E0C0E0740412D0
:104C43000E25D0E0124CB1640870158E828F83A3B9
:104C5300A3124C84E0C0E07405120E25D0E0800658
:104C63007405120E25E4125A007406120E25AA8248
:104C7300AB83122560AA18AB191219D2741102382A
:104C8300901259DE2407F582E438F58322124CA6EC
:104C9300FB8A828B831259D188828983E0FCA3E04B
:104CA300F9EC22EE2402F8E43FF9E8FAE922124C87
:104CB300B522124CBAE022F08E828F83A3A3A3A362
:104CC30022F0A3E91259EF124CCE22E0F8A3125DB1
:104CD300D2A3A322C082C0831225A202468AC08225
:104CE300C083901B3574D5F0A3741AF0A374F1F04C
:104CF300A3741AF0901C6F74A3F0A3742AF0A37426
:104D030041F0A3742AF0901B21744CF0A37424F097
:104D1300901B1EE04401023D12C082C083EAFCEBFB
:104D2300FD790212250602468AC082C083790602F3
:104D33005E9C74F612059374FE120BC4901B1A1238
:104D43004F5E60077A1A7B1B12251E901B20E4F02E
:104D53009017A5124F5E60268007AA18AB1912257B
:104D63001E901B19E0F91212048A088B09A808A9DE
:104D730009851882851983124EB6E84970DC7402DE
:104D8300025D0874F7120593E9FA7B00901B19E0A2
:104D9300F912122E02494474F712059374F0120BA0
:104DA300C4EAFCEBFDE9FE8C828D83E0F8741512F6
:104DB3004EA7342EF583E493C0E07401120E25D080
:104DC300E0F0640B700DEE8C828D83A3F0122584CA
:104DD300024E9AE07003024E9A640C6003024E8BFB
:104DE300741A6E700B7404120E25E4F0A3024E8A3B
:104DF3007404120E25ECF0A3EDF0EC242F124E9F59
:104E0300C0E07403120E25D0E0125F62120E0E741E
:104E130006120E25120DF68C828D831259C4740A64
:104E2300120E25124EB6EC240E124E9F541060093A
:104E3300851882851983E48013EC2412124E9FF89F
:104E43009004CDE0C398851882851983F0E0C0E013
:104E5300740C120E25D0E0F0EC2415124E9FC0E026
:104E6300740D120E25D0E0F0EC2416124E9FC0E014
:104E7300740E120E25D0E0F0EC2417124E9FC0E002
:104E8300740F120E25D0E0F07402120E25EEF074AA
:104E930001120BB41219D27410023890F582E43D5A
:104EA300F583E02228F582E422F8E43BF98A828B39
:104EB30083A3A3E8F0A3E9F022C082C083901B2060
:104EC300E06403700479018002790002468A74F772
:104ED300120593901B20E0124F4812682D8A828B93
:104EE30083E0C2E7F025E0F8EC124EA73DF583A37B
:104EF300E493FE124F48F583124F5E6005EE901B5C
:104F030020F08A828B83E0124F54EC28F582ED392E
:104F1300F583E493FCC4540F25E0F8742F124EA7D5
:104F2300341BF583124F5E70051225728014EC5406
:104F33000F25E0FCE82CF582E439F5831244B9121D
:104F43000776024944124F54746D28F582741C3954
:104F53002225E0F8E433F922901AC31259D1E84923
:104F63002274F112059374FE120BC4890AEAFEEB54
:104F7300FF125060FA7B001211EC8A088B09EA4594
:104F83000960388A828B83E50AF0A3E4F08E0C8FE4
:104F93000DF50E780C120AFAA80A12506DEA2402D3
:104FA300FAE43509FB1211C87403120B2CAA08ABDF
:104FB30009901B19E0F91211F880128518828519DE
:104FC30083E50AF0791AAA18AB191224EE740212B7
:104FD3000B2C0230FC74F212059374FE120BC4897D
:104FE3000B8A088B09125060F50AFA7B001211EC48
:104FF3008A0C8B0DAE0CAF0DEE4F604A8E828F8301
:10500300E50BF0A3E4F0A80AEE28F8E43FF98E825A
:105013008F83124EB48E828F83A3A3A3A3E4F0F5F0
:105023000A7808120AFAA80B12506D12340F1211E3
:10503300C87403120B2CEEFAEFFB901B19E0F91264
:1050430011F879008014851882851983E50BF079AE
:105053001AAA18AB191224EE791A02392274E92913
:10506300F582E4342DF583E4932274FF28F582E47A
:10507300342DF583E493FC7D0022C082C083E99044
:105083001B19023D1274F612059374FE120BC4EA47
:10509300FEEBFFEE542070378040A8A8C2AF901AF1
:1050A300C2E0141251C1F508E8A2E792AF8A828BDD
:1050B300831251B8901B1C1251DB1224FA851882FB
:1050C300851983E0641560077A1C7B1B12251E7A01
:1050D300BC7B1A121216EA4B70C0EF548070128018
:1050E3001C901B1C1251DB1224FA7A1C7B1B122509
:1050F3001E901B19E0F9121204EA4B70E4EE5410EF
:10510300600E851882851983742D12471B1224FAA9
:10511300EEA2E0500E851882851983742412471B72
:105123001224FAEE5402600E8518828519837425C1
:1051330012471B1224FAEE5404600E851882851957
:1051430083742612471B1224FAEE5408600E851846
:1051530082851983742812471B1224FAEE54406087
:10516300107401120E251261C3742C12471B1224F2
:10517300FAEE548060107401120E251261C3742F6D
:1051830012471B1224FA901B1A124F5E6020A8A824
:10519300C2AF901B1A1251CB901B1AE4F0A3125109
:1051A300E11251DA1224FA7A1C7B1B12251E7A00B3
:1051B3007B00024D81E0851882851983F022F0E897
:1051C300A2E7E43322901AA11251CF22E0FAA3E01E
:1051D300FB22A3A3A3A3A3A3EAF0A3EBF022125100
:1051E300C1FEE8A2E792AF22C082C083901B1C12CB
:1051F30059CDEA687002EB697007901B1CE4F0A3B9
:10520300F002468A74F7120593EAFEEBFFEE4F7045
:1052130003122680A2AFE433F508C2AF8E828F83D8
:10522300124F5E6028E824FBFAE934FFFB901B1C55
:1052330012682FE86C7002E96D7007901B1CE4F094
:10524300A3F08E828F83E4F0A3F01212A00236E162
:10525300C082C083901B437466F0A37425F0A374CB
:1052630078F0A37425F0A3747EF0A37425F0A374DF
:1052730034F0A37424F0A37484F0A37425F0A3740E
:105283002EF0A37424F0A3743AF0A37424F0901BBB
:105293005174B4F0A37425F0A3748AF0A37425F0B9
:1052A300A37490F0A37425F0A3749CF0A37425F069
:1052B300A37496F0A37425F0901B42023D11C082A3
:1052C300C0839004BAE064FE7003A3E0F470097C29
:1052D300B17D0412138480158A828B83A3A3A3A3B5
:1052E300A3A3A3A37402F0125443124EB602468A38
:1052F300C082C0839004C4C3E094FEA3E094FF4043
:105303000479038002790202468AC082C083125460
:105313004E8C828D83125403687039740268701C3A
:105323008A828B8312535CE06870298A828B83A301
:1053330012535CA3E068701C7901801A74036870CF
:1053430013EC2405FC50010DEA2405FA50010B125D
:10535300138A8002790002468AA3A3A3A3A3E0F8D9
:105363008C828D83A3A3A3A3A32274F61205937E39
:1053730000740A120E25E01253F7FF8A828B83A36F
:10538300A3A3A3A3A3A3A3E06F706474026F704EDF
:105393008A828B83C082C08388828983A3A3A3A3C9
:1053A300A3E0F50888828983A3A3A3A3A3A3E0FBB7
:1053B300AA08D083D082E06A7003A3E06B703088C0
:1053C300828983A3A3A3E0FA88828983A3A3A3A3E7
:1053D300E0F9EA6C7002E96D70157E0180117403C7
:1053E3006F700CE82405FCE439FD12138AE9FEEE24
:1053F300F9025D0BF8A3E0F9888289831254032232
:10540300A3E01313543F540322C082C0838A828BC8
:1054130083A3A3A3A3A3A3A3A3E0640270141254BE
:1054230043E0687003A3E06970047901800F790099
:10543300800BEAFCEBFD7AB17B0412137E02468AF1
:105443009004BA1259D18A828B83228A828B831267
:105453005403F82274EC120593EAFEEBFF8C128DD1
:1054630013750A008C828D83A3A3A3A3A3A3A3A371
:10547300E0F510E9A2E75008750CFF750DFF8006F3
:105483009004C0125693E9C2E7F511EE240E1245BB
:105493003E5420600712567474088004125674E454
:1054A30012569B5404600712567C74808005125672
:1054B3007C741012569B5410600612564CE4800BF9
:1054C3009004CDE0C0E012564CD0E012569BA2E00F
:1054D3005003750A20540860067410450AF50A8EB5
:1054E300828F83A3A3E024FFF508A3E0124537C30B
:1054F3009402E0400B640B6005E01412341F740344
:10550300450AF50A750B009004E0E0640170118E02
:10551300828F83A3A3A3A3E0C394674003750B10F7
:1055230085110E750F00740E780E120D04E50F45EC
:105533000BF50B7414120E25E0F50EA3E0F50F74B2
:10554300026511700E9004C512341E9004C41256E5
:105553008A80137403651170121256567CD47D042D
:10556300AA08FB1213901256638004E5116028E524
:10557300106014E50E650C7004E50F650D7008747A
:1055830040450AF50A8010850882850983E50D12D6
:1055930056A1E50C12342585100C750D00740A789C
:1055A3000C120D04E50D450BF50B74026510701517
:1055B300851282851383A312341E85128285138379
:1055C30012568A8013740365107012125656AC1269
:1055D300AD13AA08FB1213901256638004E5106002
:1055E30010850882850983E50F1256A1E50E123452
:1055F30025A808A909E824FFF508E912453770052D
:105603009004B080039004BCE0FA04F0EA88828935
:1056130083124415E50B1256A1E50AF0EE2404F8B3
:10562300E43FF912310BAC088A828B83E0F50A88D8
:10563300828983E0250AC39C1259EBECF0A3E509A8
:10564300125B67E4F0F9022E70EE2412F582E43F58
:10565300F58322E50824F9F508E50934FFF5092265
:1056630012566722E50824FFF508E50934FFF5091A
:1056730022EE1242F73FF5832212568022EE2411C6
:10568300F582E43FF58322E0850882850983F022D1
:10569300E0F50CA3E0F50D22F01244ACE022123445
:1056A30029850882F5832274EE120593890A8A0BF1
:1056B3008C108D11750C1A7416120E25126402AA21
:1056C30008FB1223D48A0E8B0FAE0EAF0FEE4F6082
:1056D300607414120E2512573BE8F0A3E91230212F
:1056E300E50AF085080C85090D750E00780C120A81
:1056F300FA12340B1211C87403120B2C7412120E0B
:105703002512095DAC10AD11A90BEEFAEFFB1225C2
:10571300487402120B2CE9F50C7016E50A24F960A3
:1057230003147006123492D2E5F0EEFAEFFB122462
:1057330028A90C7F0A02085B125DE01244AD2274B3
:10574300F612059374F7120BC4EAFEEBFF7801EE31
:10575300242F12453E600278051244A8E812301E39
:10576300740412579B121384EE242C122FEC242E54
:105773001257A8120AFE7402120BBC79031A1AEF0D
:10578300FB1225487402120B2CE9F5087007EEFA98
:10579300EFFB122428025D04F0EE2423FCE43FFD1A
:1057A300AA18AB1922F582E43FF583123136124C65
:1057B300B504F078082274F21205938A088B09EC79
:1057C300FEEDFF8A828B837405F0EE243212453E90
:1057D3008A828B83A3A3F0EA2403F50AE43509F54F
:1057E3000B850A82F583125693125997120E0EE512
:1057F3000C1242CD350DF583120DF61259A1AA0CE8
:10580300AB0D121384850A82850B83125DD8FAA32C
:10581300E0FB88828983A3A3A31251D5EE242F1220
:10582300453EC0E01259B6D0E01259F52415F58271
:10583300E438F583E41259F51259A9E4125A0085A4
:105843000A82850B83E02416FAA3E03400FB1225B9
:10585300608E828F83A3A3A3A3A3A3A3E0C0E08549
:105863000A82850B831259DA240DF582E438F58315
:10587300D0E01259E4FAA3E0FB850A82850B831278
:1058830059CDE8240BFCE439FD8A828B83E08C82BA
:105893008D83F0A3E4125A0DE0F50B8C828D83A364
:1058A300E0450B1259EBA3E0FCA30A0AAB83A2E782
:1058B300E433C0E0E8240FF582E439F583D0E0F067
:1058C30074075C600478018002780075F003740744
:1058D3005CA428F8EA28FAE43BFBE5082405F8E48D
:1058E3003509F98A828B83123136125A0D85088263
:1058F3008509831251D588828983E0F50A540725E7
:10590300E0FCE50AC4540F5407F50A750B00740351
:10591300780A120D04EC250AF8EA28F8E43BF98525
:105923000882850983A3A3A3A3A3A3A3A3A3E8F046
:10593300A3E9124CB1FA8E828F83A3A3E02AFAA3C0
:10594300E03400FBC3EA98EB9940308E828F83A347
:10595300A3E0F8850882850983A3A3A3A3A3A3A334
:10596300A3A3E0FA8E828F83A3A3A3A3E0C39A2801
:10597300850882850983A3A3A380108508828509EE
:1059830083A3A3A3A3A3A3A3124413A3A3A3A3A384
:10599300F0023927EE2425F582E43FF58322EE2435
:1059A30013FCE43FFD221259AD22240EF582E438A4
:1059B300F583221259BA22E82410F582E439F583DB
:1059C30022A3A3A3A3A3A3A3A3A31259D122E0F8C1
:1059D300A3E0F922901AC31259DE22E0F8A3E0C82B
:1059E30022125BF9A3A3E0221259EF22F08A828BE1
:1059F3008322F0850A82850B831259DE22F0125A24
:105A03000522EE2408FCE43FFD221259EFA3AA82EB
:105A1300AB832274F51205938C088D09750A0078FF
:105A230008120AFA7C0B7D00026361020ADEC0825F
:105A3300C08379181224EE02468AC082C0838A8208
:105A43008B83E0C3940B500312256C02468AC082F9
:105A5300C083791980DE74F7120593EAFEEBFF9099
:105A63001B1A124F5E6010901B1A1251CB1225782D
:105A73007A1A7B1B12251EEEFAEFFB122518901BD8
:105A83001AEEF0A3EF8002F0A3F002494474F71278
:105A9300059374DE120BC4EAFEEBFF8E828F83E064
:105AA30024FD601124FE601524ED600924FA600DC5
:105AB30014600A803D7416120E25E48007741612D2
:105AC3000E257401F01240CF740B120E25AA82AB7F
:105AD300831213907413120E25125B6C120E25128F
:105AE3004EB6740A120E25125B78120E25124EB6AC
:105AF30080427416120E257402F01259A1740B120F
:105B03000E25AA82AB831213907413120E25125B17
:105B13006C120E25124EB6740A120E25125B781201
:105B23000E25123000125A067417120E25AA82ABE4
:105B330083122560851882851983740B125B67E0D5
