:020000040000FA
:06000000020DB802026EC1
:03002B00020B7F46
:0300330002029036
:030053000201A304
:03007B000208D5A3
:10008300020202010020FD000200007411000000C2
:1000930000000000000000D41100005C110000000B
:1000A300000000000000000000000000000000004D
:1000B300000000000006FFFF00035F005F00300048
:1000C30058000000000000000000000000000000D5
:1000D300000000000000000000000000000000001D
:1000E3000000F7064C074C074C074C075407060063
:1000F30008FA170000000160EA00006C167216008F
:100103000078167E160000000000000000000001C9
:10011300000000002020202020202020202020205C
:10012300202020200108040100010002D08102D414
:100133008101010104003B18000000E8030000FFF7
:10014300FF0719E803000064006400B801A0BB0DB9
:1001530000A0BB0D00020200080000050207040115
:10016300051E02051E020A0A0102080803B80B0253
:10017300803E0102FEFFE8030A050001621A010A3C
:100183001401E0010105030101FF0F10FEFFAD2C77
:10019300000000001F2B00000000FF000000FF0014
:1001A300C0E074F1120698A2AFE433F509D2AF852B
:1001B300A708AFA1EF5508FE74105E6006120EF299
:1001C30075A1EF74085E6008120EF875A1F780241C
:1001D300EFA2E092F0E508A2E082F0501790619858
:1001E300E0F890049CE0C398A2D265D0335002E8B3
:1001F300F075A1FEE509A2E092AF7F02020754C0A9
:10020300E074F2120698A2AFE433FED2AF9061A479
:10021300E0F8759B00E59158540860087591F71252
:100223000F408023E59158541060087591EF120F29
:10023300468014E591A2E092F0E8A2E082F0500734
:10024300E0C2E0F01210909061A3E0F8E5E95854A1
:1002530004600E12106675E9FB906193E0A2E6401C
:10026300F2EEA2E092AF7F01020754C0E074F212F3
:100273000698A2AFE433FED2AF9061A5E0F8E5BFE4
:10028300585404600675BFFB1210A880D4C0E074F4
:10029300F1120698E59DA2E650FA906206E0F9A2F3
:1002A300E25034AA2CEA90620BF0F508852D09740C
:1002B300047808120DE6E508906207F08A08852D98
:1002C3000974097808120DE6E508543E906209F0B6
:1002D300906201E0D2E0F0E9782946F6906202E00C
:1002E300F50875090074047808120D3F7829E508AC
:1002F30046F608E50946F6906204E0F5087509003C
:1003030074097808120D3F782AE50946F6E9A2E058
:100313005003752B017406596003752B00E58BA2FE
:10032300E55006758BDF752B0012144A758B00C2DE
:10033300E87F02020754C3E498F8E499F912037AB8
:100343008026C3E49AFAE49BFBE920E7E912037AE7
:10035300E498F8E499F922C3E498F8E499F91203CC
:100363007AE498F8E499F9C3E49AFAE49BFB22EB64
:1003730020E7CFE920E7E0B90010BB0008E88AF0E6
:1003830084F8AAF022E4FBC8FA22EB70227B10C89F
:1003930033C8C933C9335007C39AC3DBF280069A03
:1003A30050012ADBEAC833F4C8C933F4C9FA227509
:1003B300F008E4C833C8C933C933C99AC99B500488
:1003C300C92AC93BD5F0ECFBC833F4C8E4C9FA2207
:1003D30012041320F01430E72B74FFFCFBFA747F34
:1003E3008022E4FCFBFA7480801AB48008BC00F21B
:1003F300BB00EF800F50EBF9E4C39AFAE49BFBE4F4
:100403009CFCE499C6CC18C6CB18C6CA18C6F922F8
:10041300E4C9C608CAC608CBC6D3330308CCC6335F
:1004230092F0C3947F402E94184019C9B90704CAA7
:10043300CBCC225025C309CA33CACB33CBCC33CC64
:1004430033D9F422F4600DC9CCC313CB13CBCA1335
:10045300CAD9F6CC22E4FCFBFA2214FCFBFA2208EC
:100463000808EAC0E0EBC0E086F0E7A4FA180986C2
:10047300F0E7A42AFA180986F0E7A42AFA180986ED
:10048300F0E7A42AFA1986F0E7A4FBE5F02AFA19A3
:100493000886F0E7A42BFBE5F03AFA190886F0E7A3
:1004A300A42BFBE5F03AFA18180986F0E7A4C5F087
:1004B3002BFBE43AFA1908E7C5F0C6A426F6E5F0E3
:1004C3003BFBE43AFA1886F0E7A4F6E5F00826F6D3
:1004D300E43B08F6E43A08F6D0E0FBD0E0FA220861
:1004E3000808E630E711120CB91204FA080808C626
:1004F3004480C618181822181818E9799EC608CA25
:10050300C608CBC608CCC6C370207996CACBCC70BC
:1005130019798ECBCC70137986CC700EF9802ACAE8
:1005230033CACB33CBCC33CC331930E7F2CCCBCA81
:100533003350147004EA30E00DE4CA3ACACB3BCB23
:10054300CC3CCC500209C3E913C6CC182313C6CB49
:1005530018C6CA18C6F922E4CFC0E0E4CEC0E0E46E
:10056300CDC0E0E4CCC0E075F020E626F608E63323
:10057300F608E633F608E633F6181818EC33FCED04
:1005830033FDEE33FEEF33FFC3EC9709ED9709EE2E
:100593009709EF97191919400FFFEC97FC09ED978D
:1005A300FD09EE97FE191906D5F0BFECF709EDF733
:1005B30009EEF709EFF7191919D0E0FCD0E0FDD0E7
:1005C300E0FED0E0FF222518C582C0E0E51934FF24
:1005D300C583C0E0E518C3958224F810AF0885836E
:1005E300198582188008858319858218D2AFCEF0C9
:1005F300A3E520F0A37808E608F0A3DEFAEFF0A362
:10060300E58124FAF8E608F0A3E608F0A3E608F08B
:10061300A30808E608F0A3E608F0A315811581D026
:10062300E0FED0E0F8158115811581E8C0E0EEC049
:10063300E022120E68B90003020682E47921780DE4
:10064300B800028004F709D8FCE490042178B37958
:10065300188002F0A3D8FCD9FA7AD37B1B900086CA
:10066300781E79028015E493A3AD82AE838A828BD0
:1006730083F0A3AA82AB838D828E83D8E9D9E775F1
:1006830082DA7583D27405120B1075822075832963
:100693007400120B10C0D02518C582C0E0E51934D0
:1006A300FFC583C0E0E518C3958224F310AF088526
:1006B30083198582188008858319858218D2AFC86B
:1006C300F0A3E9F0A3EAF0A3EBF0A37908E709F0BC
:1006D300A3D8FAECF0A3EDF0A3EEF0A3EFF0A3D0D0
:1006E300E0F0A3D0E0F0A3D0E0F0A3E520F0A3E591
:1006F300F0F0A32212010002020000205104A81608
:1007030009000102030109024300020100801909E3
:100713000400000102020100052400100104240268
:100723000205240600010524010001070582034098
:10073300004009040100020A00000007058402408A
:1007430000000705040240000012070000350700FF
:1007530000851983851882E0C0E0A3E0F9A3E0FADD
:10076300A3E0FBA37808E0F608A3DFFAE0FCA3E02C
:10077300FDA3E0FEA3E0FFA3E0C0E0A3E0C0E0A38D
:10078300E0F5D0A3E0F520A3E0A3F5F010AF0885D2
:1007930083198582188008858319858218D2AFD082
:1007A30082D083D0E0F8D0E03275F0108E218F2212
:1007B300858226858325851882851983E0CEA3E06B
:1007C300CF852682852583EBC9EAC8EDCBECCAC366
:1007D300E833C8E933C9EA33CAEB33CBC3EA9EF53E
:1007E30024EB9FF523B35004AB23AA24EC33CCEDC5
:1007F30033CDD5F0DAAE21AF2222D083D082ECC044
:10080300E0EDC0E0E493A3FCE493A3FDED4C600DA5
:10081300120918EC24FFFCED34FFFD80EFE493A3F1
:10082300FCE493A3FDED4C600D120A1BEC24FFFCCA
:10083300ED34FFFD80EFD0E0FDD0E0FCE493A3C0F6
:10084300E0E493C0E022D083D082E9C0E0E493A344
:10085300C386F0C5F095F0F908E493A386F0C5F0DC
:1008630095F0700BE493A3C3994005E9048002A3B8
:10087300E475F002A42582F582E5F03583F583D093
:10088300E0F9E493A3C0E0E493C0E02285198385F3
:100893001882E0A3FEE0A3F5207808E0A3F608DFC2
:1008A300FAE0A3FFE0A3C0E0E0A3C0E0E0A3C0E060
:1008B300E0A3C0E0E0A3C0E010AF08858218858301
:1008C300198008858218858319D2AFD083D082021C
:1008D3000B16C0E074F2120698A2AFE433FED2AF57
:1008E300E58AA2E2500790045FE0D2E0F0E58AA235
:1008F300E3500790045FE0D2E1F0758A00C2EB7A1F
:10090300107B0090045BE0F91212B8EEA2E092AF04
:100913007F01020754C0E0C3E493960874019396E1
:1009230018400FE49366700808740193661870000A
:100933007019A3A3C3E49396087401939618A3A311
:10094300400DD0E0D0E0D0E0020839A3A3A3A3A3D5
:10095300A3D0E022D083D082C5F0E493A3C5F0C333
:1009630095F0F5F0E493A3C395F04005E5F004801A
:1009730001E475F002A42582F582E5F03583F58361
:10098300E493A3C0E0E493C0E022740480087403FA
:10099300800474028000CCC0E0EDC0E0E518C39C85
:1009A300CCAD1950011D10AF068C188D1980068C23
:1009B300188D19D2AF120A92D0E0FDD0E0FC227458
:1009C300028000CCC0E0EDC0E0E518C39CCCAD19BB
:1009D30050011D10AF068C188D1980068C188D19C7
:1009E300D2AF120A70D0E0FDD0E0FC22120DC86035
:1009F30025120DD76020120E867003020E7D0808A3
:100A030008E76670101819E766700A1819E7667028
:100A1300041819E76622F422C0E0C0F088F0E493DA
:100A23006670080874019366187000A8F0A3A37099
:100A33000BD0F0D0E0D0E0D0E0020839A3A3D0F08F
:100A4300D0E022D083D082CCC0E0E493A36006122E
:100A53000AF11470FAE493A36006120C281470FAD6
:100A6300D0E0FCE493A3C0E0E493C0E022CAC0E07A
:100A7300E493A3C582CCC582C583CDC583F0A3C54A
:100A830082CCC582C583CDC583DAE5D0E0CA22CA4C
:100A9300C0E0E0A3C582CCC582C583CDC583F0A3E6
:100AA300C582CCC582C583CDC583DAE6D0E0CA2230
:100AB3007009080808226016181818C6C333C60838
:100AC300C633C608C633C608C633C6D5E0EA22C055
:100AD30008C3E096F50808A3E096420808A3E09649
:100AE300420808A3E09645087001D3D00822C0E06D
:100AF300E493A3D39C5010E493A3C39C400AD0E097
:100B0300D0E0D0E0020A63A3A3A3D0E022C09FF504
:100B13009FE473D09F22D083D082C09FE493C0E030
:100B2300740193C0E0740293F59F2200C0D025188E
:100B330010AF08F518500C05198008F51850020578
:100B430019D2AFD0D0227404800A740380067402D1
:100B530080027401C0E0F404120B64D0E0120E139F
:100B6300222518F58210AF08F518400C15198008D6
:100B7300F51840021519D2AF85198322C0E0C0D001
:100B8300E8C0E0A8A8D2AFC2C7E8A2E792AFD0E01E
:100B9300F8D0D0D0E032BB0102E722C082C0838903
:100BA300828A83BB0003E08002E493D083D0822255
:100BB3006016080808C6C313C618C613C618C6139A
:100BC300C618C613C6D5E0EA22C3E0C696F608A344
:100BD300E0C696F608A3E0C696F608A3E0C696F626
:100BE300222518F8E43519F9222518FAE43519FBFA
:100BF300222518FCE43519FD22251810AF08F51835
:100C0300400C15198008F51840021519D2AF22BB04
:100C1300000EC082C0838A838982F0D083D082226F
:100C2300BB0101F722C0E0E493A36C7009D0E0D0CC
:100C3300E0D0E0020A63A3A3D0E022E766701008C5
:100C430009E766700A0809E76670040809E766227F
:100C5300C3E09608A3E09608A3E09608A3E096A253
:100C6300D265D03322E066701008A3E066700A08EC
:100C7300A3E066700408A3E06622C3E493960874B5
:100C83000193960874029396087403939622C3E023
:100C930096F008A3E096F008A3E096F008A3E09688
:100CA300F022C3E697F60809E697F60809E697F6F1
:100CB3000809E697F622181818E4C396F608E4968E
:100CC300F608E496F608E496F622E056F008A3E068
:100CD30056F008A3E056F008A3E056F022E627F604
:100CE3000809E637F60809E637F60809E637F62273
:100CF300E026F608A3E036F608A3E036F608A3E0FC
:100D030036F622E026F008A3E036F008A3E036F03A
:100D130008A3E036F022E657F60809E657F6080975
:100D2300E657F60809E657F622E056F608A3E0561A
:100D3300F608A3E056F608A3E056F62270042260F4
:100D43000D18C6C333C608C633C6D5E0F41822E46B
:100D530093F608740193F608740293F608740393E8
:100D6300F622E647F60809E647F60809E647F608D5
:100D730009E647F622C3E09608A3E09608A3E096A7
:100D830008A3E09622C6F4C608C6F4C608C6F4C68D
:100D930008C6F4C622C3E7960809E7960809E7964A
:100DA3000809E79622600D08C6A2E713C618C61302
:100DB300C6D5E0F32275D00075813F7518217519EA
:100DC3000400020635E6084608C3134608336002EA
:100DD300E633F422E7094709C3134709336002E7FF
:100DE30033F422600C08C6C313C618C613C6D5E075
:100DF300F422E6F008A3E6F008A3E6F008A3E6F081
:100E030022E0F608A3E0F608A3E0F608A3E0F62242
:100E1300CAC0E0E6F0A308DAFAD0E0FA22E0FCA3C5
:100E2300E0FDA3E0FEA3E0FF22EAF0A3EBF0A3ECD6
:100E3300F0A3EDF022E0FAA3E0FBA3E0FCA3E0FDC6
:100E430022E8F0A3E9F0A3EAF0A3EBF022ECF0A38D
:100E5300EDF0A3EEF0A3EFF022E0F8A3E0F9A3E0B6
:100E6300FAA3E0FB22E5C754F84401F5C779012250
:100E73002518F582E43519F58322E7271947194721
:100E8300194722E62618461846184622C2AF75D6D9
:100E93009F02000022120B192C9805120B196C9853
:100EA30005120B19A89805120B19BC9805120B19FA
:100EB300D59805120B19C69905120B19789A0512C4
:100EC3000B198C9A05120B1966DB05120B198ADBB9
:100ED30005120B19A3DB05120B19E1DB05120B1924
:100EE30011DC05120B193EDC05120B19A4DC0512EB
:100EF3000B19A7DC05120B19B1DC05120B19BEDCAB
:100F030005120B194DC905120B196DC905120B19E1
:100F1300ACC905120B19CAC905120B19E5C905128B
:100F23000B194BCA05120B1957CA05120B19B4CA70
:100F330005120B19D8CA05120B1999CB05120B19F7
:100F4300A6CB05120B19B7CB05120B19F3E5051246
:100F53000B190BE605120B1937E605120B19FFA443
:100F630005120B195BA605120B1969A605120B19BD
:100F73007CA605120B1991A605120B19A6A605123C
:100F83000B19B9A605120B1935A705120B199AA748
:100F930005120B1930A805120B1909A905120B1913
:100FA30019A905120B1928A905120B1954FF0412CC
:100FB3000B1978FF04120B19A0FF04120B19C8FFB9
:100FC30004120B19B5D005120B19DCD005120B193D
:100FD300FAD005120B1969D105120B19D6C30512E4
:100FE3000B19EFC305120B19FBC305120B190FC421
:100FF30005120B192DC405120B1937C405120B1951
:1010030041C405120B1954C405120B19DAC4051295
:101013000B194FC505120B197EC505120B19CCC54B
:1010230005120B191BC605120B1936C605120B192F
:1010330040C605120B1951C605120B1994C60512A9
:101043000B1902E705120B19C6F504120B19F2F579
:1010530004120B190FF604120B1922F604120B19C2
:101063003DF604120B1997F604120B19C5F6041278
:101073000B19D5FA04120B1933FC04120B1965FC76
:1010830004120B19C8FC04120B193EFE04120B19AF
:1010930066FE04120B197BFE04120B198BFE04125D
:1010A3000B19CBFE04120B190DFF04120B191DFFB4
:1010B30004120B1952DF05120B196CDF05120B1901
:1010C30094DF05120B19ADDF05120B19D1DF0512E1
:1010D3000B19EFDF05120B1906E005120B1934E0AB
:1010E30005120B194FE005120B1998E705120B199E
:1010F30027BD05120B1937BD05120B193EBE05128C
:101103000B1972BE05120B1994BE05120B19B7BE4B
:1011130005120B19D5BE05120B190FBF05120B19BA
:1011230074BF05120B19B6BF05120B19FDBF0512CB
:101133000B192AC005120B1961C005120B1910DE19
:1011430005120B192BDE05120B198DDE05120B1977
:1011530027DF05120B19A0E305120B1982E0051214
:101163000B19CAE005120B193AD805120B197AD9D3
:1011730005120B1985E004120B1971E404120B1903
:1011830066E604120B1998E704120B1971E80412AE
:101193000B1908EA04120B19D4EA04120B1928EBF1
:1011A30004120B19C6D405120B19E7D405120B1937
:1011B3001AD605120B1944D605120B19E5CB0512E5
:1011C3000B195ACC05120B1965CC05120B1986CCD9
:1011D30005120B19CFF103120B1962F603120B1947
:1011E300C4F703120B199BF903120B1924FA031208
:1011F3000B19BBFA03120B197AFB03120B196EFCC2
:1012030003120B1986FD03120B19B5FE03120B19FA
:10121300837E00120B19A37E00120B19B67F0012F6
:101223000B19B97F00120B19C8DC05120B19FEDC70
:1012330005120B191ADD05120B195CDD05120B19CA
:101243006CDD05120B1906DE05120B190080051261
:101253000B190A8005120B19448005120B19AD8076
:1012630005120B19CC8005120B19E58005120B1919
:10127300878105120B19908105120B19E181051263
:101283000B190A8205120B19178205120B19888292
:1012930005120B19168305120B19648305120B191A
:1012A3009A8305120B19FB8305120B19248405126B
:1012B3000B199B8405120B19F78405120B1934853E
:1012C30005120B196B8505120B197D8505120B1978
:1012D3008F8505120B19AE8505120B19B7850512FB
:1012E3000B19728605120B19BE8605120B19FC86A3
:1012F30005120B19C89F05120B1908A105120B192A
:101303002BA105120B193CA105120B195BA30512A6
:101313000B197BA305120B1977CE05120B19ADCE52
:1013230005120B19F5CE05120B194ED005120B1928
:101333006EAE04120B199FAF04120B19DBAF04122C
:101343000B1995B104120B19BFB104120B1938B460
:1013530004120B1978B404120B190CB604120B19EE
:10136300ABB604120B1903B704120B1996B7041288
:101373000B19D0B704120B1912B804120B1985B943
:1013830004120B1905BB04120B1942BD04120B19ED
:1013930070BD04120B199CBD04120B19A5BD0412D8
:1013A3000B19FBBD04120B198BBE04120B19C9C117
:1013B30004120B194BC204120B1986E805120B1900
:1013C3009CE805120B19A9FF01120B19C7AD0512F1
:1013D3000B19DDAD05120B1981AE05120B19C0AE49
:1013E30005120B19DDAE05120B190EAF05120B1901
:1013F3005BAF05120B198FAF05120B19CAAF05129C
:101403000B19BFB105120B19A0E205120B19FFE26C
:1014130005120B193DE305120B197EE305120B1997
:1014230078E605120B19A8E605120B19DDE605127D
:101433000B19DFE605120B19E1E605120B19F2E6AB
:1014430005120B19F4E605120B19F7E605120B1931
:10145300D8D905120B1945DA05120B1967DA0512EB
:101463000B199FDA05120B19D5DA05120B19B9C03E
:1014730005120B1900C105120B1923C105120B1913
:101483005BC305120B1975C305120B19A0C3051213
:101493000B194DE705120B194A8E05120B19238FF1
:1014A30005120B19129005120B19239005120B1933
:1014B300349005120B197E9005120B193292051206
:1014C3000B19929305120B19C29305120B198D94E4
:1014D30005120B19ED9405120B19008004120B1958
:1014E3000C8004120B196E8004120B1978800412FD
:1014F3000B19058104120B19418104120B19FD818B
:1015030004120B190A8204120B196E8204120B19AE
:10151300B78204120B19888304120B190384041273
:101523000B19C28504120B19F58704120B195B8979
:1015330004120B19BC8A04120B19488B04120B19E1
:10154300948C04120B19978D04120B19F18E04124B
:101553000B19BB9304120B19B29404120B19369591
:1015630004120B195B9504120B19809504120B19C5
:10157300199604120B19379604120B199D9604122F
:101583000B19B99604120B19E99604120B19FB9760
:1015930004120B19CE9804120B194B9A04120B194F
:1015A3006C9A04120B19EF9A04120B19959B0412EF
:1015B3000B19DC9B04120B19549C04120B19B19CDC
:1015C30004120B193C9D04120B19949E04120B195F
:1015D30004A004120B1996A004120B19FCA0041208
:1015E3000B190DA304120B19B2A404120B19C7A4EF
:1015F30004120B19FFA404120B196CA504120B1986
:10160300B0A504120B1921A604120B19C7A60412C4
:101613000B19B4A804120B1983A904120B1995AA68
:1016230004120B1943AC04120B1992D605120B19B1
:101633002ED705120B194FD705120B19DEE705122A
:101643000B19C1EF01120B194FF001120B19CBF15A
:1016530001120B194CF201120B19B9F301120B19F8
:101663000BF501120B1925F501120B1962F5011285
:101673000B199DF501120B19BAF501120B19BDF5E2
:1016830001120B19FFF501120B1938F801120B198E
:101693005DF801120B1911F901120B1989F90112E5
:1016A3000B199EF901120B19DBFD01120B1997D7C8
:1016B30002120B19EFD702120B197FD802120B1962
:1016C300F8D902120B19D8DA02120B19C6DB02126F
:1016D3000B19DDDB02120B192FDC02120B19A3DC31
:1016E30002120B19EFDC02120B1902DD02120B19A5
:1016F3005BDD02120B1973DD02120B1936E00212C5
:101703000B19CCE002120B1903E102120B194CE185
:1017130002120B194EE302120B199EE302120B196C
:1017230078E402120B19B1E402120B19D0E402128D
:101733000B191BE502120B193BE502120B19F2E51B
:1017430002120B19EDE602120B1948E702120B19EC
:1017530088E702120B1971E802120B19E9EA021267
:101763000B191CEB02120B19BEEB02120B19E3EB64
:1017730002120B1967EC02120B1946ED02120B1938
:1017830084ED02120B19E8ED02120B19A6EE0212F8
:101793000B19A9EE02120B19B3EE02120B19BDEECF
:1017A30002120B19D9EE02120B1955EF02120B1983
:1017B3008EEF02120B19AAEF02120B19D6EF0212C7
:1017C3000B19FDEF02120B1921F002120B195CF039
:1017D30002120B19CFF002120B1903F102120B19AB
:1017E30044F102120B1979F102120B1999F1021249
:1017F3000B19D6F102120B190DF202120B1910F389
:1018030002120B1948F402120B1967F402120B1996
:10181300A5FF03120B19BDFF03120B19A09A0512A2
:101823000B19DE9A05120B19779B05120B19829C73
:1018330005120B19CA9E05120B19479F05120B19A6
:10184300288705120B19778705120B19358905129D
:101853000B19EF8A05120B192D8B05120B19228C0C
:1018630005120B192D8D05120B194F8D05120B192E
:10187300998D05120B191A8E05120B19B0690012F6
:101883000B19D36900120B19D46A00120B191D6BC3
:1018930000120B197D6B00120B19D96B00120B1977
:1018A3002A6C00120B19A06C00120B19256D001283
:1018B3000B199D6D00120B19E06D00120B19D271FB
:1018C30000120B19237400120B19C57400120B19A3
:1018D300297500120B194E7500120B190B770012A4
:1018E3000B19347900120B190D7A00120B19917A26
:1018F30000120B19BF7B00120B19E27C00120B19AB
:10190300217D00120B19D57D00120B19A8C20412F8
:101913000B1948C304120B19B4C304120B1969C47D
:1019230004120B19C8C404120B1976C504120B193F
:1019330031C804120B1953C904120B19DCC9041260
:101943000B19BFCB04120B1963CC04120B19D2CCA5
:1019530004120B194ACE04120B19B3CF04120B193C
:10196300C2D004120B194FD104120B1966D2041200
:101973000B1970D603120B19DBD603120B1923D7DD
:1019830003120B1967D703120B19C2D703120B19D2
:101993001FD803120B195AD803120B19DED80312DE
:1019A3000B1938D903120B19A7DA03120B191FDB12
:1019B30003120B1937DC03120B195FDC03120B192B
:1019C3006BDD03120B197CDD03120B1994DD03127B
:1019D3000B19BDDE03120B19E0DE03120B19B9DF7D
:1019E30003120B19DDDF03120B19F4DF03120B19BA
:1019F30018E003120B193AE003120B1914E1031256
:101A03000B196EE103120B19E8E203120B1944E3FD
:101A130003120B195BE303120B1989E303120B196E
:101A2300DBE403120B195AE503120B1991E50312B8
:101A33000B19CBE503120B1937E603120B19F6E664
:101A430003120B19D4E803120B19D4E903120B196F
:101A5300DFEA03120B19F1EB03120B1919ED031251
:101A63000B1927ED03120B192CEE03120B19CEEEF3
:101A730003120B1914EF03120B1929EF03120B199D
:101A830031F003120B19D2F003120B192EF10312CA
:101A93000B19BAB505120B1975B705120B1934B822
:101AA30005120B1989B805120B190FB905120B1979
:101AB300CCB105120B19EAB105120B192EB205129E
:101AC3000B1954B205120B197BB205120B1993B201
:101AD30005120B19ABB205120B19C3B205120B1980
:101AE30065B305120B19A7B305120B19BCB3051285
:101AF3000B19DEB405120B1994B905120B19F0B4C6
:101B030005120B19F9B405120B1903B505120B19BC
:101B130059A905120B194DAD05120B195BAD051231
:101B23000B1960AD05120B1953D305120B195AE8A3
:101B330005120B19A6E805120B19008002120B19E6
:101B4300578002120B19C38002120B194F81021224
:101B53000B19058202120B194D8202120B196682B0
:101B630002120B19898202120B19AB8202120B1992
:101B7300959505120B19388302120B196383021210
:101B83000B19C18302120B19688402120B191085F9
:101B930002120B198C8502120B19598602120B19AA
:101BA300A08602120B19EC8602120B19748702121B
:101BB3000B19AD8702120B19038802120B191F8828
:101BC30002120B194E8802120B195A8A02120B19B0
:101BD300888B02120B19B48B02120B19E88B0212B9
:101BE3000B19098C02120B19188C02120B19238C76
:101BF30002120B19D28C02120B19428D02120B190D
:101C0300CD8D02120B19D58D02120B19428E0212C1
:101C13000B197E8E02120B19448F02120B191790A7
:101C230002120B196C9002120B190B9102120B1971
:101C3300659102120B19AA9102120B194394021215
:101C43000B19869502120B19709802120B195499ED
:101C530002120B19389A02120B19499A02120B1924
:101C6300BB9A02120B19529B02120B19B79B021259
:101C73000B19A79C02120B19CC9C02120B19EA9C9C
:101C830002120B19069D02120B19799D02120B19F0
:101C9300769E02120B19839E02120B198C9E02125E
:101CA3000B196EA002120B1990A102120B19A0A11D
:101CB30002120B19CEA202120B194DA302120B1919
:101CC30068A402120B19A4A402120B197EA6021215
:101CD3000B193BAA02120B194FAA02120B1959AA8C
:101CE30002120B1963AA02120B196DAA02120B1925
:101CF30086AA02120B1990AA02120B19FDAA02124C
:101D03000B1908AB02120B1930AB02120B193BABC8
:101D130002120B19A0AB02120B19ABAB02120B1977
:101D2300CFAB02120B19F3AB02120B1965AC021203
:101D33000B19AEAC02120B19CAAC02120B193BAD54
:101D430002120B1987AD02120B19D0AD02120B1937
:101D53000EAE02120B198FAE02120B1936AF02121E
:101D63000B1905B102120B196AB102120B1998B2C1
:101D730002120B19BEB202120B1906B402120B198E
:101D830040B702120B193EB902120B1909BB02121A
:101D93000B19A2BB02120B19A3BD02120B1958BED9
:101DA30002120B1991BE02120B19F7BE02120B1984
:101DB30001BF02120B192AC102120B1969C20212C6
:101DC3000B19C0C202120B196BC302120B191BC5EC
:101DD30002120B1968C602120B1988C602120B19DC
:101DE300DDC602120B19DEC702120B1906C8021256
:101DF3000B1965C802120B195DC902120B19D4C95C
:101E030002120B19E7CA02120B1955CB02120B1956
:101E130054CC02120B19AECE02120B19D7CE0212FA
:101E23000B193DD002120B19BFD102120B1916D296
:101E330002120B19C4D202120B1969D302120B1925
:101E4300C2D302120B1980D402120B1912D502123B
:101E53000B1971D502120B19B3D502120B19E4D564
:101E630002120B193BD702120B19008003120B1934
:101E7300328003120B196B8003120B192982031290
:101E83000B19FF8203120B195E8303120B1974845F
:101E930003120B19C08403120B194E8703120B197B
:101EA300288A03120B196F8B03120B19078C031269
:101EB3000B19138C03120B195C8C03120B199E8DD7
:101EC30003120B19948E03120B19BE8E03120B19F6
:101ED300148F03120B196D8F03120B19E08F03126A
:101EE3000B19169203120B19989303120B1983946F
:101EF30003120B19CD9503120B19059803120B1935
:101F0300029B03120B19119B03120B19A59B0312BE
:101F13000B19509C03120B19939C03120B19FB9C76
:101F230003120B19179D03120B19469D03120B196C
:101F3300859D03120B19809E03120B192F9F031209
:101F43000B19ACA103120B19DEA203120B19B6A3D2
:101F530003120B1938A403120B196DA803120B19E2
:101F63009CA803120B19F7A803120B192AA9031231
:101F73000B19A2A903120B19D5A903120B1936AA1F
:101F830003120B1986AA03120B1953AB03120B1975
:101F93000CAC03120B19D0AC03120B194AAF03128A
:101FA3000B19ACB003120B19FDB103120B1921B3BA
:101FB30003120B1924B303120B1953B303120B1996
:101FC3004BB503120B190AB603120B1939B60312D8
:101FD3000B1957B703120B191FB803120B19DDB9ED
:101FE30003120B190FBA03120B1951BA03120B196F
:101FF30050BB03120B19C3BB03120B19ECBD031225
:102003000B194BBE03120B199FBE03120B19CEC043
:1020130003120B19B1C103120B1939C203120B19A5
:1020230027C303120B193BC303120B194FC303122C
:102033000B197CC303120B19ACC303120B1967C52D
:1020430003120B1979C603120B19CEC603120B190F
:1020530017C703120B193EC703120B1906C8031245
:102063000B19ACC803120B1932CA03120B1979CA24
:1020730003120B19EBCA03120B1940CC03120B19F1
:10208300E9CC03120B191DCD03120B1935CD031225
:102093000B19D8CD03120B1954D003120B19FCD111
:1020A30003120B191AD203120B1938D203120B198C
:1020B30004D303120B1952D603120B190782011210
:1020C3000B193F8201120B19338701120B197F87FA
:1020D30001120B19C58701120B19FB8801120B1989
:1020E300608901120B19D58A01120B19DF8D0112B8
:1020F3000B19088F01120B191B9901120B19AB99BC
:1021030001120B19959C01120B19A29D01120B19B7
:10211300059E01120B194D9F01120B19BBA1011250
:102123000B194DA301120B19DAA301120B19F9A410
:1021330001120B1986A501120B1990A501120B1997
:10214300B8A501120B1958A601120B1943A70112C6
:102153000B1910A801120B192DA801120B1956A85F
:1021630001120B1983A801120B19CAAA01120B1928
:1021730099AB01120B19D8AB01120B195AAC01120E
:102183000B19FBAC01120B192DAD01120B1974AD18
:1021930001120B19A7AD01120B19EBAD01120B19AB
:1021A3003AAE01120B193FAE01120B199BAE01128D
:1021B3000B19DFAE01120B19B9AF01120B191EB0C7
:1021C30001120B1984B001120B19FFB001120B1984
:1021D30067B401120B196AB501120B19E8B60112A3
:1021E3000B19FEB901120B19A0BA01120B19E9BCA4
:1021F30001120B19A4BD01120B19E3BD01120B1936
:10220300BBBF01120B19D8BF01120B19E1BF011299
:102213000B19EABF01120B19F5BF01120B1914C0F8
:1022230001120B19B8C101120B1915C201120B19B6
:102233001FC201120B1929C201120B1988C2011204
:102243000B19D2C201120B19D3C301120B192AC4E1
:1022530001120B193BC501120B1984C501120B198D
:102263003EC601120B1955C701120B192AC80112D8
:102273000B1971C901120B1975CA01120B196ECB17
:1022830001120B1986CB01120B19BDCB01120B19CD
:10229300C7CB01120B19D2CB01120B19F0CB0112D0
:1022A3000B1938CC01120B1996CC01120B19BDCCAA
:1022B30001120B19CFCC01120B1984CD01120B198A
:1022C300BDCD01120B19DFCE01120B1932CF011252
:1022D3000B1918D001120B193FD001120B19AFD0F3
:1022E30001120B192BD101120B1987D201120B19F1
:1022F300AED301120B1970D401120B193ED5011282
:102303000B19FCD501120B19E4D601120B198ED748
:1023130001120B19F6D701120B19ABD801120B19C5
:1023230007D901120B195FD901120B1925DA011212
:102333000B1948DA01120B1903DB01120B1925DB08
:1023430001120B1986DB01120B19B6DD01120B19F1
:10235300AFDE01120B195BDF01120B197CE10112D5
:102363000B19C5E101120B1910E201120B196CE2F2
:1023730001120B19CAE201120B19EEE201120B1939
:1023830012E301120B1947E301120B196FE3011258
:102393000B19B4E301120B1908E401120B1961E4E0
:1023A30001120B195BE501120B19F9E601120B1966
:1023B3003EE701120B1967E701120B19F0E701124F
:1023C3000B1963E801120B1971E801120B1995E857
:1023D30001120B19EBE801120B1906E901120B1993
:1023E300C1E901120B19EDE901120B1930EA0112CF
:1023F3000B1993EA01120B19A1EC01120B19CDEC85
:1024030001120B1988ED01120B196CEE01120B1955
:1024130000EF01120B1946EB04120B197EEB0412A9
:102423000B199FEB04120B19E1EB04120B1945EC8A
:1024330004120B194FEC04120B195FEC04120B1965
:1024430096EC04120B193FF004120B1907F2041255
:102453000B19EBF304120B198DF404120B1917F576
:1024630004120B19EE2F00120B19973000120B19DF
:10247300763100120B19823200120B19A2320012AC
:102483000B19C43300120B19743500120B19E13503
:1024930000120B19B23600120B19B83700120B19C0
:1024A300303800120B196B3800120B19C4380012A4
:1024B3000B19FF3800120B19483900120B19DC39BC
:1024C30000120B19723A00120B19473B00120B1939
:1024D3001A3C00120B19A83C00120B19CE3C001237
:1024E3000B19FB3C00120B192C3D00120B19F93D83
:1024F30000120B19093E00120B195C3E00120B1956
:10250300693E00120B19763E00120B197F3E001232
:102513000B19E33E00120B19413F00120B198C3FBC
:1025230000120B19A73F00120B19CE3F00120B1913
:10253300EB3F00120B19F73F00120B1988410012F1
:102543000B19A14100120B191D4200120B19304245
:1025530000120B19404200120B19E44200120B192E
:10256300504400120B19634500120B190346001265
:102573000B190D4600120B198C4600120B199D46C0
:1025830000120B19DC4600120B190A4700120B1933
:10259300D74700120B192E4800120B196748001277
:1025A3000B19BD4800120B19DB4800120B192949FE
:1025B30000120B19F44900120B19424A00120B19AD
:1025C3008F4A00120B19124B00120B193C4B0012CD
:1025D3000B19724B00120B19814B00120B19E04BB4
:1025E30000120B19584C00120B19994C00120B19BD
:1025F300E94C00120B19144D00120B192E4D001249
:102603000B19484D00120B191D4E00120B19274EC2
:1026130000120B19624E00120B19724E00120B19A5
:102623007B4E00120B19CC4E00120B19E04E001218
:102633000B19025000120B19175000120B19AA5054
:1026430000120B191E5100120B19C35100120B1962
:10265300CE5100120B19315300120B194D530012B6
:102663000B19995300120B19075400120B19395403
:1026730000120B19535400120B19B35400120B1907
:10268300525500120B199D5500120B19F0570012E9
:102693000B19885800120B19FF5800120B195C5BB9
:1026A30000120B19745B00120B19775B00120B19E4
:1026B300835B00120B19975B00120B199F5B0012CF
:1026C3000B19D65B00120B19CA5C00120B19545D6F
:1026D30000120B19D65D00120B19565E00120B196E
:1026E3002D5F00120B194F5F00120B19E85F0012E8
:1026F3000B19456000120B19486000120B19B760E3
:1027030000120B19036200120B19166300120B1946
:10271300A16300120B19B46400120B197B6500123C
:102723000B19AC6500120B19D26500120B19DB658E
:1027330000120B190A6600120B19BA6600120B1964
:102743006A6700120B19DD6700120B19806800120B
:102753000B19F36800120B19326900120B197B690C
:1027630000120B19E0E505120B1990E505120B1980
:1027730057E505120B1954E505120B1987E20512EB
:102783000B191FE205120B199BE105120B19F2FF3E
:1027930002120B198AFF02120B1972FF02120B1994
:1027A30062FF02120B19E67F00120B1969950512DD
:1027B3000B190CC905120B1903C905120B19EEC825
:1027C30005120B19F97F00120B193AE505120B19C3
:1027D3009CE405120B198BE405120B19ABDF0412F1
:1027E3000B19CFDE04120B19EDDD04120B194CDCAF
:1027F30004120B190BDC04120B19E2DB04120B1984
:1028030096DB04120B1905DB04120B1975DA04129B
:102813000B1953DA04120B19FBD904120B19B7D98C
:1028230004120B1944D904120B19DAC805120B1937
:10283300DFD804120B19B4C805120B198CC8051282
:102843000B19C9C705120B1982C705120B1949C702
:1028530005120B199FC605120B1922E805120B1955
:10286300C2BC05120B198ED804120B19B5D704126A
:102873000B1925D704120B19D9D604120B19F0BA68
:1028830005120B1954D604120B190FD604120B1987
:10289300F3D504120B1992D404120B191BBA0512A7
:1028A3000B1964D404120B19E98202120B1931D4E7
:1028B30004120B19B5D304120B1917FF02120B19CB
:1028C300B5FE02120B1980FE02120B194DFE021205
:1028D3000B1925FE02120B19BBFD02120B199DFDEC
:1028E30002120B196EFD02120B1935FA02120B19A3
:1028F30022F802120B1925F602120B19A5F5021282
:102903000B1953F502120B19A2B905120B1907F58E
:1029130002120B199AF402120B19E7B40500000016
:1029230080FBE47387000100CE1C35000400931C78
:1029330025000200971C26000200991C27000200B4
:102943009B1C28000100A51C29000100A61C840073
:102953000400A71C86000100AB1C2A000100AC1C6C
:102963002B000100AD1C2C000100B11C2D00080040
:1029730089192E000100B21C2F000100B31C300086
:102983000100B41C31000100B51C32000100911993
:1029930033000100921934000100B61C3600010017
:1029A300931938000100B71C39000100B01C8300E3
:1029B3000200CC1C630001009F1964000100AE1CDF
:1029C30065000100AF1C6D000100A0197100080033
:1029D300811966000100CB1C43000100BC1C4400AC
:1029E3000200BD1C45000100BF1C46000200C01CC4
:1029F30047000800971948000100C21C4B00010062
:102A0300C31C04000100CF1CA1000100D21C37002D
:102A13000100D11C88000100D01C3C000100941966
:102A23003D000100B81C49000200C41C67000100FE
:102A3300A1194D000200C61C4E000100C81C4F0026
:102A43000200C91C3E000100961951000100B91C87
:102A530052000100BA1C53000100BB1C54000100CA
:102A63009519000000000000000136360101000145
:102A73000201000103010001040106060502000032
:102A8300070100340801000F090401010D0100FFD3
:102A93000E08000017020000190100FF1A010001CF
:102AA3001B0100FE1C0100081D0200001F010001A4
:102AB30020010001210200002301000F2402000075
:102AC3002601000127010008280200FF2A01000750
:102AD3002B0102402C0100002D0100012E010001F9
:102AE3002F0100FF30010B1D310800003A010008DF
:102AF3003B01000F3C0100013D0100FF3E040000CB
:102B030042040000460400004A0400004E04000092
:102B130052040000560400005A040000010371032C
:102B23000103010301030103010322030203010360
:102B3300100300030003000300030003000300036A
:102B430042030003240306030003000304031203E8
:102B530025032303250323030403040300030003C2
:102B63000003440300030003230300036503210060
:102B7300350381030003050300030003000300037F
:102B83002503230303027102300160021102700264
:102B93000102020202028002100261023A004100B5
:102BA30063027302720262024302000213023800DC
:102BB30000020002040212020002000200020002EC
:102BC30004020402370037003C02440200023900C9
:102BD30000020002650200023502810200020502C2
:102BE300820283020002010171010101010111014D
:102BF30001013101010101018001100161013B006B
:102C030014006301730172016201430100011301A6
:102C130006013D013500040112010001000100011C
:102C2300000104010401330133013C014401320179
:102C3300360000010001650100013500810100013A
:102C4300050182018301000103047104020460048D
:102C53001104700402040204010402041004610458
:102C63000004140463047304720462044304000440
:102C73001304060400040004040412040004000402
:102C8300000400045104640000040004000444042C
:102C930000040004000400046504000435048104F6
:102CA3006400050400048304000403007100300180
:102CB30060001100700031022003500480001000F6
:102CC300610000001400630073007200620043009F
:102CD30000001300060000000000040012000000C2
:102CE30000000000000004000400370037003C022D
:102CF30044000000000000000000650000003500F3
:102D03008100000005000000830000003600010080
:102D1300060000000F00000000000000000000009B
:102D2300000003FFFF00000403FFFF0000FFFF0F8D
:102D3300F4010005C4040320000100000B0000009F
:102D4300000000000003010F00000000000000006D
:102D53000000000000000000000000000000000070
:102D630000000000000000000000BE150C16C41592
:102D7300F814000000000000000000000000000044
:102D83000000CA15F814D015F814D615F814DC157C
:102D9300F814E215F814E815F814EE151216F415E4
:102DA300F814000000000000000000000000FA1505
:102DB30024160016F814FA1524160016F814EE1546
:102DC30012160616F8140000030020010482000006
:102DD30000002001058200000400420182800000FF
:102DE300050042019380000006004201A480000018
:102DF300070020010682000010004203631C00004C
:102E0300110020030D18000012001003741C0600AB
:102E13000000100110180A00000002000000040066
:102E23000000080000001000000020000000400027
:102E33000000800000000001000000020000000408
:102E43000000000800000010000000200000004007
:102E5300000000002A191300D6181F00DC181F8079
:102E6300E21801002A1902009A180300A0180400AE
:102E7300A6180500AC180600B8183600CA18FFFFDC
:102E8300000001FE200628210822210B4021101CEE
:102E93001E020421051621070A210CE6200DF2204B
:102EA30064241CFF000007ECFDFDFDECDCDCCCBC66
:102EB300ACAC9C9C8C7C7C6C6C5C5C5C4C4C3C3CFF
:102EC3002C2C1C1C03EAF5E5D5D5C5B5A595958530
:102ED300857575656555554545353525251515059F
:102EE30000160F00000B150B020002220F33000027
:102EF3000E01030507090B0D0F00020406080A0C57
:102F03000D00000004060000040600010406000290
:102F1300045A6967426565416C6C69616E6365302B
:102F23003900393D3F373C3C362C442D00034A4998
:102F3300434E181A250502303017181921301B1D6E
:102F43001F30000119161816161823030030301607
:102F5300181920231A1C1E300C0E020B040B0A072F
:102F630008000F020402010101010902E803000045
:102F730000BE040A00007F000E00E80300000905FC
:102F8300040400100803030A1E0C0A10080C281E70
:102F9300FF000903010C0508150404E00412381EA0
:102FA300A2E792AF22E4F0A3F0A3F022A3122FA88A
:102FB300A3F0227F0C02088FE0F508E4F509F50A77
:102FC300F50B227401F09004B4E0640F227409122B
:102FD3000B2E7F0402088FA3A3E024F5C3941322CE
:102FE3009004D4125B177A147B0022C082C08390B2
:102FF3001ABB74C4F0A37424F0A374D6F0A374248E
:10300300F0901ABF74ACF0A37424F0A374A6F0A3D9
:103013007424F0A374E2F0A37424F0A374E8F0A37F
:103023007424F0A374DCF0A37424F0A37494F0A3C9
:103033007424F0901ACB74B8F0A37424F0A374BE74
:10304300F0A37424F0A374B2F0A37424F0A374EE79
:10305300F0A37424F0901ADC1250A4600612530EED
:1030630012132A901AD91247C77408F0A3E4F0A3E5
:10307300F0901B7CF0901ADEF07C0BFDF97ADF7B7D
:103083001A12125E7C0B7D0079007AEA7B1A121207
:103093005E0247D074F71205C974F7120BFCEAFEFF
:1030A300EBFF1245EE74051231647403F0EE240253
:1030B300FAE43F12313E242DFCE43FFD8C828D83E4
:1030C30012327C12314D60081239C674FFF0A3F03E
:1030D300EE242BE43F1C1CFD8C828D83A3E0C0E017
:1030E3008A828B831245FFD0E012314D8882898317
:1030F300124DF724031258E112141A7408120E73B6
:103103007403F09004C91209957402120BF4790345
:10311300EEFAEFFB1226867402120B2EE9F5087005
:1031230007EEFAEFFB122566A90874090239D6F5F2
:1031330082E43FF58312654C124DECFB8A828B834C
:1031430012315CE8F0A3E9F0EE22125B3512315C38
:10315300E8F0A3E91260B1E0221232478A828B833E
:1031630022F0A3E4F012316C22EE240DF582E43F49
:10317300F5832274F11205C9EAFEEBFF8C088D0971
:10318300890A1232518A828B83123247740F120ECC
:103193007312326AE824FF18E934FFF988828983BD
:1031A300E50A12325C9004CE1232599004CD1232E9
:1031B300597411120E7312326AEE2404FCE43FFDBB
:1031C300880B8A828B83E0F50C8C828D83E0250C3F
:1031D300C3950B125B31E8F0A3E912455BA3A3A3EC
:1031E300A3A3A3A3A3E0640370081248B7F0A3E466
:1031F300800312355D1231677409F0750CDF750DAC
:103203001A750E00780C120B4D12355112125274AE
:1032130003120B2E750CFF750DFF780C120B51ACBE
:1032230008AD097903EEFAEFFB1226867402120B3E
:103233002EE9F5087007EEFAEFFB122566A9087F61
:103243000702088FE024FFF8A3E034FFF922EE24FD
:1032530002FAE43FFB2212327C12326022F0E824AD
:10326300FF18E934FFF922E0F50CA312327C123285
:103273006088828983E50CF022E08882898322C0FA
:1032830082C083901AFBE0C3940840047407800152
:10329300E08A828B83F033333354F8F90247D074D6
:1032A300F01205C9EAFEEBFF890C8C0E8D0F750A2F
:1032B30000A2AFE433F50BC2AF901AF5803F12338F
:1032C3008A503712339B64037030EE24F9FEEF34D7
:1032D300FFFF850882850983A3A3E02405FCA3E0FF
:1032E3003400FDEEFAEFFB12141AEE24FF1EEF3446
:1032F300FFFF7410250AF50A150C124528126548BC
:10330300E50C6006E508450970B4E50BA2E092AF51
:10331300A2AFE433F50BC2AF901AF5802C2402FA66
:10332300E43509FB8A828B83125B202406F582E451
:1033330038F5831233A88A828B83123390A3A312A6
:1033430033A8050A150C12452812453D6022123395
:103353009B640270F112338AE50840C112368BA2D6
:10336300E550E3850E82850F837401F0E50C70D67A
:10337300E50BA2E092AF8E828F83E50AF0EE24FF85
:10338300FAEF34FFFB8035123696A2E6221233940D
:1033930022125F15A3A3A322850882850983125FE6
:1033A3000F12554922E08E828F83F0EE24FF1EEF29
:1033B30034FFFF221227527404120B2E7F080208D7
:1033C3008F74EC1205C974F5120BFC89138A128BE6
:1033D3000F851882851983E4F004120BEC1224760E
:1033E300E9F89004B3E0292434F508FA7B001212BB
:1033F300768A0A8B0BAE0AAF0BEE4F70030235458C
:10340300EE2402F50AE43FF50BA808EE28F8E43FA2
:10341300F9850A82850B831231462404F510E43FB3
:10342300F511851082F583E4F09004B3E0FCF8C352
:10343300E498F895E0F9850A82850B83E028F5087E
:10344300A3E039F5099004B11257D9750E00780C31
:10345300120B4D7D00AA08AB091212527403120B12
:103463002EAC18AD197401120E73E0F9E50824FFB0
:10347300FAE50934FFFB12247C8A828B83E4F0EAA9
:1034830024FFF508EB34FFF509E50FC454F0F99078
:103493001B7DE0C4333354C0F89004ADE0A2E0E4F4
:1034A3003313134849440F123565E512C454F045EC
:1034B30013850882850983F0A808850A82850B8312
:1034C300E0FA851082851183E02AC398F0850A8289
:1034D300850B83E8F0A3E509F012355D123167E44B
:1034E300F0740A120E73E4F07508EA75091AF50A06
:1034F3007808120B4D1235511212527403120B2E0F
:10350300851882851983E06009EE240E12468444EF
:1035130008F012266EE9F9E4F508F5097808120BAC
:10352300517404120BF4EEFAEFFB122686740212A6
:103533000B2EE97006EEFAEFFB800BEEFAEFFB12AF
:10354300127C7A007B00740B120B2E022FB67C0BBD
:103553007D00EE2418FAE43FFB221245F2E4F0A3C7
:1035630022E085088285098312356F22F01257AD58
:103573002274F31205C98A0A8B0BA2AFE433F50C4C
:10358300C2AF750800750900901AF5802C1237B286
:103593005024850A82850B83A3A31269758E828FBB
:1035A30083A3A3125311122674E9600A1235D8C2F9
:1035B300E6F08E088F091237A7123A6070CFE5083C
:1035C30045096006123692D2E6F0E50CA2E092AF0E
:1035D3007F0502088F1235DC221257C6E02274F0F1
:1035E3001205C9EAFEEBFF8C0C8D0D750E00A2AF20
:1035F300E433F50FC2AF750800750900901AF58022
:1036030020850A08850B09123692D2E4F0E50812E8
:10361300368BD2E7F0E50A24FBF582E50B34FFF5A0
:1036230083E0F50AA3E0F50BE50A450B6043E50AE1
:10363300124413350BF583E0A2E750D9850A82853E
:103643000B83A3A3120995AC0CAD0DEEFAEFFB129D
:10365300267A7402120B2EE960BBE508450960A1C6
:10366300E508240D12369E640170061236A7D2E4D3
:10367300F0E50FA2E092AFE5084509600612256068
:10368300750E01A90E0233BF12443D1236A1221258
:10369300369622E508241112369E22F582E4350976
:1036A300F583E022850882850983125F0FE0227487
:1036B300F21205C974FE120BFC750C00750D008522
:1036C3001882851983E4F0A3F0A2AF33F50AC2AFE1
:1036D300901AF5E0FEA3E0FF8035EE24FBF582EFC0
:1036E30034FF126546780C120B51EEFCEFFD7AF5B0
:1036F3007B1A1212AC7402120B2EEEFCEFFDAA1809
:10370300AB1912129AAE08AF09901AFBE014F0EE4F
:103713004F60271237B2501DEE240BF8E43FF988AF
:10372300828983E024FFF0A3E034FFF08882898359
:103733001250A460A51237A38099E50AA2E092AFC4
:10374300901AFBE060319004B4E0640F6006901BB4
:103753007CE070237AD37B1A12275E9081F81209DA
:103763008D7AD37B1A1227527404120B2E8008749D
:10377300F01249EE122554AA18AB191212A08A0AA4
:103783008B0BAE0AAF0BEE4F60131224881235D8A1
:10379300A2E28E828F83A350D674E980D4023A6862
:1037A3008E0C8F0DEE24FBF582EF34FFF58322128E
:1037B30035DCA2E72274F71205C9EAFEEBFF1224F7
:1037C300881245FC122925E964019004D0700AE0AF
:1037D3002401F8A3E034008004E0F8A3E0F9124CDC
:1037E3004A124FFC901AFBE070219004B4E0640F7E
:1037F30070197AD37B1A12275E9081F812098D7A99
:10380300D37B1A1227527404120B2EA9A8C2AF90AD
:103813001AFBE00412381EA2E7800DF0E9A2E7E4E8
:1038230033F8E922E508A2E092AF024A8A74F7125C
:1038330005C9EAFEEBFF123865F0122488EEFCEFAF
:10384300FD7AF57B1A1212A6A9A8C2AF901AFB1231
:103853002F9E9004B4E0640F7005790812262602A7
:103863004A8A1235DCC2E42274F71205C974EA12DB
:103873000BFCEAFEEBFF9004ADE060408518828507
:1038830019837401F0120E73E412393D120E73AAF8
:1038930082AB8312141A8E828F831236ADC0E0740A
:1038A3000A120E73D0E0125B46740B120E73AA82D7
:1038B300AB8312269EAA18AB19121B107416023979
:1038C300D674F71205C9EAFEEBFF12246AE9F9740C
:1038D300DC69601E74DD69601974E469601474F353
:1038E30069600F74DE69600A74DF69600574DB69FF
:1038F3007007EEFAEFFB12262C024A8A74F71205C0
:10390300C974EB120BFCEAFEEBFF85188285198361
:10391300740612393D120E73AA82AB8312141A1263
:103923005B4B740A120E73AA82AB8312269EAA18EB
:10393300AB19121B1074150239D6F0EE2413FCE4F4
:103943003FFD74022274F71205C974F7120BFCEAE7
:10395300FEEBFFEE242D1246846065124215AA1871
:10396300AB1912141A7408120E737403F09004C97D
:103973001209951239C61209959004DCE0F9740412
:10398300120BF4EEFAEFFB1224707404120B2EE9FF
:10399300F974DC69602374DD69601E74E46960197D
:1039A30074F369601474DE69600F74DF69600A740C
:1039B300E869600574DB697007EEFAEFFB12262CE9
:1039C30002312DEE1239CB22242BF582E43FF5830D
:1039D300227403120B2E024A8A74F21205C98A0852
:1039E3008B09750C00750D00750AE7A2AFE433F57A
:1039F3000BC2AF901AF580031237A3123A606035F9
:103A03001237B250F3124681640170ECEE242FF5A5
:103A130082E43F123C0FE06870DE780C120B51EE2B
:103A2300FCEFFD7AF57B1A1212AC7402120B2E9086
:103A33001AFBE014F0E50BA2E092AFEE4F6013EE39
:103A4300FAEFFB12248879F0EEFAEFFB12262C75BD
:103A53000A00A90AAA08AB0912262C800DE0FEA3CE
:103A6300E0FFEE4F227402120B2E7F0602088F74C2
:103A7300F41205C974F7120BFCEAFEEBFF8E828F7A
:103A830083A3E064F37003023B1C8E828F83A3E065
:103A930064DF7003023B1C8E828F83A3E064E860C3
:103AA300788E828F83A3E064DB606E1224CAE9F50B
:103AB30008705EEE240E1246846056123B261225D1
:103AC30012EA4B604C7408120E73123B30120995C4
:103AD3007508FF7509FF7808120B518E828F83A337
:103AE300A3A3A3A3A3A3A3E0F97404120BF41224C6
:103AF300707404120B2EE9F50874F36508601274F0
:103B0300DF6508600C74E86508600674DB6508709F
:103B13000F8E828F83A3E508F0EEFAEFFB1224D613
:103B2300022FD0EE240FFAE43FFB7909227402122C
:103B3300630E74FFF0A3123B3D22123B4122124E4F
:103B430000A3A32274F51205C98A088B097E008A93
:103B5300828B83A3A3A3A3A3A3122FDA40027EE83D
:103B63008A828B83A3A3A3A3A3A3A3A3A3A3E0C337
:103B7300941040047EE880138A828B83A3A3A3A3BB
:103B8300A3A3A3A3A3A3E0640F600A901B59E0546B
:103B93000870027EE8EA240BF582E43509123C0F33
:103BA300A3A3A3A3A3A3A3A3E0C398500CEA240B4A
:103BB30012369E640F60027EE89004CDE0F4700339
:103BC300A3E0F470027EEC7A237B00121324901A94
:103BD300DC125321901ADC1250A4602985088285D7
:103BE3000983A3A3A982AA8389088A09750A00788D
:103BF30008120B4D7C237D0012530E1212527403D4
:103C0300120B2E80027E1AEEF90264AFF583E0F800
:103C13008A828B83A3A32274F51205C9EAFEEBFF04
:103C23008E828F83A3A3A3A3A3A3A3A3E09004B42F
:103C33001261F19004CF1261D79004AF1261F69034
:103C43001B7DF0F9120FEE901B7DE06018EE24044B
:103C5300FAE43FFB7950120FD6EE2406FAE43FFB59
:103C630079E1120FD6901B7C122FC6600474018079
:103C7300027400901ADE1261DD120B4D7C0B7D0085
:103C83007ADF7B1A1212527403120B2EEE2418F5EC
:103C930008E43FF5097808120B4D7C0B7D007AEAA6
:103CA3007B1A0264A774F71205C9EAFEEBFF8E8242
:103CB3008F83A3E0700612530E1224D08E828F835B
:103CC300742C1249EE122638024A8A74F71205C977
:103CD300EAFEEBFF901ADC1250A4600D12530E9013
:103CE3001ADCE4F0A3F012132A8E828F8374081275
:103CF30049EE121B10024A8A74F61205C9901B7C06
:103D0300E06013901ADEE0700D123D1C122482EA6B
:103D13004B6003122566025E519004AFE0FB9004F2
:103D2300CFE0FA9004B4E0F92274F41205C974E701
:103D3300120BFCEAFEEBFF750B018E828F83A3A3AC
:103D4300A3A3A3A3A3E0A2E25068EE242BF582E48D
:103D53003F126973123DEA12248EE9705590815225
:103D6300E064017005750B008048123DF2120B4DA3
:103D73007C0B7D007411120BEC1212527403120BA4
:103D83002E12266EE9FA740E120BE488088909785C
:103D930008120B517508307509007808120B51127F
:103DA30039C6120995125AE7790112268C74061244
:103DB3000B2E851882851983741012393D120E73E8
:103DC300AA82AB8312140E1239C6125B13740B1240
:103DD3000E73124FFC740D120E73E50B1248611231
:103DE3001B107419022FD2EE2413FAE43FFB22EEC8
:103DF30024081261E522C082C083901B7DE060032A
:103E03001226E00247D0C082C083901B7474BBF0BB
:103E1300A3741AF0A374BFF0A3741AF0A374CBF0C5
:103E2300A3741AF0901CE6744BF0A3742CF0901B4F
:103E33005E7464F0A37424F0901B00749AF0A3746E
:103E430024F0901B0274A0F0A37424F0901B59E09B
:103E530044028001E4F00247D0C082C083EAFCEB55
:103E6300FD7903024E6CC082C083EAFCEBFD790549
:103E7300024E6CC082C0837908025FE2C082C083B5
:103E830074FE120BFC901B08744EF0A37425F09083
:103E93001B0A7448F0A37425F0800D7AF57B1A127F
:103EA30012A012485712265C901AF51250A470EB18
:103EB300901AF71250A4600F7AF77B1A1212A0120D
:103EC300485712265C80E9901AF5E4F0A3F0901AA3
:103ED300FB122FA9740280027411120B2E0247D019
:103EE30074F61205C9E9FF742429F582E4342FF529
:103EF30083E493FEFA7B00121276EA4B6011EA2EFA
:103F0300124FF28A828B83A3A3A3A3E4F0802C7ABB
:103F1300027B00121276EA4B601D743A2FF582E49D
:103F2300342FF583E4938A828B83F0A3741AF09081
:103F33001B54E0F91212827A007B00025E51E9FC05
:103F4300740629F8EAA2E0501EE875F00A84E5F049
:103F5300F96014740A28C399F8E9C39405400474FA
:103F63000A28F8740B28F8ECC3941340047A1480DD
:103F7300027A06EA2879002409F85001097A0A7BB3
:103F830000120372E8F9020B16C082C083901B591A
:103F9300E05402600A121B16E96004790180027979
:103FA300000247D0C082C083901B59E054026016C0
:103FB300901AFBE0700C1250A1600BE0C81245355B
:103FC30050047901800279000247D0C082C08390F7
:103FD300814FE0F8901AFDE0C398500512127680E5
:103FE300047A007B000247D0C082C08312265C792A
:103FF300000247D074F71205C974FE120BFC851832
:1040030082851983EAF0A3EB124166A3A3A3A3A3BA
:10401300E0600A14606024FE60690240E79004B423
:10402300E0640F6018122632E97012851882851930
:1040330083125311901B041245FF1229259004DCAF
:10404300E0C0E0851882851983124DCAD0E0124181
:1040530066741412630A1269757AF77B1A12129A3C
:10406300A8A8C2AF901AFDE00412532779201226A4
:104073002674020239D6851882851983125F177454
:104083001580D0851882851983124149A3A3E06066
:1040930053851882851983E02402F8A3E03400F9DC
:1040A30088828983126748E0C0E085188285198376
:1040B300E0FCA3E0CC2406F582E43CF583D0E012D7
:1040C3005B53888289831253218518828519831251
:1040D3004431851882851983601312414E6005129D
:1040E30041564043AA18AB1912265C808412414EF4
:1040F30060F2124156501C124545FA851882851903
:1041030083124150F87465124FED342FF583E49315
:104113006A601485188285198312414E640870C43D
:10412300124545640870BD1245451412416E240AB8
:10413300C0E08518828519831245FFD0E012416ED5
:1041430004024056E0F8A3124E1722E0F8A3E0124F
:10415300417522851882851983125B24124176C327
:10416300940A22124180F5838882221241801241EF
:104173007522C82406F582E438F583E02212630E23
:10418300E0F8A3E022C082C083901B0C1250A4600D
:1041930008125F18122925800279000247D074F7AC
:1041A3001205C9EAFEEBFF12316C7401F0EE243004
:1041B300F582E43FF58312588112314624321246C8
:1041C30084C0E0EE2413F582E43FF583D0E0F0EE03
:1041D3002433124684C0E0EE2414F582E43FF583D1
:1041E300D0E0F0EE242CF582E43FF583120995121A
:1041F3004215EE242E124684F91226867402120BFF
:104203002EE9F5087007EEFAEFFB122566A90802FE
:104213004A8AEE2423FCE43FFD22C082C083122697
:1042230032E960047920800279010247D0C082C05C
:1042330083EA1244131242D4D2E0023E58C082C031
:10424300831242CE640170111242D9400C8A828BD0
:1042530083A3E0F912262C806FEA24101242D1A224
:10426300E650128A828B83A3E0F9901B061245FF66
:1042730012292580531242CE6401700D1242D95087
:10428300088A828B83743080368A828B83A3E064AE
:104293001B8A828B83700474228024A3E0700D1226
:1042A30042CEF87450124FED342F800B1242CEF8E9
:1042B300743A124FED342FF583E4938A828B83F0A3
:1042C300901B54E0F91212820247D0EA240DF582C2
:1042D300E43BF583E022EA12443D3BF583E0A2E3AD
:1042E3002274F71205C9E9FE1250A1700302440AB1
:1042F300EE6011741B6E7013E0C812440D640570F8
:10430300030243D5125F07E40243D974E96E706276
:10431300124429700B121B1CE960051244436062AE
:1043230079EE120F58901AFE124426901AFE603B43
:10433300124446901AFE700B12442614F012110E0A
:1043430002440A124431C2E712455112440D640378
:10435300700C125B1D12441312417BD2E2F079ED13
:10436300120F581244191229258075125F0A74E935
:10437300806474E16E703E121B1CE9605512444365
:1043830070509004D6E0C0E0125B1D2412F582E465
:1043930038F583D0E0F09004C5E0C0E0901AFE1237
:1043A3004147124147D0E0F09004C5E004F07901A1
:1043B3001210F68052741C6E7018901AFE1253116C
:1043C300901B0E1245FF122925901AFEE4F0A3F06C
:1043D3008035125F07EEF0901AFE12531112255426
:1043E300125B1D125AEFE0548060109004DCE0F978
:1043F3001210129004DBE0F9121006901AFEE4F09A
:10440300A3F07910122626024A8A240D124178223B
:104413002411F582E422901AFE125315901B021206
:104423005F1122E0F8A3E0C8241212417822E0F8D9
:10443300A3E0C812443D12417B222410F582E422FA
:10444300901AFE125B24125AF3E054042274F412FD
:1044530005C9750A00750B00A2AFE433FFC2AF12A2
:1044630050A1600302450D1245FC122925E94410B1
:10447300F8901AF5800985080A85090B1245281258
:10448300453D700302450D123692586870E8780A6C
:10449300120B51AC08AD097AF57B1A1212AC7402F7
:1044A300120B2E901AFEE508F0A3E50912455112EE
:1044B3004535405D901AFCE014F0EFA2E092AF9016
:1044C3001AFEE0240EF8A3E03400F988088909886D
:1044D30082F583125311901AFE12454BF9122518D7
:1044E300E9901AF9F0124559E05480901AFE6026BB
:1044F300125B202413124178F9121012125B1D244F
:1045030014124178F91210068018EFA2E092AF80DE
:1045130011901AFB80A1124431A2E1B3E433F912E2
:1045230010F6022FD5E50824FBF582E50934FFF5E3
:1045330083222411124178A2E72212654CE5084533
:104543000922851882851983123394A3E022F090FF
:104553001AFE125B2422A3E4F085088285098322D4
:1045630074F71205C9EAFEEBFF122656EE24101269
:104573004684A2E3400C1246816401700590814D8C
:10458300800390814EE0F9EEFCEFFD7AF57B1A1281
:1045930012B2E96046EEFAEFFB901B081245FF12D8
:1045A3002925EE240E12468454047020A8A8C2AF15
:1045B300901AFCE004125307FAE8A2E792AF1245FF
:1045C300EEA3E054017021122560801CEEFAEFFB8C
:1045D300901B001245FF122925800D8E828F83A325
:1045E30074F11249EE122554024A8A1245F222EE60
:1045F300240EF582E43FF58322901B0A125F1122F9
:10460300C082C0831225600247D074F71205C9EA3D
:10461300FEEBFF7900901B59E05402700CEE24303E
:104623001246845404600279E8901B59E054607088
:104633000CEE24301246845402600279E88E828F95
:1046430083A3A3A3A3E0F8908153E0C39850027916
:10465300E8EE242E124684700CEE242B124684704E
:104663000479F5800BE97005122542E9F9E9600741
:10467300EEFAEFFB12262C024A8A34FFF509EE24E8
:104683000DF582E43FF583E022C082C0838A828BEA
:1046930083740DF0121B100247D0C082C0838A823C
:1046A3008B83E4F0A3F0EA24301242D154049081C6
:1046B3004D7012E0F8901AFCE0C398401279F112A1
:1046C300262C0247D0E0F8901AFBE0C39850EE90F6
:1046D3001B54E0F912128280E974F61205C9E9FE4F
:1046E300244CFAE43400FB121276EA4B6012EE8A91
:1046F300828B83A3A3A3A3F0EA244C124FF280047A
:104703007A007B00025E51C082C083901B1074AE9E
:10471300F0A37425F0A374DEF0A37425F0A374B49E
:10472300F0A37425F0A374BAF0A37425F0A374D88E
:10473300F0A37425F0A374CCF0A37425F0A374C67E
:10474300F0A37425F0A374E4F0A37425F0A374EA32
:10475300F0A37425F0A374F0F0A37425F0A374FC04
:10476300F0A37425F0A374C0F0A37425F0A374A878
:10477300F0A37425F0A374A2F0A37425F0901B2C6E
:1047830074D2F0A37425F0A374F6F0A37425F0A3F8
:104793007416F0A37427F0A37402F0A37426F0A395
:1047A3007408F0A37426F0901B50E4F0901B53F0B0
:1047B300901B3C1247C77402F0901B451247C77405
:1047C30001023E587426F0A37426F0A322D083D0AE
:1047D30082020B1674F51205C974F1120BFC8518CD
:1047E300828519837402F07401120E73E9F0600478
:1047F3007AFF7BFF7402120E7312532175084875FA
:10480300091B750A007808120B4D7C0B7D00740799
:10481300120E73AA82AB831212527403120B2EAAC6
:1048230018AB19121B10740F0264AC74F71205C98C
:1048330074FD120BFC851882851983740AF07401C8
:10484300120E73E9F07402120E73EA124861121B1E
:10485300100239D4851882851983EAF0A3EBF0AAF4
:1048630018AB192274F61205C974F7120BFCEAFE91
:10487300EBFF1248B712316474021249DFAA18AB76
:104883001912140EEE242E12313224301258EE1265
:104893000B517402120BF479831A1AEFFB1226865A
:1048A3007402120B2EE9F5087007EEFAEFFB1225DE
:1048B30066025E4A1245F274012274F01205C912AF
:1048C3006395120E047808790C1204627808120BAF
:1048D300497A3F7B1B0233B774F41205C974C612BD
:1048E3000BFC9004B4E0640F601085188285198373
:1048F300742E12486112263880277A367B1B1227C2
:104903005E122FE312037A88088909E4F50AF50B8E
:104913007808120B497A367B1B1227527404120B48
:104923002E743A022FD274F51205C9EAFEEBFF8EFC
:10493300828F83A3E0F860030249C8EE242D124658
:104943008464026007E06403600278E8EE2423F5E0
:1049530082E43FF583122FDC400478E8806AE87034
:1049630064EE2423FAE43FFB79E1120FD6EE242E02
:10497300FAE43FFB7950120FD6EE242D12468464DD
:1049830002700E125ADD125B139004C3124FFC80A7
:10499300129004C374FEF0A3041249DF7ABA7B04B5
:1049A30012141AEE2418123DF5120B4D7C0B7D00E8
:1049B3007A487B1B1212527403120B2EEEFAEFFB92
:1049C30012259CE9F8E86011E88E828F83A3125DBB
:1049D3003F74171249EE1226380264AFF0EE242515
:1049E300FCE43FFD228E828F837429F0EEFAEFFB05
:1049F3002274F61205C974F7120BFC901B53E07076
:104A03003B7401F0F91210C0AA18AB19122668758D
:104A1300084875091B7808120B51750801750900C0
:104A23007808120B519004C91209957406120BF4FD
:104A33007A03790512268C7406120B2E025E4C74CF
:104A4300F71205C9EAFEEBFF79011210C68E828FB9
:104A530083E064207004A374EBF0901B53E0A2E2A4
:104A63005003C2E2F0E0A2E15008124C8C122596EA
:104A7300800C8E828F83742A1249EE1226388007A7
:104A8300EEFAEFFB1226D47F0102088F74F41205AD
:104A9300C974FE120BFCEAFEEBFF79011210C67A11
:104AA300367B1B12275E7A3F7B1B12275E124DD685
:104AB300851882851983124E0AE0F50B700FAA1828
:104AC300AB197953120FD612653C120FD6123DF271
:104AD300120B4D7C0B7D007A487B1B121252740320
:104AE300120B2E851882851983125311A90B1225D7
:104AF30090901B53E0A2E1500C7A008E828F83A327
:104B0300E0F9122596901B53E4F07402022FD2743D
:104B1300F71205C9EAFEEBFF8E828F83A374EBF0D5
:104B2300901B53E0A2E150077A0079EB122596EE31
:104B3300FAEFFB1225CC024A8A74F71205C9EAFE82
:104B4300EBFF79011210C67A367B1B12275E7A3F80
:104B53007B1B12275E901B50E4F0901B53F07AFFEF
:104B63007BFF8E828F83A3E0F9122590024A8A7419
:104B7300F71205C9EAFEEBFF1225C6024A8374F752
:104B83001205C9EAFEEBFF79011210C68E828F83EC
:104B9300A3A3A3A3E060047400800274EB124BD3BD
:104BA3005003C2E2F0E0A2E15008124CD512259660
:104BB3008014A2E050108E828F83742AF0A374EBCA
:104BC3001249EE122638EEFAEFFB122578024A8AD2
:104BD3008E828F83A3F0901B53E0A2E22274F6121D
:104BE30005C9EAFEEBFF901B53E0D2E1F079011215
:104BF30010C08E828F83A3E0703C12266EE9FAEE1A
:104C0300240DF508E43FF5097808120B51750801E6
:104C13007509007808120B51124C4A120995EE24BB
:104C230002FCE43FFD790512268C7406120B2EE973
:104C33008E828F83A3F08E828F83A3E060067A0037
:104C4300F9122596025E51124C4E22EE240BF58288
:104C5300E43FF5832274F71205C9EAFEEBFF7901FD
:104C63001210C68E828F83E064207004A374EBF06D
:104C7300901B53E0A2E25003C2E2F0E0A2E150062F
:104C8300124C8C122596024A8AC2E1F07A008E8277
:104C93008F83A3E0F92274F71205C9EAFEEBFF79CB
:104CA300011210C67A367B1B12275E8E828F83A376
:104CB300A3A3A3E060047400800274EB124BD350EF
:104CC30003C2E2F0E0A2E15006124CD5122596028F
:104CD3004BC9C2E1123B3DA3E0A2E4E433FA8E8266
:104CE3008F83A3E0F92274F71205C9EAFEEBFF797B
:104CF300011210C68E828F83A374EB124BD850031C
:104D0300C2E2F0E0A2E15006124C8C122596024A50
:104D13008A74F71205C9EAFEEBFF7A367B1B12276A
:104D23005EEEFAEFFB1225F0024A8374F71205C90F
:104D3300EAFEEBFF7A367B1B12275EEEFAEFFB12DD
:104D430025F0024A8A74F71205C974EF120BFCEAC4
:104D5300FEEBFF125AE77ABA7B04121408E9606289
:104D63008518828519837409F07401120E7374EF28
:104D7300F0124DD6F87402120E73E8124E0AA3A372
:104D8300E0C0E07404120E73D0E0124DF7640870B3
:104D9300158E828F83A3A3124DCAE0C0E07405125F
:104DA3000E73D0E080067405120E73E4125B467432
:104DB30006120E73AA82AB8312269EAA18AB19128F
:104DC3001B1074110239D6125B242407F582E438D0
:104DD300F58322124DECFB8A828B83125B17888248
:104DE3008983E0FCA3E0F9EC22EE2402F8E43FF926
:104DF300E8FAE922124DFB22124E00E022F08E82E5
:104E03008F83A3A3A3A322F0A3E9125B35124E144D
:104E130022E0F8A3125F18A3A322C082C083122644
:104E2300E00247D0C082C083901B707410F0A3745B
:104E33001BF0A3742CF0A3741BF0901CE074E9F036
:104E4300A3742BF0A37487F0A3742BF0901B5C74F2
:104E53008AF0A37425F0901B59E04401023E58C028
:104E630082C083EAFCEBFD79021226440247D0C0DC
:104E730082C0837906025FE274F61205C974FE12DA
:104E83000BFC901B551250A460077A557B1B12260E
:104E93005C901B5BE4F09017B41250A4602680076B
:104EA300AA18AB1912265C901B54E0F912128E8AD1
:104EB300088B09A808A909851882851983124FFC54
:104EC300E84970DC7402025E4E74F71205C9E9FA10
:104ED3007B00901B54E0F91212B8024A8A74F7124D
:104EE30005C974F0120BFCEAFCEBFDE9FE8C828D24
:104EF30083E0F8745B124FED342FF583E493C0E045
:104F03007401120E73D0E0F0640B700DEE8C828D81
:104F130083A3F01226C2024FE0E07003024FE06465
:104F23000C6003024FD1741A6E700B7404120E736B
:104F3300E4F0A3024FD07404120E73ECF0A3EDF06F
:104F4300EC242F124FE5C0E07403120E73D0E0126D
:104F530060A8120E5C7406120E73120E448C828DBE
:104F630083125B0A740A120E73124FFCEC240E12A6
:104F73004FE554106009851882851983E48013EC8A
:104F83002412124FE5F89004D6E0C3988518828561
:104F93001983F0E0C0E0740C120E73D0E0F0EC243F
:104FA30015124FE5C0E0740D120E73D0E0F0EC243F
:104FB30016124FE5C0E0740E120E73D0E0F0EC242D
:104FC30017124FE5C0E0740F120E73D0E0F07402B5
:104FD300120E73EEF07401120BEC121B107410021C
:104FE30039D6F582E43DF583E02228F582E422F800
:104FF300E43BF98A828B83A3A3E8F0A3E9F022C000
:1050030082C083901B5BE0640370047901800279A2
:10501300000247D074F71205C9901B5BE012508E53
:105023001269738A828B83E0C2E7F025E0F8EC1201
:105033004FED3DF583A3E493FE12508EF58312509A
:10504300A46005EE901B5BF08A828B83E012509A7A
:10505300EC28F582ED39F583E493FCC4540F25E085
:10506300F8746A124FED341BF5831250A4700512C5
:1050730026B08014EC540F25E0FCE82CF582E439CB
:10508300F5831245FF122925024A8A12509A74DECB
:1050930028F582741C392225E0F8E433F922901AAA
:1050A300FE125B17E8492274F11205C974FE120B54
:1050B300FC890AEAFEEBFF1251A6FA7B0012127674
:1050C3008A088B09EA450960388A828B83E50AF0EE
:1050D300A3E4F08E0C8F0DF50E780C120B4DA80A7D
:1050E3001251B3EA2402FAE43509FB121252740393
:1050F300120B2EAA08AB09901B54E0F912128280FE
:1051030012851882851983E50AF0791AAA18AB1952
:1051130012262C7402120B2E02324274F21205C9AB
:1051230074FE120BFC890B8A088B091251A6F50A2F
:10513300FA7B001212768A0C8B0DAE0CAF0DEE4F7C
:10514300604A8E828F83E50BF0A3E4F0A80AEE2871
:10515300F8E43FF98E828F83124FFA8E828F83A3F6
:10516300A3A3A3E4F0F50A7808120B4DA80B125180
:10517300B31235551212527403120B2EEEFAEFFBD3
:10518300901B54E0F91212827900801485188285ED
:105193001983E50BF0791AAA18AB1912262C791A80
:1051A300023A68742F29F582E4342FF583E49322BD
:1051B300744528F582E4342FF583E493FC7D0022C3
:1051C300C082C083E9901B54023E5874F61205C98D
:1051D30074FE120BFCEAFEEBFFEE542070378040A6
:1051E300A8A8C2AF901AFDE014125307F508E8A26D
:1051F300E792AF8A828B831252FE901B5712532180
:10520300122638851882851983E0641560077A575A
:105213007B1B12265C7AF77B1A1212A0EA4B70C032
:10522300EF54807012801C901B57125321122638A2
:105233007A577B1B12265C901B54E0F912128EEAFC
:105243004B70E4EE5410600E851882851983742D1B
:10525300124861122638EEA2E0500E851882851995
:10526300837424124861122638EE5402600E8518A6
:10527300828519837425124861122638EE5404601E
:105283000E8518828519837426124861122638EE1A
:105293005408600E85188285198374281248611298
:1052A3002638EE544060107401120E7312630974B1
:1052B3002C124861122638EE548060107401120ECD
:1052C30073126309742F124861122638901B55120A
:1052D30050A46020A8A8C2AF901B55125311901B75
:1052E30055E4F0A31253271253201226387A577B22
:1052F3001B12265C7A007B00024EC7E0851882856C
:105303001983F022F0E8A2E7E43322901ADC125367
:105313001522E0FAA3E0FB22A3A3A3A3A3A3EAF02D
:10532300A3EBF022125307FEE8A2E792AF22C0825A
:10533300C083901B57125B13EA687002EB69700716
:10534300901B57E4F0A3F00247D074F71205C9EAA3
:10535300FEEBFFEE4F70031227C4A2AFE433F50850
:10536300C2AF8E828F831250A46028E824FBFAE92F
:1053730034FFFB901B57126975E86C7002E96D707E
:1053830007901B57E4F0A3F08E828F83E4F0A3F021
:1053930012132A023827C082C083901B7E74A4F0A4
:1053A300A37426F0A374B6F0A37426F0A374BCF020
:1053B300A37426F0A37472F0A37425F0A374C2F04F
:1053C300A37426F0A3746CF0A37425F0A37478F08F
:1053D300A37425F0901B8C74F2F0A37426F0A374CD
:1053E300C8F0A37426F0A374CEF0A37426F0A374BC
:1053F300DAF0A37426F0A374D4F0A37426F0901B00
:105403007D023E57C082C0839004C3E064FE7003F4
:10541300A3E0F470097CBA7D0412140E80158A820D
:105423008B83A3A3A3A3A3A3A3A37402F0125589FD
:10543300124FFC0247D0C082C0839004CDC3E094D6
:10544300FEA3E094FF40047903800279020247D06F
:10545300C082C0831255948C828D83125549687023
:1054630039740268701C8A828B831254A2E06870BC
:10547300298A828B83A31254A2A3E068701C79014A
:10548300801A7403687013EC2405FC50010DEA24A0
:1054930005FA50010B121414800279000247D0A3BD
:1054A300A3A3A3A3E0F88C828D83A3A3A3A3A32226
:1054B30074F61205C97E00740A120E73E012553D8C
:1054C300FF8A828B83A3A3A3A3A3A3A3A3E06F70E9
:1054D3006474026F704E8A828B83C082C083888219
:1054E3008983A3A3A3A3A3E0F50888828983A3A345
:1054F300A3A3A3A3E0FBAA08D083D082E06A70032E
:10550300A3E06B703088828983A3A3A3E0FA888227
:105513008983A3A3A3A3E0F9EA6C7002E96D701574
:105523007E01801174036F700CE82405FCE439FDDF
:10553300121414E9FEEEF9025E51F8A3E0F9888231
:10554300898312554922A3E01313543F540322C005
:1055530082C0838A828B83A3A3A3A3A3A3A3A3E071
:1055630064027014125589E0687003A3E069700443
:105573007901800F7900800BEAFCEBFD7ABA7B049A
:105583001214080247D09004C3125B178A828B83DC
:10559300228A828B83125549F82274EC1205C9EAD8
:1055A300FEEBFF8C128D13750A008C828D83A3A3EF
:1055B300A3A3A3A3A3A3E0F510E9A2E75008750CE6
:1055C300FF750DFF80069004C91257D9E9C2E7F5AC
:1055D30011EE240E124684542060071257BA740841
:1055E30080041257BAE41257E1540460071257C2F9
:1055F300748080051257C274101257E1541060066C
:10560300125792E4800B9004D6E0C0E0125792D078
:10561300E01257E1A2E05003750A205408600674B3
:1056230010450AF50A8E828F83A3A3E024FFF508B1
:10563300A3E012467DC39402E0400B640B6005E0D7
:10564300141235657403450AF50A750B009004E9D5
:10565300E0640170118E828F83A3A3A3A3E0C3949C
:10566300674003750B1085110E750F00740E780ECD
:10567300120D3FE50F450BF50B7414120E73E0F595
:105683000EA3E0F50F74026511700E9004CE12356F
:10569300649004CD1257D0801374036511701212F5
:1056A300579C7CDD7D04AA08FB12141A1257A980AB
:1056B30004E5116028E5106014E50E650C7004E53F
:1056C3000F650D70087440450AF50A80108508823D
:1056D300850983E50D1257E7E50C12356B85100C30
:1056E300750D00740A780C120D3FE50D450BF50B93
:1056F300740265107015851282851383A3123564B5
:105703008512828513831257D0801374036510703A
:105713001212579CAC12AD13AA08FB12141A12579B
:10572300A98004E5106010850882850983E50F12BE
:1057330057E7E50E12356BA808A909E824FFF50819
:10574300E912467D70059004B980039004C5E0FA20
:1057530004F0EA8882898312455BE50B1257E7E57B
:105763000AF0EE2404F8E43FF9123251AC088A82BD
:105773008B83E0F50A88828983E0250AC39C125B48
:1057830031ECF0A3E509125CADE4F0F9022FB6EEBB
:105793002412F582E43FF58322E50824F9F508E5B0
:1057A3000934FFF509221257AD22E50824FFF50855
:1057B300E50934FFF50922EE12443D3FF583221239
:1057C30057C622EE2411F582E43FF58322E08508D3
:1057D30082850983F022E0F50CA3E0F50D22F01297
:1057E30045F2E02212356F850882F5832274EE12AA
:1057F30005C9890A8A0B8C108D11750C1A7416123F
:105803000E73126548AA08FB1225128A0E8B0FAE7F
:105813000EAF0FEE4F60607414120E73125881E8CE
:10582300F0A3E9123167E50AF085080C85090D75C7
:105833000E00780C120B4D123551121252740312D2
:105843000B2E7412120E73120995AC10AD11A90B25
:10585300EEFAEFFB1226867402120B2EE9F50C709A
:1058630016E50A24F960031470061235D8D2E5F060
:10587300EEFAEFFB122566A90C7F0A02088F125F6E
:10588300261245F32274F61205C974F7120BFCEACB
:10589300FEEBFF7801EE242F124684600278051296
:1058A30045EEE812316474041258E112140EEE242A
:1058B3002C123132242E1258EE120B517402120B99
:1058C300F479031A1AEFFB1226867402120B2EE9DF
:1058D300F5087007EEFAEFFB122566025E4AF0EE5A
:1058E3002423FCE43FFDAA18AB1922F582E43FF51B
:1058F3008312327C124DFB04F078082274F21205F5
:10590300C98A088B09ECFEEDFF8A828B837405F04C
:10591300EE24321246848A828B83A3A3F0EA240303
:10592300F50AE43509F50B850A82F5831257D91276
:105933005ADD120E5CE50C124413350DF583120E7D
:1059430044125AE7AA0CAB0D12140E850A82850B7A
:1059530083125F1EFAA3E0FB88828983A3A3A312A9
:10596300531BEE242F124684C0E0125AFCD0E012DF
:105973005B3B2415F582E438F583E4125B3B125A52
:10598300EFE4125B46850A82850B83E02416FAA3B3
:10599300E03400FB12269E8E828F83A3A3A3A3A3CE
:1059A300A3A3E0C0E0850A82850B83125B20240D4C
:1059B300F582E438F583D0E0125B2AFAA3E0FB8595
:1059C3000A82850B83125B13E8240BFCE439FD8AFE
:1059D300828B83E08C828D83F0A3E4125B53E0F52A
:1059E3000B8C828D83A3E0450B125B31A3E0FCA3F8
:1059F3000A0AAB83A2E7E433C0E0E8240FF582E4AC
:105A030039F583D0E0F074075C6004780180027894
:105A13000075F00374075CA428F8EA28FAE43BFB5A
:105A2300E5082405F8E43509F98A828B8312327C70
:105A3300125B5385088285098312531B88828983ED
:105A4300E0F50A540725E0FCE50AC4540F5407F5B2
:105A53000A750B007403780A120D3FEC250AF8EA65
:105A630028F8E43BF9850882850983A3A3A3A3A3AC
:105A7300A3A3A3A3E8F0A3E9124DF7FA8E828F83C1
:105A8300A3A3E02AFAA3E03400FBC3EA98EB99400E
:105A9300308E828F83A3A3E0F8850882850983A3D0
:105AA300A3A3A3A3A3A3A3A3E0FA8E828F83A3A399
:105AB300A3A3E0C39A28850882850983A3A3A380AF
:105AC30010850882850983A3A3A3A3A3A3A31245D7
:105AD30059A3A3A3A3A3F0023A6DEE2425F582E410
:105AE3003FF58322EE2413FCE43FFD22125AF322F6
:105AF300240EF582E438F58322125B0022E8241099
:105B0300F582E439F58322A3A3A3A3A3A3A3A3A3A9
:105B1300125B1722E0F8A3E0F922901AFE125B242D
:105B230022E0F8A3E0C822125D3FA3A3E022125BA8
:105B33003522F08A828B8322F0850A82850B8312B9
