:020000040000FA
:06000000020C330202387D
:03002B00020A2D99
:0300330002025A6C
:0300530002016D3A
:03007B00020799E0
:100083000201CC010020FD00020000B30F000000BC
:10009300000000000000000D1000009B0F00000096
:1000A300000000000000000000000000000000004D
:1000B300000000000006FFFF060008BF1700000055
:1000C3000160EA0000E513EB130000F113F71300DE
:1000D30000000000000000000001000000002020DC
:1000E3002020202020202020202020202020010844
:1000F3000401000100020A81020E810101010400D2
:100103000018000000E8030000FFFFCC18E803001C
:100113000064006400B801A0BB0D00A0BB0D000289
:1001230002000800000502070401051E02051E0265
:100133000A0A0102080803B80B02803E0102FEFF0F
:10014300E8030A050001621A010A1401E00101052E
:10015300030101FF0F10FEFFD22900000000442815
:1001630000000000FF000000FF00C0E074F1120572
:100173005BA2AFE433F509D2AF85A708AFA1EF5572
:1001830008FE74105E6006120D3175A1EF74085EEF
:100193006008120D3775A1F78024EFA2E092F0E515
:1001A30008A2E082F05017906198E0F8900493E081
:1001B300C398A2D265D0335002E8F075A1FEE509D9
:1001C300A2E092AF7F02020617C0E074F212055B51
:1001D300A2AFE433FED2AF9061A4E0F8759B00E5D3
:1001E3009158540860087591F7120D7F8023E591AB
:1001F30058541060087591EF120D858014E591A293
:10020300E092F0E8A2E082F05007E0C2E0F0120EC4
:10021300CF9061A3E0F8E5E9585404600E120EA5EF
:1002230075E9FB906193E0A2E640F2EEA2E092AFA3
:100233007F01020617C0E074F212055BA2AFE4333C
:10024300FED2AF9061A5E0F8E5BF5854046006758F
:10025300BFFB120EE780D4C0E074F112055BE59D8D
:10026300A2E650FA906206E0F9A2E25034AA2AEA22
:1002730090620BF0F508852B0974047808120C5270
:10028300E508906207F08A08852B0974097808123B
:100293000C52E508543E906209F0906201E0D2E00E
:1002A300F0E9782746F6906202E0F50875090074D4
:1002B300047808120B967827E50846F608E5094600
:1002C300F6906204E0F50875090074097808120BCA
:1002D300967828E50946F6E9A2E0500375290174EA
:1002E30006596003752900E58BA2E55006758BDF7F
:1002F30075290012124D758B00C2E87F02020617A2
:10030300C3E498F8E499F91203448026C3E49AFA03
:10031300E49BFBE920E7E9120344E498F8E499F944
:1003230022C3E498F8E499F9120344E498F8E499B1
:10033300F9C3E49AFAE49BFB22EB20E7CFE920E739
:10034300E0B90010BB0008E88AF084F8AAF022E4C0
:10035300FBC8FA22EB70227B10C833C8C933C933F8
:100363005007C39AC3DBF280069A50012ADBEAC81E
:1003730033F4C8C933F4C9FA2275F008E4C833C8A2
:10038300C933C933C99AC99B5004C92AC93BD5F09B
:10039300ECFBC833F4C8E4C9FA22080808EAC0E051
:1003A300EBC0E086F0E7A4FA180986F0E7A42AFA7E
:1003B300180986F0E7A42AFA180986F0E7A42AFAAE
:1003C3001986F0E7A4FBE5F02AFA190886F0E7A4FA
:1003D3002BFBE5F03AFA190886F0E7A42BFBE5F0CE
:1003E3003AFA18180986F0E7A4C5F02BFBE43AFAA9
:1003F3001908E7C5F0C6A426F6E5F03BFBE43AFA94
:100403001886F0E7A4F6E5F00826F6E43B08F6E4E0
:100413003A08F6D0E0FBD0E0FA22E4CFC0E0E4CE25
:10042300C0E0E4CDC0E0E4CCC0E075F020E626F601
:1004330008E633F608E633F608E633F6181818EC40
:1004430033FCED33FDEE33FEEF33FFC3EC9709EDE1
:100453009709EE9709EF97191919400FFFEC97FCCD
:1004630009ED97FD09EE97FE191906D5F0BFECF7D4
:1004730009EDF709EEF709EFF7191919D0E0FCD0E8
:10048300E0FDD0E0FED0E0FF222518C582C0E0E504
:100493001934FFC583C0E0E518C3958224F810AF73
:1004A300088583198582188008858319858218D267
:1004B300AFCEF0A3E520F0A37808E608F0A3DEFAB8
:1004C300EFF0A3E58124FAF8E608F0A3E608F0A329
:1004D300E608F0A30808E608F0A3E608F0A31581F0
:1004E3001581D0E0FED0E0F8158115811581E8C0B3
:1004F300E0EEC0E022120CC5B90003020545E47921
:1005030021780BB800028004F709D8FCE490042199
:10051300787879188002F0A3D8FCD9FA7A987B1BF3
:1005230090008678E879018015E493A3AD82AE83C9
:100533008A828B83F0A3AA82AB838D828E83D8E9D0
:10054300D9E77582A27583B874051209A47582452B
:1005530075832674001209A4C0D02518C582C0E093
:10056300E51934FFC583C0E0E518C3958224F31071
:10057300AF088583198582188008858319858218B9
:10058300D2AFC8F0A3E9F0A3EAF0A3EBF0A3790894
:10059300E709F0A3D8FAECF0A3EDF0A3EEF0A3EF94
:1005A300F0A3D0E0F0A3D0E0F0A3D0E0F0A3E520E7
:1005B300F0A3E5F0F0A32212010002020000205193
:1005C30004A8160900010203010902430002010005
:1005D3008019090400000102020100052400100132
:1005E3000424020205240600010524010001070575
:1005F300820340004009040100020A0000000705CD
:10060300840240000007050402400000D5050000F5
:10061300F8050000851983851882E0C0E0A3E0F99E
:10062300A3E0FAA3E0FBA37808E0F608A3DFFAE06F
:10063300FCA3E0FDA3E0FEA3E0FFA3E0C0E0A3E092
:10064300C0E0A3E0F5D0A3E0F520A3E0A3F5F0100C
:10065300AF088583198582188008858319858218D8
:10066300D2AFD082D083D0E0F8D0E0320975F01059
:100673008E218F228582268583258518828519837D
:10068300E0CEA3E0CF852682852583EBC9EAC8EDBA
:10069300CBECCAC3E833C8E933C9EA33CAEB33CB7B
:1006A300C3EA9EF524EB9FF523B35004AB23AA249E
:1006B300EC33CCED33CDD5F0DAAE21AF2222D083AB
:1006C300D082ECC0E0EDC0E0E493A3FCE493A3FD8F
:1006D300ED4C600D1207DCEC24FFFCED34FFFD80D4
:1006E300EFE493A3FCE493A3FDED4C600D1208AF7C
:1006F300EC24FFFCED34FFFD80EFD0E0FDD0E0FC07
:10070300E493A3C0E0E493C0E022D083D082E9C0A5
:10071300E0E493A3C386F0C5F095F0F908E493A34E
:1007230086F0C5F095F0700BE493A3C3994005E9F7
:10073300048002A3E475F002A42582F582E5F03576
:1007430083F583D0E0F9E493A3C0E0E493C0E0220F
:10075300851983851882E0A3FEE0A3F5207808E0DD
:10076300A3F608DFFAE0A3FFE0A3C0E0E0A3C0E044
:10077300E0A3C0E0E0A3C0E0E0A3C0E010AF0885C1
:1007830082188583198008858218858319D2AFD092
:1007930083D0820209AAC0E074F212055BA2AFE41F
:1007A30033FED2AFE58AA2E2500790045FE0D2E0C5
:1007B300F0E58AA2E3500790045FE0D2E1F0758A86
:1007C30000C2EB7A107B0090045BE0F91210E5EEB7
:1007D300A2E092AF7F01020617C0E0C3E49396083C
:1007E3007401939618400FE493667008087401939C
:1007F300661870007019A3A3C3E493960874019359
:100803009618A3A3400DD0E0D0E0D0E00206FDA3EC
:10081300A3A3A3A3A3D0E022D083D082C5F0E49303
:10082300A3C5F0C395F0F5F0E493A3C395F0400599
:10083300E5F0048001E475F002A42582F582E5F079
:100843003583F583E493A3C0E0E493C0E02274040A
:10085300800474028000CCC0E0EDC0E0E518C39CC6
:10086300CCAD1950011D10AF068C188D1980068C64
:10087300188D19D2AF120926D0E0FDD0E0FC227406
:10088300028000CCC0E0EDC0E0E518C39CCCAD19FC
:1008930050011D10AF068C188D1980068C188D1908
:1008A300D2AF120904D0E0FDD0E0FC22C0E0C0F0DA
:1008B30088F0E4936670080874019366187000A8C2
:1008C300F0A3A3700BD0F0D0E0D0E0D0E00206FD9F
:1008D300A3A3D0F0D0E022D083D082CCC0E0E493B5
:1008E300A360061209471470FAE493A36006120A80
:1008F300A61470FAD0E0FCE493A3C0E0E493C0E054
:1009030022CAC0E0E493A3C582CCC582C583CDC50A
:1009130083F0A3C582CCC582C583CDC583DAE5D078
:10092300E0CA22CAC0E0E0A3C582CCC582C583CD9C
:10093300C583F0A3C582CCC582C583CDC583DAE662
:10094300D0E0CA22C0E0E493A3D39C5010E493A365
:10095300C39C400AD0E0D0E0D0E00208F7A3A3A3F1
:10096300D0E0227009080808226016181818C6C3B8
:1009730033C608C633C608C633C608C633C6D5E071
:10098300EA22C008C3E096F50808A3E096420808E7
:10099300A3E096420808A3E09645087001D3D00867
:1009A30022C09FF59FE473D09F22D083D082C09F43
:1009B300E493C0E0740193C0E0740293F59F222591
:1009C30018F58210AF08F518400C15198008F518B2
:1009D30040021519D2AF8519832200C0D025181003
:1009E300AF08F518500C05198008F51850020519C1
:1009F300D2AFD0D0227404800A74038006740280BC
:100A0300027401C0E0F4041209C2D0E0120C702297
:100A1300BB0102E722C082C08389828A83BB0003B1
:100A2300E08002E493D083D08222C0E0C0D0E8C04B
:100A3300E0A8A8D2AFC2C7E8A2E792AFD0E0F8D04F
:100A4300D0D0E0326016080808C6C313C618C61310
:100A5300C618C613C618C613C6D5E0EA222518F869
:100A6300E43519F9222518FAE43519FB222518FC77
:100A7300E43519FD22C3E0C696F608A3E0C696F650
:100A830008A3E0C696F608A3E0C696F6222518103A
:100A9300AF08F518400C15198008F5184002151910
:100AA300D2AF22C0E0E493A36C7009D0E0D0E0D0D1
:100AB300E00208F7A3A3D0E022C3E09608A3E096E0
:100AC30008A3E09608A3E096A2D265D03322E76696
:100AD30070100809E766700A0809E76670040809D8
:100AE300E76622E066701008A3E066700A08A3E0D8
:100AF30066700408A3E06622C3E697F60809E69742
:100B0300F60809E697F60809E697F622C3E096F099
:100B130008A3E096F008A3E096F008A3E096F0227D
:100B2300C3E4939608740193960874029396087429
:100B330003939622E627F60809E637F60809E6370F
:100B4300F60809E637F622E056F608A3E056F6085B
:100B5300A3E056F608A3E056F622E647F60809E6B0
:100B630047F60809E647F60809E647F622E026F0C5
:100B730008A3E036F008A3E036F008A3E036F0223D
:100B8300E493F608740193F608740293F608740369
:100B930093F622700422600D18C6C333C608C63309
:100BA300C6D5E0F41822E657F60809E657F6080911
:100BB300E657F60809E657F622E026F608A3E036DC
:100BC300F608A3E036F608A3E036F622E056F0086E
:100BD300A3E056F008A3E056F008A3E056F022E4A1
:100BE300C396F608E496F608E496F608E496F62229
:100BF300C6F4C608C6F4C608C6F4C608C6F4C622B8
:100C0300600D08C6A2E713C618C613C6D5E0F322C3
:100C1300C3E7960809E7960809E7960809E79622C5
:100C2300C3E09608A3E09608A3E09608A3E0962203
:100C330075D00075813F751821751904000204F8F9
:100C4300E6F008A3E6F008A3E6F008A3E6F02260C6
:100C53000C08C6C313C618C613C6D5E0F422E0F6C3
:100C630008A3E0F608A3E0F608A3E0F622CAC0E072
:100C7300E6F0A308DAFAD0E0FA22E8F0A3E9F0A359
:100C8300EAF0A3EBF022E0F8A3E0F9A3E0FAA3E093
:100C9300FB22ECF0A3EDF0A3EEF0A3EFF022E0FCD7
:100CA300A3E0FDA3E0FEA3E0FF22EAF0A3EBF0A3A1
:100CB300ECF0A3EDF022E0FAA3E0FBA3E0FCA3E059
:100CC300FD22E5C754F84401F5C77901222518F53B
:100CD30082E43519F58322C2AF75D69F0200002244
:100CE3001209AD7F91051209AD9391051209ADACBF
:100CF30091051209AD9D92051209AD4F9305120995
:100D0300AD6393051209ADB3BD051209ADD7BD059A
:100D13001209ADF0BD051209AD2EBE051209AD5E77
:100D2300BE051209AD8BBE051209ADF1BE05120950
:100D3300ADF4BE051209ADFEBE051209AD0BBF052C
:100D43001209ADA7B1051209ADC7B1051209AD0668
:100D5300B2051209AD24B2051209AD3FB20512095D
:100D6300ADA5B2051209ADB1B2051209AD0EB305B9
:100D73001209AD32B3051209ADF3B3051209AD0083
:100D8300B4051209AD11B4051209ADD6C80512098F
:100D9300ADEEC8051209AD1AC9051209ADD69D05F8
:100DA3001209AD329F051209AD409F051209AD53DB
:100DB3009F051209AD689F051209AD7D9F051209B4
:100DC300AD909F051209AD0CA0051209AD71A005E8
:100DD3001209AD07A1051209ADE0A1051209ADF095
:100DE300A1051209ADFFA1051209AD0EC705120930
:100DF300AD32C7051209AD5AC7051209AD82C70541
:100E03001209AD7DB6051209ADA4B6051209ADC22E
:100E1300B6051209AD31B7051209ADD4FC011209AB
:100E2300ADEDFC011209ADF9FC011209AD0DFD0197
:100E33001209AD2BFD011209AD35FD011209AD3FBC
:100E4300FD011209AD52FD011209ADD8FD011209D0
:100E5300AD4DFE011209AD7CFE011209ADCAFE01C2
:100E63001209AD19FF011209AD34FF011209AD3E9C
:100E7300FF011209AD4FFF011209AD92FF011209E3
:100E8300ADB47F001209ADF6E8041209AD22E904FE
:100E93001209AD3FE9041209AD52E9041209AD6D1F
:100EA300E9041209ADC7E9041209ADF5E904120911
:100EB300AD05EE041209AD63EF041209AD95EF041D
:100EC3001209ADF8EF041209AD6EF1041209AD96E3
:100ED300F1041209ADABF1041209ADBBF10412091F
:100EE300ADFBF1041209AD3DF2041209AD4DF2045C
:100EF3001209AD57C0051209AD71C0051209AD99AC
:100F0300C0051209ADB2C0051209ADD6C00512095C
:100F1300ADF4C0051209AD0BC1051209AD39C10508
:100F23001209AD54C1051209ADB0C9051209AD0BC3
:100F3300AE051209AD1BAE051209AD22AF051209AC
:100F4300AD56AF051209AD78AF051209AD9BAF05DC
:100F53001209ADB9AF051209ADF3AF051209AD58CA
:100F6300B0051209AD9AB0051209ADE1B005120939
:100F7300AD0EB1051209AD45B1051209AD15BF0599
:100F83001209AD30BF051209AD92BF051209AD2C90
:100F9300C0051209ADA5C4051209AD87C105120923
:100FA300ADCFC1051209AD9FFE031209ADC4FF0306
:100FB3001209ADB5D3041209ADA1D7041209AD9638
:100FC300D9041209ADC8DA041209ADA1DB04120970
:100FD300AD38DD041209AD04DE041209AD58DE0498
:100FE3001209AD8EBA051209ADAFBA051209ADE902
:100FF300BB051209AD13BC051209AD3ACA051209A6
:10100300AD4ACA051209AD54CA051209ADFEEE0177
:101013001209AD91F3011209ADF3F4011209ADCA3E
:10102300F6011209AD53F7011209ADEAF7011209EE
:10103300ADA9F8011209AD9DF9011209ADB5FA0187
:101043001209ADE4FB011209AD50BC051209AD70E4
:10105300BC051209AD83BD051209AD86BD05120994
:10106300AD59C6051209AD8FC6051209ADABC6054C
:101073001209ADEDC6051209ADFDC6051209AD2273
:1010830087051209AD5C87051209ADC587051209ED
:10109300ADE487051209ADFD87051209AD9F8805EB
:1010A3001209ADA888051209ADF988051209AD2208
:1010B30089051209AD2F89051209ADA08905120909
:1010C300AD2E8A051209AD7C8A051209ADB28A05D7
:1010D3001209AD138B051209AD3C8B051209ADB393
:1010E3008B051209AD0F8C051209AD4C8C05120945
:1010F300AD838C051209AD958C051209ADA78C053E
:101103001209ADC68C051209ADCF8C051209AD8A43
:101113008D051209ADD68D051209AD148E05120980
:10112300AD9F98051209ADDF99051209AD029A0525
:101133001209AD139A051209AD329C051209AD527D
:101143009C051209AD3FB4051209AD75B40512092A
:10115300ADBDB4051209AD16B6051209AD6EAE04E8
:101163001209AD9FAF041209ADDBAF041209AD95AF
:10117300B1041209ADBFB1041209AD38B4041209A8
:10118300AD78B4041209AD0CB6041209ADABB604C4
:101193001209AD03B7041209AD96B7041209ADD015
:1011A300B7041209AD12B8041209AD85B9041209C6
:1011B300AD05BB041209AD42BD041209AD70BD04F7
:1011C3001209AD9CBD041209ADA5BD041209ADFB06
:1011D300BD041209AD8BBE041209ADC9C1041209C5
:1011E300AD4BC2041209ADDFFF041209ADF5FF04D4
:1011F3001209AD5BC9051209ADA77B001209ADBD8C
:101203007B001209AD617C001209ADA07C001209BC
:10121300ADBD7C001209ADEE7C001209AD3B7D0033
:101223001209AD6F7D001209ADAA7D001209AD9FB1
:101233007F001209ADA5C3051209AD04C405120947
:10124300AD42C4051209AD83C4051209ADF5FF0112
:101253001209AD0080041209AD0C80041209AD6EB1
:1012630080041209AD7880041209AD0581041209C6
:10127300AD4181041209ADFD81041209AD0A820456
:101283001209AD6E82041209ADB782041209AD884A
:1012930083041209AD0384041209ADC28504120943
:1012A300ADF587041209AD5B89041209ADBC8A044C
:1012B3001209AD488B041209AD948C041209AD9741
:1012C3008D041209ADF18E041209ADBB930412090A
:1012D300ADB294041209AD3695041209AD5B9504C1
:1012E3001209AD8095041209AD1996041209AD37A0
:1012F30096041209AD9D96041209ADB9960412091C
:10130300ADE996041209ADFB97041209ADCE98041A
:101313001209AD4B9A041209AD6C9A041209ADEF90
:101323009A041209AD959B041209ADDC9B041209C2
:10133300AD549C041209ADB19C041209AD3C9D044B
:101343001209AD949E041209AD04A0041209AD96CE
:10135300A0041209ADFCA0041209AD0DA3041209E7
:10136300ADB2A4041209ADC7A4041209ADFFA404CD
:101373001209AD6CA5041209ADB0A5041209AD2183
:10138300A6041209ADC7A6041209ADB4A804120934
:10139300AD83A9041209AD95AA041209AD43AC04A7
:1013A3001209AD4CFE021209ADE8FE021209AD09A5
:1013B300FF021209ADF6C9051209AD7DF204120947
:1013C300AD0BF3041209AD87F4041209AD08F5045B
:1013D3001209AD72F6041209ADCEF7041209ADE796
:1013E300F7041209AD24F8041209AD64F8041209D4
:1013F300AD84F8041209AD87F8041209ADC9F804E5
:101403001209AD06FB041209AD2BFB041209AD81D1
:10141300D6021209ADD9D6021209AD69D702120953
:10142300ADE2D8021209ADC2D9021209ADB0DA0297
:101433001209ADC7DA021209AD19DB021209AD8D2B
:10144300DB021209ADD9DB021209ADECDB02120992
:10145300AD45DC021209AD5DDC021209AD20DF02ED
:101463001209ADB6DF021209ADEDDF021209AD3686
:10147300E0021209AD38E2021209AD88E202120954
:10148300AD62E3021209AD9BE3021209ADBAE302B6
:101493001209AD05E4021209AD25E4021209ADDC1F
:1014A300E4021209ADD7E5021209AD32E6021209D0
:1014B300AD72E6021209AD5BE7021209ADD3E90290
:1014C3001209AD06EA021209ADA8EA021209ADCD6E
:1014D300EA021209AD51EB021209AD30EC02120916
:1014E300AD6EEC021209ADD2EC021209AD90ED0221
:1014F3001209AD93ED021209AD9DED021209ADA7DC
:10150300ED021209ADC3ED021209AD3FEE0212095D
:10151300AD78EE021209AD94EE021209ADC0EE02EF
:101523001209ADE7EE021209AD0BEF021209AD4647
:10153300EF021209ADB9EF021209ADEDEF02120984
:10154300AD2EF0021209AD63F0021209AD83F00271
:101553001209ADC0F0021209ADF7F0021209ADFA9B
:10156300F1021209AD32F3021209AD51F30212096D
:10157300AD9DFF011209ADB5FF011209AD779305CA
:101583001209ADB593051209AD4E94051209AD5973
:1015930095051209ADA197051209AD1E980512090B
:1015A300AD0080051209AD4F80051209AD0D82050E
:1015B3001209ADC783051209AD0584051209ADFAF9
:1015C30084051209AD0586051209AD2786051209A2
:1015D300AD7186051209ADF286051209ADD4660018
:1015E3001209ADF766001209ADF867001209AD41A3
:1015F30068001209ADA168001209ADFD6800120967
:10160300AD4E69001209ADC469001209AD496A0003
:101613001209ADC16A001209AD046B001209ADF6DF
:101623006E001209AD4771001209ADE9710012098C
:10163300AD4D72001209AD7272001209AD2F740024
:101643001209AD5876001209AD3177001209ADB514
:1016530077001209ADE378001209AD067A0012098A
:10166300AD457A001209ADF97A001209ADA8C2049A
:101673001209AD48C3041209ADB4C3041209AD691C
:10168300C4041209ADC8C4041209AD76C504120915
:10169300AD31C8041209AD53C9041209ADDCC90444
:1016A3001209ADBFCB041209AD63CC041209ADD24C
:1016B300CC041209AD4ACE041209ADB3CF0412090A
:1016C300ADC2D0041209AD4FD1041209AD66D204E4
:1016D3001209AD70D6031209ADDBD6031209AD238F
:1016E300D7031209AD67D7031209ADC2D703120995
:1016F300AD1FD8031209AD5AD8031209ADDED803C2
:101703001209AD38D9031209ADA7DA031209AD1FC7
:10171300DB031209AD37DC031209AD5FDC031209E9
:10172300AD6BDD031209AD7CDD031209AD94DD035E
:101733001209ADBDDE031209ADE0DE031209ADB936
:10174300DF031209ADDDDF031209ADF4DF03120974
:10175300AD18E0031209AD3AE0031209AD14E10339
:101763001209AD6EE1031209ADE8E2031209AD44BB
:10177300E3031209AD5BE3031209AD89E303120925
:10178300ADDBE4031209AD5AE5031209AD91E5039C
:101793001209ADCBE5031209AD37E6031209ADF625
:1017A300E6031209ADD4E8031209ADD4E903120923
:1017B300ADDFEA031209ADF1EB031209AD19ED0335
:1017C3001209AD27ED031209AD2CEE031209ADCEBC
:1017D300EE031209AD14EF031209AD29EF03120949
:1017E300AD31F0031209ADD2F0031209AD2EF103AE
:1017F3001209AD9EA6051209AD59A8051209AD1827
:10180300A9051209AD6DA9051209ADF3A9051209C0
:10181300ADF1FB041209AD0FFC041209AD53FC0436
:101823001209AD79FC041209ADA0FC041209ADB88C
:10183300FC041209ADD0FC041209ADE8FC04120942
:10184300AD8AFD041209ADCCFD041209ADE1FD041E
:101853001209AD03FF041209AD0CFF041209AD1503
:10186300FF041209AD1EFF041209AD28FF0412097B
:10187300AD30A2051209AD24A6051209AD32A605A5
:101883001209AD37A6051209AD1BB9051209ADAD95
:10189300CA051209AD0080021209AD578002120970
:1018A300ADC380021209AD4F81021209AD05820258
:1018B3001209AD4D82021209AD6682021209AD8989
:1018C30082021209ADA7C7051209ADE98202120906
:1018D300AD3883021209AD6383021209ADC18302DD
:1018E3001209AD6884021209AD1085021209AD8C8C
:1018F30085021209AD5986021209ADA086021209AA
:10190300ADEC86021209AD7487021209ADAD8702F0
:101913001209AD0388021209AD1F88021209AD4EE8
:1019230088021209AD5A8A021209AD888B02120984
:10193300AD4391051209ADE88B021209AD098C0282
:101943001209AD188C021209AD238C021209ADD213
:101953008C021209AD428D021209ADCD8D0212091E
:10196300ADD58D021209AD428E021209AD7E8E02F3
:101973001209AD448F021209AD1790021209AD6C22
:1019830090021209AD0B91021209AD659102120981
:10199300ADAA91021209AD4394021209AD869502D4
:1019A3001209AD7098021209AD5499021209AD38AB
:1019B3009A021209AD499A021209ADBB9A021209A1
:1019C300AD529B021209ADB79B021209ADA79C024F
:1019D3001209ADCC9C021209ADEA9C021209AD06B4
:1019E3009D021209AD799D021209AD769E0212097C
:1019F300AD839E021209AD8C9E021209AD6EA00248
:101A03001209AD90A1021209ADA0A1021209ADCE37
:101A1300A2021209AD52A3021209AD8EA30212094A
:101A2300AD68A5021209AD25A9021209AD39A902B3
:101A33001209AD43A9021209AD4DA9021209AD570E
:101A4300A9021209AD70A9021209AD7AA9021209FD
:101A5300ADE7A9021209ADF2A9021209AD1AAA0251
:101A63001209AD25AA021209AD8AAA021209AD957F
:101A7300AA021209ADB9AA021209ADDDAA0212091E
:101A8300AD4FAB021209AD98AB021209ADB4AB0274
:101A93001209AD25AC021209AD71AC021209ADBA3F
:101AA300AC021209ADF8AC021209AD79AD0212090C
:101AB300AD20AE021209ADEFAF021209AD54B00270
:101AC3001209AD82B1021209ADA8B1021209ADF03B
:101AD300B2021209AD2AB6021209AD28B8021209E0
:101AE300ADF3B9021209AD8CBA021209AD8DBC0275
:101AF3001209AD42BD021209AD7BBD021209ADE16F
:101B0300BD021209ADEBBD021209AD14C0021209E8
:101B1300AD53C1021209ADAAC1021209AD55C202E9
:101B23001209AD05C4021209AD52C5021209AD7204
:101B3300C5021209ADC7C5021209ADC8C602120912
:101B4300ADF0C6021209AD4FC7021209AD47C80274
:101B53001209ADBEC8021209ADD1C9021209AD3FC7
:101B6300CA021209AD3ECB021209AD98CD02120989
:101B7300ADC1CD021209AD27CF021209ADA9D00222
:101B83001209AD00D1021209ADAED1021209AD5353
:101B9300D2021209ADACD2021209AD6AD302120904
:101BA300ADFCD3021209AD5BD4021209AD9DD40280
:101BB3001209ADCED4021209AD25D6021209AD0029
:101BC30080031209AD3280031209AD6B8003120941
:101BD300AD2982031209ADFF82031209AD5E8303AF
:101BE3001209AD7484031209ADC084031209AD4E0A
:101BF30087031209AD288A031209AD6F8B031209FB
:101C0300AD078C031209AD138C031209AD5C8C0371
:101C13001209AD9E8D031209AD948E031209ADBE58
:101C23008E031209AD148F031209AD6D8F031209D0
:101C3300ADE08F031209AD1692031209AD98930319
:101C43001209AD8394031209ADCD95031209AD05B5
:101C530098031209AD029B031209AD119B031209EC
:101C6300ADA59B031209AD509C031209AD939C03D0
:101C73001209ADFB9C031209AD179D031209AD4672
:101C83009D031209AD859D031209AD809E031209C0
:101C9300AD2F9F031209ADACA1031209ADDEA20360
:101CA3001209ADB6A3031209AD38A4031209AD6D31
:101CB300A8031209AD9CA8031209ADF7A8031209E2
:101CC300AD2AA9031209ADA2A9031209ADD5A9032F
:101CD3001209AD36AA031209AD86AA031209AD5340
:101CE300AB031209AD0CAC031209ADD0AC0312095E
:101CF300AD4AAF031209ADACB0031209ADFDB10398
:101D03001209AD21B3031209AD24B3031209AD5374
:101D1300B3031209AD4BB5031209AD0AB603120999
:101D2300AD39B6031209AD57B7031209AD1FB80396
:101D33001209ADDDB9031209AD0FBA031209AD5192
:101D4300BA031209AD50BB031209ADC3BB03120999
:101D5300ADECBD031209AD4BBE031209AD9FBE032B
:101D63001209ADCEC0031209ADB1C1031209AD39D9
:101D7300C2031209AD27C3031209AD3BC303120902
:101D8300AD4FC3031209AD7CC3031209ADACC3034A
:101D93001209AD67C5031209AD79C6031209ADCEA9
:101DA300C6031209AD17C7031209AD3EC7031209D3
:101DB300AD06C8031209ADACC8031209AD32CA039C
:101DC3001209AD79CA031209ADEBCA031209AD407A
:101DD300CC031209ADE9CC031209AD1DCD031209E1
:101DE300AD35CD031209ADD8CD031209AD54D003DF
:101DF3001209ADFCD1031209AD1AD2031209AD3891
:101E0300D2031209AD04D3031209AD52D60312094A
:101E1300AD4481011209AD7C81011209AD708601C7
:101E23001209ADBC86011209AD0287011209AD3852
:101E330088011209AD9D88011209AD128A011209A8
:101E4300AD1C8D011209AD458E011209AD589801E3
:101E53001209ADE898011209ADD29B011209ADDF59
:101E63009C011209AD429D011209AD8A9E0112091E
:101E7300ADF8A0011209AD8AA2011209AD17A301A1
:101E83001209AD36A4011209ADC3A4011209ADCDE7
:101E9300A4011209ADF5A4011209AD95A50112091A
:101EA300AD80A6011209AD4DA7011209AD6AA701C4
:101EB3001209AD93A7011209ADC0A7011209AD071D
:101EC300AA011209ADD6AA011209AD15AB01120977
:101ED300AD97AB011209AD38AC011209AD6AAC0183
:101EE3001209ADB1AC011209ADE4AC011209AD2880
:101EF300AD011209AD77AD011209AD7CAD01120937
:101F0300ADD8AD011209AD1CAE011209ADF6AE019B
:101F13001209AD5BAF011209ADC1AF011209AD3CAE
:101F2300B0011209ADA4B3011209ADA7B40112099E
:101F3300AD25B6011209AD3BB9011209ADDDB901F9
:101F43001209AD26BC011209ADE1BC011209AD2095
:101F5300BD011209ADF8BE011209AD15BF01120989
:101F6300AD1EBF011209AD27BF011209AD32BF017A
:101F73001209AD51BF011209ADF5C0011209AD52ED
:101F8300C1011209AD5CC1011209AD66C10112099B
:101F9300ADC5C1011209AD0FC2011209AD10C301D4
:101FA3001209AD67C3011209AD78C4011209ADC1AD
:101FB300C4011209AD7BC5011209AD92C601120914
:101FC300AD67C7011209ADAEC8011209ADB2C901AF
:101FD3001209ADABCA011209ADC3CA011209ADFAA8
:101FE300CA011209AD04CB011209AD0FCB011209CD
:101FF300AD2DCB011209AD75CB011209ADD3CB01C8
:102003001209ADFACB011209AD0CCC011209ADC115
:10201300CC011209ADFACC011209AD1CCE01120993
:10202300AD6FCE011209AD55CF011209AD7CCF01C1
:102033001209ADECCF011209AD68D0011209ADC48C
:10204300D1011209ADEBD2011209ADADD3011209D1
:10205300AD7BD4011209AD39D5011209AD21D601E9
:102063001209ADCBD6011209AD33D7011209ADE880
:10207300D7011209AD44D8011209AD9CD801120948
:10208300AD62D9011209AD85D9011209AD40DA015A
:102093001209AD62DA011209ADC3DA011209ADF317
:1020A300DC011209ADECDD011209AD98DE01120964
:1020B300ADB9E0011209AD02E1011209AD4DE10133
:1020C3001209ADA9E1011209AD07E2011209AD2B15
:1020D300E2011209AD4FE2011209AD84E2011209D6
:1020E300ADACE2011209ADF1E2011209AD45E30124
:1020F3001209AD9EE3011209AD98E4011209AD3650
:10210300E6011209AD7BE6011209ADA4E60112094D
:10211300AD2DE7011209ADA0E7011209ADAEE7014C
:102123001209ADD2E7011209AD28E8011209AD4346
:10213300E8011209ADFEE8011209AD2AE90112090D
:10214300AD6DE9011209ADD0E9011209ADDEEB0174
:102153001209AD0AEC011209ADC5EC011209ADA9D2
:10216300ED011209AD3DEE011209AD76DE0412094F
:10217300ADAEDE041209ADCFDE041209AD11DF04EA
:102183001209AD75DF041209AD7FDF041209AD8FAB
:10219300DF041209ADC6DF041209AD6FE3041209AF
:1021A300AD37E5041209AD1BE7041209ADBDE70421
:1021B3001209AD47E8041209AD122D001209ADBB97
:1021C3002D001209AD9A2E001209ADA62F00120997
:1021D300ADC62F001209ADE830001209AD983200E8
:1021E3001209AD0533001209ADD633001209ADDC77
:1021F30034001209AD5435001209AD8F35001209B0
:10220300ADE835001209AD2336001209AD6C360076
:102213001209AD0037001209AD9637001209AD6BF4
:1022230038001209AD3E39001209ADCC390012094C
:10223300ADF239001209AD1F3A001209AD503A0050
:102243001209AD1D3B001209AD2D3B001209AD80F3
:102253003B001209AD8D3B001209AD9A3B001209F8
:10226300ADA33B001209AD073C001209AD653C006C
:102273001209ADB03C001209ADCB3C001209ADF21E
:102283003C001209AD0F3D001209AD1B3D001209C0
:10229300ADAC3E001209ADC53E001209AD413F0091
:1022A3001209AD543F001209AD643F001209AD0895
:1022B30040001209AD7441001209AD8742001209B2
:1022C300AD2743001209AD3143001209ADB04300FD
:1022D3001209ADC143001209AD0044001209AD2E2D
:1022E30044001209ADFB44001209AD524500120926
:1022F300AD8B45001209ADE145001209ADFF450064
:102303001209AD4D46001209AD1847001209AD661A
:1023130047001209ADB347001209AD364800120950
:10232300AD6048001209AD9648001209ADA54800FA
:102333001209AD0449001209AD7C49001209ADBD73
:1023430049001209AD0D4A001209AD384A001209BD
:10235300AD524A001209AD6C4A001209AD414B005F
:102363001209AD4B4B001209AD864B001209AD9615
:102373004B001209AD9F4B001209ADF04B0012093F
:10238300AD044C001209AD264D001209AD3B4D00C2
:102393001209ADCE4D001209AD424E001209ADE750
:1023A3004E001209ADF24E001209AD55500012094C
:1023B300AD7150001209ADBD50001209AD2B510093
:1023C3001209AD5D51001209AD7751001209ADD765
:1023D30051001209AD7652001209ADC15200120923
:1023E300AD1455001209ADAC55001209AD235600CA
:1023F3001209AD8058001209AD9858001209AD9B1F
:1024030058001209ADA758001209ADBB58001209B4
:10241300ADC358001209ADFA58001209ADEE5900C8
:102423001209AD785A001209ADFA5A001209AD7AB1
:102433005B001209AD515C001209AD735C00120917
:10244300AD0C5D001209AD695D001209AD6C5D0054
:102453001209ADDB5D001209AD275F001209AD3A29
:1024630060001209ADC560001209ADD86100120900
:10247300AD9F62001209ADD062001209ADF6620091
:102483001209ADFF62001209AD2E63001209ADDE21
:1024930063001209AD8E64001209AD0165001209D3
:1024A300ADA465001209AD1766001209AD566600AA
:1024B3001209AD9F66001209AD8CC3051209AD2444
:1024C300C3051209ADA0C2051209ADD3C80512098F
:1024D300AD6BC8051209AD56C8051209AD46C8054E
:1024E3001209ADE4FF031209ADF8FF011209AD3F74
:1024F300C6051209ADA1C5051209AD90C50512099E
:10250300ADC5FD031209ADE9FC031209AD07FC03D8
:102513001209AD66FA031209AD25FA031209ADFCDF
:10252300F9031209ADB0F9031209AD1FF90312093A
:10253300AD8FF8031209AD6DF8031209AD15F80359
:102543001209ADD1F7031209AD5EF7031209AD030A
:1025530091051209ADF9F6031209AD6C8E05120946
:10256300AD408E051209AD75CA051209ADA6AD05BC
:102573001209ADD4AB051209ADFFAA051209AD8648
:10258300AA051209AD78AA051209ADA8F603120926
:10259300ADCFF5031209AD3FF5031209ADF3F40313
:1025A3001209AD33C8051209AD6EF4031209AD2942
:1025B300F4031209AD0DF4031209ADACF2031209D1
:1025C300ADE3C7051209AD7EF2031209ADB48B0268
:1025D3001209AD4BF2031209ADCFF1031209AD019C
:1025E300FE021209AD9FFD021209AD6AFD02120936
:1025F300AD37FD021209AD0FFD021209ADA5FC02B4
:102603001209AD87FC021209AD58FC021209AD1F75
:10261300F9021209AD0CF7021209AD0FF502120906
:10262300AD8FF4021209AD3DF4021209ADAAC7053C
:102633001209ADF1F3021209AD84F3021209ADAB35
:10264300820200000080FBE473870001005D1C35FB
:10265300000400221C25000200261C26000200287C
:102663001C270002002A1C28000100341C29000139
:1026730000351C84000400361C860001003A1C2A25
:102683000001003B1C2B0001003C1C2C00010040FE
:102693001C2D0008004E192E000100411C2F0001C3
:1026A30000421C30000100431C31000100441C3275
:1026B3000001005619330001005719340001004589
:1026C3001C36000100581938000100461C3900016E
:1026D300003F1C830002005B1C630001006419645B
:1026E3000001003D1C650001003E1C6D00010065FA
:1026F30019710008004619660001005A1C430001C5
:10270300004B1C440002004C1C450001004E1C46BB
:102713000002004F1C470008005C194800010051EB
:102723001C4B000100521C040001005E1CA10001AF
:1027330000611C37000100601C880001005F1C3C25
:1027430000010059193D000100471C4900020053D4
:102753001C6700010066194D000200551C4E000164
:1027630000571C4F000200581C3E0001005B19512A
:10277300000100481C52000100491C530001004A9B
:102783001C540001005A190000000000000001362B
:1027930036010100010201000103010001040106E9
:1027A3000605020000070100340801000F090401B7
:1027B300010D0100FF0E08000017020000190100BF
:1027C300FF1A0100011B0100FE1C0100081D02008D
:1027D300001F01000120010001210200002301006C
:1027E3000F2402000026010001270100082802002F
:1027F300FF2A0100072B0102402C0100002D0100DC
:10280300012E0100012F0100FF30010B1D310800D3
:10281300003A0100083B01000F3C0100013D0100AB
:10282300FF3E04000042040000460400004A040086
:10283300004E04000052040000560400005A040035
:1028430000010371030103010301030103010322D7
:10285300030203010310030003000300030003004A
:1028630003000300034203000324030603000300E1
:10287300030403120325032303250323030403048F
:1028830003000300030003440300030003230300C6
:1028930003650321003503810300030503000300DF
:1028A30003000300032503230303027102300160C5
:1028B300021102700201020202020280021002618E
:1028C300023A004100630273027202620243020091
:1028D3000213023800000200020402120200020086
:1028E300020002000204020402370037003C0244E3
:1028F3000200023900000200026502000235028173
:102903000200020502820283020002010171010139
:1029130001010111010101310101010101800110D6
:102923000161013B00140063017301720162014301
:10293300010001130106013D0135000401120100EC
:102943000100010001000104010401330133013CD2
:102953000144013201360000010001650100013527
:10296300008101000105018201830100010304715B
:10297300040204600411047004020402040104024A
:1029830004100461040004140463047304720462F5
:1029930004430400041304060400040004040412A2
:1029A3000400040004000400045104640000040053
:1029B300040004440400040004000400046504004B
:1029C3000435048104640005040004830400040343
:1029D30000710030016000110070003102200350CB
:1029E3000480001000610000001400630073007293
:1029F3000062004300000013000600000000000412
:102A03000012000000000000000000040004003772
:102A13000037003C02440000000000000000006595
:102A23000000003500810000000500000083000065
:102A33000036000100060000000F00000000000047
:102A43000000000000000003FFFF00000403FFFF7D
:102A53000000FFFF0FF4010005C404032000010080
:102A6300000B000000000000000003010F00000045
:102A73000000000000000000000000000000000053
:102A8300000000000000000000000000000000370C
:102A93001385133D137112000000000000000000B5
:102AA3000000000000000043137112491371124F1C
:102AB300137112551371125B137112611371126743
:102AC300138B136D1371120000000000000000004F
:102AD30000000073139D137913711273139D1379FF
:102AE30013711267138B137F1371120000030020FD
:102AF30001408100000000200141810000040042E8
:102B0300014B800000050042013A800000060042AC
:102B1300015C800000070020014381000010004297
:102B230003F21B000011002003D217000012001053
:102B330003031C060000001001D5170A0000000261
:102B43000000000400000008000000100000002046
:102B530000000040000000800000000001000000B1
:102B63000200000004000000080000001000000044
:102B73002000000040000000008B16130037161FD2
:102B8300003D161F80431601008B160200FB150340
:102B93000001160400071605000D16060019163667
:102BA300002B16FFFF000001531E067D1E08771E33
:102BB3000B951E10711B02591E056B1E075F1E0C21
:102BC3003B1E0D471E647F19FF000007ECFDFDFD52
:102BD300ECDCDCCCBCACAC9C9C8C7C7C6C6C5C5C22
:102BE3005C4C4C3C3C2C2C1C1C03EAF5E5D5D5C5B0
:102BF300B5A59595858575756565555545453535F2
:102C0300252515150500160F00000B150B020002F4
:102C1300220F3300000E01030507090B0D0F0002FD
:102C23000406080A0C0D0000000406000004060058
:102C33000104060002045A6967426565416C6C69C8
:102C4300616E6365303900393D3F373C3C362C4477
:102C53002D00034A49434E181A2505023030171830
:102C63001921301B1D1F30000119161816161823C1
:102C73000300303016181920231A1C1E300C0E02C4
:102C83000B040B0A0708000F0204020101010109EA
:102C930002E803000000BE040A00007F000E00E803
:102CA30003000005040400100803030A1E0C0A10A5
:102CB300080C281EFF000903010C0508150404E095
:102CC30004123542A2E792AF22E4F0A3F0A3F0226C
:102CD300A3122CCCA3F0227F0C020753E0F508E4E7
:102CE300F509F50AF50B227401F09004ABE0640FCB
:102CF3002274091209DD7F04020753A3A3E024F51C
:102D0300C39413229004CB12583B7A147B0022C045
:102D130082C083901A807419F0A37422F0A3742BD9
:102D2300F0A37422F0901A847401F0A37422F0A328
:102D330074FBF0A37421F0A37437F0A37422F0A3FF
:102D4300743DF0A37422F0A37431F0A37422F0A3B2
:102D530074E9F0A37421F0901A90740DF0A3742217
:102D6300F0A37413F0A37422F0A37407F0A37422E6
:102D7300F0A37443F0A37422F0901AA1124DC8601B
:102D830006125032121157901A9E1244EB7408F037
:102D9300A3E4F0A3F0901B41F0901AA3F07C0BFD89
:102DA300F97AA47B1A12108B7C0B7D0079007AAF21
:102DB3007B1A12108B0244F474F712048C74F7120A
:102DC3000A90EAFEEBFF1243127405122E88740375
:102DD300F0EE2402FAE43F122E62242DFCE43FFDC0
:102DE3008C828D83122FA0122E7160081236EA7422
:102DF300FFF0A3F0EE242BE43F1C1CFD8C828D839B
:102E0300A3E0C0E08A828B83124323D0E0122E71A9
:102E130088828983124B1B240312560512124774AE
:102E230008120CD07403F09004C0120855740212F7
:102E33000A707903EEFAEFFB1223DB74021209DD49
:102E4300E9F5087007EEFAEFFB1222BBA908740933
:102E53000236FAF582E43FF583126270124B10FBDF
:102E63008A828B83122E80E8F0A3E9F0EE221258B7
:102E730059122E80E8F0A3E9125DD5E022122F6BE0
:102E83008A828B8322F0A3E4F0122E9022EE240D8B
:102E9300F582E43FF5832274F112048CEAFEEBFF22
:102EA3008C088D09890A122F758A828B83122F6BE6
:102EB300740F120CD0122F8EE824FF18E934FFF997
:102EC30088828983E50A122F809004C5122F7D9092
:102ED30004C4122F7D7411120CD0122F8EEE240411
:102EE300FCE43FFD880B8A828B83E0F50C8C828D9A
:102EF30083E0250CC3950B125855E8F0A3E9124261
:102F03007FA3A3A3A3A3A3A3A3E064037008124511
:102F1300DBF0A3E48003123281122E8B7409F07567
:102F23000CA4750D1A750E00780C1209FC1232757B
:102F330012107F74031209DD750CFF750DFF780CF9
:102F4300120A00AC08AD097903EEFAEFFB1223DB9A
:102F530074021209DDE9F5087007EEFAEFFB12229D
:102F6300BBA9087F07020753E024FFF8A3E034FF5F
:102F7300F922EE2402FAE43FFB22122FA0122F843F
:102F830022F0E824FF18E934FFF922E0F50CA3123C
:102F93002FA0122F8488828983E50CF022E0888297
:102FA300898322C082C083901AC0E0C3940840047E
:102FB30074078001E08A828B83F033333354F8F94A
:102FC3000244F474F012048CEAFEEBFF890C8C0EBD
:102FD3008D0F750A00A2AFE433F50BC2AF901ABA96
:102FE300803F1230AE50371230BF64037030EE248E
:102FF300F9FEEF34FFFF850882850983A3A3E0244C
:1030030005FCA3E03400FDEEFAEFFB121247EE24B9
:10301300FF1EEF34FFFF7410250AF50A150C124248
:103023004C12626CE50C6006E508450970B4E50BCB
:10303300A2E092AFA2AFE433F50BC2AF901ABA800D
:103043002C2402FAE43509FB8A828B831258442428
:1030530006F582E438F5831230CC8A828B831230F2
:10306300B4A3A31230CC050A150C12424C124261D0
:1030730060221230BF640270F11230AEE50840C125
:103083001233AFA2E550E3850E82850F837401F0FE
:10309300E50C70D6E50BA2E092AF8E828F83E50A32
:1030A300F0EE24FFFAEF34FFFB80351233BAA2E6C9
:1030B300221230B822125C39A3A3A3228508828589
:1030C3000983125C3312526D22E08E828F83F0EEFD
:1030D30024FF1EEF34FFFF221224A774041209DD1C
:1030E3007F0802075374EC12048C74F5120A90895A
:1030F300138A128B0F851882851983E4F004120A50
:10310300681221CBE9F89004AAE0292434F508FADF
:103113007B001210A38A0A8B0BAE0AAF0BEE4F7023
:1031230003023269EE2402F50AE43FF50BA808EE28
:1031330028F8E43FF9850A82850B83122E6A24045A
:10314300F510E43FF511851082F583E4F09004AAAD
:10315300E0FCF8C3E498F895E0F9850A82850B83CF
:10316300E028F508A3E039F5099004A81254FD7589
:103173000E00780C1209FC7D00AA08AB0912107F1F
:1031830074031209DDAC18AD197401120CD0E0F907
:10319300E50824FFFAE50934FFFB1221D18A828B6B
:1031A30083E4F0EA24FFF508EB34FFF509E50FC4E7
:1031B30054F0F9901B42E0C4333354C0F89004A494
:1031C300E0A2E0E43313134849440F123289E512B5
:1031D300C454F04513850882850983F0A808850A3D
:1031E30082850B83E0FA851082851183E02AC398D8
:1031F300F0850A82850B83E8F0A3E509F01232819A
:10320300122E8BE4F0740A120CD0E4F07508AF753B
:10321300091AF50A78081209FC12327512107F7424
:10322300031209DD851882851983E06009EE240EF7
:103233001243A84408F01223C3E9F9E4F508F50999
:103243007808120A007404120A70EEFAEFFB1223D4
:10325300DB74021209DDE97006EEFAEFFB800BEE78
:10326300FAEFFB1210A97A007B00740B1209DD023E
:103273002CDA7C0B7D00EE2418FAE43FFB22124388
:1032830016E4F0A322E08508828509831232932293
:10329300F01254D12274F312048C8A0A8B0BA2AF5E
:1032A300E433F50CC2AF750800750900901ABA80B3
:1032B3002C1234D65024850A82850B83A3A312666D
:1032C300998E828F83A3A31250351223C9E9600A12
:1032D3001232FCC2E6F08E088F091234CB12378407
:1032E30070CFE508450960061233B6D2E6F0E50C67
:1032F300A2E092AF7F05020753123300221254EA71
:10330300E02274F012048CEAFEEBFF8C0C8D0D7539
:103313000E00A2AFE433F50FC2AF750800750900C4
:10332300901ABA8020850A08850B091233B6D2E4B5
:10333300F0E5081233AFD2E7F0E50A24FBF582E5A6
:103343000B34FFF583E0F50AA3E0F50BE50A450B23
:103353006043E50A124137350BF583E0A2E750D904
:10336300850A82850B83A3A3120855AC0CAD0DEE21
:10337300FAEFFB1223CF74021209DDE960BBE50803
:10338300450960A1E508240D1233C26401700612D9
:1033930033CBD2E4F0E50FA2E092AFE50845096034
:1033A300061222B5750E01A90E0230E31241611215
:1033B30033C5221233BA22E50824111233C222F58F
:1033C30082E43509F583E022850882850983125C4E
:1033D30033E02274F212048C74FE120A90750C000E
:1033E300750D00851882851983E4F0A3F0A2AF332D
:1033F300F50AC2AF901ABAE0FEA3E0FF8035EE24CF
:10340300FBF582EF34FF12626A780C120A00EEFCBD
:10341300EFFD7ABA7B1A1210D974021209DDEEFCA1
:10342300EFFDAA18AB191210C7AE08AF09901AC066
:10343300E014F0EE4F60271234D6501DEE240BF843
:10344300E43FF988828983E024FFF0A3E034FFF0AE
:1034530088828983124DC860A51234C78099E50A12
:10346300A2E092AF901AC0E060319004ABE0640F29
:103473006006901B41E070237A987B1A1224B39064
:1034830080EA1208517A987B1A1224A7740412094D
:10349300DD800874F01247121222A9AA18AB191280
:1034A30010CD8A0A8B0BAE0AAF0BEE4F60131221BD
:1034B300DD1232FCA2E28E828F83A350D674E980A0
:1034C300D402378C8E0C8F0DEE24FBF582EF34FF84
:1034D300F58322123300A2E72274F712048CEAFE6A
:1034E300EBFF1221DD12432012264AE96401900406
:1034F300C7700AE02401F8A3E034008004E0F8A3D5
:10350300E0F912496E124D20901AC0E07021900428
:10351300ABE0640F70197A987B1A1224B39080EA97
:103523001208517A987B1A1224A774041209DDA990
:10353300A8C2AF901AC0E004123542A2E7800DF092
:10354300E9A2E7E433F8E922E508A2E092AF0247F3
:10355300AE74F712048CEAFEEBFF123589F01221E8
:10356300DDEEFCEFFD7ABA7B1A1210D3A9A8C2AF25
:10357300901AC0122CC29004ABE0640F7005790856
:1035830012237B0247AE123300C2E42274F7120403
:103593008C74EA120A90EAFEEBFF9004A4E0604008
:1035A3008518828519837401F0120CD0E4123661F8
:1035B300120CD0AA82AB831212478E828F831233EE
:1035C300D1C0E0740A120CD0D0E012586A740B1206
:1035D3000CD0AA82AB831223F3AA18AB1912187169
:1035E30074160236FA74F712048CEAFEEBFF12210A
:1035F300BFE9F974DC69601E74DD69601974E469FC
:10360300601474F369600F74DE69600A74DF6960C3
:103613000574DB697007EEFAEFFB1223810247AEF4
:1036230074F712048C74EB120A90EAFEEBFF851810
:10363300828519837406123661120CD0AA82AB8379
:1036430012124712586F740A120CD0AA82AB83125B
:1036530023F3AA18AB1912187174150236FAF0EE97
:103663002413FCE43FFD74022274F712048C74F7F4
:10367300120A90EAFEEBFFEE242D1243A8606512B6
:103683003F39AA18AB191212477408120CD07403ED
:10369300F09004C01208551236EA1208559004D36C
:1036A300E0F97404120A70EEFAEFFB1221C57404F8
:1036B3001209DDE9F974DC69602374DD69601E7445
:1036C300E469601974F369601474DE69600F74DF70
:1036D30069600A74E869600574DB697007EEFAEFE4
:1036E300FB122381022E51EE1236EF22242BF58298
:1036F300E43FF5832274031209DD0247AE74F2122C
:10370300048C8A088B09750C00750D00750AE7A2F5
:10371300AFE433F50BC2AF901ABA80031234C71269
:10372300378460351234D650F31243A5640170EC2C
:10373300EE242FF582E43F123933E06870DE780C13
:10374300120A00EEFCEFFD7ABA7B1A1210D974024A
:103753001209DD901AC0E014F0E50BA2E092AFEE7F
:103763004F6013EEFAEFFB1221DD79F0EEFAEFFB77
:10377300122381750A00A90AAA08AB0912238180C2
:103783000DE0FEA3E0FFEE4F2274021209DD7F0677
:1037930002075374F412048C74F7120A90EAFEEBD6
:1037A300FF8E828F83A3E064F370030238408E821E
:1037B3008F83A3E064DF70030238408E828F83A37C
:1037C300E064E860788E828F83A3E064DB606E122E
:1037D300221FE9F508705EEE240E1243A86056120C
:1037E300384A122267EA4B604C7408120CD0123824
:1037F300541208557508FF7509FF7808120A008EE0
:10380300828F83A3A3A3A3A3A3A3A3E0F9740412A6
:103813000A701221C574041209DDE9F50874F36511
:1038230008601274DF6508600C74E865086006744C
:10383300DB6508700F8E828F83A3E508F0EEFAEF45
:10384300FB12222B022CF4EE240FFAE43FFB79093E
:1038530022740212603274FFF0A31238612212380C
:103863006522124B24A3A32274F512048C8A088BBD
:10387300097E008A828B83A3A3A3A3A3A3122CFE96
:1038830040027EE88A828B83A3A3A3A3A3A3A3A35B
:10389300A3A3E0C3941040047EE880138A828B8341
:1038A300A3A3A3A3A3A3A3A3A3A3E0640F600A906A
:1038B3001B1EE0540870027EE8EA240BF582E4350F
:1038C30009123933A3A3A3A3A3A3A3A3E0C39850CB
:1038D3000CEA240B1233C2640F60027EE89004C426
:1038E300E0F47003A3E0F470027EEC7A237B001211
:1038F3001151901AA1125045901AA1124DC8602976
:10390300850882850983A3A3A982AA8389088A09D2
:10391300750A0078081209FC7C237D0012503212CC
:10392300107F74031209DD80027E1AEEF90261D35F
:10393300F583E0F88A828B83A3A32274F512048CA7
:10394300EAFEEBFF8E828F83A3A3A3A3A3A3A3A368
:10395300E09004AB125F159004C6125EFB9004A6C0
:10396300125F1A901B42F0F9120E2D901B42E06079
:1039730018EE2404FAE43FFB7950120E15EE2406E8
:10398300FAE43FFB79E1120E15901B41122CEA6019
:1039930004740180027400901AA3125F011209FCDF
:1039A3007C0B7D007AA47B1A12107F74031209DD4D
:1039B300EE2418F508E43FF50978081209FC7C0B9E
:1039C3007D007AAF7B1A0261CB74F712048CEAFE96
:1039D300EBFF8E828F83A3E07006125032122225F2
:1039E3008E828F83742C12471212238D0247AE747A
:1039F300F712048CEAFEEBFF901AA1124DC8600D7A
:103A0300125032901AA1E4F0A3F01211578E828F54
:103A13008374081247121218710247AE74F6120427
:103A23008C901B41E06013901AA3E0700D123A4092
:103A33001221D7EA4B60031222BB025B759004A6E6
:103A4300E0FB9004C6E0FA9004ABE0F92274F412B0
:103A5300048C74E7120A90EAFEEBFF750B018E8269
:103A63008F83A3A3A3A3A3A3A3E0A2E25068EE249E
:103A73002BF582E43F126697123B0E1221E3E970A5
:103A8300559080B3E064017005750B008048123BCC
:103A9300161209FC7C0B7D007411120A6812107F48
:103AA30074031209DD1223C3E9FA740E120A608843
:103AB3000889097808120A00750830750900780822
:103AC300120A001236EA12085512580B7901122312
:103AD300E174061209DD8518828519837410123684
:103AE30061120CD0AA82AB8312123B1236EA12582F
:103AF30037740B120CD0124D20740D120CD0E50B41
:103B03001245851218717419022CF6EE2413FAE487
:103B13003FFB22EE2408125F0922C082C083901B60
:103B230042E060031224350244F4C082C083901B38
:103B3300397480F0A3741AF0A37484F0A3741AF098
:103B4300A37490F0A3741AF0901C757470F0A374AE
:103B530029F0901B2374B9F0A37421F0901AC57453
:103B6300EFF0A37421F0901AC774F5F0A37421F059
:103B7300901B1EE044028001E4F00244F4C082C0C2
:103B830083EAFCEBFD7903024B90C082C083EAFC1D
:103B9300EBFD7905024B90C082C0837908025D0674
:103BA300C082C08374FE120A90901ACD74A3F0A34E
:103BB3007422F0901ACF749DF0A37422F0800D7AD2
:103BC300BA7B1A1210CD12457B1223B1901ABA1286
:103BD3004DC870EB901ABC124DC8600F7ABC7B1AAB
:103BE3001210CD12457B1223B180E9901ABAE4F08A
:103BF300A3F0901AC0122CCD740280027411120922
:103C0300DD0244F474F612048CE9FF744929F58249
:103C1300E4342CF583E493FEFA7B001210A3EA4B01
:103C23006011EA2E124D168A828B83A3A3A3A3E409
:103C3300F0802C7A027B001210A3EA4B601D745FA4
:103C43002FF582E4342CF583E4938A828B83F0A3EB
:103C5300741AF0901B19E0F91210AF7A007B00027E
:103C63005B75E9FC740629F8EAA2E0501EE875F0DA
:103C73000A84E5F0F96014740A28C399F8E9C39437
:103C8300054004740A28F8740B28F8ECC394134015
:103C9300047A1480027A06EA2879002409F850018C
:103CA300097A0A7B0012033CE8F90209AAC082C020
:103CB30083901B1EE05402600A121877E9600479AE
:103CC30001800279000244F4C082C083901B1EE08D
:103CD30054026016901AC0E0700C124DC5600BE0E0
:103CE300C812425950047901800279000244F4C099
:103CF30082C0839080B0E0F8901AC2E0C398500568
:103D03001210A380047A007B000244F4C082C083B3
:103D13001223B179000244F474F712048C74FE1276
:103D23000A90851882851983EAF0A3EB123E8AA3D1
:103D3300A3A3A3A3E0600A14606024FE6069023EAB
:103D43000B9004ABE0640F6018122387E9701285AF
:103D53001882851983125035901AC91243231226EB
:103D63004A9004D3E0C0E0851882851983124AEE95
:103D7300D0E0123E8A741412602E1266997ABC7BCC
:103D83001A1210C7A8A8C2AF901AC2E00412504B6F
:103D9300792012237B74020236FA851882851983EF
:103DA300125C3B741580D0851882851983123E6D91
:103DB300A3A3E06053851882851983E02402F8A346
:103DC300E03400F98882898312646CE0C0E08518CE
:103DD30082851983E0FCA3E0CC2406F582E43CF55C
:103DE30083D0E012587788828983125045851882E0
:103DF3008519831241558518828519836013123EF4
:103E0300726005123E7A4043AA18AB191223B1809F
:103E130084123E7260F2123E7A501C124269FA8595
:103E23001882851983123E74F8748A124D11342C4A
:103E3300F583E4936A6014851882851983123E72B0
:103E4300640870C4124269640870BD124269141296
:103E53003E92240AC0E0851882851983124323D039
:103E6300E0123E9204023D7AE0F8A3124B3B22E0BB
:103E7300F8A3E0123E9922851882851983125848C7
:103E8300123E9AC3940A22123EA4F5838882221218
:103E93003EA4123E9922C82406F582E438F583E055
:103EA30022126032E0F8A3E022C082C083901AD1CC
:103EB300124DC86008125C3C12264A800279000247
:103EC30044F474F712048CEAFEEBFF122E90740193
:103ED300F0EE2430F582E43FF5831255A5122E6AE5
:103EE30024321243A8C0E0EE2413F582E43FF583A5
:103EF300D0E0F0EE24331243A8C0E0EE2414F582A0
:103F0300E43FF583D0E0F0EE242CF582E43FF58323
:103F1300120855123F39EE242E1243A8F91223DB5F
:103F230074021209DDE9F5087007EEFAEFFB1222BD
:103F3300BBA9080247AEEE2423FCE43FFD22C08266
:103F4300C083122387E96004792080027901024447
:103F5300F4C082C083EA124137123FF8D2E0023B39
:103F63007CC082C083123FF264017011123FFD4096
:103F73000C8A828B83A3E0F9122381806FEA2410D9
:103F8300123FF5A2E650128A828B83A3E0F9901ABE
:103F9300CB12432312264A8053123FF26401700D61
:103FA300123FFD50088A828B83743080368A828B5D
:103FB30083A3E0641B8A828B83700474228024A30E
:103FC300E0700D123FF2F87475124D11342C800B12
:103FD300123FF2F8745F124D11342CF583E4938A87
:103FE300828B83F0901B19E0F91210AF0244F4EABC
:103FF300240DF582E43BF583E022EA1241613BF5AF
:1040030083E0A2E32274F712048CE9FE124DC5701B
:104013000302412EEE6011741B6E7013E0C812414F
:1040230031640570030240F9125C2BE40240FD7415
:10403300E96E706212414D700B12187DE960051232
:104043004167606279EE120D97901AC312414A904C
:104053001AC3603B12416A901AC3700B12414A148F
:10406300F0120F4D02412E124155C2E71242751252
:1040730041316403700C125841124137123E9FD2F2
:10408300E2F079ED120D9712413D12264A80751226
:104093005C2E74E9806474E16E703E12187DE960F1
:1040A3005512416770509004CDE0C0E0125841248E
:1040B30012F582E438F583D0E0F09004BCE0C0E070
:1040C300901AC3123E6B123E6BD0E0F09004BCE03A
:1040D30004F07901120F358052741C6E7018901A17
:1040E300C3125035901AD312432312264A901AC38F
:1040F300E4F0A3F08035125C2BEEF0901AC312505B
:10410300351222A9125841125813E05480601090BE
:1041130004D3E0F9120E519004D2E0F9120E459047
:104123001AC3E4F0A3F0791012237B0247AE240DE7
:10413300123E9C222411F582E422901AC3125039B4
:10414300901AC7125C3522E0F8A3E0C82412123E8D
:104153009C22E0F8A3E0C8124161123E9F22241082
:10416300F582E422901AC3125848125817E05404F7
:104173002274F412048C750A00750B00A2AFE433A9
:10418300FFC2AF124DC56003024231124320122613
:104193004AE94410F8901ABA800985080A85090B80
:1041A30012424C12426170030242311233B6586814
:1041B30070E8780A120A00AC08AD097ABA7B1A12C1
:1041C30010D974021209DD901AC3E508F0A3E509BA
:1041D300124275124259405D901AC1E014F0EFA2E9
:1041E300E092AF901AC3E0240EF8A3E03400F988FC
:1041F3000889098882F583125035901AC312426FD9
:10420300F912226DE9901ABEF012427DE0548090BB
:104213001AC360261258442413123E9CF9120E51FD
:104223001258412414123E9CF9120E458018EFA235
:10423300E092AF8011901AC080A1124155A2E1B360
:10424300E433F9120F35022CF9E50824FBF582E576
:104253000934FFF583222411123E9CA2E722126245
:1042630070E5084509228518828519831230B8A3A1
:10427300E022F0901AC312584822A3E4F085088282
:104283008509832274F712048CEAFEEBFF1223AB39
:10429300EE24101243A8A2E3400C1243A56401705C
:1042A300059080AE80039080AFE0F9EEFCEFFD7ADD
:1042B300BA7B1A1210DFE96046EEFAEFFB901ACDD3
:1042C30012432312264AEE240E1243A854047020EC
:1042D300A8A8C2AF901AC1E00412502BFAE8A2E7D3
:1042E30092AF124312A3E0540170211222B5801C35
:1042F300EEFAEFFB901AC512432312264A800D8E65
:10430300828F83A374F11247121222A90247AE12BD
:10431300431622EE240EF582E43FF58322901ACF52
:10432300125C3522C082C0831222B50244F474F7B2
:1043330012048CEAFEEBFF7900901B1EE05402701E
:104343000CEE24301243A85404600279E8901B1E3B
:10435300E05460700CEE24301243A85402600279DA
:10436300E88E828F83A3A3A3A3E0F89080B4E0C375
:1043730098500279E8EE242E1243A8700CEE242BF9
:104383001243A8700479F5800BE97005122297E9AE
:10439300F9E96007EEFAEFFB1223810247AE34FF1F
:1043A300F509EE240DF582E43FF583E022C082C0D7
:1043B300838A828B83740DF01218710244F4C082D5
:1043C300C0838A828B83E4F0A3F0EA2430123FF5A2
:1043D30054049080AE7012E0F8901AC1E0C3984084
:1043E3001279F11223810244F4E0F8901AC0E0C379
:1043F3009850EE901B19E0F91210AF80E974F61291
:10440300048CE9FE244CFAE43400FB1210A3EA4BBB
:104413006012EE8A828B83A3A3A3A3F0EA244C1237
:104423004D1680047A007B00025B75C082C08390C6
:104433001AD57403F0A37423F0A37433F0A3742385
:10444300F0A37409F0A37423F0A3740FF0A37423EF
:10445300F0A3742DF0A37423F0A37421F0A37423A9
:10446300F0A3741BF0A37423F0A37439F0A3742393
:10447300F0A3743FF0A37423F0A37445F0A3742353
:10448300F0A37451F0A37423F0A37415F0A3742361
:10449300F0A374FDF0A37422F0A374F7F0A37422C5
:1044A300F0901AF17427F0A37423F0A3744BF0A3D4
:1044B3007423F0A3746BF0A37424F0A37457F0A3D4
:1044C3007423F0A3745DF0A37423F0901B15E4F040
:1044D300901B18F0901B011244EB7402F0901B0A1E
:1044E3001244EB7401023B7C747BF0A37423F0A3AE
:1044F30022D083D0820209AA74F512048C74F112BB
:104503000A908518828519837402F07401120CD005
:10451300E9F060047AFF7BFF7402120CD01250455D
:1045230075080D75091B750A0078081209FC7C0BC8
:104533007D007407120CD0AA82AB8312107F740320
:104543001209DDAA18AB19121871740F0261D07425
:10455300F712048C74FD120A9085188285198374EE
:104563000AF07401120CD0E9F07402120CD0EA12B2
:1045730045851218710236F8851882851983EAF089
:10458300A3EBF0AA18AB192274F612048C74F71279
:104593000A90EAFEEBFF1245DB122E8874021247E3
:1045A30003AA18AB1912123BEE242E122E562430F6
:1045B300125612120A007402120A7079831A1AEF41
:1045C300FB1223DB74021209DDE9F5087007EEFA2A
:1045D300EFFB1222BB025B6E12431674012274F0CE
:1045E30012048C1260B9120C617808790C12039DC5
:1045F30078081209F87A047B1B0230DB74F4120486
:104603008C74C6120A909004ABE0640F6010851896
:1046130082851983742E12458512238D80277AFB98
:104623007B1A1224B3122D0712034488088909E464
:10463300F50AF50B78081209F87AFB7B1A1224A7FE
:1046430074041209DD743A022CF674F512048CEA30
:10465300FEEBFF8E828F83A3E0F860030246ECEE4D
:10466300242D1243A864026007E06403600278E823
:10467300EE2423F582E43FF583122D00400478E80D
:10468300806AE87064EE2423FAE43FFB79E1120EBA
:1046930015EE242EFAE43FFB7950120E15EE242D6D
:1046A3001243A86402700E1258011258379004BACC
:1046B300124D2080129004BA74FEF0A30412470333
:1046C3007AB17B04121247EE2418123B191209FC2B
:1046D3007C0B7D007A0D7B1B12107F74031209DDA6
:1046E300EEFAEFFB1222F1E9F8E86011E88E828F0F
:1046F30083A3125A63741712471212238D0261D3D4
:10470300F0EE2425FCE43FFD228E828F837429F092
:10471300EEFAEFFB2274F612048C74F7120A9090EF
:104723001B18E0703B7401F0F9120EFFAA18AB19C5
:104733001223BD75080D75091B7808120A00750848
:10474300017509007808120A009004C01208557414
:1047530006120A707A0379051223E174061209DD41
:10476300025B7074F712048CEAFEEBFF7901120FFF
:10477300058E828F83E064207004A374EBF0901B9A
:1047830018E0A2E25003C2E2F0E0A2E150081249AD
:10479300B01222EB800C8E828F83742A124712127E
:1047A300238D8007EEFAEFFB1224297F01020753C2
:1047B30074F412048C74FE120A90EAFEEBFF790182
:1047C300120F057AFB7B1A1224B37A047B1B122483
:1047D300B3124AFA851882851983124B2EE0F50B22
:1047E300700FAA18AB197953120E15126260120ECC
:1047F30015123B161209FC7C0B7D007A0D7B1B12F4
:10480300107F74031209DD851882851983125035D0
:10481300A90B1222E5901B18E0A2E1500C7A008E3E
:10482300828F83A3E0F91222EB901B18E4F0740249
:10483300022CF674F712048CEAFEEBFF8E828F8350
:10484300A374EBF0901B18E0A2E150077A0079EB18
:104853001222EBEEFAEFFB1223210247AE74F7129A
:10486300048CEAFEEBFF7901120F057AFB7B1A1227
:1048730024B37A047B1B1224B3901B15E4F0901B22
:1048830018F07AFF7BFF8E828F83A3E0F91222E573
:104893000247AE74F712048CEAFEEBFF12231B02ED
:1048A30047A774F712048CEAFEEBFF7901120F0598
:1048B3008E828F83A3A3A3A3E06004740080027499
:1048C300EB1248F75003C2E2F0E0A2E150081249AC
:1048D300F91222EB8014A2E050108E828F83742A87
:1048E300F0A374EB12471212238DEEFAEFFB1222A0
:1048F300CD0247AE8E828F83A3F0901B18E0A2E215
:104903002274F612048CEAFEEBFF901B18E0D2E14E
:10491300F07901120EFF8E828F83A3E0703C122385
:10492300C3E9FAEE240DF508E43FF5097808120A05
:10493300007508017509007808120A0012496E1201
:104943000855EE2402FCE43FFD79051223E17406C9
:104953001209DDE98E828F83A3F08E828F83A3E019
:1049630060067A00F91222EB025B7512497222EE9D
:10497300240BF582E43FF5832274F712048CEAFEDC
:10498300EBFF7901120F058E828F83E064207004A0
:10499300A374EBF0901B18E0A2E25003C2E2F0E034
:1049A300A2E150061249B01222EB0247AEC2E1F077
:1049B3007A008E828F83A3E0F92274F712048CEAC3
:1049C300FEEBFF7901120F057AFB7B1A1224B38EDB
:1049D300828F83A3A3A3A3E060047400800274EB1B
:1049E3001248F75003C2E2F0E0A2E150061249F97F
:1049F3001222EB0248EDC2E1123861A3E0A2E4E423
:104A030033FA8E828F83A3E0F92274F712048CEABF
:104A1300FEEBFF7901120F058E828F83A374EB12D5
:104A230048FC5003C2E2F0E0A2E150061249B01282
:104A330022EB0247AE74F712048CEAFEEBFF7AFB1B
:104A43007B1A1224B3EEFAEFFB1223450247A77435
:104A5300F712048CEAFEEBFF7AFB7B1A1224B3EE07
:104A6300FAEFFB1223450247AE74F712048C74EF7E
:104A7300120A90EAFEEBFF12580B7AB17B04121272
:104A830035E960628518828519837409F07401120F
:104A93000CD074EFF0124AFAF87402120CD0E81238
:104AA3004B2EA3A3E0C0E07404120CD0D0E0124B51
:104AB3001B640870158E828F83A3A3124AEEE0C095
:104AC300E07405120CD0D0E080067405120CD0E41B
:104AD30012586A7406120CD0AA82AB831223F3AA6B
:104AE30018AB1912187174110236FA1258482407B8
:104AF300F582E438F58322124B10FB8A828B8312F2
:104B0300583B88828983E0FCA3E0F9EC22EE24027F
:104B1300F8E43FF9E8FAE922124B1F22124B24E092
:104B230022F08E828F83A3A3A3A322F0A3E91258BA
:104B330059124B3822E0F8A3125C3CA3A322C08293
:104B4300C0831224350244F4C082C083901B3574A1
:104B5300D5F0A3741AF0A374F1F0A3741AF0901CA7
:104B63006F740EF0A37429F0A374ACF0A37428F04F
:104B7300901B2174DFF0A37422F0901B1EE044010C
:104B8300023B7CC082C083EAFCEBFD7902122399CD
:104B93000244F4C082C0837906025D0674F61204EF
:104BA3008C74FE120A90901B1A124DC860077A1A71
:104BB3007B1B1223B1901B20E4F09017A5124DC864
:104BC30060268007AA18AB191223B1901B19E0F9CC
:104BD3001210BB8A088B09A808A9098518828519B0
:104BE30083124D20E84970DC7402025B7274F71281
:104BF300048CE9FA7B00901B19E0F91210E50247D7
:104C0300AE74F712048C74F0120A90EAFCEBFDE91F
:104C1300FE8C828D83E0F87480124D11342CF58361
:104C2300E493C0E07401120CD0D0E0F0640B700D7B
:104C3300EE8C828D83A3F0122417024D04E07003DF
:104C4300024D04640C6003024CF5741A6E700B740D
:104C530004120CD0E4F0A3024CF47404120CD0EC54
:104C6300F0A3EDF0EC242F124D09C0E07403120CF5
:104C7300D0D0E0125DCC120C897406120CD0120C49
:104C83007D8C828D8312582E740A120CD0124D2003
:104C9300EC240E124D09541060098518828519837E
:104CA300E48013EC2412124D09F89004CDE0C3986C
:104CB300851882851983F0E0C0E0740C120CD0D003
:104CC300E0F0EC2415124D09C0E0740D120CD0D0A5
:104CD300E0F0EC2416124D09C0E0740E120CD0D093
:104CE300E0F0EC2417124D09C0E0740F120CD0D081
:104CF300E0F07402120CD0EEF07401120A6812187C
:104D03007174100236FAF582E43DF583E02228F54A
:104D130082E422F8E43BF98A828B83A3A3E8F0A31D
:104D2300E9F022C082C083901B20E0640370047901
:104D330001800279000244F474F712048C901B2062
:104D4300E0124DB21266978A828B83E0C2E7F025A8
:104D5300E0F8EC124D113DF583A3E493FE124DB23E
:104D6300F583124DC86005EE901B20F08A828B8379
:104D7300E0124DBEEC28F582ED39F583E493FCC4D3
:104D8300540F25E0F8742F124D11341BF583124D87
:104D9300C870051224058014EC540F25E0FCE82CA0
:104DA300F582E439F58312432312264A0247AE12F1
:104DB3004DBE746D28F582741C392225E0F8E43366
:104DC300F922901AC312583BE8492274F112048C59
:104DD30074FE120A90890AEAFEEBFF124ECAFA7BAE
:104DE300001210A38A088B09EA450960388A828B6E
:104DF30083E50AF0A3E4F08E0C8F0DF50E780C1208
:104E030009FCA80A124ED7EA2402FAE43509FB1278
:104E1300107F74031209DDAA08AB09901B19E0F98E
:104E23001210AF8012851882851983E50AF0791A6A
:104E3300AA18AB1912238174021209DD022F6674BA
:104E4300F212048C74FE120A90890B8A088B0912E1
:104E53004ECAF50AFA7B001210A38A0C8B0DAE0C16
:104E6300AF0DEE4F604A8E828F83E50BF0A3E4F023
:104E7300A80AEE28F8E43FF98E828F83124D1E8E26
:104E8300828F83A3A3A3A3E4F0F50A78081209FC95
:104E9300A80B124ED712327912107F74031209DD58
:104EA300EEFAEFFB901B19E0F91210AF79008014B2
:104EB300851882851983E50BF0791AAA18AB1912A4
:104EC3002381791A02378C745429F582E4342CF542
:104ED30083E49322746A28F582E4342CF583E49303
:104EE300FC7D0022C082C083E9901B19023B7C74C5
:104EF300F612048C74FE120A90EAFEEBFFEE5420C5
:104F030070378040A8A8C2AF901AC2E01412502B89
:104F1300F508E8A2E792AF8A828B83125022901B96
:104F23001C12504512238D851882851983E0641560
:104F330060077A1C7B1B1223B17ABC7B1A1210CD3B
:104F4300EA4B70C0EF54807012801C901B1C1250EF
:104F53004512238D7A1C7B1B1223B1901B19E0F998
:104F63001210BBEA4B70E4EE5410600E8518828574
:104F73001983742D12458512238DEEA2E0500E8500
:104F83001882851983742412458512238DEE5402E9
:104F9300600E851882851983742512458512238D29
:104FA300EE5404600E851882851983742612458594
:104FB30012238DEE5408600E851882851983742898
:104FC30012458512238DEE544060107401120CD0EB
:104FD30012602D742C12458512238DEE54806010BF
:104FE3007401120CD012602D742F12458512238D7B
:104FF300901B1A124DC86020A8A8C2AF901B1A12AA
:105003005035901B1AE4F0A312504B125044122354
:105013008D7A1C7B1B1223B17A007B00024BEBE0E1
:10502300851882851983F022F0E8A2E7E433229001
:105033001AA112503922E0FAA3E0FB22A3A3A3A3EF
:10504300A3A3EAF0A3EBF02212502BFEE8A2E7920F
:10505300AF22C082C083901B1C125837EA687002CB
:10506300EB697007901B1CE4F0A3F00244F474F79F
:1050730012048CEAFEEBFFEE4F70031224E9A2AF99
:10508300E433F508C2AF8E828F83124DC86028E8DF
:1050930024FBFAE934FFFB901B1C126699E86C7041
:1050A30002E96D7007901B1CE4F0A3F08E828F83DE
:1050B300E4F0A3F012115702354BC082C083901B5A
:1050C3004374F9F0A37423F0A3740BF0A37424F0D6
:1050D300A37411F0A37424F0A374C7F0A37422F093
:1050E300A37417F0A37424F0A374C1F0A37422F083
:1050F300A374CDF0A37422F0901B517447F0A374F2
:1051030024F0A3741DF0A37424F0A37423F0A374F8
:1051130024F0A3742FF0A37424F0A37429F0A374D0
:1051230024F0901B42023B7BC082C0839004BAE010
:1051330064FE7003A3E0F470097CB17D0412123B9A
:1051430080158A828B83A3A3A3A3A3A3A3A374021F
:10515300F01252AD124D200244F4C082C083900479
:10516300C4C3E094FEA3E094FF4004790380027972
:10517300020244F4C082C0831252B88C828D83121F
:10518300526D687039740268701C8A828B83125165
:10519300C6E06870298A828B83A31251C6A3E06894
:1051A300701C7901801A7403687013EC2405FC5099
:1051B300010DEA2405FA50010B1212418002790015
:1051C3000244F4A3A3A3A3A3E0F88C828D83A3A337
:1051D300A3A3A32274F612048C7E00740A120CD0CB
:1051E300E0125261FF8A828B83A3A3A3A3A3A3A389
:1051F300A3E06F706474026F704E8A828B83C082E7
:10520300C08388828983A3A3A3A3A3E0F50888822C
:105213008983A3A3A3A3A3A3E0FBAA08D083D0827B
:10522300E06A7003A3E06B703088828983A3A3A331
:10523300E0FA88828983A3A3A3A3E0F9EA6C70024E
:10524300E96D70157E01801174036F700CE82405FD
:10525300FCE439FD121241E9FEEEF9025B75F8A395
:10526300E0F98882898312526D22A3E01313543F1D
:10527300540322C082C0838A828B83A3A3A3A3A3E4
:10528300A3A3A3E0640270141252ADE0687003A3F9
:10529300E06970047901800F7900800BEAFCEBFD73
:1052A3007AB17B041212350244F49004BA12583BCB
:1052B3008A828B83228A828B8312526DF82274EC4A
:1052C30012048CEAFEEBFF8C128D13750A008C829C
:1052D3008D83A3A3A3A3A3A3A3A3E0F510E9A2E74C
:1052E3005008750CFF750DFF80069004C01254FD25
:1052F300E9C2E7F511EE240E1243A8542060071209
:1053030054DE740880041254DEE41255055404601C
:10531300071254E6748080051254E6741012550582
:10532300541060061254B6E4800B9004CDE0C0E044
:105333001254B6D0E0125505A2E05003750A20546A
:105343000860067410450AF50A8E828F83A3A3E0D2
:1053530024FFF508A3E01243A1C39402E0400B64C9
:105363000B6005E0141232897403450AF50A750BC4
:10537300009004E0E0640170118E828F83A3A3A3E5
:10538300A3E0C394674003750B1085110E750F00DE
:10539300740E780E120B96E50F450BF50B74141271
:1053A3000CD0E0F50EA3E0F50F74026511700E90BA
:1053B30004C51232889004C41254F4801374036534
:1053C3001170121254C07CD47D04AA08FB12124738
:1053D3001254CD8004E5116028E5106014E50E65D4
:1053E3000C7004E50F650D70087440450AF50A80DA
:1053F30010850882850983E50D12550BE50C1232E1
:105403008F85100C750D00740A780C120B96E50D40
:10541300450BF50B74026510701585128285138395
:10542300A31232888512828513831254F480137475
:1054330003651070121254C0AC12AD13AA08FB120C
:1054430012471254CD8004E5106010850882850947
:1054530083E50F12550BE50E12328FA808A909E850
:1054630024FFF508E91243A170059004B08003906E
:1054730004BCE0FA04F0EA8882898312427FE50BD8
:1054830012550BE50AF0EE2404F8E43FF9122F75E8
:10549300AC088A828B83E0F50A88828983E0250A37
:1054A300C39C125855ECF0A3E5091259D1E4F0F965
:1054B300022CDAEE2412F582E43FF58322E5082478
:1054C300F9F508E50934FFF509221254D122E5085C
:1054D30024FFF508E50934FFF50922EE1241613F87
:1054E300F583221254EA22EE2411F582E43FF58378
:1054F30022E0850882850983F022E0F50CA3E0F51C
:105503000D22F0124316E022123293850882F583AE
:105513002274EE12048C890A8A0B8C108D11750C7F
:105523001A7416120CD012626CAA08FB1222678A34
:105533000E8B0FAE0EAF0FEE4F60607414120CD0D3
:105543001255A5E8F0A3E9122E8BE50AF085080CA5
:1055530085090D750E00780C1209FC1232751210B4
:105563007F74031209DD7412120CD0120855AC10AB
:10557300AD11A90BEEFAEFFB1223DB74021209DD66
:10558300E9F50C7016E50A24F9600314700612326B
:10559300FCD2E5F0EEFAEFFB1222BBA90C7F0A0264
:1055A3000753125C4A1243172274F612048C74F7E1
:1055B300120A90EAFEEBFF7801EE242F1243A86053
:1055C300027805124312E8122E887404125605124B
:1055D300123BEE242C122E56242E125612120A00BF
:1055E3007402120A7079031A1AEFFB1223DB740296
:1055F3001209DDE9F5087007EEFAEFFB1222BB0290
:105603005B6EF0EE2423FCE43FFDAA18AB1922F5F0
:1056130082E43FF583122FA0124B1F04F078082277
:1056230074F212048C8A088B09ECFEEDFF8A828BDC
:10563300837405F0EE24321243A88A828B83A3A3DA
:10564300F0EA2403F50AE43509F50B850A82F583AC
:105653001254FD125801120C89E50C124137350D15
:10566300F583120C7D12580BAA0CAB0D12123B855D
:105673000A82850B83125C42FAA3E0FB888289834A
:10568300A3A3A312503FEE242F1243A8C0E0125845
:1056930020D0E012585F2415F582E438F583E41234
:1056A300585F125813E412586A850A82850B83E007
:1056B3002416FAA3E03400FB1223F38E828F83A314
:1056C300A3A3A3A3A3A3E0C0E0850A82850B83124F
:1056D3005844240DF582E438F583D0E012584EFA8D
:1056E300A3E0FB850A82850B83125837E8240BFC61
:1056F300E439FD8A828B83E08C828D83F0A3E412EC
:105703005877E0F50B8C828D83A3E0450B12585537
:10571300A3E0FCA30A0AAB83A2E7E433C0E0E824D6
:105723000FF582E439F583D0E0F074075C60047808
:10573300018002780075F00374075CA428F8EA2856
:10574300FAE43BFBE5082405F8E43509F98A828B82
:1057530083122FA012587785088285098312503F40
:1057630088828983E0F50A540725E0FCE50AC454DE
:105773000F5407F50A750B007403780A120B96ECA5
:10578300250AF8EA28F8E43BF9850882850983A30A
:10579300A3A3A3A3A3A3A3A3E8F0A3E9124B1BFA18
:1057A3008E828F83A3A3E02AFAA3E03400FBC3EA2B
:1057B30098EB9940308E828F83A3A3E0F88508820B
:1057C300850983A3A3A3A3A3A3A3A3A3E0FA8E8220
:1057D3008F83A3A3A3A3E0C39A28850882850983A3
:1057E300A3A3A38010850882850983A3A3A3A3A3EE
:1057F300A3A312427DA3A3A3A3A3F0023791EE2494
:1058030025F582E43FF58322EE2413FCE43FFD22D9
:1058130012581722240EF582E438F58322125824F5
:1058230022E82410F582E439F58322A3A3A3A3A3DA
:10583300A3A3A3A312583B22E0F8A3E0F922901AF2
:10584300C312584822E0F8A3E0C822125A63A3A364
:10585300E02212585922F08A828B8322F0850A8231
:10586300850B8312584822F012586F22EE2408FC4D
:10587300E43FFD22125859A3AA82AB832274F51286
:10588300048C8C088D09750A0078081209FC7C0BBE
:105893007D000261CB0209AAC082C083791812235A
:1058A300810244F4C082C0838A828B83E0C3940B59
:1058B30050031223FF0244F4C082C083791980DEAF
:1058C30074F712048CEAFEEBFF901B1A124DC860AA
:1058D30010901B1A12503512240B7A1A7B1B1223B9
:1058E300B1EEFAEFFB1223AB901B1AEEF0A3EF809D
:1058F30002F0A3F00247AE74F712048C74DE120AAE
:1059030090EAFEEBFF8E828F83E024FD601124FE7C
:10591300601524ED600924FA600D14600A803D745B
:1059230016120CD0E480077416120CD07401F01216
:105933003F39740B120CD0AA82AB83121247741333
:10594300120CD01259D6120CD0124D20740A120C1C
:10595300D01259E2120CD0124D2080427416120C50
:10596300D07402F012580B740B120CD0AA82AB83C2
:105973001212477413120CD01259D6120CD0124DB6
:1059830020740A120CD01259E2120CD0122E6A1291
:1059930058707417120CD0AA82AB831223F38518A4
:1059A30082851983740B1259D1E0C0E07401120C83
:1059B300D0D0E012586A7417120CD0AA82AB8312AB
:1059C30023F3AA18AB1912187174220236FA125A69
:1059D30063A3227403F09004C412583B740222742C
:1059E30002F09004C012583B74142274F712048C12
:1059F300EAFEEBFF8E828F83A3E0F5087036EE2478
:105A03002C125A697003A3E06960037508E8EE2459
:105A130023FAE43FFB1223D5E96032EE242FF5820B
:105A2300E43FF583E4F0E508700AEEFAEFFB122396
:105A3300E7E9F508E50860128E828F83A3E5081273
:105A43005A63741912471212238D0247AEEE242FA4
:105A53001243A860D1901B41E070CB7508E880D851
:105A6300F08E828F8322F582E43FF58312583B90B8
:105A730004C0E06822C082C08374F1120A907402E9
:105A8300120CD07404125855A3E0C0E07403120C36
:105A9300D0D0E0F0EA242CF582E43BF583125837AA
:105AA300740D120CD0124D20EA2423FCE43BFD7448
:105AB30004120CD0AA82AB8312123B7404120CD0D2
:105AC300AA82AB831223D5E9600E125AE8120E158F
:105AD3009004BA74FFF0A3F07402120A68121871EA
:105AE300740F023C0185188285198374FFF0A3F0BB
:105AF300AA18AB1979532274F612048C74E8120AAB
:105B0300908A088B097402120CD07403F0EA2413F0
:105B1300FEE43509FFEEFCEFFD7404120CD0AA82FB
:105B2300AB831212471233CBC0E0740C120CD0D0EB
:105B3300E0F0E5082408FCE43509FD740D120CD0EF
